{
  "_format": "hh-sol-artifact-1",
  "contractName": "DToken",
  "sourceName": "contracts/DToken.sol",
  "abi": [
    {
      "inputs": [
        {
          "internalType": "string",
          "name": "name_",
          "type": "string"
        },
        {
          "internalType": "string",
          "name": "symbol_",
          "type": "string"
        },
        {
          "internalType": "address",
          "name": "underlying_",
          "type": "address"
        },
        {
          "internalType": "uint256",
          "name": "ltv_",
          "type": "uint256"
        },
        {
          "internalType": "uint256",
          "name": "threshold_",
          "type": "uint256"
        },
        {
          "internalType": "uint256",
          "name": "incentive_",
          "type": "uint256"
        },
        {
          "internalType": "address",
          "name": "oracle_",
          "type": "address"
        },
        {
          "internalType": "address",
          "name": "demu_",
          "type": "address"
        },
        {
          "internalType": "address",
          "name": "feesCollector_",
          "type": "address"
        }
      ],
      "stateMutability": "nonpayable",
      "type": "constructor"
    },
    {
      "anonymous": false,
      "inputs": [
        {
          "indexed": true,
          "internalType": "address",
          "name": "owner",
          "type": "address"
        },
        {
          "indexed": true,
          "internalType": "address",
          "name": "spender",
          "type": "address"
        },
        {
          "indexed": false,
          "internalType": "uint256",
          "name": "value",
          "type": "uint256"
        }
      ],
      "name": "Approval",
      "type": "event"
    },
    {
      "anonymous": false,
      "inputs": [
        {
          "indexed": true,
          "internalType": "address",
          "name": "caller",
          "type": "address"
        },
        {
          "indexed": true,
          "internalType": "address",
          "name": "receiver",
          "type": "address"
        },
        {
          "indexed": false,
          "internalType": "uint256",
          "name": "amount",
          "type": "uint256"
        }
      ],
      "name": "FlashLoan",
      "type": "event"
    },
    {
      "anonymous": false,
      "inputs": [
        {
          "indexed": true,
          "internalType": "address",
          "name": "caller",
          "type": "address"
        },
        {
          "indexed": true,
          "internalType": "address",
          "name": "account",
          "type": "address"
        }
      ],
      "name": "Liquidate",
      "type": "event"
    },
    {
      "anonymous": false,
      "inputs": [
        {
          "indexed": true,
          "internalType": "address",
          "name": "src",
          "type": "address"
        },
        {
          "indexed": false,
          "internalType": "uint256",
          "name": "amt",
          "type": "uint256"
        }
      ],
      "name": "Supply",
      "type": "event"
    },
    {
      "anonymous": false,
      "inputs": [
        {
          "indexed": true,
          "internalType": "address",
          "name": "from",
          "type": "address"
        },
        {
          "indexed": true,
          "internalType": "address",
          "name": "to",
          "type": "address"
        },
        {
          "indexed": false,
          "internalType": "uint256",
          "name": "value",
          "type": "uint256"
        }
      ],
      "name": "Transfer",
      "type": "event"
    },
    {
      "anonymous": false,
      "inputs": [
        {
          "indexed": true,
          "internalType": "address",
          "name": "src",
          "type": "address"
        },
        {
          "indexed": false,
          "internalType": "uint256",
          "name": "amt",
          "type": "uint256"
        }
      ],
      "name": "Withdraw",
      "type": "event"
    },
    {
      "inputs": [
        {
          "internalType": "address",
          "name": "owner",
          "type": "address"
        },
        {
          "internalType": "address",
          "name": "spender",
          "type": "address"
        }
      ],
      "name": "allowance",
      "outputs": [
        {
          "internalType": "uint256",
          "name": "",
          "type": "uint256"
        }
      ],
      "stateMutability": "view",
      "type": "function"
    },
    {
      "inputs": [
        {
          "internalType": "address",
          "name": "spender",
          "type": "address"
        },
        {
          "internalType": "uint256",
          "name": "amount",
          "type": "uint256"
        }
      ],
      "name": "approve",
      "outputs": [
        {
          "internalType": "bool",
          "name": "",
          "type": "bool"
        }
      ],
      "stateMutability": "nonpayable",
      "type": "function"
    },
    {
      "inputs": [
        {
          "internalType": "address",
          "name": "account",
          "type": "address"
        }
      ],
      "name": "balanceOf",
      "outputs": [
        {
          "internalType": "uint256",
          "name": "",
          "type": "uint256"
        }
      ],
      "stateMutability": "view",
      "type": "function"
    },
    {
      "inputs": [
        {
          "internalType": "uint256",
          "name": "amount",
          "type": "uint256"
        }
      ],
      "name": "burnDemu",
      "outputs": [],
      "stateMutability": "nonpayable",
      "type": "function"
    },
    {
      "inputs": [
        {
          "internalType": "address",
          "name": "account",
          "type": "address"
        }
      ],
      "name": "collateralValue",
      "outputs": [
        {
          "internalType": "uint256",
          "name": "",
          "type": "uint256"
        }
      ],
      "stateMutability": "view",
      "type": "function"
    },
    {
      "inputs": [
        {
          "internalType": "address",
          "name": "",
          "type": "address"
        }
      ],
      "name": "debt",
      "outputs": [
        {
          "internalType": "uint256",
          "name": "",
          "type": "uint256"
        }
      ],
      "stateMutability": "view",
      "type": "function"
    },
    {
      "inputs": [
        {
          "internalType": "address",
          "name": "account",
          "type": "address"
        }
      ],
      "name": "debtValue",
      "outputs": [
        {
          "internalType": "uint256",
          "name": "",
          "type": "uint256"
        }
      ],
      "stateMutability": "view",
      "type": "function"
    },
    {
      "inputs": [],
      "name": "decimals",
      "outputs": [
        {
          "internalType": "uint8",
          "name": "",
          "type": "uint8"
        }
      ],
      "stateMutability": "view",
      "type": "function"
    },
    {
      "inputs": [
        {
          "internalType": "address",
          "name": "spender",
          "type": "address"
        },
        {
          "internalType": "uint256",
          "name": "subtractedValue",
          "type": "uint256"
        }
      ],
      "name": "decreaseAllowance",
      "outputs": [
        {
          "internalType": "bool",
          "name": "",
          "type": "bool"
        }
      ],
      "stateMutability": "nonpayable",
      "type": "function"
    },
    {
      "inputs": [],
      "name": "demu",
      "outputs": [
        {
          "internalType": "contract IDemu",
          "name": "",
          "type": "address"
        }
      ],
      "stateMutability": "view",
      "type": "function"
    },
    {
      "inputs": [],
      "name": "demuPrice",
      "outputs": [
        {
          "internalType": "uint256",
          "name": "",
          "type": "uint256"
        }
      ],
      "stateMutability": "view",
      "type": "function"
    },
    {
      "inputs": [
        {
          "internalType": "address",
          "name": "token",
          "type": "address"
        },
        {
          "internalType": "uint256",
          "name": "amount",
          "type": "uint256"
        }
      ],
      "name": "flashFee",
      "outputs": [
        {
          "internalType": "uint256",
          "name": "",
          "type": "uint256"
        }
      ],
      "stateMutability": "view",
      "type": "function"
    },
    {
      "inputs": [
        {
          "internalType": "contract IERC3156FlashBorrower",
          "name": "receiver",
          "type": "address"
        },
        {
          "internalType": "address",
          "name": "token",
          "type": "address"
        },
        {
          "internalType": "uint256",
          "name": "amount",
          "type": "uint256"
        },
        {
          "internalType": "bytes",
          "name": "data",
          "type": "bytes"
        }
      ],
      "name": "flashLoan",
      "outputs": [
        {
          "internalType": "bool",
          "name": "",
          "type": "bool"
        }
      ],
      "stateMutability": "nonpayable",
      "type": "function"
    },
    {
      "inputs": [
        {
          "internalType": "address",
          "name": "spender",
          "type": "address"
        },
        {
          "internalType": "uint256",
          "name": "addedValue",
          "type": "uint256"
        }
      ],
      "name": "increaseAllowance",
      "outputs": [
        {
          "internalType": "bool",
          "name": "",
          "type": "bool"
        }
      ],
      "stateMutability": "nonpayable",
      "type": "function"
    },
    {
      "inputs": [
        {
          "components": [
            {
              "internalType": "address",
              "name": "account",
              "type": "address"
            },
            {
              "internalType": "bool",
              "name": "withdraw",
              "type": "bool"
            },
            {
              "internalType": "address",
              "name": "receiver",
              "type": "address"
            }
          ],
          "internalType": "struct DToken.LiquidationParams",
          "name": "params",
          "type": "tuple"
        }
      ],
      "name": "liquidate",
      "outputs": [],
      "stateMutability": "nonpayable",
      "type": "function"
    },
    {
      "inputs": [],
      "name": "liquidationIncentive",
      "outputs": [
        {
          "internalType": "uint256",
          "name": "",
          "type": "uint256"
        }
      ],
      "stateMutability": "view",
      "type": "function"
    },
    {
      "inputs": [],
      "name": "liquidationThreshold",
      "outputs": [
        {
          "internalType": "uint256",
          "name": "",
          "type": "uint256"
        }
      ],
      "stateMutability": "view",
      "type": "function"
    },
    {
      "inputs": [],
      "name": "ltv",
      "outputs": [
        {
          "internalType": "uint256",
          "name": "",
          "type": "uint256"
        }
      ],
      "stateMutability": "view",
      "type": "function"
    },
    {
      "inputs": [
        {
          "internalType": "address",
          "name": "account",
          "type": "address"
        }
      ],
      "name": "maxDebt",
      "outputs": [
        {
          "internalType": "uint256",
          "name": "",
          "type": "uint256"
        }
      ],
      "stateMutability": "view",
      "type": "function"
    },
    {
      "inputs": [
        {
          "internalType": "address",
          "name": "token",
          "type": "address"
        }
      ],
      "name": "maxFlashLoan",
      "outputs": [
        {
          "internalType": "uint256",
          "name": "",
          "type": "uint256"
        }
      ],
      "stateMutability": "view",
      "type": "function"
    },
    {
      "inputs": [
        {
          "internalType": "address",
          "name": "account",
          "type": "address"
        }
      ],
      "name": "maxMintable",
      "outputs": [
        {
          "internalType": "uint256",
          "name": "",
          "type": "uint256"
        }
      ],
      "stateMutability": "view",
      "type": "function"
    },
    {
      "inputs": [
        {
          "internalType": "uint256",
          "name": "amount",
          "type": "uint256"
        }
      ],
      "name": "mintDemu",
      "outputs": [],
      "stateMutability": "nonpayable",
      "type": "function"
    },
    {
      "inputs": [
        {
          "internalType": "bytes[]",
          "name": "data",
          "type": "bytes[]"
        }
      ],
      "name": "multicall",
      "outputs": [
        {
          "internalType": "bytes[]",
          "name": "results",
          "type": "bytes[]"
        }
      ],
      "stateMutability": "nonpayable",
      "type": "function"
    },
    {
      "inputs": [],
      "name": "name",
      "outputs": [
        {
          "internalType": "string",
          "name": "",
          "type": "string"
        }
      ],
      "stateMutability": "view",
      "type": "function"
    },
    {
      "inputs": [],
      "name": "oracle",
      "outputs": [
        {
          "internalType": "address",
          "name": "",
          "type": "address"
        }
      ],
      "stateMutability": "view",
      "type": "function"
    },
    {
      "inputs": [
        {
          "internalType": "uint256",
          "name": "amount",
          "type": "uint256"
        }
      ],
      "name": "supply",
      "outputs": [],
      "stateMutability": "nonpayable",
      "type": "function"
    },
    {
      "inputs": [
        {
          "internalType": "uint256",
          "name": "amount",
          "type": "uint256"
        },
        {
          "internalType": "uint256",
          "name": "deadline",
          "type": "uint256"
        },
        {
          "internalType": "uint8",
          "name": "v",
          "type": "uint8"
        },
        {
          "internalType": "bytes32",
          "name": "r",
          "type": "bytes32"
        },
        {
          "internalType": "bytes32",
          "name": "s",
          "type": "bytes32"
        }
      ],
      "name": "supplyWithPermit",
      "outputs": [],
      "stateMutability": "nonpayable",
      "type": "function"
    },
    {
      "inputs": [],
      "name": "symbol",
      "outputs": [
        {
          "internalType": "string",
          "name": "",
          "type": "string"
        }
      ],
      "stateMutability": "view",
      "type": "function"
    },
    {
      "inputs": [],
      "name": "totalSupply",
      "outputs": [
        {
          "internalType": "uint256",
          "name": "",
          "type": "uint256"
        }
      ],
      "stateMutability": "view",
      "type": "function"
    },
    {
      "inputs": [
        {
          "internalType": "address",
          "name": "",
          "type": "address"
        },
        {
          "internalType": "uint256",
          "name": "",
          "type": "uint256"
        }
      ],
      "name": "transfer",
      "outputs": [
        {
          "internalType": "bool",
          "name": "",
          "type": "bool"
        }
      ],
      "stateMutability": "pure",
      "type": "function"
    },
    {
      "inputs": [
        {
          "internalType": "address",
          "name": "",
          "type": "address"
        },
        {
          "internalType": "address",
          "name": "",
          "type": "address"
        },
        {
          "internalType": "uint256",
          "name": "",
          "type": "uint256"
        }
      ],
      "name": "transferFrom",
      "outputs": [
        {
          "internalType": "bool",
          "name": "",
          "type": "bool"
        }
      ],
      "stateMutability": "pure",
      "type": "function"
    },
    {
      "inputs": [],
      "name": "underlying",
      "outputs": [
        {
          "internalType": "contract IERC20",
          "name": "",
          "type": "address"
        }
      ],
      "stateMutability": "view",
      "type": "function"
    },
    {
      "inputs": [],
      "name": "underlyingPrice",
      "outputs": [
        {
          "internalType": "uint256",
          "name": "",
          "type": "uint256"
        }
      ],
      "stateMutability": "view",
      "type": "function"
    },
    {
      "inputs": [
        {
          "internalType": "uint256",
          "name": "amount",
          "type": "uint256"
        }
      ],
      "name": "withdraw",
      "outputs": [],
      "stateMutability": "nonpayable",
      "type": "function"
    }
  ],
  "bytecode": "0x60a06040523480156200001157600080fd5b5060405162004905380380620049058339818101604052810190620000379190620002db565b88888160039080519060200190620000519291906200018b565b5080600490805190602001906200006a9291906200018b565b50505086600560006101000a81548173ffffffffffffffffffffffffffffffffffffffff021916908373ffffffffffffffffffffffffffffffffffffffff16021790555085600681905550846007819055508360088190555082600960006101000a81548173ffffffffffffffffffffffffffffffffffffffff021916908373ffffffffffffffffffffffffffffffffffffffff1602179055508173ffffffffffffffffffffffffffffffffffffffff1660808173ffffffffffffffffffffffffffffffffffffffff1660601b8152505080600a60006101000a81548173ffffffffffffffffffffffffffffffffffffffff021916908373ffffffffffffffffffffffffffffffffffffffff160217905550505050505050505050620005c8565b8280546200019990620004b9565b90600052602060002090601f016020900481019282620001bd576000855562000209565b82601f10620001d857805160ff191683800117855562000209565b8280016001018555821562000209579182015b8281111562000208578251825591602001919060010190620001eb565b5b5090506200021891906200021c565b5090565b5b80821115620002375760008160009055506001016200021d565b5090565b6000620002526200024c846200040f565b620003e6565b9050828152602081018484840111156200026b57600080fd5b6200027884828562000483565b509392505050565b600081519050620002918162000594565b92915050565b600082601f830112620002a957600080fd5b8151620002bb8482602086016200023b565b91505092915050565b600081519050620002d581620005ae565b92915050565b60008060008060008060008060006101208a8c031215620002fb57600080fd5b60008a015167ffffffffffffffff8111156200031657600080fd5b620003248c828d0162000297565b99505060208a015167ffffffffffffffff8111156200034257600080fd5b620003508c828d0162000297565b9850506040620003638c828d0162000280565b9750506060620003768c828d01620002c4565b9650506080620003898c828d01620002c4565b95505060a06200039c8c828d01620002c4565b94505060c0620003af8c828d0162000280565b93505060e0620003c28c828d0162000280565b925050610100620003d68c828d0162000280565b9150509295985092959850929598565b6000620003f262000405565b9050620004008282620004ef565b919050565b6000604051905090565b600067ffffffffffffffff8211156200042d576200042c62000554565b5b620004388262000583565b9050602081019050919050565b6000620004528262000459565b9050919050565b600073ffffffffffffffffffffffffffffffffffffffff82169050919050565b6000819050919050565b60005b83811015620004a357808201518184015260208101905062000486565b83811115620004b3576000848401525b50505050565b60006002820490506001821680620004d257607f821691505b60208210811415620004e957620004e862000525565b5b50919050565b620004fa8262000583565b810181811067ffffffffffffffff821117156200051c576200051b62000554565b5b80604052505050565b7f4e487b7100000000000000000000000000000000000000000000000000000000600052602260045260246000fd5b7f4e487b7100000000000000000000000000000000000000000000000000000000600052604160045260246000fd5b6000601f19601f8301169050919050565b6200059f8162000445565b8114620005ab57600080fd5b50565b620005b98162000479565b8114620005c557600080fd5b50565b60805160601c614309620005fc600039600081816107e301528181611037015281816118eb0152611bce01526143096000f3fe608060405234801561001057600080fd5b50600436106102055760003560e01c806370a082311161011a578063a457c2d7116100ad578063bef7f3651161007c578063bef7f36514610650578063d26aa68e14610680578063d9d98ce41461069c578063dd62ed3e146106cc578063efa32d49146106fc57610205565b8063a457c2d714610590578063a9059cbb146105c0578063ac9650d8146105f0578063b9637e491461062057610205565b806394e96dc9116100e957806394e96dc91461050657806395d89b4114610524578063966de33d146105425780639b6c56ec1461056057610205565b806370a082311461046a5780637544aa441461049a5780637dc0d1d0146104ca5780638c765e94146104e857610205565b8063395093511161019d5780635cffe9de1161016c5780635cffe9de1461039e5780635ed88ecf146103ce578063613255ab146103fe5780636f307dc31461042e5780636fb49d731461044c57610205565b806339509351146103185780634031234c1461034857806343553c4b1461036657806345fcc2aa1461038257610205565b806323b872dd116101d957806323b872dd146102925780632e1a7d4d146102c2578063313ce567146102de57806335403023146102fc57610205565b8062981f861461020a57806306fdde0314610226578063095ea7b31461024457806318160ddd14610274575b600080fd5b610224600480360381019061021f9190612e90565b61071a565b005b61022e610a87565b60405161023b9190613590565b60405180910390f35b61025e60048036038101906102599190612d14565b610b19565b60405161026b919061353f565b60405180910390f35b61027c610b3c565b60405161028991906137d2565b60405180910390f35b6102ac60048036038101906102a79190612cc5565b610b46565b6040516102b9919061353f565b60405180910390f35b6102dc60048036038101906102d79190612eb9565b610b4f565b005b6102e6610d67565b6040516102f391906137ed565b60405180910390f35b61031660048036038101906103119190612eb9565b610d70565b005b610332600480360381019061032d9190612d14565b610eea565b60405161033f919061353f565b60405180910390f35b610350610f21565b60405161035d91906137d2565b60405180910390f35b610380600480360381019061037b9190612eb9565b610f2b565b005b61039c60048036038101906103979190612f0b565b6110ce565b005b6103b860048036038101906103b39190612e10565b6112e5565b6040516103c5919061353f565b60405180910390f35b6103e860048036038101906103e39190612c60565b611544565b6040516103f591906137d2565b60405180910390f35b61041860048036038101906104139190612c60565b611580565b60405161042591906137d2565b60405180910390f35b6104366116c4565b6040516104439190613575565b60405180910390f35b6104546116ee565b60405161046191906137d2565b60405180910390f35b610484600480360381019061047f9190612c60565b6116f8565b60405161049191906137d2565b60405180910390f35b6104b460048036038101906104af9190612c60565b611740565b6040516104c191906137d2565b60405180910390f35b6104d261177c565b6040516104df91906133d7565b60405180910390f35b6104f06117a6565b6040516104fd91906137d2565b60405180910390f35b61050e6117b0565b60405161051b91906137d2565b60405180910390f35b61052c611857565b6040516105399190613590565b60405180910390f35b61054a6118e9565b604051610557919061355a565b60405180910390f35b61057a60048036038101906105759190612c60565b61190d565b60405161058791906137d2565b60405180910390f35b6105aa60048036038101906105a59190612d14565b611925565b6040516105b7919061353f565b60405180910390f35b6105da60048036038101906105d59190612d14565b61199c565b6040516105e7919061353f565b60405180910390f35b61060a60048036038101906106059190612d50565b6119a4565b604051610617919061351d565b60405180910390f35b61063a60048036038101906106359190612c60565b611b22565b60405161064791906137d2565b60405180910390f35b61066a60048036038101906106659190612c60565b611b90565b60405161067791906137d2565b60405180910390f35b61069a60048036038101906106959190612eb9565b611bcc565b005b6106b660048036038101906106b19190612d14565b611cc0565b6040516106c391906137d2565b60405180910390f35b6106e660048036038101906106e19190612c89565b611d69565b6040516106f391906137d2565b60405180910390f35b610704611df0565b60405161071191906137d2565b60405180910390f35b60006107378260000160208101906107329190612c60565b611b90565b90506000600b60008460000160208101906107529190612c60565b73ffffffffffffffffffffffffffffffffffffffff1673ffffffffffffffffffffffffffffffffffffffff1681526020019081526020016000205490508181116107d1576040517f08c379a00000000000000000000000000000000000000000000000000000000081526004016107c890613692565b60405180910390fd5b600082826107df9190613b3e565b90507f000000000000000000000000000000000000000000000000000000000000000073ffffffffffffffffffffffffffffffffffffffff16639dc29fac610825611ec4565b836040518363ffffffff1660e01b81526004016108439291906134f4565b600060405180830381600087803b15801561085d57600080fd5b505af1158015610871573d6000803e3d6000fd5b50505050600061087f6117b0565b8261088a9190613ae4565b90506000610896611df0565b826108a19190613942565b90506000670de0b6b3a7640000600854670de0b6b3a76400006108c491906138ec565b836108cf9190613ae4565b6108d99190613942565b90506108ff8760000160208101906108f19190612c60565b6108f9611ec4565b83611ecc565b8660200160208101906109129190612d95565b1561098857610928610922611ec4565b8261214d565b61098787604001602081019061093e9190612c60565b82600560009054906101000a900473ffffffffffffffffffffffffffffffffffffffff1673ffffffffffffffffffffffffffffffffffffffff166123249092919063ffffffff16565b5b600066b1a2bc2ec5000090506000670de0b6b3a764000082670de0b6b3a76400006109b391906138ec565b856109be9190613ae4565b6109c89190613942565b9050610a098960000160208101906109e09190612c60565b600a60009054906101000a900473ffffffffffffffffffffffffffffffffffffffff1683611ecc565b886000016020810190610a1c9190612c60565b73ffffffffffffffffffffffffffffffffffffffff16610a3a611ec4565b73ffffffffffffffffffffffffffffffffffffffff167fc3d81b2125598b9a2b024afe09e33981f0aa5b7bcbe3e30c4303a4dec209ddb460405160405180910390a3505050505050505050565b606060038054610a9690613ca1565b80601f0160208091040260200160405190810160405280929190818152602001828054610ac290613ca1565b8015610b0f5780601f10610ae457610100808354040283529160200191610b0f565b820191906000526020600020905b815481529060010190602001808311610af257829003601f168201915b5050505050905090565b600080610b24611ec4565b9050610b318185856123aa565b600191505092915050565b6000600254905090565b60009392505050565b610b60610b5a611ec4565b8261214d565b610c713033600560009054906101000a900473ffffffffffffffffffffffffffffffffffffffff1673ffffffffffffffffffffffffffffffffffffffff1663313ce5676040518163ffffffff1660e01b815260040160206040518083038186803b158015610bcd57600080fd5b505afa158015610be1573d6000803e3d6000fd5b505050506040513d601f19601f82011682018060405250810190610c059190612f82565b6012610c119190613b72565b600a610c1d91906139c6565b84610c289190613942565b600560009054906101000a900473ffffffffffffffffffffffffffffffffffffffff1673ffffffffffffffffffffffffffffffffffffffff16612575909392919063ffffffff16565b6000610c83610c7e611ec4565b611b90565b9050600b6000610c91611ec4565b73ffffffffffffffffffffffffffffffffffffffff1673ffffffffffffffffffffffffffffffffffffffff16815260200190815260200160002054811115610d0e576040517f08c379a0000000000000000000000000000000000000000000000000000000008152600401610d0590613672565b60405180910390fd5b610d16611ec4565b73ffffffffffffffffffffffffffffffffffffffff167f884edad9ce6fa2440d8a54cc123490eb96d2768479d49ff9c7366125a942436483604051610d5b91906137d2565b60405180910390a25050565b60006012905090565b610dbf333083600560009054906101000a900473ffffffffffffffffffffffffffffffffffffffff1673ffffffffffffffffffffffffffffffffffffffff16612575909392919063ffffffff16565b610e92610dca611ec4565b600560009054906101000a900473ffffffffffffffffffffffffffffffffffffffff1673ffffffffffffffffffffffffffffffffffffffff1663313ce5676040518163ffffffff1660e01b815260040160206040518083038186803b158015610e3257600080fd5b505afa158015610e46573d6000803e3d6000fd5b505050506040513d601f19601f82011682018060405250810190610e6a9190612f82565b6012610e769190613b72565b600a610e8291906139c6565b83610e8d9190613ae4565b6125fe565b610e9a611ec4565b73ffffffffffffffffffffffffffffffffffffffff167fadacf827efe383160192c092d8658471945c074229a9746679b5e2b74adff19182604051610edf91906137d2565b60405180910390a250565b600080610ef5611ec4565b9050610f16818585610f078589611d69565b610f1191906138ec565b6123aa565b600191505092915050565b6000600754905090565b6000600b6000610f39611ec4565b73ffffffffffffffffffffffffffffffffffffffff1673ffffffffffffffffffffffffffffffffffffffff1681526020019081526020016000205490506000610f88610f83611ec4565b611b90565b9050808383610f9791906138ec565b1115610fd8576040517f08c379a0000000000000000000000000000000000000000000000000000000008152600401610fcf90613692565b60405180910390fd5b82600b6000610fe5611ec4565b73ffffffffffffffffffffffffffffffffffffffff1673ffffffffffffffffffffffffffffffffffffffff168152602001908152602001600020600082825461102e91906138ec565b925050819055507f000000000000000000000000000000000000000000000000000000000000000073ffffffffffffffffffffffffffffffffffffffff166340c10f19611079611ec4565b856040518363ffffffff1660e01b81526004016110979291906134f4565b600060405180830381600087803b1580156110b157600080fd5b505af11580156110c5573d6000803e3d6000fd5b50505050505050565b600560009054906101000a900473ffffffffffffffffffffffffffffffffffffffff1673ffffffffffffffffffffffffffffffffffffffff1663d505accf333088888888886040518863ffffffff1660e01b81526004016111359796959493929190613485565b600060405180830381600087803b15801561114f57600080fd5b505af1158015611163573d6000803e3d6000fd5b505050506111b6333087600560009054906101000a900473ffffffffffffffffffffffffffffffffffffffff1673ffffffffffffffffffffffffffffffffffffffff16612575909392919063ffffffff16565b6112896111c1611ec4565b600560009054906101000a900473ffffffffffffffffffffffffffffffffffffffff1673ffffffffffffffffffffffffffffffffffffffff1663313ce5676040518163ffffffff1660e01b815260040160206040518083038186803b15801561122957600080fd5b505afa15801561123d573d6000803e3d6000fd5b505050506040513d601f19601f820116820180604052508101906112619190612f82565b601261126d9190613b72565b600a61127991906139c6565b876112849190613ae4565b6125fe565b611291611ec4565b73ffffffffffffffffffffffffffffffffffffffff167fadacf827efe383160192c092d8658471945c074229a9746679b5e2b74adff191866040516112d691906137d2565b60405180910390a25050505050565b6000600560009054906101000a900473ffffffffffffffffffffffffffffffffffffffff1673ffffffffffffffffffffffffffffffffffffffff168573ffffffffffffffffffffffffffffffffffffffff1614611377576040517f08c379a000000000000000000000000000000000000000000000000000000000815260040161136e90613772565b60405180910390fd5b8573ffffffffffffffffffffffffffffffffffffffff16611396611ec4565b73ffffffffffffffffffffffffffffffffffffffff167fc76f1b4fe4396ac07a9fa55a415d4ca430e72651d37d3401f3bed7cb13fc4f12866040516113db91906137d2565b60405180910390a36000611411600560009054906101000a900473ffffffffffffffffffffffffffffffffffffffff1686611cc0565b90507f439148f0bbc682ca079e46d6e2c2f0c1e3b820f1a291b069d8882abf8cf18dd98773ffffffffffffffffffffffffffffffffffffffff166323e30c8b338989868a8a6040518763ffffffff1660e01b815260040161147796959493929190613429565b602060405180830381600087803b15801561149157600080fd5b505af11580156114a5573d6000803e3d6000fd5b505050506040513d601f19601f820116820180604052508101906114c99190612de7565b14611509576040517f08c379a0000000000000000000000000000000000000000000000000000000008152600401611500906135f2565b60405180910390fd5b61153630600a60009054906101000a900473ffffffffffffffffffffffffffffffffffffffff1683611ecc565b600191505095945050505050565b60008061155083611740565b9050600060065490506115616117b0565b818361156d9190613ae4565b6115779190613942565b92505050919050565b6000600560009054906101000a900473ffffffffffffffffffffffffffffffffffffffff1673ffffffffffffffffffffffffffffffffffffffff168273ffffffffffffffffffffffffffffffffffffffff1614611612576040517f08c379a000000000000000000000000000000000000000000000000000000000815260040161160990613772565b60405180910390fd5b600560009054906101000a900473ffffffffffffffffffffffffffffffffffffffff1673ffffffffffffffffffffffffffffffffffffffff166370a08231306040518263ffffffff1660e01b815260040161166d91906133d7565b60206040518083038186803b15801561168557600080fd5b505afa158015611699573d6000803e3d6000fd5b505050506040513d601f19601f820116820180604052508101906116bd9190612ee2565b9050919050565b6000600560009054906101000a900473ffffffffffffffffffffffffffffffffffffffff16905090565b6000600654905090565b60008060008373ffffffffffffffffffffffffffffffffffffffff1673ffffffffffffffffffffffffffffffffffffffff168152602001908152602001600020549050919050565b60008061174c836116f8565b9050670de0b6b3a764000061175f611df0565b8261176a9190613ae4565b6117749190613942565b915050919050565b6000600960009054906101000a900473ffffffffffffffffffffffffffffffffffffffff16905090565b6000600854905090565b6000600960009054906101000a900473ffffffffffffffffffffffffffffffffffffffff1673ffffffffffffffffffffffffffffffffffffffff1663c548fb5d6040518163ffffffff1660e01b815260040160206040518083038186803b15801561181a57600080fd5b505afa15801561182e573d6000803e3d6000fd5b505050506040513d601f19601f820116820180604052508101906118529190612ee2565b905090565b60606004805461186690613ca1565b80601f016020809104026020016040519081016040528092919081815260200182805461189290613ca1565b80156118df5780601f106118b4576101008083540402835291602001916118df565b820191906000526020600020905b8154815290600101906020018083116118c257829003601f168201915b5050505050905090565b7f000000000000000000000000000000000000000000000000000000000000000081565b600b6020528060005260406000206000915090505481565b600080611930611ec4565b9050600061193e8286611d69565b905083811015611983576040517f08c379a000000000000000000000000000000000000000000000000000000000815260040161197a90613792565b60405180910390fd5b61199082868684036123aa565b60019250505092915050565b600092915050565b60608282905067ffffffffffffffff8111156119e9577f4e487b7100000000000000000000000000000000000000000000000000000000600052604160045260246000fd5b604051908082528060200260200182016040528015611a1c57816020015b6060815260200190600190039081611a075790505b50905060005b83839050811015611b1b57611ac430858584818110611a6a577f4e487b7100000000000000000000000000000000000000000000000000000000600052603260045260246000fd5b9050602002810190611a7c9190613808565b8080601f016020809104026020016040519081016040528093929190818152602001838380828437600081840152601f19601f8201169050808301925050505050505061275e565b828281518110611afd577f4e487b7100000000000000000000000000000000000000000000000000000000600052603260045260246000fd5b60200260200101819052508080611b1390613cd3565b915050611a22565b5092915050565b6000670de0b6b3a7640000611b356117b0565b600b60008573ffffffffffffffffffffffffffffffffffffffff1673ffffffffffffffffffffffffffffffffffffffff16815260200190815260200160002054611b7f9190613ae4565b611b899190613942565b9050919050565b600080611b9c83611740565b905060006007549050611bad6117b0565b8183611bb99190613ae4565b611bc39190613942565b92505050919050565b7f000000000000000000000000000000000000000000000000000000000000000073ffffffffffffffffffffffffffffffffffffffff16639dc29fac611c10611ec4565b836040518363ffffffff1660e01b8152600401611c2e9291906134f4565b600060405180830381600087803b158015611c4857600080fd5b505af1158015611c5c573d6000803e3d6000fd5b5050505080600b6000611c6d611ec4565b73ffffffffffffffffffffffffffffffffffffffff1673ffffffffffffffffffffffffffffffffffffffff1681526020019081526020016000206000828254611cb69190613b3e565b9250508190555050565b6000600560009054906101000a900473ffffffffffffffffffffffffffffffffffffffff1673ffffffffffffffffffffffffffffffffffffffff168373ffffffffffffffffffffffffffffffffffffffff1614611d52576040517f08c379a0000000000000000000000000000000000000000000000000000000008152600401611d4990613772565b60405180910390fd5b620186a082611d619190613942565b905092915050565b6000600160008473ffffffffffffffffffffffffffffffffffffffff1673ffffffffffffffffffffffffffffffffffffffff16815260200190815260200160002060008373ffffffffffffffffffffffffffffffffffffffff1673ffffffffffffffffffffffffffffffffffffffff16815260200190815260200160002054905092915050565b6000600960009054906101000a900473ffffffffffffffffffffffffffffffffffffffff1673ffffffffffffffffffffffffffffffffffffffff1663b2f1ee3b600560009054906101000a900473ffffffffffffffffffffffffffffffffffffffff166040518263ffffffff1660e01b8152600401611e6f91906133d7565b60206040518083038186803b158015611e8757600080fd5b505afa158015611e9b573d6000803e3d6000fd5b505050506040513d601f19601f82011682018060405250810190611ebf9190612ee2565b905090565b600033905090565b600073ffffffffffffffffffffffffffffffffffffffff168373ffffffffffffffffffffffffffffffffffffffff161415611f3c576040517f08c379a0000000000000000000000000000000000000000000000000000000008152600401611f33906136f2565b60405180910390fd5b600073ffffffffffffffffffffffffffffffffffffffff168273ffffffffffffffffffffffffffffffffffffffff161415611fac576040517f08c379a0000000000000000000000000000000000000000000000000000000008152600401611fa3906135b2565b60405180910390fd5b611fb783838361278b565b60008060008573ffffffffffffffffffffffffffffffffffffffff1673ffffffffffffffffffffffffffffffffffffffff1681526020019081526020016000205490508181101561203d576040517f08c379a000000000000000000000000000000000000000000000000000000000815260040161203490613632565b60405180910390fd5b8181036000808673ffffffffffffffffffffffffffffffffffffffff1673ffffffffffffffffffffffffffffffffffffffff16815260200190815260200160002081905550816000808573ffffffffffffffffffffffffffffffffffffffff1673ffffffffffffffffffffffffffffffffffffffff16815260200190815260200160002060008282546120d091906138ec565b925050819055508273ffffffffffffffffffffffffffffffffffffffff168473ffffffffffffffffffffffffffffffffffffffff167fddf252ad1be2c89b69c2b068fc378daa952ba7f163c4a11628f55a4df523b3ef8460405161213491906137d2565b60405180910390a3612147848484612790565b50505050565b600073ffffffffffffffffffffffffffffffffffffffff168273ffffffffffffffffffffffffffffffffffffffff1614156121bd576040517f08c379a00000000000000000000000000000000000000000000000000000000081526004016121b4906136b2565b60405180910390fd5b6121c98260008361278b565b60008060008473ffffffffffffffffffffffffffffffffffffffff1673ffffffffffffffffffffffffffffffffffffffff1681526020019081526020016000205490508181101561224f576040517f08c379a0000000000000000000000000000000000000000000000000000000008152600401612246906135d2565b60405180910390fd5b8181036000808573ffffffffffffffffffffffffffffffffffffffff1673ffffffffffffffffffffffffffffffffffffffff1681526020019081526020016000208190555081600260008282546122a69190613b3e565b92505081905550600073ffffffffffffffffffffffffffffffffffffffff168373ffffffffffffffffffffffffffffffffffffffff167fddf252ad1be2c89b69c2b068fc378daa952ba7f163c4a11628f55a4df523b3ef8460405161230b91906137d2565b60405180910390a361231f83600084612790565b505050565b6123a58363a9059cbb60e01b84846040516024016123439291906134f4565b604051602081830303815290604052907bffffffffffffffffffffffffffffffffffffffffffffffffffffffff19166020820180517bffffffffffffffffffffffffffffffffffffffffffffffffffffffff8381831617835250505050612795565b505050565b600073ffffffffffffffffffffffffffffffffffffffff168373ffffffffffffffffffffffffffffffffffffffff16141561241a576040517f08c379a000000000000000000000000000000000000000000000000000000000815260040161241190613712565b60405180910390fd5b600073ffffffffffffffffffffffffffffffffffffffff168273ffffffffffffffffffffffffffffffffffffffff16141561248a576040517f08c379a000000000000000000000000000000000000000000000000000000000815260040161248190613612565b60405180910390fd5b80600160008573ffffffffffffffffffffffffffffffffffffffff1673ffffffffffffffffffffffffffffffffffffffff16815260200190815260200160002060008473ffffffffffffffffffffffffffffffffffffffff1673ffffffffffffffffffffffffffffffffffffffff168152602001908152602001600020819055508173ffffffffffffffffffffffffffffffffffffffff168373ffffffffffffffffffffffffffffffffffffffff167f8c5be1e5ebec7d5bd14f71427d1e84f3dd0314c0f7b2291e5b200ac8c7c3b9258360405161256891906137d2565b60405180910390a3505050565b6125f8846323b872dd60e01b858585604051602401612596939291906133f2565b604051602081830303815290604052907bffffffffffffffffffffffffffffffffffffffffffffffffffffffff19166020820180517bffffffffffffffffffffffffffffffffffffffffffffffffffffffff8381831617835250505050612795565b50505050565b600073ffffffffffffffffffffffffffffffffffffffff168273ffffffffffffffffffffffffffffffffffffffff16141561266e576040517f08c379a0000000000000000000000000000000000000000000000000000000008152600401612665906137b2565b60405180910390fd5b61267a6000838361278b565b806002600082825461268c91906138ec565b92505081905550806000808473ffffffffffffffffffffffffffffffffffffffff1673ffffffffffffffffffffffffffffffffffffffff16815260200190815260200160002060008282546126e191906138ec565b925050819055508173ffffffffffffffffffffffffffffffffffffffff16600073ffffffffffffffffffffffffffffffffffffffff167fddf252ad1be2c89b69c2b068fc378daa952ba7f163c4a11628f55a4df523b3ef8360405161274691906137d2565b60405180910390a361275a60008383612790565b5050565b606061278383836040518060600160405280602781526020016142ad6027913961285c565b905092915050565b505050565b505050565b60006127f7826040518060400160405280602081526020017f5361666545524332303a206c6f772d6c6576656c2063616c6c206661696c65648152508573ffffffffffffffffffffffffffffffffffffffff166129299092919063ffffffff16565b905060008151111561285757808060200190518101906128179190612dbe565b612856576040517f08c379a000000000000000000000000000000000000000000000000000000000815260040161284d90613752565b60405180910390fd5b5b505050565b606061286784612941565b6128a6576040517f08c379a000000000000000000000000000000000000000000000000000000000815260040161289d906136d2565b60405180910390fd5b6000808573ffffffffffffffffffffffffffffffffffffffff16856040516128ce91906133c0565b600060405180830381855af49150503d8060008114612909576040519150601f19603f3d011682016040523d82523d6000602084013e61290e565b606091505b509150915061291e828286612964565b925050509392505050565b606061293884846000856129cb565b90509392505050565b6000808273ffffffffffffffffffffffffffffffffffffffff163b119050919050565b60608315612974578290506129c4565b6000835111156129875782518084602001fd5b816040517f08c379a00000000000000000000000000000000000000000000000000000000081526004016129bb9190613590565b60405180910390fd5b9392505050565b606082471015612a10576040517f08c379a0000000000000000000000000000000000000000000000000000000008152600401612a0790613652565b60405180910390fd5b612a1985612941565b612a58576040517f08c379a0000000000000000000000000000000000000000000000000000000008152600401612a4f90613732565b60405180910390fd5b6000808673ffffffffffffffffffffffffffffffffffffffff168587604051612a8191906133c0565b60006040518083038185875af1925050503d8060008114612abe576040519150601f19603f3d011682016040523d82523d6000602084013e612ac3565b606091505b5091509150612ad3828286612964565b92505050949350505050565b600081359050612aee81614222565b92915050565b60008083601f840112612b0657600080fd5b8235905067ffffffffffffffff811115612b1f57600080fd5b602083019150836020820283011115612b3757600080fd5b9250929050565b600081359050612b4d81614239565b92915050565b600081519050612b6281614239565b92915050565b600081359050612b7781614250565b92915050565b600081519050612b8c81614250565b92915050565b60008083601f840112612ba457600080fd5b8235905067ffffffffffffffff811115612bbd57600080fd5b602083019150836001820283011115612bd557600080fd5b9250929050565b600081359050612beb81614267565b92915050565b600060608284031215612c0357600080fd5b81905092915050565b600081359050612c1b8161427e565b92915050565b600081519050612c308161427e565b92915050565b600081359050612c4581614295565b92915050565b600081519050612c5a81614295565b92915050565b600060208284031215612c7257600080fd5b6000612c8084828501612adf565b91505092915050565b60008060408385031215612c9c57600080fd5b6000612caa85828601612adf565b9250506020612cbb85828601612adf565b9150509250929050565b600080600060608486031215612cda57600080fd5b6000612ce886828701612adf565b9350506020612cf986828701612adf565b9250506040612d0a86828701612c0c565b9150509250925092565b60008060408385031215612d2757600080fd5b6000612d3585828601612adf565b9250506020612d4685828601612c0c565b9150509250929050565b60008060208385031215612d6357600080fd5b600083013567ffffffffffffffff811115612d7d57600080fd5b612d8985828601612af4565b92509250509250929050565b600060208284031215612da757600080fd5b6000612db584828501612b3e565b91505092915050565b600060208284031215612dd057600080fd5b6000612dde84828501612b53565b91505092915050565b600060208284031215612df957600080fd5b6000612e0784828501612b7d565b91505092915050565b600080600080600060808688031215612e2857600080fd5b6000612e3688828901612bdc565b9550506020612e4788828901612adf565b9450506040612e5888828901612c0c565b935050606086013567ffffffffffffffff811115612e7557600080fd5b612e8188828901612b92565b92509250509295509295909350565b600060608284031215612ea257600080fd5b6000612eb084828501612bf1565b91505092915050565b600060208284031215612ecb57600080fd5b6000612ed984828501612c0c565b91505092915050565b600060208284031215612ef457600080fd5b6000612f0284828501612c21565b91505092915050565b600080600080600060a08688031215612f2357600080fd5b6000612f3188828901612c0c565b9550506020612f4288828901612c0c565b9450506040612f5388828901612c36565b9350506060612f6488828901612b68565b9250506080612f7588828901612b68565b9150509295509295909350565b600060208284031215612f9457600080fd5b6000612fa284828501612c4b565b91505092915050565b6000612fb7838361308e565b905092915050565b612fc881613ba6565b82525050565b6000612fd98261386f565b612fe3818561389d565b935083602082028501612ff58561385f565b8060005b8581101561303157848403895281516130128582612fab565b945061301d83613890565b925060208a01995050600181019050612ff9565b50829750879550505050505092915050565b61304c81613bb8565b82525050565b61305b81613bc4565b82525050565b600061306d83856138bf565b935061307a838584613c5f565b61308383613da9565b840190509392505050565b60006130998261387a565b6130a381856138ae565b93506130b3818560208601613c6e565b6130bc81613da9565b840191505092915050565b60006130d28261387a565b6130dc81856138d0565b93506130ec818560208601613c6e565b80840191505092915050565b61310181613c17565b82525050565b61311081613c3b565b82525050565b600061312182613885565b61312b81856138db565b935061313b818560208601613c6e565b61314481613da9565b840191505092915050565b600061315c6023836138db565b915061316782613dc7565b604082019050919050565b600061317f6022836138db565b915061318a82613e16565b604082019050919050565b60006131a26019836138db565b91506131ad82613e65565b602082019050919050565b60006131c56022836138db565b91506131d082613e8e565b604082019050919050565b60006131e86026836138db565b91506131f382613edd565b604082019050919050565b600061320b6026836138db565b915061321682613f2c565b604082019050919050565b600061322e600a836138db565b915061323982613f7b565b602082019050919050565b6000613251600a836138db565b915061325c82613fa4565b602082019050919050565b60006132746021836138db565b915061327f82613fcd565b604082019050919050565b60006132976026836138db565b91506132a28261401c565b604082019050919050565b60006132ba6025836138db565b91506132c58261406b565b604082019050919050565b60006132dd6024836138db565b91506132e8826140ba565b604082019050919050565b6000613300601d836138db565b915061330b82614109565b602082019050919050565b6000613323602a836138db565b915061332e82614132565b604082019050919050565b6000613346600b836138db565b915061335182614181565b602082019050919050565b60006133696025836138db565b9150613374826141aa565b604082019050919050565b600061338c601f836138db565b9150613397826141f9565b602082019050919050565b6133ab81613c00565b82525050565b6133ba81613c0a565b82525050565b60006133cc82846130c7565b915081905092915050565b60006020820190506133ec6000830184612fbf565b92915050565b60006060820190506134076000830186612fbf565b6134146020830185612fbf565b61342160408301846133a2565b949350505050565b600060a08201905061343e6000830189612fbf565b61344b6020830188612fbf565b61345860408301876133a2565b61346560608301866133a2565b8181036080830152613478818486613061565b9050979650505050505050565b600060e08201905061349a600083018a612fbf565b6134a76020830189612fbf565b6134b460408301886133a2565b6134c160608301876133a2565b6134ce60808301866133b1565b6134db60a0830185613052565b6134e860c0830184613052565b98975050505050505050565b60006040820190506135096000830185612fbf565b61351660208301846133a2565b9392505050565b600060208201905081810360008301526135378184612fce565b905092915050565b60006020820190506135546000830184613043565b92915050565b600060208201905061356f60008301846130f8565b92915050565b600060208201905061358a6000830184613107565b92915050565b600060208201905081810360008301526135aa8184613116565b905092915050565b600060208201905081810360008301526135cb8161314f565b9050919050565b600060208201905081810360008301526135eb81613172565b9050919050565b6000602082019050818103600083015261360b81613195565b9050919050565b6000602082019050818103600083015261362b816131b8565b9050919050565b6000602082019050818103600083015261364b816131db565b9050919050565b6000602082019050818103600083015261366b816131fe565b9050919050565b6000602082019050818103600083015261368b81613221565b9050919050565b600060208201905081810360008301526136ab81613244565b9050919050565b600060208201905081810360008301526136cb81613267565b9050919050565b600060208201905081810360008301526136eb8161328a565b9050919050565b6000602082019050818103600083015261370b816132ad565b9050919050565b6000602082019050818103600083015261372b816132d0565b9050919050565b6000602082019050818103600083015261374b816132f3565b9050919050565b6000602082019050818103600083015261376b81613316565b9050919050565b6000602082019050818103600083015261378b81613339565b9050919050565b600060208201905081810360008301526137ab8161335c565b9050919050565b600060208201905081810360008301526137cb8161337f565b9050919050565b60006020820190506137e760008301846133a2565b92915050565b600060208201905061380260008301846133b1565b92915050565b6000808335600160200384360303811261382157600080fd5b80840192508235915067ffffffffffffffff82111561383f57600080fd5b60208301925060018202360383131561385757600080fd5b509250929050565b6000819050602082019050919050565b600081519050919050565b600081519050919050565b600081519050919050565b6000602082019050919050565b600082825260208201905092915050565b600082825260208201905092915050565b600082825260208201905092915050565b600081905092915050565b600082825260208201905092915050565b60006138f782613c00565b915061390283613c00565b9250827fffffffffffffffffffffffffffffffffffffffffffffffffffffffffffffffff0382111561393757613936613d1c565b5b828201905092915050565b600061394d82613c00565b915061395883613c00565b92508261396857613967613d4b565b5b828204905092915050565b6000808291508390505b60018511156139bd5780860481111561399957613998613d1c565b5b60018516156139a85780820291505b80810290506139b685613dba565b945061397d565b94509492505050565b60006139d182613c00565b91506139dc83613c0a565b9250613a097fffffffffffffffffffffffffffffffffffffffffffffffffffffffffffffffff8484613a11565b905092915050565b600082613a215760019050613add565b81613a2f5760009050613add565b8160018114613a455760028114613a4f57613a7e565b6001915050613add565b60ff841115613a6157613a60613d1c565b5b8360020a915084821115613a7857613a77613d1c565b5b50613add565b5060208310610133831016604e8410600b8410161715613ab35782820a905083811115613aae57613aad613d1c565b5b613add565b613ac08484846001613973565b92509050818404811115613ad757613ad6613d1c565b5b81810290505b9392505050565b6000613aef82613c00565b9150613afa83613c00565b9250817fffffffffffffffffffffffffffffffffffffffffffffffffffffffffffffffff0483118215151615613b3357613b32613d1c565b5b828202905092915050565b6000613b4982613c00565b9150613b5483613c00565b925082821015613b6757613b66613d1c565b5b828203905092915050565b6000613b7d82613c0a565b9150613b8883613c0a565b925082821015613b9b57613b9a613d1c565b5b828203905092915050565b6000613bb182613be0565b9050919050565b60008115159050919050565b6000819050919050565b6000613bd982613ba6565b9050919050565b600073ffffffffffffffffffffffffffffffffffffffff82169050919050565b6000819050919050565b600060ff82169050919050565b6000613c2282613c29565b9050919050565b6000613c3482613be0565b9050919050565b6000613c4682613c4d565b9050919050565b6000613c5882613be0565b9050919050565b82818337600083830152505050565b60005b83811015613c8c578082015181840152602081019050613c71565b83811115613c9b576000848401525b50505050565b60006002820490506001821680613cb957607f821691505b60208210811415613ccd57613ccc613d7a565b5b50919050565b6000613cde82613c00565b91507fffffffffffffffffffffffffffffffffffffffffffffffffffffffffffffffff821415613d1157613d10613d1c565b5b600182019050919050565b7f4e487b7100000000000000000000000000000000000000000000000000000000600052601160045260246000fd5b7f4e487b7100000000000000000000000000000000000000000000000000000000600052601260045260246000fd5b7f4e487b7100000000000000000000000000000000000000000000000000000000600052602260045260246000fd5b6000601f19601f8301169050919050565b60008160011c9050919050565b7f45524332303a207472616e7366657220746f20746865207a65726f206164647260008201527f6573730000000000000000000000000000000000000000000000000000000000602082015250565b7f45524332303a206275726e20616d6f756e7420657863656564732062616c616e60008201527f6365000000000000000000000000000000000000000000000000000000000000602082015250565b7f49455243333135363a2043616c6c6261636b206661696c656400000000000000600082015250565b7f45524332303a20617070726f766520746f20746865207a65726f20616464726560008201527f7373000000000000000000000000000000000000000000000000000000000000602082015250565b7f45524332303a207472616e7366657220616d6f756e742065786365656473206260008201527f616c616e63650000000000000000000000000000000000000000000000000000602082015250565b7f416464726573733a20696e73756666696369656e742062616c616e636520666f60008201527f722063616c6c0000000000000000000000000000000000000000000000000000602082015250565b7f5661756c743a2034303300000000000000000000000000000000000000000000600082015250565b7f5661756c743a2034303000000000000000000000000000000000000000000000600082015250565b7f45524332303a206275726e2066726f6d20746865207a65726f2061646472657360008201527f7300000000000000000000000000000000000000000000000000000000000000602082015250565b7f416464726573733a2064656c65676174652063616c6c20746f206e6f6e2d636f60008201527f6e74726163740000000000000000000000000000000000000000000000000000602082015250565b7f45524332303a207472616e736665722066726f6d20746865207a65726f20616460008201527f6472657373000000000000000000000000000000000000000000000000000000602082015250565b7f45524332303a20617070726f76652066726f6d20746865207a65726f2061646460008201527f7265737300000000000000000000000000000000000000000000000000000000602082015250565b7f416464726573733a2063616c6c20746f206e6f6e2d636f6e7472616374000000600082015250565b7f5361666545524332303a204552433230206f7065726174696f6e20646964206e60008201527f6f74207375636365656400000000000000000000000000000000000000000000602082015250565b7f44546f6b656e3a20343030000000000000000000000000000000000000000000600082015250565b7f45524332303a2064656372656173656420616c6c6f77616e63652062656c6f7760008201527f207a65726f000000000000000000000000000000000000000000000000000000602082015250565b7f45524332303a206d696e7420746f20746865207a65726f206164647265737300600082015250565b61422b81613ba6565b811461423657600080fd5b50565b61424281613bb8565b811461424d57600080fd5b50565b61425981613bc4565b811461426457600080fd5b50565b61427081613bce565b811461427b57600080fd5b50565b61428781613c00565b811461429257600080fd5b50565b61429e81613c0a565b81146142a957600080fd5b5056fe416464726573733a206c6f772d6c6576656c2064656c65676174652063616c6c206661696c6564a26469706673582212205db43b3e2c8e81a696755660712eba5cc2e58e03bc7d8505b5fd9b1ebf3cbc2664736f6c63430008040033",
  "linkReferences": {},
  "deployedLinkReferences": {}
}