{
  "_format": "hh-sol-artifact-1",
  "contractName": "DToken",
  "sourceName": "contracts/DToken.sol",
  "abi": [
    {
      "inputs": [
        {
          "internalType": "string",
          "name": "name_",
          "type": "string"
        },
        {
          "internalType": "string",
          "name": "symbol_",
          "type": "string"
        },
        {
          "internalType": "address",
          "name": "underlying_",
          "type": "address"
        },
        {
          "internalType": "uint256",
          "name": "ltv_",
          "type": "uint256"
        },
        {
          "internalType": "uint256",
          "name": "threshold_",
          "type": "uint256"
        },
        {
          "internalType": "uint256",
          "name": "incentive_",
          "type": "uint256"
        },
        {
          "internalType": "address",
          "name": "oracle_",
          "type": "address"
        },
        {
          "internalType": "address",
          "name": "demu_",
          "type": "address"
        },
        {
          "internalType": "address",
          "name": "feesCollector_",
          "type": "address"
        }
      ],
      "stateMutability": "nonpayable",
      "type": "constructor"
    },
    {
      "anonymous": false,
      "inputs": [
        {
          "indexed": true,
          "internalType": "address",
          "name": "owner",
          "type": "address"
        },
        {
          "indexed": true,
          "internalType": "address",
          "name": "spender",
          "type": "address"
        },
        {
          "indexed": false,
          "internalType": "uint256",
          "name": "value",
          "type": "uint256"
        }
      ],
      "name": "Approval",
      "type": "event"
    },
    {
      "anonymous": false,
      "inputs": [
        {
          "indexed": true,
          "internalType": "address",
          "name": "caller",
          "type": "address"
        },
        {
          "indexed": true,
          "internalType": "address",
          "name": "receiver",
          "type": "address"
        },
        {
          "indexed": false,
          "internalType": "uint256",
          "name": "amount",
          "type": "uint256"
        }
      ],
      "name": "FlashLoan",
      "type": "event"
    },
    {
      "anonymous": false,
      "inputs": [
        {
          "indexed": true,
          "internalType": "address",
          "name": "caller",
          "type": "address"
        },
        {
          "indexed": true,
          "internalType": "address",
          "name": "account",
          "type": "address"
        }
      ],
      "name": "Liquidate",
      "type": "event"
    },
    {
      "anonymous": false,
      "inputs": [
        {
          "indexed": true,
          "internalType": "address",
          "name": "src",
          "type": "address"
        },
        {
          "indexed": false,
          "internalType": "uint256",
          "name": "amt",
          "type": "uint256"
        }
      ],
      "name": "Supply",
      "type": "event"
    },
    {
      "anonymous": false,
      "inputs": [
        {
          "indexed": true,
          "internalType": "address",
          "name": "from",
          "type": "address"
        },
        {
          "indexed": true,
          "internalType": "address",
          "name": "to",
          "type": "address"
        },
        {
          "indexed": false,
          "internalType": "uint256",
          "name": "value",
          "type": "uint256"
        }
      ],
      "name": "Transfer",
      "type": "event"
    },
    {
      "anonymous": false,
      "inputs": [
        {
          "indexed": true,
          "internalType": "address",
          "name": "src",
          "type": "address"
        },
        {
          "indexed": false,
          "internalType": "uint256",
          "name": "amt",
          "type": "uint256"
        }
      ],
      "name": "Withdraw",
      "type": "event"
    },
    {
      "inputs": [
        {
          "internalType": "address",
          "name": "owner",
          "type": "address"
        },
        {
          "internalType": "address",
          "name": "spender",
          "type": "address"
        }
      ],
      "name": "allowance",
      "outputs": [
        {
          "internalType": "uint256",
          "name": "",
          "type": "uint256"
        }
      ],
      "stateMutability": "view",
      "type": "function"
    },
    {
      "inputs": [
        {
          "internalType": "address",
          "name": "spender",
          "type": "address"
        },
        {
          "internalType": "uint256",
          "name": "amount",
          "type": "uint256"
        }
      ],
      "name": "approve",
      "outputs": [
        {
          "internalType": "bool",
          "name": "",
          "type": "bool"
        }
      ],
      "stateMutability": "nonpayable",
      "type": "function"
    },
    {
      "inputs": [
        {
          "internalType": "address",
          "name": "account",
          "type": "address"
        }
      ],
      "name": "balanceOf",
      "outputs": [
        {
          "internalType": "uint256",
          "name": "",
          "type": "uint256"
        }
      ],
      "stateMutability": "view",
      "type": "function"
    },
    {
      "inputs": [
        {
          "internalType": "uint256",
          "name": "amount",
          "type": "uint256"
        }
      ],
      "name": "burnDemu",
      "outputs": [],
      "stateMutability": "nonpayable",
      "type": "function"
    },
    {
      "inputs": [
        {
          "internalType": "address",
          "name": "account",
          "type": "address"
        }
      ],
      "name": "collateralValue",
      "outputs": [
        {
          "internalType": "uint256",
          "name": "",
          "type": "uint256"
        }
      ],
      "stateMutability": "view",
      "type": "function"
    },
    {
      "inputs": [
        {
          "internalType": "address",
          "name": "",
          "type": "address"
        }
      ],
      "name": "debt",
      "outputs": [
        {
          "internalType": "uint256",
          "name": "",
          "type": "uint256"
        }
      ],
      "stateMutability": "view",
      "type": "function"
    },
    {
      "inputs": [
        {
          "internalType": "address",
          "name": "account",
          "type": "address"
        }
      ],
      "name": "debtValue",
      "outputs": [
        {
          "internalType": "uint256",
          "name": "",
          "type": "uint256"
        }
      ],
      "stateMutability": "view",
      "type": "function"
    },
    {
      "inputs": [],
      "name": "decimals",
      "outputs": [
        {
          "internalType": "uint8",
          "name": "",
          "type": "uint8"
        }
      ],
      "stateMutability": "view",
      "type": "function"
    },
    {
      "inputs": [
        {
          "internalType": "address",
          "name": "spender",
          "type": "address"
        },
        {
          "internalType": "uint256",
          "name": "subtractedValue",
          "type": "uint256"
        }
      ],
      "name": "decreaseAllowance",
      "outputs": [
        {
          "internalType": "bool",
          "name": "",
          "type": "bool"
        }
      ],
      "stateMutability": "nonpayable",
      "type": "function"
    },
    {
      "inputs": [],
      "name": "demu",
      "outputs": [
        {
          "internalType": "contract IDemu",
          "name": "",
          "type": "address"
        }
      ],
      "stateMutability": "view",
      "type": "function"
    },
    {
      "inputs": [],
      "name": "demuPrice",
      "outputs": [
        {
          "internalType": "uint256",
          "name": "",
          "type": "uint256"
        }
      ],
      "stateMutability": "view",
      "type": "function"
    },
    {
      "inputs": [
        {
          "internalType": "address",
          "name": "token",
          "type": "address"
        },
        {
          "internalType": "uint256",
          "name": "amount",
          "type": "uint256"
        }
      ],
      "name": "flashFee",
      "outputs": [
        {
          "internalType": "uint256",
          "name": "",
          "type": "uint256"
        }
      ],
      "stateMutability": "view",
      "type": "function"
    },
    {
      "inputs": [
        {
          "internalType": "contract IERC3156FlashBorrower",
          "name": "receiver",
          "type": "address"
        },
        {
          "internalType": "address",
          "name": "token",
          "type": "address"
        },
        {
          "internalType": "uint256",
          "name": "amount",
          "type": "uint256"
        },
        {
          "internalType": "bytes",
          "name": "data",
          "type": "bytes"
        }
      ],
      "name": "flashLoan",
      "outputs": [
        {
          "internalType": "bool",
          "name": "",
          "type": "bool"
        }
      ],
      "stateMutability": "nonpayable",
      "type": "function"
    },
    {
      "inputs": [
        {
          "internalType": "address",
          "name": "spender",
          "type": "address"
        },
        {
          "internalType": "uint256",
          "name": "addedValue",
          "type": "uint256"
        }
      ],
      "name": "increaseAllowance",
      "outputs": [
        {
          "internalType": "bool",
          "name": "",
          "type": "bool"
        }
      ],
      "stateMutability": "nonpayable",
      "type": "function"
    },
    {
      "inputs": [
        {
          "components": [
            {
              "internalType": "address",
              "name": "account",
              "type": "address"
            },
            {
              "internalType": "bool",
              "name": "withdraw",
              "type": "bool"
            },
            {
              "internalType": "address",
              "name": "receiver",
              "type": "address"
            }
          ],
          "internalType": "struct DToken.LiquidationParams",
          "name": "params",
          "type": "tuple"
        }
      ],
      "name": "liquidate",
      "outputs": [],
      "stateMutability": "nonpayable",
      "type": "function"
    },
    {
      "inputs": [],
      "name": "liquidationIncentive",
      "outputs": [
        {
          "internalType": "uint256",
          "name": "",
          "type": "uint256"
        }
      ],
      "stateMutability": "view",
      "type": "function"
    },
    {
      "inputs": [],
      "name": "liquidationThreshold",
      "outputs": [
        {
          "internalType": "uint256",
          "name": "",
          "type": "uint256"
        }
      ],
      "stateMutability": "view",
      "type": "function"
    },
    {
      "inputs": [],
      "name": "ltv",
      "outputs": [
        {
          "internalType": "uint256",
          "name": "",
          "type": "uint256"
        }
      ],
      "stateMutability": "view",
      "type": "function"
    },
    {
      "inputs": [
        {
          "internalType": "address",
          "name": "account",
          "type": "address"
        }
      ],
      "name": "maxDebt",
      "outputs": [
        {
          "internalType": "uint256",
          "name": "",
          "type": "uint256"
        }
      ],
      "stateMutability": "view",
      "type": "function"
    },
    {
      "inputs": [
        {
          "internalType": "address",
          "name": "token",
          "type": "address"
        }
      ],
      "name": "maxFlashLoan",
      "outputs": [
        {
          "internalType": "uint256",
          "name": "",
          "type": "uint256"
        }
      ],
      "stateMutability": "view",
      "type": "function"
    },
    {
      "inputs": [
        {
          "internalType": "address",
          "name": "account",
          "type": "address"
        }
      ],
      "name": "maxMintable",
      "outputs": [
        {
          "internalType": "uint256",
          "name": "",
          "type": "uint256"
        }
      ],
      "stateMutability": "view",
      "type": "function"
    },
    {
      "inputs": [
        {
          "internalType": "uint256",
          "name": "amount",
          "type": "uint256"
        }
      ],
      "name": "mintDemu",
      "outputs": [],
      "stateMutability": "nonpayable",
      "type": "function"
    },
    {
      "inputs": [
        {
          "internalType": "bytes[]",
          "name": "data",
          "type": "bytes[]"
        }
      ],
      "name": "multicall",
      "outputs": [
        {
          "internalType": "bytes[]",
          "name": "results",
          "type": "bytes[]"
        }
      ],
      "stateMutability": "nonpayable",
      "type": "function"
    },
    {
      "inputs": [],
      "name": "name",
      "outputs": [
        {
          "internalType": "string",
          "name": "",
          "type": "string"
        }
      ],
      "stateMutability": "view",
      "type": "function"
    },
    {
      "inputs": [],
      "name": "oracle",
      "outputs": [
        {
          "internalType": "address",
          "name": "",
          "type": "address"
        }
      ],
      "stateMutability": "view",
      "type": "function"
    },
    {
      "inputs": [
        {
          "internalType": "uint256",
          "name": "amount",
          "type": "uint256"
        }
      ],
      "name": "supply",
      "outputs": [],
      "stateMutability": "nonpayable",
      "type": "function"
    },
    {
      "inputs": [],
      "name": "symbol",
      "outputs": [
        {
          "internalType": "string",
          "name": "",
          "type": "string"
        }
      ],
      "stateMutability": "view",
      "type": "function"
    },
    {
      "inputs": [],
      "name": "totalSupply",
      "outputs": [
        {
          "internalType": "uint256",
          "name": "",
          "type": "uint256"
        }
      ],
      "stateMutability": "view",
      "type": "function"
    },
    {
      "inputs": [
        {
          "internalType": "address",
          "name": "",
          "type": "address"
        },
        {
          "internalType": "uint256",
          "name": "",
          "type": "uint256"
        }
      ],
      "name": "transfer",
      "outputs": [
        {
          "internalType": "bool",
          "name": "",
          "type": "bool"
        }
      ],
      "stateMutability": "pure",
      "type": "function"
    },
    {
      "inputs": [
        {
          "internalType": "address",
          "name": "",
          "type": "address"
        },
        {
          "internalType": "address",
          "name": "",
          "type": "address"
        },
        {
          "internalType": "uint256",
          "name": "",
          "type": "uint256"
        }
      ],
      "name": "transferFrom",
      "outputs": [
        {
          "internalType": "bool",
          "name": "",
          "type": "bool"
        }
      ],
      "stateMutability": "pure",
      "type": "function"
    },
    {
      "inputs": [],
      "name": "underlying",
      "outputs": [
        {
          "internalType": "contract IERC20",
          "name": "",
          "type": "address"
        }
      ],
      "stateMutability": "view",
      "type": "function"
    },
    {
      "inputs": [],
      "name": "underlyingPrice",
      "outputs": [
        {
          "internalType": "uint256",
          "name": "",
          "type": "uint256"
        }
      ],
      "stateMutability": "view",
      "type": "function"
    },
    {
      "inputs": [
        {
          "internalType": "uint256",
          "name": "amount",
          "type": "uint256"
        }
      ],
      "name": "withdraw",
      "outputs": [],
      "stateMutability": "nonpayable",
      "type": "function"
    }
  ],
  "bytecode": "0x60a06040523480156200001157600080fd5b50604051620045a8380380620045a88339818101604052810190620000379190620002db565b88888160039080519060200190620000519291906200018b565b5080600490805190602001906200006a9291906200018b565b50505086600560006101000a81548173ffffffffffffffffffffffffffffffffffffffff021916908373ffffffffffffffffffffffffffffffffffffffff16021790555085600681905550846007819055508360088190555082600960006101000a81548173ffffffffffffffffffffffffffffffffffffffff021916908373ffffffffffffffffffffffffffffffffffffffff1602179055508173ffffffffffffffffffffffffffffffffffffffff1660808173ffffffffffffffffffffffffffffffffffffffff1660601b8152505080600a60006101000a81548173ffffffffffffffffffffffffffffffffffffffff021916908373ffffffffffffffffffffffffffffffffffffffff160217905550505050505050505050620005c8565b8280546200019990620004b9565b90600052602060002090601f016020900481019282620001bd576000855562000209565b82601f10620001d857805160ff191683800117855562000209565b8280016001018555821562000209579182015b8281111562000208578251825591602001919060010190620001eb565b5b5090506200021891906200021c565b5090565b5b80821115620002375760008160009055506001016200021d565b5090565b6000620002526200024c846200040f565b620003e6565b9050828152602081018484840111156200026b57600080fd5b6200027884828562000483565b509392505050565b600081519050620002918162000594565b92915050565b600082601f830112620002a957600080fd5b8151620002bb8482602086016200023b565b91505092915050565b600081519050620002d581620005ae565b92915050565b60008060008060008060008060006101208a8c031215620002fb57600080fd5b60008a015167ffffffffffffffff8111156200031657600080fd5b620003248c828d0162000297565b99505060208a015167ffffffffffffffff8111156200034257600080fd5b620003508c828d0162000297565b9850506040620003638c828d0162000280565b9750506060620003768c828d01620002c4565b9650506080620003898c828d01620002c4565b95505060a06200039c8c828d01620002c4565b94505060c0620003af8c828d0162000280565b93505060e0620003c28c828d0162000280565b925050610100620003d68c828d0162000280565b9150509295985092959850929598565b6000620003f262000405565b9050620004008282620004ef565b919050565b6000604051905090565b600067ffffffffffffffff8211156200042d576200042c62000554565b5b620004388262000583565b9050602081019050919050565b6000620004528262000459565b9050919050565b600073ffffffffffffffffffffffffffffffffffffffff82169050919050565b6000819050919050565b60005b83811015620004a357808201518184015260208101905062000486565b83811115620004b3576000848401525b50505050565b60006002820490506001821680620004d257607f821691505b60208210811415620004e957620004e862000525565b5b50919050565b620004fa8262000583565b810181811067ffffffffffffffff821117156200051c576200051b62000554565b5b80604052505050565b7f4e487b7100000000000000000000000000000000000000000000000000000000600052602260045260246000fd5b7f4e487b7100000000000000000000000000000000000000000000000000000000600052604160045260246000fd5b6000601f19601f8301169050919050565b6200059f8162000445565b8114620005ab57600080fd5b50565b620005b98162000479565b8114620005c557600080fd5b50565b60805160601c613fac620005fc600039600081816107bc01528181611010015281816116ad01526119900152613fac6000f3fe608060405234801561001057600080fd5b50600436106101fa5760003560e01c806370a082311161011a578063a457c2d7116100ad578063bef7f3651161007c578063bef7f36514610629578063d26aa68e14610659578063d9d98ce414610675578063dd62ed3e146106a5578063efa32d49146106d5576101fa565b8063a457c2d714610569578063a9059cbb14610599578063ac9650d8146105c9578063b9637e49146105f9576101fa565b806394e96dc9116100e957806394e96dc9146104df57806395d89b41146104fd578063966de33d1461051b5780639b6c56ec14610539576101fa565b806370a08231146104435780637544aa44146104735780637dc0d1d0146104a35780638c765e94146104c1576101fa565b806339509351116101925780635ed88ecf116101615780635ed88ecf146103a7578063613255ab146103d75780636f307dc3146104075780636fb49d7314610425576101fa565b8063395093511461030d5780634031234c1461033d57806343553c4b1461035b5780635cffe9de14610377576101fa565b806323b872dd116101ce57806323b872dd146102875780632e1a7d4d146102b7578063313ce567146102d357806335403023146102f1576101fa565b8062981f86146101ff57806306fdde031461021b578063095ea7b31461023957806318160ddd14610269575b600080fd5b61021960048036038101906102149190612c28565b6106f3565b005b610223610a60565b6040516102309190613233565b60405180910390f35b610253600480360381019061024e9190612aac565b610af2565b60405161026091906131e2565b60405180910390f35b610271610b15565b60405161027e9190613475565b60405180910390f35b6102a1600480360381019061029c9190612a5d565b610b1f565b6040516102ae91906131e2565b60405180910390f35b6102d160048036038101906102cc9190612c51565b610b28565b005b6102db610d40565b6040516102e89190613490565b60405180910390f35b61030b60048036038101906103069190612c51565b610d49565b005b61032760048036038101906103229190612aac565b610ec3565b60405161033491906131e2565b60405180910390f35b610345610efa565b6040516103529190613475565b60405180910390f35b61037560048036038101906103709190612c51565b610f04565b005b610391600480360381019061038c9190612ba8565b6110a7565b60405161039e91906131e2565b60405180910390f35b6103c160048036038101906103bc91906129f8565b611306565b6040516103ce9190613475565b60405180910390f35b6103f160048036038101906103ec91906129f8565b611342565b6040516103fe9190613475565b60405180910390f35b61040f611486565b60405161041c9190613218565b60405180910390f35b61042d6114b0565b60405161043a9190613475565b60405180910390f35b61045d600480360381019061045891906129f8565b6114ba565b60405161046a9190613475565b60405180910390f35b61048d600480360381019061048891906129f8565b611502565b60405161049a9190613475565b60405180910390f35b6104ab61153e565b6040516104b891906130e9565b60405180910390f35b6104c9611568565b6040516104d69190613475565b60405180910390f35b6104e7611572565b6040516104f49190613475565b60405180910390f35b610505611619565b6040516105129190613233565b60405180910390f35b6105236116ab565b60405161053091906131fd565b60405180910390f35b610553600480360381019061054e91906129f8565b6116cf565b6040516105609190613475565b60405180910390f35b610583600480360381019061057e9190612aac565b6116e7565b60405161059091906131e2565b60405180910390f35b6105b360048036038101906105ae9190612aac565b61175e565b6040516105c091906131e2565b60405180910390f35b6105e360048036038101906105de9190612ae8565b611766565b6040516105f091906131c0565b60405180910390f35b610613600480360381019061060e91906129f8565b6118e4565b6040516106209190613475565b60405180910390f35b610643600480360381019061063e91906129f8565b611952565b6040516106509190613475565b60405180910390f35b610673600480360381019061066e9190612c51565b61198e565b005b61068f600480360381019061068a9190612aac565b611a82565b60405161069c9190613475565b60405180910390f35b6106bf60048036038101906106ba9190612a21565b611b2b565b6040516106cc9190613475565b60405180910390f35b6106dd611bb2565b6040516106ea9190613475565b60405180910390f35b600061071082600001602081019061070b91906129f8565b611952565b90506000600b600084600001602081019061072b91906129f8565b73ffffffffffffffffffffffffffffffffffffffff1673ffffffffffffffffffffffffffffffffffffffff1681526020019081526020016000205490508181116107aa576040517f08c379a00000000000000000000000000000000000000000000000000000000081526004016107a190613335565b60405180910390fd5b600082826107b891906137e1565b90507f000000000000000000000000000000000000000000000000000000000000000073ffffffffffffffffffffffffffffffffffffffff16639dc29fac6107fe611c86565b836040518363ffffffff1660e01b815260040161081c929190613197565b600060405180830381600087803b15801561083657600080fd5b505af115801561084a573d6000803e3d6000fd5b505050506000610858611572565b826108639190613787565b9050600061086f611bb2565b8261087a91906135e5565b90506000670de0b6b3a7640000600854670de0b6b3a764000061089d919061358f565b836108a89190613787565b6108b291906135e5565b90506108d88760000160208101906108ca91906129f8565b6108d2611c86565b83611c8e565b8660200160208101906108eb9190612b2d565b15610961576109016108fb611c86565b82611f0f565b61096087604001602081019061091791906129f8565b82600560009054906101000a900473ffffffffffffffffffffffffffffffffffffffff1673ffffffffffffffffffffffffffffffffffffffff166120e69092919063ffffffff16565b5b600066b1a2bc2ec5000090506000670de0b6b3a764000082670de0b6b3a764000061098c919061358f565b856109979190613787565b6109a191906135e5565b90506109e28960000160208101906109b991906129f8565b600a60009054906101000a900473ffffffffffffffffffffffffffffffffffffffff1683611c8e565b8860000160208101906109f591906129f8565b73ffffffffffffffffffffffffffffffffffffffff16610a13611c86565b73ffffffffffffffffffffffffffffffffffffffff167fc3d81b2125598b9a2b024afe09e33981f0aa5b7bcbe3e30c4303a4dec209ddb460405160405180910390a3505050505050505050565b606060038054610a6f90613944565b80601f0160208091040260200160405190810160405280929190818152602001828054610a9b90613944565b8015610ae85780601f10610abd57610100808354040283529160200191610ae8565b820191906000526020600020905b815481529060010190602001808311610acb57829003601f168201915b5050505050905090565b600080610afd611c86565b9050610b0a81858561216c565b600191505092915050565b6000600254905090565b60009392505050565b610b39610b33611c86565b82611f0f565b610c4a3033600560009054906101000a900473ffffffffffffffffffffffffffffffffffffffff1673ffffffffffffffffffffffffffffffffffffffff1663313ce5676040518163ffffffff1660e01b815260040160206040518083038186803b158015610ba657600080fd5b505afa158015610bba573d6000803e3d6000fd5b505050506040513d601f19601f82011682018060405250810190610bde9190612ca3565b6012610bea9190613815565b600a610bf69190613669565b84610c0191906135e5565b600560009054906101000a900473ffffffffffffffffffffffffffffffffffffffff1673ffffffffffffffffffffffffffffffffffffffff16612337909392919063ffffffff16565b6000610c5c610c57611c86565b611952565b9050600b6000610c6a611c86565b73ffffffffffffffffffffffffffffffffffffffff1673ffffffffffffffffffffffffffffffffffffffff16815260200190815260200160002054811115610ce7576040517f08c379a0000000000000000000000000000000000000000000000000000000008152600401610cde90613315565b60405180910390fd5b610cef611c86565b73ffffffffffffffffffffffffffffffffffffffff167f884edad9ce6fa2440d8a54cc123490eb96d2768479d49ff9c7366125a942436483604051610d349190613475565b60405180910390a25050565b60006012905090565b610d98333083600560009054906101000a900473ffffffffffffffffffffffffffffffffffffffff1673ffffffffffffffffffffffffffffffffffffffff16612337909392919063ffffffff16565b610e6b610da3611c86565b600560009054906101000a900473ffffffffffffffffffffffffffffffffffffffff1673ffffffffffffffffffffffffffffffffffffffff1663313ce5676040518163ffffffff1660e01b815260040160206040518083038186803b158015610e0b57600080fd5b505afa158015610e1f573d6000803e3d6000fd5b505050506040513d601f19601f82011682018060405250810190610e439190612ca3565b6012610e4f9190613815565b600a610e5b9190613669565b83610e669190613787565b6123c0565b610e73611c86565b73ffffffffffffffffffffffffffffffffffffffff167fadacf827efe383160192c092d8658471945c074229a9746679b5e2b74adff19182604051610eb89190613475565b60405180910390a250565b600080610ece611c86565b9050610eef818585610ee08589611b2b565b610eea919061358f565b61216c565b600191505092915050565b6000600754905090565b6000600b6000610f12611c86565b73ffffffffffffffffffffffffffffffffffffffff1673ffffffffffffffffffffffffffffffffffffffff1681526020019081526020016000205490506000610f61610f5c611c86565b611952565b9050808383610f70919061358f565b1115610fb1576040517f08c379a0000000000000000000000000000000000000000000000000000000008152600401610fa890613335565b60405180910390fd5b82600b6000610fbe611c86565b73ffffffffffffffffffffffffffffffffffffffff1673ffffffffffffffffffffffffffffffffffffffff1681526020019081526020016000206000828254611007919061358f565b925050819055507f000000000000000000000000000000000000000000000000000000000000000073ffffffffffffffffffffffffffffffffffffffff166340c10f19611052611c86565b856040518363ffffffff1660e01b8152600401611070929190613197565b600060405180830381600087803b15801561108a57600080fd5b505af115801561109e573d6000803e3d6000fd5b50505050505050565b6000600560009054906101000a900473ffffffffffffffffffffffffffffffffffffffff1673ffffffffffffffffffffffffffffffffffffffff168573ffffffffffffffffffffffffffffffffffffffff1614611139576040517f08c379a000000000000000000000000000000000000000000000000000000000815260040161113090613415565b60405180910390fd5b8573ffffffffffffffffffffffffffffffffffffffff16611158611c86565b73ffffffffffffffffffffffffffffffffffffffff167fc76f1b4fe4396ac07a9fa55a415d4ca430e72651d37d3401f3bed7cb13fc4f128660405161119d9190613475565b60405180910390a360006111d3600560009054906101000a900473ffffffffffffffffffffffffffffffffffffffff1686611a82565b90507f439148f0bbc682ca079e46d6e2c2f0c1e3b820f1a291b069d8882abf8cf18dd98773ffffffffffffffffffffffffffffffffffffffff166323e30c8b338989868a8a6040518763ffffffff1660e01b81526004016112399695949392919061313b565b602060405180830381600087803b15801561125357600080fd5b505af1158015611267573d6000803e3d6000fd5b505050506040513d601f19601f8201168201806040525081019061128b9190612b7f565b146112cb576040517f08c379a00000000000000000000000000000000000000000000000000000000081526004016112c290613295565b60405180910390fd5b6112f830600a60009054906101000a900473ffffffffffffffffffffffffffffffffffffffff1683611c8e565b600191505095945050505050565b60008061131283611502565b905060006006549050611323611572565b818361132f9190613787565b61133991906135e5565b92505050919050565b6000600560009054906101000a900473ffffffffffffffffffffffffffffffffffffffff1673ffffffffffffffffffffffffffffffffffffffff168273ffffffffffffffffffffffffffffffffffffffff16146113d4576040517f08c379a00000000000000000000000000000000000000000000000000000000081526004016113cb90613415565b60405180910390fd5b600560009054906101000a900473ffffffffffffffffffffffffffffffffffffffff1673ffffffffffffffffffffffffffffffffffffffff166370a08231306040518263ffffffff1660e01b815260040161142f91906130e9565b60206040518083038186803b15801561144757600080fd5b505afa15801561145b573d6000803e3d6000fd5b505050506040513d601f19601f8201168201806040525081019061147f9190612c7a565b9050919050565b6000600560009054906101000a900473ffffffffffffffffffffffffffffffffffffffff16905090565b6000600654905090565b60008060008373ffffffffffffffffffffffffffffffffffffffff1673ffffffffffffffffffffffffffffffffffffffff168152602001908152602001600020549050919050565b60008061150e836114ba565b9050670de0b6b3a7640000611521611bb2565b8261152c9190613787565b61153691906135e5565b915050919050565b6000600960009054906101000a900473ffffffffffffffffffffffffffffffffffffffff16905090565b6000600854905090565b6000600960009054906101000a900473ffffffffffffffffffffffffffffffffffffffff1673ffffffffffffffffffffffffffffffffffffffff1663c548fb5d6040518163ffffffff1660e01b815260040160206040518083038186803b1580156115dc57600080fd5b505afa1580156115f0573d6000803e3d6000fd5b505050506040513d601f19601f820116820180604052508101906116149190612c7a565b905090565b60606004805461162890613944565b80601f016020809104026020016040519081016040528092919081815260200182805461165490613944565b80156116a15780601f10611676576101008083540402835291602001916116a1565b820191906000526020600020905b81548152906001019060200180831161168457829003601f168201915b5050505050905090565b7f000000000000000000000000000000000000000000000000000000000000000081565b600b6020528060005260406000206000915090505481565b6000806116f2611c86565b905060006117008286611b2b565b905083811015611745576040517f08c379a000000000000000000000000000000000000000000000000000000000815260040161173c90613435565b60405180910390fd5b611752828686840361216c565b60019250505092915050565b600092915050565b60608282905067ffffffffffffffff8111156117ab577f4e487b7100000000000000000000000000000000000000000000000000000000600052604160045260246000fd5b6040519080825280602002602001820160405280156117de57816020015b60608152602001906001900390816117c95790505b50905060005b838390508110156118dd576118863085858481811061182c577f4e487b7100000000000000000000000000000000000000000000000000000000600052603260045260246000fd5b905060200281019061183e91906134ab565b8080601f016020809104026020016040519081016040528093929190818152602001838380828437600081840152601f19601f82011690508083019250505050505050612520565b8282815181106118bf577f4e487b7100000000000000000000000000000000000000000000000000000000600052603260045260246000fd5b602002602001018190525080806118d590613976565b9150506117e4565b5092915050565b6000670de0b6b3a76400006118f7611572565b600b60008573ffffffffffffffffffffffffffffffffffffffff1673ffffffffffffffffffffffffffffffffffffffff168152602001908152602001600020546119419190613787565b61194b91906135e5565b9050919050565b60008061195e83611502565b90506000600754905061196f611572565b818361197b9190613787565b61198591906135e5565b92505050919050565b7f000000000000000000000000000000000000000000000000000000000000000073ffffffffffffffffffffffffffffffffffffffff16639dc29fac6119d2611c86565b836040518363ffffffff1660e01b81526004016119f0929190613197565b600060405180830381600087803b158015611a0a57600080fd5b505af1158015611a1e573d6000803e3d6000fd5b5050505080600b6000611a2f611c86565b73ffffffffffffffffffffffffffffffffffffffff1673ffffffffffffffffffffffffffffffffffffffff1681526020019081526020016000206000828254611a7891906137e1565b9250508190555050565b6000600560009054906101000a900473ffffffffffffffffffffffffffffffffffffffff1673ffffffffffffffffffffffffffffffffffffffff168373ffffffffffffffffffffffffffffffffffffffff1614611b14576040517f08c379a0000000000000000000000000000000000000000000000000000000008152600401611b0b90613415565b60405180910390fd5b620186a082611b2391906135e5565b905092915050565b6000600160008473ffffffffffffffffffffffffffffffffffffffff1673ffffffffffffffffffffffffffffffffffffffff16815260200190815260200160002060008373ffffffffffffffffffffffffffffffffffffffff1673ffffffffffffffffffffffffffffffffffffffff16815260200190815260200160002054905092915050565b6000600960009054906101000a900473ffffffffffffffffffffffffffffffffffffffff1673ffffffffffffffffffffffffffffffffffffffff1663b2f1ee3b600560009054906101000a900473ffffffffffffffffffffffffffffffffffffffff166040518263ffffffff1660e01b8152600401611c3191906130e9565b60206040518083038186803b158015611c4957600080fd5b505afa158015611c5d573d6000803e3d6000fd5b505050506040513d601f19601f82011682018060405250810190611c819190612c7a565b905090565b600033905090565b600073ffffffffffffffffffffffffffffffffffffffff168373ffffffffffffffffffffffffffffffffffffffff161415611cfe576040517f08c379a0000000000000000000000000000000000000000000000000000000008152600401611cf590613395565b60405180910390fd5b600073ffffffffffffffffffffffffffffffffffffffff168273ffffffffffffffffffffffffffffffffffffffff161415611d6e576040517f08c379a0000000000000000000000000000000000000000000000000000000008152600401611d6590613255565b60405180910390fd5b611d7983838361254d565b60008060008573ffffffffffffffffffffffffffffffffffffffff1673ffffffffffffffffffffffffffffffffffffffff16815260200190815260200160002054905081811015611dff576040517f08c379a0000000000000000000000000000000000000000000000000000000008152600401611df6906132d5565b60405180910390fd5b8181036000808673ffffffffffffffffffffffffffffffffffffffff1673ffffffffffffffffffffffffffffffffffffffff16815260200190815260200160002081905550816000808573ffffffffffffffffffffffffffffffffffffffff1673ffffffffffffffffffffffffffffffffffffffff1681526020019081526020016000206000828254611e92919061358f565b925050819055508273ffffffffffffffffffffffffffffffffffffffff168473ffffffffffffffffffffffffffffffffffffffff167fddf252ad1be2c89b69c2b068fc378daa952ba7f163c4a11628f55a4df523b3ef84604051611ef69190613475565b60405180910390a3611f09848484612552565b50505050565b600073ffffffffffffffffffffffffffffffffffffffff168273ffffffffffffffffffffffffffffffffffffffff161415611f7f576040517f08c379a0000000000000000000000000000000000000000000000000000000008152600401611f7690613355565b60405180910390fd5b611f8b8260008361254d565b60008060008473ffffffffffffffffffffffffffffffffffffffff1673ffffffffffffffffffffffffffffffffffffffff16815260200190815260200160002054905081811015612011576040517f08c379a000000000000000000000000000000000000000000000000000000000815260040161200890613275565b60405180910390fd5b8181036000808573ffffffffffffffffffffffffffffffffffffffff1673ffffffffffffffffffffffffffffffffffffffff16815260200190815260200160002081905550816002600082825461206891906137e1565b92505081905550600073ffffffffffffffffffffffffffffffffffffffff168373ffffffffffffffffffffffffffffffffffffffff167fddf252ad1be2c89b69c2b068fc378daa952ba7f163c4a11628f55a4df523b3ef846040516120cd9190613475565b60405180910390a36120e183600084612552565b505050565b6121678363a9059cbb60e01b8484604051602401612105929190613197565b604051602081830303815290604052907bffffffffffffffffffffffffffffffffffffffffffffffffffffffff19166020820180517bffffffffffffffffffffffffffffffffffffffffffffffffffffffff8381831617835250505050612557565b505050565b600073ffffffffffffffffffffffffffffffffffffffff168373ffffffffffffffffffffffffffffffffffffffff1614156121dc576040517f08c379a00000000000000000000000000000000000000000000000000000000081526004016121d3906133b5565b60405180910390fd5b600073ffffffffffffffffffffffffffffffffffffffff168273ffffffffffffffffffffffffffffffffffffffff16141561224c576040517f08c379a0000000000000000000000000000000000000000000000000000000008152600401612243906132b5565b60405180910390fd5b80600160008573ffffffffffffffffffffffffffffffffffffffff1673ffffffffffffffffffffffffffffffffffffffff16815260200190815260200160002060008473ffffffffffffffffffffffffffffffffffffffff1673ffffffffffffffffffffffffffffffffffffffff168152602001908152602001600020819055508173ffffffffffffffffffffffffffffffffffffffff168373ffffffffffffffffffffffffffffffffffffffff167f8c5be1e5ebec7d5bd14f71427d1e84f3dd0314c0f7b2291e5b200ac8c7c3b9258360405161232a9190613475565b60405180910390a3505050565b6123ba846323b872dd60e01b85858560405160240161235893929190613104565b604051602081830303815290604052907bffffffffffffffffffffffffffffffffffffffffffffffffffffffff19166020820180517bffffffffffffffffffffffffffffffffffffffffffffffffffffffff8381831617835250505050612557565b50505050565b600073ffffffffffffffffffffffffffffffffffffffff168273ffffffffffffffffffffffffffffffffffffffff161415612430576040517f08c379a000000000000000000000000000000000000000000000000000000000815260040161242790613455565b60405180910390fd5b61243c6000838361254d565b806002600082825461244e919061358f565b92505081905550806000808473ffffffffffffffffffffffffffffffffffffffff1673ffffffffffffffffffffffffffffffffffffffff16815260200190815260200160002060008282546124a3919061358f565b925050819055508173ffffffffffffffffffffffffffffffffffffffff16600073ffffffffffffffffffffffffffffffffffffffff167fddf252ad1be2c89b69c2b068fc378daa952ba7f163c4a11628f55a4df523b3ef836040516125089190613475565b60405180910390a361251c60008383612552565b5050565b60606125458383604051806060016040528060278152602001613f506027913961261e565b905092915050565b505050565b505050565b60006125b9826040518060400160405280602081526020017f5361666545524332303a206c6f772d6c6576656c2063616c6c206661696c65648152508573ffffffffffffffffffffffffffffffffffffffff166126eb9092919063ffffffff16565b905060008151111561261957808060200190518101906125d99190612b56565b612618576040517f08c379a000000000000000000000000000000000000000000000000000000000815260040161260f906133f5565b60405180910390fd5b5b505050565b606061262984612703565b612668576040517f08c379a000000000000000000000000000000000000000000000000000000000815260040161265f90613375565b60405180910390fd5b6000808573ffffffffffffffffffffffffffffffffffffffff168560405161269091906130d2565b600060405180830381855af49150503d80600081146126cb576040519150601f19603f3d011682016040523d82523d6000602084013e6126d0565b606091505b50915091506126e0828286612726565b925050509392505050565b60606126fa848460008561278d565b90509392505050565b6000808273ffffffffffffffffffffffffffffffffffffffff163b119050919050565b6060831561273657829050612786565b6000835111156127495782518084602001fd5b816040517f08c379a000000000000000000000000000000000000000000000000000000000815260040161277d9190613233565b60405180910390fd5b9392505050565b6060824710156127d2576040517f08c379a00000000000000000000000000000000000000000000000000000000081526004016127c9906132f5565b60405180910390fd5b6127db85612703565b61281a576040517f08c379a0000000000000000000000000000000000000000000000000000000008152600401612811906133d5565b60405180910390fd5b6000808673ffffffffffffffffffffffffffffffffffffffff16858760405161284391906130d2565b60006040518083038185875af1925050503d8060008114612880576040519150601f19603f3d011682016040523d82523d6000602084013e612885565b606091505b5091509150612895828286612726565b92505050949350505050565b6000813590506128b081613ec5565b92915050565b60008083601f8401126128c857600080fd5b8235905067ffffffffffffffff8111156128e157600080fd5b6020830191508360208202830111156128f957600080fd5b9250929050565b60008135905061290f81613edc565b92915050565b60008151905061292481613edc565b92915050565b60008151905061293981613ef3565b92915050565b60008083601f84011261295157600080fd5b8235905067ffffffffffffffff81111561296a57600080fd5b60208301915083600182028301111561298257600080fd5b9250929050565b60008135905061299881613f0a565b92915050565b6000606082840312156129b057600080fd5b81905092915050565b6000813590506129c881613f21565b92915050565b6000815190506129dd81613f21565b92915050565b6000815190506129f281613f38565b92915050565b600060208284031215612a0a57600080fd5b6000612a18848285016128a1565b91505092915050565b60008060408385031215612a3457600080fd5b6000612a42858286016128a1565b9250506020612a53858286016128a1565b9150509250929050565b600080600060608486031215612a7257600080fd5b6000612a80868287016128a1565b9350506020612a91868287016128a1565b9250506040612aa2868287016129b9565b9150509250925092565b60008060408385031215612abf57600080fd5b6000612acd858286016128a1565b9250506020612ade858286016129b9565b9150509250929050565b60008060208385031215612afb57600080fd5b600083013567ffffffffffffffff811115612b1557600080fd5b612b21858286016128b6565b92509250509250929050565b600060208284031215612b3f57600080fd5b6000612b4d84828501612900565b91505092915050565b600060208284031215612b6857600080fd5b6000612b7684828501612915565b91505092915050565b600060208284031215612b9157600080fd5b6000612b9f8482850161292a565b91505092915050565b600080600080600060808688031215612bc057600080fd5b6000612bce88828901612989565b9550506020612bdf888289016128a1565b9450506040612bf0888289016129b9565b935050606086013567ffffffffffffffff811115612c0d57600080fd5b612c198882890161293f565b92509250509295509295909350565b600060608284031215612c3a57600080fd5b6000612c488482850161299e565b91505092915050565b600060208284031215612c6357600080fd5b6000612c71848285016129b9565b91505092915050565b600060208284031215612c8c57600080fd5b6000612c9a848285016129ce565b91505092915050565b600060208284031215612cb557600080fd5b6000612cc3848285016129e3565b91505092915050565b6000612cd88383612da0565b905092915050565b612ce981613849565b82525050565b6000612cfa82613512565b612d048185613540565b935083602082028501612d1685613502565b8060005b85811015612d525784840389528151612d338582612ccc565b9450612d3e83613533565b925060208a01995050600181019050612d1a565b50829750879550505050505092915050565b612d6d8161385b565b82525050565b6000612d7f8385613562565b9350612d8c838584613902565b612d9583613a4c565b840190509392505050565b6000612dab8261351d565b612db58185613551565b9350612dc5818560208601613911565b612dce81613a4c565b840191505092915050565b6000612de48261351d565b612dee8185613573565b9350612dfe818560208601613911565b80840191505092915050565b612e13816138ba565b82525050565b612e22816138de565b82525050565b6000612e3382613528565b612e3d818561357e565b9350612e4d818560208601613911565b612e5681613a4c565b840191505092915050565b6000612e6e60238361357e565b9150612e7982613a6a565b604082019050919050565b6000612e9160228361357e565b9150612e9c82613ab9565b604082019050919050565b6000612eb460198361357e565b9150612ebf82613b08565b602082019050919050565b6000612ed760228361357e565b9150612ee282613b31565b604082019050919050565b6000612efa60268361357e565b9150612f0582613b80565b604082019050919050565b6000612f1d60268361357e565b9150612f2882613bcf565b604082019050919050565b6000612f40600a8361357e565b9150612f4b82613c1e565b602082019050919050565b6000612f63600a8361357e565b9150612f6e82613c47565b602082019050919050565b6000612f8660218361357e565b9150612f9182613c70565b604082019050919050565b6000612fa960268361357e565b9150612fb482613cbf565b604082019050919050565b6000612fcc60258361357e565b9150612fd782613d0e565b604082019050919050565b6000612fef60248361357e565b9150612ffa82613d5d565b604082019050919050565b6000613012601d8361357e565b915061301d82613dac565b602082019050919050565b6000613035602a8361357e565b915061304082613dd5565b604082019050919050565b6000613058600b8361357e565b915061306382613e24565b602082019050919050565b600061307b60258361357e565b915061308682613e4d565b604082019050919050565b600061309e601f8361357e565b91506130a982613e9c565b602082019050919050565b6130bd816138a3565b82525050565b6130cc816138ad565b82525050565b60006130de8284612dd9565b915081905092915050565b60006020820190506130fe6000830184612ce0565b92915050565b60006060820190506131196000830186612ce0565b6131266020830185612ce0565b61313360408301846130b4565b949350505050565b600060a0820190506131506000830189612ce0565b61315d6020830188612ce0565b61316a60408301876130b4565b61317760608301866130b4565b818103608083015261318a818486612d73565b9050979650505050505050565b60006040820190506131ac6000830185612ce0565b6131b960208301846130b4565b9392505050565b600060208201905081810360008301526131da8184612cef565b905092915050565b60006020820190506131f76000830184612d64565b92915050565b60006020820190506132126000830184612e0a565b92915050565b600060208201905061322d6000830184612e19565b92915050565b6000602082019050818103600083015261324d8184612e28565b905092915050565b6000602082019050818103600083015261326e81612e61565b9050919050565b6000602082019050818103600083015261328e81612e84565b9050919050565b600060208201905081810360008301526132ae81612ea7565b9050919050565b600060208201905081810360008301526132ce81612eca565b9050919050565b600060208201905081810360008301526132ee81612eed565b9050919050565b6000602082019050818103600083015261330e81612f10565b9050919050565b6000602082019050818103600083015261332e81612f33565b9050919050565b6000602082019050818103600083015261334e81612f56565b9050919050565b6000602082019050818103600083015261336e81612f79565b9050919050565b6000602082019050818103600083015261338e81612f9c565b9050919050565b600060208201905081810360008301526133ae81612fbf565b9050919050565b600060208201905081810360008301526133ce81612fe2565b9050919050565b600060208201905081810360008301526133ee81613005565b9050919050565b6000602082019050818103600083015261340e81613028565b9050919050565b6000602082019050818103600083015261342e8161304b565b9050919050565b6000602082019050818103600083015261344e8161306e565b9050919050565b6000602082019050818103600083015261346e81613091565b9050919050565b600060208201905061348a60008301846130b4565b92915050565b60006020820190506134a560008301846130c3565b92915050565b600080833560016020038436030381126134c457600080fd5b80840192508235915067ffffffffffffffff8211156134e257600080fd5b6020830192506001820236038313156134fa57600080fd5b509250929050565b6000819050602082019050919050565b600081519050919050565b600081519050919050565b600081519050919050565b6000602082019050919050565b600082825260208201905092915050565b600082825260208201905092915050565b600082825260208201905092915050565b600081905092915050565b600082825260208201905092915050565b600061359a826138a3565b91506135a5836138a3565b9250827fffffffffffffffffffffffffffffffffffffffffffffffffffffffffffffffff038211156135da576135d96139bf565b5b828201905092915050565b60006135f0826138a3565b91506135fb836138a3565b92508261360b5761360a6139ee565b5b828204905092915050565b6000808291508390505b60018511156136605780860481111561363c5761363b6139bf565b5b600185161561364b5780820291505b808102905061365985613a5d565b9450613620565b94509492505050565b6000613674826138a3565b915061367f836138ad565b92506136ac7fffffffffffffffffffffffffffffffffffffffffffffffffffffffffffffffff84846136b4565b905092915050565b6000826136c45760019050613780565b816136d25760009050613780565b81600181146136e857600281146136f257613721565b6001915050613780565b60ff841115613704576137036139bf565b5b8360020a91508482111561371b5761371a6139bf565b5b50613780565b5060208310610133831016604e8410600b84101617156137565782820a905083811115613751576137506139bf565b5b613780565b6137638484846001613616565b9250905081840481111561377a576137796139bf565b5b81810290505b9392505050565b6000613792826138a3565b915061379d836138a3565b9250817fffffffffffffffffffffffffffffffffffffffffffffffffffffffffffffffff04831182151516156137d6576137d56139bf565b5b828202905092915050565b60006137ec826138a3565b91506137f7836138a3565b92508282101561380a576138096139bf565b5b828203905092915050565b6000613820826138ad565b915061382b836138ad565b92508282101561383e5761383d6139bf565b5b828203905092915050565b600061385482613883565b9050919050565b60008115159050919050565b6000819050919050565b600061387c82613849565b9050919050565b600073ffffffffffffffffffffffffffffffffffffffff82169050919050565b6000819050919050565b600060ff82169050919050565b60006138c5826138cc565b9050919050565b60006138d782613883565b9050919050565b60006138e9826138f0565b9050919050565b60006138fb82613883565b9050919050565b82818337600083830152505050565b60005b8381101561392f578082015181840152602081019050613914565b8381111561393e576000848401525b50505050565b6000600282049050600182168061395c57607f821691505b602082108114156139705761396f613a1d565b5b50919050565b6000613981826138a3565b91507fffffffffffffffffffffffffffffffffffffffffffffffffffffffffffffffff8214156139b4576139b36139bf565b5b600182019050919050565b7f4e487b7100000000000000000000000000000000000000000000000000000000600052601160045260246000fd5b7f4e487b7100000000000000000000000000000000000000000000000000000000600052601260045260246000fd5b7f4e487b7100000000000000000000000000000000000000000000000000000000600052602260045260246000fd5b6000601f19601f8301169050919050565b60008160011c9050919050565b7f45524332303a207472616e7366657220746f20746865207a65726f206164647260008201527f6573730000000000000000000000000000000000000000000000000000000000602082015250565b7f45524332303a206275726e20616d6f756e7420657863656564732062616c616e60008201527f6365000000000000000000000000000000000000000000000000000000000000602082015250565b7f49455243333135363a2043616c6c6261636b206661696c656400000000000000600082015250565b7f45524332303a20617070726f766520746f20746865207a65726f20616464726560008201527f7373000000000000000000000000000000000000000000000000000000000000602082015250565b7f45524332303a207472616e7366657220616d6f756e742065786365656473206260008201527f616c616e63650000000000000000000000000000000000000000000000000000602082015250565b7f416464726573733a20696e73756666696369656e742062616c616e636520666f60008201527f722063616c6c0000000000000000000000000000000000000000000000000000602082015250565b7f5661756c743a2034303300000000000000000000000000000000000000000000600082015250565b7f5661756c743a2034303000000000000000000000000000000000000000000000600082015250565b7f45524332303a206275726e2066726f6d20746865207a65726f2061646472657360008201527f7300000000000000000000000000000000000000000000000000000000000000602082015250565b7f416464726573733a2064656c65676174652063616c6c20746f206e6f6e2d636f60008201527f6e74726163740000000000000000000000000000000000000000000000000000602082015250565b7f45524332303a207472616e736665722066726f6d20746865207a65726f20616460008201527f6472657373000000000000000000000000000000000000000000000000000000602082015250565b7f45524332303a20617070726f76652066726f6d20746865207a65726f2061646460008201527f7265737300000000000000000000000000000000000000000000000000000000602082015250565b7f416464726573733a2063616c6c20746f206e6f6e2d636f6e7472616374000000600082015250565b7f5361666545524332303a204552433230206f7065726174696f6e20646964206e60008201527f6f74207375636365656400000000000000000000000000000000000000000000602082015250565b7f44546f6b656e3a20343030000000000000000000000000000000000000000000600082015250565b7f45524332303a2064656372656173656420616c6c6f77616e63652062656c6f7760008201527f207a65726f000000000000000000000000000000000000000000000000000000602082015250565b7f45524332303a206d696e7420746f20746865207a65726f206164647265737300600082015250565b613ece81613849565b8114613ed957600080fd5b50565b613ee58161385b565b8114613ef057600080fd5b50565b613efc81613867565b8114613f0757600080fd5b50565b613f1381613871565b8114613f1e57600080fd5b50565b613f2a816138a3565b8114613f3557600080fd5b50565b613f41816138ad565b8114613f4c57600080fd5b5056fe416464726573733a206c6f772d6c6576656c2064656c65676174652063616c6c206661696c6564a2646970667358221220bf36bf2e17b2aaa026920b6445594851db3690cbd644dc8904406ac3b234f57364736f6c63430008040033",
  "linkReferences": {},
  "deployedLinkReferences": {}
}