{
  "_format": "hh-sol-artifact-1",
  "contractName": "DToken",
  "sourceName": "contracts/DToken.sol",
  "abi": [
    {
      "inputs": [
        {
          "internalType": "string",
          "name": "name_",
          "type": "string"
        },
        {
          "internalType": "string",
          "name": "symbol_",
          "type": "string"
        },
        {
          "internalType": "address",
          "name": "underlying_",
          "type": "address"
        },
        {
          "internalType": "uint256",
          "name": "ltv_",
          "type": "uint256"
        },
        {
          "internalType": "uint256",
          "name": "incentive_",
          "type": "uint256"
        },
        {
          "internalType": "address",
          "name": "oracle_",
          "type": "address"
        },
        {
          "internalType": "address",
          "name": "demu_",
          "type": "address"
        }
      ],
      "stateMutability": "nonpayable",
      "type": "constructor"
    },
    {
      "anonymous": false,
      "inputs": [
        {
          "indexed": true,
          "internalType": "address",
          "name": "owner",
          "type": "address"
        },
        {
          "indexed": true,
          "internalType": "address",
          "name": "spender",
          "type": "address"
        },
        {
          "indexed": false,
          "internalType": "uint256",
          "name": "value",
          "type": "uint256"
        }
      ],
      "name": "Approval",
      "type": "event"
    },
    {
      "anonymous": false,
      "inputs": [
        {
          "indexed": true,
          "internalType": "address",
          "name": "from",
          "type": "address"
        },
        {
          "indexed": true,
          "internalType": "address",
          "name": "to",
          "type": "address"
        },
        {
          "indexed": false,
          "internalType": "uint256",
          "name": "value",
          "type": "uint256"
        }
      ],
      "name": "Transfer",
      "type": "event"
    },
    {
      "inputs": [
        {
          "internalType": "address",
          "name": "owner",
          "type": "address"
        },
        {
          "internalType": "address",
          "name": "spender",
          "type": "address"
        }
      ],
      "name": "allowance",
      "outputs": [
        {
          "internalType": "uint256",
          "name": "",
          "type": "uint256"
        }
      ],
      "stateMutability": "view",
      "type": "function"
    },
    {
      "inputs": [
        {
          "internalType": "address",
          "name": "spender",
          "type": "address"
        },
        {
          "internalType": "uint256",
          "name": "amount",
          "type": "uint256"
        }
      ],
      "name": "approve",
      "outputs": [
        {
          "internalType": "bool",
          "name": "",
          "type": "bool"
        }
      ],
      "stateMutability": "nonpayable",
      "type": "function"
    },
    {
      "inputs": [
        {
          "internalType": "address",
          "name": "account",
          "type": "address"
        }
      ],
      "name": "balanceOf",
      "outputs": [
        {
          "internalType": "uint256",
          "name": "",
          "type": "uint256"
        }
      ],
      "stateMutability": "view",
      "type": "function"
    },
    {
      "inputs": [
        {
          "internalType": "uint256",
          "name": "amount",
          "type": "uint256"
        }
      ],
      "name": "burnDemu",
      "outputs": [],
      "stateMutability": "nonpayable",
      "type": "function"
    },
    {
      "inputs": [
        {
          "internalType": "address",
          "name": "account",
          "type": "address"
        }
      ],
      "name": "collateralValue",
      "outputs": [
        {
          "internalType": "uint256",
          "name": "",
          "type": "uint256"
        }
      ],
      "stateMutability": "view",
      "type": "function"
    },
    {
      "inputs": [
        {
          "internalType": "address",
          "name": "",
          "type": "address"
        }
      ],
      "name": "debt",
      "outputs": [
        {
          "internalType": "uint256",
          "name": "",
          "type": "uint256"
        }
      ],
      "stateMutability": "view",
      "type": "function"
    },
    {
      "inputs": [
        {
          "internalType": "address",
          "name": "account",
          "type": "address"
        }
      ],
      "name": "debtValue",
      "outputs": [
        {
          "internalType": "uint256",
          "name": "",
          "type": "uint256"
        }
      ],
      "stateMutability": "view",
      "type": "function"
    },
    {
      "inputs": [],
      "name": "decimals",
      "outputs": [
        {
          "internalType": "uint8",
          "name": "",
          "type": "uint8"
        }
      ],
      "stateMutability": "view",
      "type": "function"
    },
    {
      "inputs": [
        {
          "internalType": "address",
          "name": "spender",
          "type": "address"
        },
        {
          "internalType": "uint256",
          "name": "subtractedValue",
          "type": "uint256"
        }
      ],
      "name": "decreaseAllowance",
      "outputs": [
        {
          "internalType": "bool",
          "name": "",
          "type": "bool"
        }
      ],
      "stateMutability": "nonpayable",
      "type": "function"
    },
    {
      "inputs": [],
      "name": "demu",
      "outputs": [
        {
          "internalType": "contract IDemu",
          "name": "",
          "type": "address"
        }
      ],
      "stateMutability": "view",
      "type": "function"
    },
    {
      "inputs": [],
      "name": "demuPrice",
      "outputs": [
        {
          "internalType": "uint256",
          "name": "",
          "type": "uint256"
        }
      ],
      "stateMutability": "view",
      "type": "function"
    },
    {
      "inputs": [
        {
          "internalType": "address",
          "name": "spender",
          "type": "address"
        },
        {
          "internalType": "uint256",
          "name": "addedValue",
          "type": "uint256"
        }
      ],
      "name": "increaseAllowance",
      "outputs": [
        {
          "internalType": "bool",
          "name": "",
          "type": "bool"
        }
      ],
      "stateMutability": "nonpayable",
      "type": "function"
    },
    {
      "inputs": [
        {
          "components": [
            {
              "internalType": "address",
              "name": "account",
              "type": "address"
            },
            {
              "internalType": "bool",
              "name": "withdraw",
              "type": "bool"
            },
            {
              "internalType": "address",
              "name": "receiver",
              "type": "address"
            }
          ],
          "internalType": "struct DToken.LiquidationParams",
          "name": "params",
          "type": "tuple"
        }
      ],
      "name": "liquidate",
      "outputs": [],
      "stateMutability": "nonpayable",
      "type": "function"
    },
    {
      "inputs": [],
      "name": "liquidationIncentive",
      "outputs": [
        {
          "internalType": "uint256",
          "name": "",
          "type": "uint256"
        }
      ],
      "stateMutability": "view",
      "type": "function"
    },
    {
      "inputs": [],
      "name": "ltv",
      "outputs": [
        {
          "internalType": "uint256",
          "name": "",
          "type": "uint256"
        }
      ],
      "stateMutability": "view",
      "type": "function"
    },
    {
      "inputs": [
        {
          "internalType": "address",
          "name": "account",
          "type": "address"
        }
      ],
      "name": "maxDebt",
      "outputs": [
        {
          "internalType": "uint256",
          "name": "",
          "type": "uint256"
        }
      ],
      "stateMutability": "view",
      "type": "function"
    },
    {
      "inputs": [
        {
          "internalType": "uint256",
          "name": "amount",
          "type": "uint256"
        }
      ],
      "name": "mintDemu",
      "outputs": [],
      "stateMutability": "nonpayable",
      "type": "function"
    },
    {
      "inputs": [
        {
          "internalType": "bytes[]",
          "name": "data",
          "type": "bytes[]"
        }
      ],
      "name": "multicall",
      "outputs": [
        {
          "internalType": "bytes[]",
          "name": "results",
          "type": "bytes[]"
        }
      ],
      "stateMutability": "nonpayable",
      "type": "function"
    },
    {
      "inputs": [],
      "name": "name",
      "outputs": [
        {
          "internalType": "string",
          "name": "",
          "type": "string"
        }
      ],
      "stateMutability": "view",
      "type": "function"
    },
    {
      "inputs": [],
      "name": "oracle",
      "outputs": [
        {
          "internalType": "address",
          "name": "",
          "type": "address"
        }
      ],
      "stateMutability": "view",
      "type": "function"
    },
    {
      "inputs": [
        {
          "internalType": "uint256",
          "name": "amount",
          "type": "uint256"
        }
      ],
      "name": "supply",
      "outputs": [],
      "stateMutability": "nonpayable",
      "type": "function"
    },
    {
      "inputs": [],
      "name": "symbol",
      "outputs": [
        {
          "internalType": "string",
          "name": "",
          "type": "string"
        }
      ],
      "stateMutability": "view",
      "type": "function"
    },
    {
      "inputs": [],
      "name": "totalSupply",
      "outputs": [
        {
          "internalType": "uint256",
          "name": "",
          "type": "uint256"
        }
      ],
      "stateMutability": "view",
      "type": "function"
    },
    {
      "inputs": [
        {
          "internalType": "address",
          "name": "",
          "type": "address"
        },
        {
          "internalType": "uint256",
          "name": "",
          "type": "uint256"
        }
      ],
      "name": "transfer",
      "outputs": [
        {
          "internalType": "bool",
          "name": "",
          "type": "bool"
        }
      ],
      "stateMutability": "pure",
      "type": "function"
    },
    {
      "inputs": [
        {
          "internalType": "address",
          "name": "",
          "type": "address"
        },
        {
          "internalType": "address",
          "name": "",
          "type": "address"
        },
        {
          "internalType": "uint256",
          "name": "",
          "type": "uint256"
        }
      ],
      "name": "transferFrom",
      "outputs": [
        {
          "internalType": "bool",
          "name": "",
          "type": "bool"
        }
      ],
      "stateMutability": "pure",
      "type": "function"
    },
    {
      "inputs": [],
      "name": "underlying",
      "outputs": [
        {
          "internalType": "contract IERC20",
          "name": "",
          "type": "address"
        }
      ],
      "stateMutability": "view",
      "type": "function"
    },
    {
      "inputs": [],
      "name": "underlyingPrice",
      "outputs": [
        {
          "internalType": "uint256",
          "name": "",
          "type": "uint256"
        }
      ],
      "stateMutability": "view",
      "type": "function"
    },
    {
      "inputs": [
        {
          "internalType": "uint256",
          "name": "amount",
          "type": "uint256"
        }
      ],
      "name": "withdraw",
      "outputs": [],
      "stateMutability": "nonpayable",
      "type": "function"
    }
  ],
  "bytecode": "0x60a06040523480156200001157600080fd5b5060405162003b0338038062003b03833981810160405281019062000037919062000291565b868681600390805190602001906200005192919062000141565b5080600490805190602001906200006a92919062000141565b50505084600560006101000a81548173ffffffffffffffffffffffffffffffffffffffff021916908373ffffffffffffffffffffffffffffffffffffffff160217905550836006819055508260078190555081600860006101000a81548173ffffffffffffffffffffffffffffffffffffffff021916908373ffffffffffffffffffffffffffffffffffffffff1602179055508073ffffffffffffffffffffffffffffffffffffffff1660808173ffffffffffffffffffffffffffffffffffffffff1660601b815250505050505050505062000552565b8280546200014f9062000443565b90600052602060002090601f016020900481019282620001735760008555620001bf565b82601f106200018e57805160ff1916838001178555620001bf565b82800160010185558215620001bf579182015b82811115620001be578251825591602001919060010190620001a1565b5b509050620001ce9190620001d2565b5090565b5b80821115620001ed576000816000905550600101620001d3565b5090565b600062000208620002028462000399565b62000370565b9050828152602081018484840111156200022157600080fd5b6200022e8482856200040d565b509392505050565b60008151905062000247816200051e565b92915050565b600082601f8301126200025f57600080fd5b815162000271848260208601620001f1565b91505092915050565b6000815190506200028b8162000538565b92915050565b600080600080600080600060e0888a031215620002ad57600080fd5b600088015167ffffffffffffffff811115620002c857600080fd5b620002d68a828b016200024d565b975050602088015167ffffffffffffffff811115620002f457600080fd5b620003028a828b016200024d565b9650506040620003158a828b0162000236565b9550506060620003288a828b016200027a565b94505060806200033b8a828b016200027a565b93505060a06200034e8a828b0162000236565b92505060c0620003618a828b0162000236565b91505092959891949750929550565b60006200037c6200038f565b90506200038a828262000479565b919050565b6000604051905090565b600067ffffffffffffffff821115620003b757620003b6620004de565b5b620003c2826200050d565b9050602081019050919050565b6000620003dc82620003e3565b9050919050565b600073ffffffffffffffffffffffffffffffffffffffff82169050919050565b6000819050919050565b60005b838110156200042d57808201518184015260208101905062000410565b838111156200043d576000848401525b50505050565b600060028204905060018216806200045c57607f821691505b60208210811415620004735762000472620004af565b5b50919050565b62000484826200050d565b810181811067ffffffffffffffff82111715620004a657620004a5620004de565b5b80604052505050565b7f4e487b7100000000000000000000000000000000000000000000000000000000600052602260045260246000fd5b7f4e487b7100000000000000000000000000000000000000000000000000000000600052604160045260246000fd5b6000601f19601f8301169050919050565b6200052981620003cf565b81146200053557600080fd5b50565b620005438162000403565b81146200054f57600080fd5b50565b60805160601c61357d62000586600039600081816106a701528181610d510152818161100f01526112f2015261357d6000f3fe608060405234801561001057600080fd5b50600436106101c35760003560e01c80637dc0d1d0116100f9578063a9059cbb11610097578063bef7f36511610071578063bef7f36514610544578063d26aa68e14610574578063dd62ed3e14610590578063efa32d49146105c0576101c3565b8063a9059cbb146104b4578063ac9650d8146104e4578063b9637e4914610514576101c3565b806395d89b41116100d357806395d89b4114610418578063966de33d146104365780639b6c56ec14610454578063a457c2d714610484576101c3565b80637dc0d1d0146103be5780638c765e94146103dc57806394e96dc9146103fa576101c3565b806335403023116101665780636f307dc3116101405780636f307dc3146103225780636fb49d731461034057806370a082311461035e5780637544aa441461038e576101c3565b806335403023146102ba57806339509351146102d657806343553c4b14610306576101c3565b806318160ddd116101a257806318160ddd1461023257806323b872dd146102505780632e1a7d4d14610280578063313ce5671461029c576101c3565b8062981f86146101c857806306fdde03146101e4578063095ea7b314610202575b600080fd5b6101e260048036038101906101dd91906123c4565b6105de565b005b6101ec610855565b6040516101f99190612900565b60405180910390f35b61021c600480360381019061021791906122f1565b6108e7565b60405161022991906128af565b60405180910390f35b61023a61090a565b6040516102479190612b02565b60405180910390f35b61026a600480360381019061026591906122a2565b610914565b60405161027791906128af565b60405180910390f35b61029a600480360381019061029591906123ed565b61091d565b005b6102a4610ae0565b6040516102b19190612b1d565b60405180910390f35b6102d460048036038101906102cf91906123ed565b610ae9565b005b6102f060048036038101906102eb91906122f1565b610c0e565b6040516102fd91906128af565b60405180910390f35b610320600480360381019061031b91906123ed565b610c45565b005b61032a610de8565b60405161033791906128e5565b60405180910390f35b610348610e12565b6040516103559190612b02565b60405180910390f35b6103786004803603810190610373919061223d565b610e1c565b6040516103859190612b02565b60405180910390f35b6103a860048036038101906103a3919061223d565b610e64565b6040516103b59190612b02565b60405180910390f35b6103c6610ea0565b6040516103d39190612812565b60405180910390f35b6103e4610eca565b6040516103f19190612b02565b60405180910390f35b610402610ed4565b60405161040f9190612b02565b60405180910390f35b610420610f7b565b60405161042d9190612900565b60405180910390f35b61043e61100d565b60405161044b91906128ca565b60405180910390f35b61046e6004803603810190610469919061223d565b611031565b60405161047b9190612b02565b60405180910390f35b61049e600480360381019061049991906122f1565b611049565b6040516104ab91906128af565b60405180910390f35b6104ce60048036038101906104c991906122f1565b6110c0565b6040516104db91906128af565b60405180910390f35b6104fe60048036038101906104f9919061232d565b6110c8565b60405161050b919061288d565b60405180910390f35b61052e6004803603810190610529919061223d565b611246565b60405161053b9190612b02565b60405180910390f35b61055e6004803603810190610559919061223d565b6112b4565b60405161056b9190612b02565b60405180910390f35b61058e600480360381019061058991906123ed565b6112f0565b005b6105aa60048036038101906105a59190612266565b6113e4565b6040516105b79190612b02565b60405180910390f35b6105c861146b565b6040516105d59190612b02565b60405180910390f35b60006105fb8260000160208101906105f6919061223d565b6112b4565b9050600060096000846000016020810190610616919061223d565b73ffffffffffffffffffffffffffffffffffffffff1673ffffffffffffffffffffffffffffffffffffffff168152602001908152602001600020549050818111610695576040517f08c379a000000000000000000000000000000000000000000000000000000000815260040161068c906129e2565b60405180910390fd5b600082826106a39190612e5d565b90507f000000000000000000000000000000000000000000000000000000000000000073ffffffffffffffffffffffffffffffffffffffff16639dc29fac6106e961153f565b836040518363ffffffff1660e01b8152600401610707929190612864565b600060405180830381600087803b15801561072157600080fd5b505af1158015610735573d6000803e3d6000fd5b505050506000610743610ed4565b8261074e9190612e03565b9050600061075a61146b565b826107659190612c61565b90506000670de0b6b3a7640000600754670de0b6b3a76400006107889190612c0b565b836107939190612e03565b61079d9190612c61565b90506107c38760000160208101906107b5919061223d565b6107bd61153f565b83611547565b8660200160208101906107d69190612372565b1561084c576107ec6107e661153f565b826117c8565b61084b876040016020810190610802919061223d565b82600560009054906101000a900473ffffffffffffffffffffffffffffffffffffffff1673ffffffffffffffffffffffffffffffffffffffff1661199f9092919063ffffffff16565b5b50505050505050565b60606003805461086490612f95565b80601f016020809104026020016040519081016040528092919081815260200182805461089090612f95565b80156108dd5780601f106108b2576101008083540402835291602001916108dd565b820191906000526020600020905b8154815290600101906020018083116108c057829003601f168201915b5050505050905090565b6000806108f261153f565b90506108ff818585611a25565b600191505092915050565b6000600254905090565b60009392505050565b61092e61092861153f565b826117c8565b610a3f3033600560009054906101000a900473ffffffffffffffffffffffffffffffffffffffff1673ffffffffffffffffffffffffffffffffffffffff1663313ce5676040518163ffffffff1660e01b815260040160206040518083038186803b15801561099b57600080fd5b505afa1580156109af573d6000803e3d6000fd5b505050506040513d601f19601f820116820180604052508101906109d3919061243f565b60126109df9190612e91565b600a6109eb9190612ce5565b846109f69190612c61565b600560009054906101000a900473ffffffffffffffffffffffffffffffffffffffff1673ffffffffffffffffffffffffffffffffffffffff16611bf0909392919063ffffffff16565b6000610a51610a4c61153f565b6112b4565b905060096000610a5f61153f565b73ffffffffffffffffffffffffffffffffffffffff1673ffffffffffffffffffffffffffffffffffffffff16815260200190815260200160002054811115610adc576040517f08c379a0000000000000000000000000000000000000000000000000000000008152600401610ad3906129c2565b60405180910390fd5b5050565b60006012905090565b610b38333083600560009054906101000a900473ffffffffffffffffffffffffffffffffffffffff1673ffffffffffffffffffffffffffffffffffffffff16611bf0909392919063ffffffff16565b610c0b610b4361153f565b600560009054906101000a900473ffffffffffffffffffffffffffffffffffffffff1673ffffffffffffffffffffffffffffffffffffffff1663313ce5676040518163ffffffff1660e01b815260040160206040518083038186803b158015610bab57600080fd5b505afa158015610bbf573d6000803e3d6000fd5b505050506040513d601f19601f82011682018060405250810190610be3919061243f565b6012610bef9190612e91565b600a610bfb9190612ce5565b83610c069190612e03565b611c79565b50565b600080610c1961153f565b9050610c3a818585610c2b85896113e4565b610c359190612c0b565b611a25565b600191505092915050565b600060096000610c5361153f565b73ffffffffffffffffffffffffffffffffffffffff1673ffffffffffffffffffffffffffffffffffffffff1681526020019081526020016000205490506000610ca2610c9d61153f565b6112b4565b9050808383610cb19190612c0b565b1115610cf2576040517f08c379a0000000000000000000000000000000000000000000000000000000008152600401610ce9906129e2565b60405180910390fd5b8260096000610cff61153f565b73ffffffffffffffffffffffffffffffffffffffff1673ffffffffffffffffffffffffffffffffffffffff1681526020019081526020016000206000828254610d489190612c0b565b925050819055507f000000000000000000000000000000000000000000000000000000000000000073ffffffffffffffffffffffffffffffffffffffff166340c10f19610d9361153f565b856040518363ffffffff1660e01b8152600401610db1929190612864565b600060405180830381600087803b158015610dcb57600080fd5b505af1158015610ddf573d6000803e3d6000fd5b50505050505050565b6000600560009054906101000a900473ffffffffffffffffffffffffffffffffffffffff16905090565b6000600654905090565b60008060008373ffffffffffffffffffffffffffffffffffffffff1673ffffffffffffffffffffffffffffffffffffffff168152602001908152602001600020549050919050565b600080610e7083610e1c565b9050670de0b6b3a7640000610e8361146b565b82610e8e9190612e03565b610e989190612c61565b915050919050565b6000600860009054906101000a900473ffffffffffffffffffffffffffffffffffffffff16905090565b6000600754905090565b6000600860009054906101000a900473ffffffffffffffffffffffffffffffffffffffff1673ffffffffffffffffffffffffffffffffffffffff1663c548fb5d6040518163ffffffff1660e01b815260040160206040518083038186803b158015610f3e57600080fd5b505afa158015610f52573d6000803e3d6000fd5b505050506040513d601f19601f82011682018060405250810190610f769190612416565b905090565b606060048054610f8a90612f95565b80601f0160208091040260200160405190810160405280929190818152602001828054610fb690612f95565b80156110035780601f10610fd857610100808354040283529160200191611003565b820191906000526020600020905b815481529060010190602001808311610fe657829003601f168201915b5050505050905090565b7f000000000000000000000000000000000000000000000000000000000000000081565b60096020528060005260406000206000915090505481565b60008061105461153f565b9050600061106282866113e4565b9050838110156110a7576040517f08c379a000000000000000000000000000000000000000000000000000000000815260040161109e90612ac2565b60405180910390fd5b6110b48286868403611a25565b60019250505092915050565b600092915050565b60608282905067ffffffffffffffff81111561110d577f4e487b7100000000000000000000000000000000000000000000000000000000600052604160045260246000fd5b60405190808252806020026020018201604052801561114057816020015b606081526020019060019003908161112b5790505b50905060005b8383905081101561123f576111e83085858481811061118e577f4e487b7100000000000000000000000000000000000000000000000000000000600052603260045260246000fd5b90506020028101906111a09190612b38565b8080601f016020809104026020016040519081016040528093929190818152602001838380828437600081840152601f19601f82011690508083019250505050505050611dd9565b828281518110611221577f4e487b7100000000000000000000000000000000000000000000000000000000600052603260045260246000fd5b6020026020010181905250808061123790612fc7565b915050611146565b5092915050565b6000670de0b6b3a7640000611259610ed4565b600960008573ffffffffffffffffffffffffffffffffffffffff1673ffffffffffffffffffffffffffffffffffffffff168152602001908152602001600020546112a39190612e03565b6112ad9190612c61565b9050919050565b6000806112c083610e64565b9050600060065490506112d1610ed4565b81836112dd9190612e03565b6112e79190612c61565b92505050919050565b7f000000000000000000000000000000000000000000000000000000000000000073ffffffffffffffffffffffffffffffffffffffff16639dc29fac61133461153f565b836040518363ffffffff1660e01b8152600401611352929190612864565b600060405180830381600087803b15801561136c57600080fd5b505af1158015611380573d6000803e3d6000fd5b50505050806009600061139161153f565b73ffffffffffffffffffffffffffffffffffffffff1673ffffffffffffffffffffffffffffffffffffffff16815260200190815260200160002060008282546113da9190612e5d565b9250508190555050565b6000600160008473ffffffffffffffffffffffffffffffffffffffff1673ffffffffffffffffffffffffffffffffffffffff16815260200190815260200160002060008373ffffffffffffffffffffffffffffffffffffffff1673ffffffffffffffffffffffffffffffffffffffff16815260200190815260200160002054905092915050565b6000600860009054906101000a900473ffffffffffffffffffffffffffffffffffffffff1673ffffffffffffffffffffffffffffffffffffffff1663b2f1ee3b600560009054906101000a900473ffffffffffffffffffffffffffffffffffffffff166040518263ffffffff1660e01b81526004016114ea9190612812565b60206040518083038186803b15801561150257600080fd5b505afa158015611516573d6000803e3d6000fd5b505050506040513d601f19601f8201168201806040525081019061153a9190612416565b905090565b600033905090565b600073ffffffffffffffffffffffffffffffffffffffff168373ffffffffffffffffffffffffffffffffffffffff1614156115b7576040517f08c379a00000000000000000000000000000000000000000000000000000000081526004016115ae90612a42565b60405180910390fd5b600073ffffffffffffffffffffffffffffffffffffffff168273ffffffffffffffffffffffffffffffffffffffff161415611627576040517f08c379a000000000000000000000000000000000000000000000000000000000815260040161161e90612922565b60405180910390fd5b611632838383611e06565b60008060008573ffffffffffffffffffffffffffffffffffffffff1673ffffffffffffffffffffffffffffffffffffffff168152602001908152602001600020549050818110156116b8576040517f08c379a00000000000000000000000000000000000000000000000000000000081526004016116af90612982565b60405180910390fd5b8181036000808673ffffffffffffffffffffffffffffffffffffffff1673ffffffffffffffffffffffffffffffffffffffff16815260200190815260200160002081905550816000808573ffffffffffffffffffffffffffffffffffffffff1673ffffffffffffffffffffffffffffffffffffffff168152602001908152602001600020600082825461174b9190612c0b565b925050819055508273ffffffffffffffffffffffffffffffffffffffff168473ffffffffffffffffffffffffffffffffffffffff167fddf252ad1be2c89b69c2b068fc378daa952ba7f163c4a11628f55a4df523b3ef846040516117af9190612b02565b60405180910390a36117c2848484611e0b565b50505050565b600073ffffffffffffffffffffffffffffffffffffffff168273ffffffffffffffffffffffffffffffffffffffff161415611838576040517f08c379a000000000000000000000000000000000000000000000000000000000815260040161182f90612a02565b60405180910390fd5b61184482600083611e06565b60008060008473ffffffffffffffffffffffffffffffffffffffff1673ffffffffffffffffffffffffffffffffffffffff168152602001908152602001600020549050818110156118ca576040517f08c379a00000000000000000000000000000000000000000000000000000000081526004016118c190612942565b60405180910390fd5b8181036000808573ffffffffffffffffffffffffffffffffffffffff1673ffffffffffffffffffffffffffffffffffffffff1681526020019081526020016000208190555081600260008282546119219190612e5d565b92505081905550600073ffffffffffffffffffffffffffffffffffffffff168373ffffffffffffffffffffffffffffffffffffffff167fddf252ad1be2c89b69c2b068fc378daa952ba7f163c4a11628f55a4df523b3ef846040516119869190612b02565b60405180910390a361199a83600084611e0b565b505050565b611a208363a9059cbb60e01b84846040516024016119be929190612864565b604051602081830303815290604052907bffffffffffffffffffffffffffffffffffffffffffffffffffffffff19166020820180517bffffffffffffffffffffffffffffffffffffffffffffffffffffffff8381831617835250505050611e10565b505050565b600073ffffffffffffffffffffffffffffffffffffffff168373ffffffffffffffffffffffffffffffffffffffff161415611a95576040517f08c379a0000000000000000000000000000000000000000000000000000000008152600401611a8c90612a62565b60405180910390fd5b600073ffffffffffffffffffffffffffffffffffffffff168273ffffffffffffffffffffffffffffffffffffffff161415611b05576040517f08c379a0000000000000000000000000000000000000000000000000000000008152600401611afc90612962565b60405180910390fd5b80600160008573ffffffffffffffffffffffffffffffffffffffff1673ffffffffffffffffffffffffffffffffffffffff16815260200190815260200160002060008473ffffffffffffffffffffffffffffffffffffffff1673ffffffffffffffffffffffffffffffffffffffff168152602001908152602001600020819055508173ffffffffffffffffffffffffffffffffffffffff168373ffffffffffffffffffffffffffffffffffffffff167f8c5be1e5ebec7d5bd14f71427d1e84f3dd0314c0f7b2291e5b200ac8c7c3b92583604051611be39190612b02565b60405180910390a3505050565b611c73846323b872dd60e01b858585604051602401611c119392919061282d565b604051602081830303815290604052907bffffffffffffffffffffffffffffffffffffffffffffffffffffffff19166020820180517bffffffffffffffffffffffffffffffffffffffffffffffffffffffff8381831617835250505050611e10565b50505050565b600073ffffffffffffffffffffffffffffffffffffffff168273ffffffffffffffffffffffffffffffffffffffff161415611ce9576040517f08c379a0000000000000000000000000000000000000000000000000000000008152600401611ce090612ae2565b60405180910390fd5b611cf560008383611e06565b8060026000828254611d079190612c0b565b92505081905550806000808473ffffffffffffffffffffffffffffffffffffffff1673ffffffffffffffffffffffffffffffffffffffff1681526020019081526020016000206000828254611d5c9190612c0b565b925050819055508173ffffffffffffffffffffffffffffffffffffffff16600073ffffffffffffffffffffffffffffffffffffffff167fddf252ad1be2c89b69c2b068fc378daa952ba7f163c4a11628f55a4df523b3ef83604051611dc19190612b02565b60405180910390a3611dd560008383611e0b565b5050565b6060611dfe838360405180606001604052806027815260200161352160279139611ed7565b905092915050565b505050565b505050565b6000611e72826040518060400160405280602081526020017f5361666545524332303a206c6f772d6c6576656c2063616c6c206661696c65648152508573ffffffffffffffffffffffffffffffffffffffff16611fa49092919063ffffffff16565b9050600081511115611ed25780806020019051810190611e92919061239b565b611ed1576040517f08c379a0000000000000000000000000000000000000000000000000000000008152600401611ec890612aa2565b60405180910390fd5b5b505050565b6060611ee284611fbc565b611f21576040517f08c379a0000000000000000000000000000000000000000000000000000000008152600401611f1890612a22565b60405180910390fd5b6000808573ffffffffffffffffffffffffffffffffffffffff1685604051611f4991906127fb565b600060405180830381855af49150503d8060008114611f84576040519150601f19603f3d011682016040523d82523d6000602084013e611f89565b606091505b5091509150611f99828286611fdf565b925050509392505050565b6060611fb38484600085612046565b90509392505050565b6000808273ffffffffffffffffffffffffffffffffffffffff163b119050919050565b60608315611fef5782905061203f565b6000835111156120025782518084602001fd5b816040517f08c379a00000000000000000000000000000000000000000000000000000000081526004016120369190612900565b60405180910390fd5b9392505050565b60608247101561208b576040517f08c379a0000000000000000000000000000000000000000000000000000000008152600401612082906129a2565b60405180910390fd5b61209485611fbc565b6120d3576040517f08c379a00000000000000000000000000000000000000000000000000000000081526004016120ca90612a82565b60405180910390fd5b6000808673ffffffffffffffffffffffffffffffffffffffff1685876040516120fc91906127fb565b60006040518083038185875af1925050503d8060008114612139576040519150601f19603f3d011682016040523d82523d6000602084013e61213e565b606091505b509150915061214e828286611fdf565b92505050949350505050565b600081359050612169816134c4565b92915050565b60008083601f84011261218157600080fd5b8235905067ffffffffffffffff81111561219a57600080fd5b6020830191508360208202830111156121b257600080fd5b9250929050565b6000813590506121c8816134db565b92915050565b6000815190506121dd816134db565b92915050565b6000606082840312156121f557600080fd5b81905092915050565b60008135905061220d816134f2565b92915050565b600081519050612222816134f2565b92915050565b60008151905061223781613509565b92915050565b60006020828403121561224f57600080fd5b600061225d8482850161215a565b91505092915050565b6000806040838503121561227957600080fd5b60006122878582860161215a565b92505060206122988582860161215a565b9150509250929050565b6000806000606084860312156122b757600080fd5b60006122c58682870161215a565b93505060206122d68682870161215a565b92505060406122e7868287016121fe565b9150509250925092565b6000806040838503121561230457600080fd5b60006123128582860161215a565b9250506020612323858286016121fe565b9150509250929050565b6000806020838503121561234057600080fd5b600083013567ffffffffffffffff81111561235a57600080fd5b6123668582860161216f565b92509250509250929050565b60006020828403121561238457600080fd5b6000612392848285016121b9565b91505092915050565b6000602082840312156123ad57600080fd5b60006123bb848285016121ce565b91505092915050565b6000606082840312156123d657600080fd5b60006123e4848285016121e3565b91505092915050565b6000602082840312156123ff57600080fd5b600061240d848285016121fe565b91505092915050565b60006020828403121561242857600080fd5b600061243684828501612213565b91505092915050565b60006020828403121561245157600080fd5b600061245f84828501612228565b91505092915050565b6000612474838361250f565b905092915050565b61248581612ec5565b82525050565b600061249682612b9f565b6124a08185612bcd565b9350836020820285016124b285612b8f565b8060005b858110156124ee57848403895281516124cf8582612468565b94506124da83612bc0565b925060208a019950506001810190506124b6565b50829750879550505050505092915050565b61250981612ed7565b82525050565b600061251a82612baa565b6125248185612bde565b9350612534818560208601612f62565b61253d8161309d565b840191505092915050565b600061255382612baa565b61255d8185612bef565b935061256d818560208601612f62565b80840191505092915050565b61258281612f1a565b82525050565b61259181612f3e565b82525050565b60006125a282612bb5565b6125ac8185612bfa565b93506125bc818560208601612f62565b6125c58161309d565b840191505092915050565b60006125dd602383612bfa565b91506125e8826130bb565b604082019050919050565b6000612600602283612bfa565b915061260b8261310a565b604082019050919050565b6000612623602283612bfa565b915061262e82613159565b604082019050919050565b6000612646602683612bfa565b9150612651826131a8565b604082019050919050565b6000612669602683612bfa565b9150612674826131f7565b604082019050919050565b600061268c600a83612bfa565b915061269782613246565b602082019050919050565b60006126af600a83612bfa565b91506126ba8261326f565b602082019050919050565b60006126d2602183612bfa565b91506126dd82613298565b604082019050919050565b60006126f5602683612bfa565b9150612700826132e7565b604082019050919050565b6000612718602583612bfa565b915061272382613336565b604082019050919050565b600061273b602483612bfa565b915061274682613385565b604082019050919050565b600061275e601d83612bfa565b9150612769826133d4565b602082019050919050565b6000612781602a83612bfa565b915061278c826133fd565b604082019050919050565b60006127a4602583612bfa565b91506127af8261344c565b604082019050919050565b60006127c7601f83612bfa565b91506127d28261349b565b602082019050919050565b6127e681612f03565b82525050565b6127f581612f0d565b82525050565b60006128078284612548565b915081905092915050565b6000602082019050612827600083018461247c565b92915050565b6000606082019050612842600083018661247c565b61284f602083018561247c565b61285c60408301846127dd565b949350505050565b6000604082019050612879600083018561247c565b61288660208301846127dd565b9392505050565b600060208201905081810360008301526128a7818461248b565b905092915050565b60006020820190506128c46000830184612500565b92915050565b60006020820190506128df6000830184612579565b92915050565b60006020820190506128fa6000830184612588565b92915050565b6000602082019050818103600083015261291a8184612597565b905092915050565b6000602082019050818103600083015261293b816125d0565b9050919050565b6000602082019050818103600083015261295b816125f3565b9050919050565b6000602082019050818103600083015261297b81612616565b9050919050565b6000602082019050818103600083015261299b81612639565b9050919050565b600060208201905081810360008301526129bb8161265c565b9050919050565b600060208201905081810360008301526129db8161267f565b9050919050565b600060208201905081810360008301526129fb816126a2565b9050919050565b60006020820190508181036000830152612a1b816126c5565b9050919050565b60006020820190508181036000830152612a3b816126e8565b9050919050565b60006020820190508181036000830152612a5b8161270b565b9050919050565b60006020820190508181036000830152612a7b8161272e565b9050919050565b60006020820190508181036000830152612a9b81612751565b9050919050565b60006020820190508181036000830152612abb81612774565b9050919050565b60006020820190508181036000830152612adb81612797565b9050919050565b60006020820190508181036000830152612afb816127ba565b9050919050565b6000602082019050612b1760008301846127dd565b92915050565b6000602082019050612b3260008301846127ec565b92915050565b60008083356001602003843603038112612b5157600080fd5b80840192508235915067ffffffffffffffff821115612b6f57600080fd5b602083019250600182023603831315612b8757600080fd5b509250929050565b6000819050602082019050919050565b600081519050919050565b600081519050919050565b600081519050919050565b6000602082019050919050565b600082825260208201905092915050565b600082825260208201905092915050565b600081905092915050565b600082825260208201905092915050565b6000612c1682612f03565b9150612c2183612f03565b9250827fffffffffffffffffffffffffffffffffffffffffffffffffffffffffffffffff03821115612c5657612c55613010565b5b828201905092915050565b6000612c6c82612f03565b9150612c7783612f03565b925082612c8757612c8661303f565b5b828204905092915050565b6000808291508390505b6001851115612cdc57808604811115612cb857612cb7613010565b5b6001851615612cc75780820291505b8081029050612cd5856130ae565b9450612c9c565b94509492505050565b6000612cf082612f03565b9150612cfb83612f0d565b9250612d287fffffffffffffffffffffffffffffffffffffffffffffffffffffffffffffffff8484612d30565b905092915050565b600082612d405760019050612dfc565b81612d4e5760009050612dfc565b8160018114612d645760028114612d6e57612d9d565b6001915050612dfc565b60ff841115612d8057612d7f613010565b5b8360020a915084821115612d9757612d96613010565b5b50612dfc565b5060208310610133831016604e8410600b8410161715612dd25782820a905083811115612dcd57612dcc613010565b5b612dfc565b612ddf8484846001612c92565b92509050818404811115612df657612df5613010565b5b81810290505b9392505050565b6000612e0e82612f03565b9150612e1983612f03565b9250817fffffffffffffffffffffffffffffffffffffffffffffffffffffffffffffffff0483118215151615612e5257612e51613010565b5b828202905092915050565b6000612e6882612f03565b9150612e7383612f03565b925082821015612e8657612e85613010565b5b828203905092915050565b6000612e9c82612f0d565b9150612ea783612f0d565b925082821015612eba57612eb9613010565b5b828203905092915050565b6000612ed082612ee3565b9050919050565b60008115159050919050565b600073ffffffffffffffffffffffffffffffffffffffff82169050919050565b6000819050919050565b600060ff82169050919050565b6000612f2582612f2c565b9050919050565b6000612f3782612ee3565b9050919050565b6000612f4982612f50565b9050919050565b6000612f5b82612ee3565b9050919050565b60005b83811015612f80578082015181840152602081019050612f65565b83811115612f8f576000848401525b50505050565b60006002820490506001821680612fad57607f821691505b60208210811415612fc157612fc061306e565b5b50919050565b6000612fd282612f03565b91507fffffffffffffffffffffffffffffffffffffffffffffffffffffffffffffffff82141561300557613004613010565b5b600182019050919050565b7f4e487b7100000000000000000000000000000000000000000000000000000000600052601160045260246000fd5b7f4e487b7100000000000000000000000000000000000000000000000000000000600052601260045260246000fd5b7f4e487b7100000000000000000000000000000000000000000000000000000000600052602260045260246000fd5b6000601f19601f8301169050919050565b60008160011c9050919050565b7f45524332303a207472616e7366657220746f20746865207a65726f206164647260008201527f6573730000000000000000000000000000000000000000000000000000000000602082015250565b7f45524332303a206275726e20616d6f756e7420657863656564732062616c616e60008201527f6365000000000000000000000000000000000000000000000000000000000000602082015250565b7f45524332303a20617070726f766520746f20746865207a65726f20616464726560008201527f7373000000000000000000000000000000000000000000000000000000000000602082015250565b7f45524332303a207472616e7366657220616d6f756e742065786365656473206260008201527f616c616e63650000000000000000000000000000000000000000000000000000602082015250565b7f416464726573733a20696e73756666696369656e742062616c616e636520666f60008201527f722063616c6c0000000000000000000000000000000000000000000000000000602082015250565b7f5661756c743a2034303300000000000000000000000000000000000000000000600082015250565b7f5661756c743a2034303000000000000000000000000000000000000000000000600082015250565b7f45524332303a206275726e2066726f6d20746865207a65726f2061646472657360008201527f7300000000000000000000000000000000000000000000000000000000000000602082015250565b7f416464726573733a2064656c65676174652063616c6c20746f206e6f6e2d636f60008201527f6e74726163740000000000000000000000000000000000000000000000000000602082015250565b7f45524332303a207472616e736665722066726f6d20746865207a65726f20616460008201527f6472657373000000000000000000000000000000000000000000000000000000602082015250565b7f45524332303a20617070726f76652066726f6d20746865207a65726f2061646460008201527f7265737300000000000000000000000000000000000000000000000000000000602082015250565b7f416464726573733a2063616c6c20746f206e6f6e2d636f6e7472616374000000600082015250565b7f5361666545524332303a204552433230206f7065726174696f6e20646964206e60008201527f6f74207375636365656400000000000000000000000000000000000000000000602082015250565b7f45524332303a2064656372656173656420616c6c6f77616e63652062656c6f7760008201527f207a65726f000000000000000000000000000000000000000000000000000000602082015250565b7f45524332303a206d696e7420746f20746865207a65726f206164647265737300600082015250565b6134cd81612ec5565b81146134d857600080fd5b50565b6134e481612ed7565b81146134ef57600080fd5b50565b6134fb81612f03565b811461350657600080fd5b50565b61351281612f0d565b811461351d57600080fd5b5056fe416464726573733a206c6f772d6c6576656c2064656c65676174652063616c6c206661696c6564a2646970667358221220090224073a65432c0491b15702ca842b66814294f4b01e42a8a6a2f83481aec364736f6c63430008040033",
  "linkReferences": {},
  "deployedLinkReferences": {}
}