{
  "_format": "hh-sol-artifact-1",
  "contractName": "Vault",
  "sourceName": "contracts/Vault.sol",
  "abi": [
    {
      "anonymous": false,
      "inputs": [
        {
          "indexed": false,
          "internalType": "uint8",
          "name": "version",
          "type": "uint8"
        }
      ],
      "name": "Initialized",
      "type": "event"
    },
    {
      "anonymous": false,
      "inputs": [
        {
          "indexed": true,
          "internalType": "address",
          "name": "caller",
          "type": "address"
        }
      ],
      "name": "Liquidate",
      "type": "event"
    },
    {
      "anonymous": false,
      "inputs": [
        {
          "indexed": true,
          "internalType": "address",
          "name": "src",
          "type": "address"
        },
        {
          "indexed": false,
          "internalType": "uint256",
          "name": "amt",
          "type": "uint256"
        }
      ],
      "name": "Supply",
      "type": "event"
    },
    {
      "anonymous": false,
      "inputs": [
        {
          "indexed": true,
          "internalType": "address",
          "name": "src",
          "type": "address"
        },
        {
          "indexed": false,
          "internalType": "uint256",
          "name": "amt",
          "type": "uint256"
        }
      ],
      "name": "Withdraw",
      "type": "event"
    },
    {
      "inputs": [
        {
          "internalType": "address",
          "name": "asset",
          "type": "address"
        }
      ],
      "name": "assetPrice",
      "outputs": [
        {
          "internalType": "uint256",
          "name": "",
          "type": "uint256"
        }
      ],
      "stateMutability": "view",
      "type": "function"
    },
    {
      "inputs": [
        {
          "internalType": "uint256",
          "name": "amount",
          "type": "uint256"
        }
      ],
      "name": "burn",
      "outputs": [],
      "stateMutability": "nonpayable",
      "type": "function"
    },
    {
      "inputs": [
        {
          "internalType": "bytes",
          "name": "",
          "type": "bytes"
        }
      ],
      "name": "checkUpkeep",
      "outputs": [
        {
          "internalType": "bool",
          "name": "upkeepNeeded",
          "type": "bool"
        },
        {
          "internalType": "bytes",
          "name": "performData",
          "type": "bytes"
        }
      ],
      "stateMutability": "view",
      "type": "function"
    },
    {
      "inputs": [],
      "name": "collateral",
      "outputs": [
        {
          "internalType": "uint256",
          "name": "value",
          "type": "uint256"
        }
      ],
      "stateMutability": "view",
      "type": "function"
    },
    {
      "inputs": [],
      "name": "currentDebt",
      "outputs": [
        {
          "internalType": "uint256",
          "name": "",
          "type": "uint256"
        }
      ],
      "stateMutability": "view",
      "type": "function"
    },
    {
      "inputs": [],
      "name": "dataProvider",
      "outputs": [
        {
          "internalType": "address",
          "name": "",
          "type": "address"
        }
      ],
      "stateMutability": "view",
      "type": "function"
    },
    {
      "inputs": [],
      "name": "demuPrice",
      "outputs": [
        {
          "internalType": "uint256",
          "name": "",
          "type": "uint256"
        }
      ],
      "stateMutability": "view",
      "type": "function"
    },
    {
      "inputs": [
        {
          "internalType": "address",
          "name": "dataProvider_",
          "type": "address"
        },
        {
          "internalType": "address",
          "name": "owner_",
          "type": "address"
        }
      ],
      "name": "initialize",
      "outputs": [],
      "stateMutability": "nonpayable",
      "type": "function"
    },
    {
      "inputs": [
        {
          "components": [
            {
              "internalType": "address[]",
              "name": "assets",
              "type": "address[]"
            },
            {
              "internalType": "address",
              "name": "liquidator",
              "type": "address"
            }
          ],
          "internalType": "struct Vault.LiquidationParams",
          "name": "params",
          "type": "tuple"
        }
      ],
      "name": "liquidate",
      "outputs": [],
      "stateMutability": "nonpayable",
      "type": "function"
    },
    {
      "inputs": [],
      "name": "maxDebt",
      "outputs": [
        {
          "internalType": "uint256",
          "name": "",
          "type": "uint256"
        }
      ],
      "stateMutability": "view",
      "type": "function"
    },
    {
      "inputs": [],
      "name": "maxMintable",
      "outputs": [
        {
          "internalType": "uint256",
          "name": "",
          "type": "uint256"
        }
      ],
      "stateMutability": "view",
      "type": "function"
    },
    {
      "inputs": [
        {
          "internalType": "uint256",
          "name": "amount",
          "type": "uint256"
        }
      ],
      "name": "mint",
      "outputs": [],
      "stateMutability": "nonpayable",
      "type": "function"
    },
    {
      "inputs": [
        {
          "internalType": "bytes[]",
          "name": "data",
          "type": "bytes[]"
        }
      ],
      "name": "multicall",
      "outputs": [
        {
          "internalType": "bytes[]",
          "name": "results",
          "type": "bytes[]"
        }
      ],
      "stateMutability": "nonpayable",
      "type": "function"
    },
    {
      "inputs": [],
      "name": "owner",
      "outputs": [
        {
          "internalType": "address",
          "name": "",
          "type": "address"
        }
      ],
      "stateMutability": "view",
      "type": "function"
    },
    {
      "inputs": [
        {
          "internalType": "bytes",
          "name": "performData",
          "type": "bytes"
        }
      ],
      "name": "performUpkeep",
      "outputs": [],
      "stateMutability": "nonpayable",
      "type": "function"
    },
    {
      "inputs": [
        {
          "internalType": "address",
          "name": "asset",
          "type": "address"
        },
        {
          "internalType": "uint256",
          "name": "amount",
          "type": "uint256"
        }
      ],
      "name": "supply",
      "outputs": [],
      "stateMutability": "nonpayable",
      "type": "function"
    },
    {
      "inputs": [
        {
          "internalType": "address",
          "name": "asset",
          "type": "address"
        },
        {
          "internalType": "uint256",
          "name": "amount",
          "type": "uint256"
        },
        {
          "internalType": "uint256",
          "name": "deadline",
          "type": "uint256"
        },
        {
          "internalType": "uint8",
          "name": "v",
          "type": "uint8"
        },
        {
          "internalType": "bytes32",
          "name": "r",
          "type": "bytes32"
        },
        {
          "internalType": "bytes32",
          "name": "s",
          "type": "bytes32"
        }
      ],
      "name": "supplyWithPermit",
      "outputs": [],
      "stateMutability": "nonpayable",
      "type": "function"
    },
    {
      "inputs": [
        {
          "internalType": "address",
          "name": "asset",
          "type": "address"
        },
        {
          "internalType": "uint256",
          "name": "amount",
          "type": "uint256"
        }
      ],
      "name": "withdraw",
      "outputs": [],
      "stateMutability": "nonpayable",
      "type": "function"
    }
  ],
  "bytecode": "0x608060405234801561001057600080fd5b50613854806100206000396000f3fe608060405234801561001057600080fd5b50600436106101165760003560e01c806394e96dc9116100a2578063b883b05811610071578063b883b058146102ba578063d0064c00146102ea578063d8dfeb4514610308578063f2b9fdb814610326578063f3fef3a31461034257610116565b806394e96dc914610232578063a0712d6814610250578063ac9650d81461026c578063b334ed861461029c57610116565b8063485cc955116100e9578063485cc9551461018d5780636e04ff0d146101a95780636fff45ed146101da578063759076e5146101f65780638da5cb5b1461021457610116565b80632154dc391461011b578063280c45f21461013957806342966c68146101555780634585e33b14610171575b600080fd5b61012361035e565b6040516101309190612ff5565b60405180910390f35b610153600480360381019061014e9190612931565b610379565b005b61016f600480360381019061016a9190612972565b610905565b005b61018b600480360381019061018691906128ec565b610ad1565b005b6101a760048036038101906101a2919061273c565b610af2565b005b6101c360048036038101906101be91906128ec565b610ce4565b6040516101d1929190612e86565b60405180910390f35b6101f460048036038101906101ef91906127b4565b61102b565b005b6101fe611152565b60405161020b9190612ff5565b60405180910390f35b61021c611181565b6040516102299190612d7a565b60405180910390f35b61023a6111aa565b6040516102479190612ff5565b60405180910390f35b61026a60048036038101906102659190612972565b6112ce565b005b6102866004803603810190610281919061287e565b6114eb565b6040516102939190612e64565b60405180910390f35b6102a4611669565b6040516102b19190612d7a565b60405180910390f35b6102d460048036038101906102cf91906126ea565b611693565b6040516102e19190612ff5565b60405180910390f35b6102f26117c4565b6040516102ff9190612ff5565b60405180910390f35b6103106117eb565b60405161031d9190612ff5565b60405180910390f35b610340600480360381019061033b9190612778565b611b3d565b005b61035c60048036038101906103579190612778565b611be2565b005b6000600261036a6117eb565b61037491906131d4565b905090565b60006103836117c4565b9050600061038f611152565b90508181116103d3576040517f08c379a00000000000000000000000000000000000000000000000000000000081526004016103ca90612f53565b60405180910390fd5b600082826103e191906133d0565b905060006103ed6111aa565b826103f891906131d4565b90506000600160009054906101000a900473ffffffffffffffffffffffffffffffffffffffff1673ffffffffffffffffffffffffffffffffffffffff1663966de33d6040518163ffffffff1660e01b815260040160206040518083038186803b15801561046457600080fd5b505afa158015610478573d6000803e3d6000fd5b505050506040513d601f19601f8201168201806040525081019061049c9190612713565b90506000866000015151905060005b8181101561084357600085116104c057610843565b6000886000015182815181106104ff577f4e487b7100000000000000000000000000000000000000000000000000000000600052603260045260246000fd5b602002602001015190506000600260008373ffffffffffffffffffffffffffffffffffffffff1673ffffffffffffffffffffffffffffffffffffffff1681526020019081526020016000205490506000600160009054906101000a900473ffffffffffffffffffffffffffffffffffffffff1673ffffffffffffffffffffffffffffffffffffffff16637dc0d1d06040518163ffffffff1660e01b815260040160206040518083038186803b1580156105b757600080fd5b505afa1580156105cb573d6000803e3d6000fd5b505050506040513d601f19601f820116820180604052508101906105ef9190612713565b73ffffffffffffffffffffffffffffffffffffffff1663b2f1ee3b846040518263ffffffff1660e01b81526004016106279190612d7a565b60206040518083038186803b15801561063f57600080fd5b505afa158015610653573d6000803e3d6000fd5b505050506040513d601f19601f82011682018060405250810190610677919061299b565b90506000670de0b6b3a764000082846106909190613376565b61069a91906131d4565b905060006064606e8b6106ad9190613376565b6106b791906131d4565b8210156106c6578390506106f6565b828a6106d291906131d4565b9050670de0b6b3a764000083826106e99190613376565b6106f391906131d4565b91505b61073d8d60200151606e606c8461070d9190613376565b61071791906131d4565b8773ffffffffffffffffffffffffffffffffffffffff16611dae9092919063ffffffff16565b61081f600160009054906101000a900473ffffffffffffffffffffffffffffffffffffffff1673ffffffffffffffffffffffffffffffffffffffff16639cf160f66040518163ffffffff1660e01b815260040160206040518083038186803b1580156107a857600080fd5b505afa1580156107bc573d6000803e3d6000fd5b505050506040513d601f19601f820116820180604052508101906107e09190612713565b606e6002846107ef9190613376565b6107f991906131d4565b8773ffffffffffffffffffffffffffffffffffffffff16611dae9092919063ffffffff16565b818a61082b91906133d0565b995050505050508061083c906134d9565b90506104ab565b508173ffffffffffffffffffffffffffffffffffffffff16639dc29fac8860200151856040518363ffffffff1660e01b8152600401610883929190612e3b565b600060405180830381600087803b15801561089d57600080fd5b505af11580156108b1573d6000803e3d6000fd5b50505050866020015173ffffffffffffffffffffffffffffffffffffffff167ffe9ab305f21f5b394ea34792dddc6438e3cfbc8ab12a5647094046074ff1309d60405160405180910390a250505050505050565b600060029054906101000a900473ffffffffffffffffffffffffffffffffffffffff1673ffffffffffffffffffffffffffffffffffffffff16610946611e34565b73ffffffffffffffffffffffffffffffffffffffff161461099c576040517f08c379a000000000000000000000000000000000000000000000000000000000815260040161099390612ef3565b60405180910390fd5b6000600160009054906101000a900473ffffffffffffffffffffffffffffffffffffffff1673ffffffffffffffffffffffffffffffffffffffff1663966de33d6040518163ffffffff1660e01b815260040160206040518083038186803b158015610a0657600080fd5b505afa158015610a1a573d6000803e3d6000fd5b505050506040513d601f19601f82011682018060405250810190610a3e9190612713565b90508073ffffffffffffffffffffffffffffffffffffffff16639dc29fac610a64611e34565b846040518363ffffffff1660e01b8152600401610a82929190612e3b565b600060405180830381600087803b158015610a9c57600080fd5b505af1158015610ab0573d6000803e3d6000fd5b505050508160036000828254610ac691906133d0565b925050819055505050565b60008282810190610ae29190612931565b9050610aed81610379565b505050565b60008060019054906101000a900460ff16159050808015610b235750600160008054906101000a900460ff1660ff16105b80610b505750610b3230611e3c565b158015610b4f5750600160008054906101000a900460ff1660ff16145b5b610b8f576040517f08c379a0000000000000000000000000000000000000000000000000000000008152600401610b8690612f33565b60405180910390fd5b60016000806101000a81548160ff021916908360ff1602179055508015610bcc576001600060016101000a81548160ff0219169083151502179055505b82600160006101000a81548173ffffffffffffffffffffffffffffffffffffffff021916908373ffffffffffffffffffffffffffffffffffffffff16021790555081600060026101000a81548173ffffffffffffffffffffffffffffffffffffffff021916908373ffffffffffffffffffffffffffffffffffffffff1602179055507f7f26b83ff96e1f2b6a682f133852f6798a09c465da95921460cefb38474024986001604051610c7e9190612eb6565b60405180910390a18015610cdf5760008060016101000a81548160ff0219169083151502179055507f7f26b83ff96e1f2b6a682f133852f6798a09c465da95921460cefb38474024986001604051610cd69190612eb6565b60405180910390a15b505050565b600060606000600160009054906101000a900473ffffffffffffffffffffffffffffffffffffffff1673ffffffffffffffffffffffffffffffffffffffff1663966de33d6040518163ffffffff1660e01b815260040160206040518083038186803b158015610d5257600080fd5b505afa158015610d66573d6000803e3d6000fd5b505050506040513d601f19601f82011682018060405250810190610d8a9190612713565b90506000600160009054906101000a900473ffffffffffffffffffffffffffffffffffffffff1673ffffffffffffffffffffffffffffffffffffffff16639cf160f66040518163ffffffff1660e01b815260040160206040518083038186803b158015610df657600080fd5b505afa158015610e0a573d6000803e3d6000fd5b505050506040513d601f19601f82011682018060405250810190610e2e9190612713565b905060008273ffffffffffffffffffffffffffffffffffffffff166370a08231836040518263ffffffff1660e01b8152600401610e6b9190612d7a565b60206040518083038186803b158015610e8357600080fd5b505afa158015610e97573d6000803e3d6000fd5b505050506040513d601f19601f82011682018060405250810190610ebb919061299b565b90506000610ec76117c4565b90506000610ed3611152565b90506000601483610ee491906131d4565b905060008383610ef491906133d0565b90506000610f006111aa565b82610f0b91906131d4565b9050828210158015610f1d5750808610155b9950891561101c5760006040518060400160405280600160009054906101000a900473ffffffffffffffffffffffffffffffffffffffff1673ffffffffffffffffffffffffffffffffffffffff1663a80ce55c6040518163ffffffff1660e01b815260040160006040518083038186803b158015610f9a57600080fd5b505afa158015610fae573d6000803e3d6000fd5b505050506040513d6000823e3d601f19601f82011682018060405250810190610fd7919061283d565b81526020018973ffffffffffffffffffffffffffffffffffffffff168152509050806040516020016110099190612fd3565b6040516020818303038152906040529950505b50505050505050509250929050565b600060029054906101000a900473ffffffffffffffffffffffffffffffffffffffff1673ffffffffffffffffffffffffffffffffffffffff1661106c611e34565b73ffffffffffffffffffffffffffffffffffffffff16146110c2576040517f08c379a00000000000000000000000000000000000000000000000000000000081526004016110b990612ef3565b60405180910390fd5b8573ffffffffffffffffffffffffffffffffffffffff1663d505accf6110e6611e34565b3088888888886040518863ffffffff1660e01b815260040161110e9796959493929190612dcc565b600060405180830381600087803b15801561112857600080fd5b505af115801561113c573d6000803e3d6000fd5b5050505061114a8686611e5f565b505050505050565b6000670de0b6b3a76400006111656111aa565b6003546111729190613376565b61117c91906131d4565b905090565b60008060029054906101000a900473ffffffffffffffffffffffffffffffffffffffff16905090565b6000600160009054906101000a900473ffffffffffffffffffffffffffffffffffffffff1673ffffffffffffffffffffffffffffffffffffffff16637dc0d1d06040518163ffffffff1660e01b815260040160206040518083038186803b15801561121457600080fd5b505afa158015611228573d6000803e3d6000fd5b505050506040513d601f19601f8201168201806040525081019061124c9190612713565b73ffffffffffffffffffffffffffffffffffffffff1663c548fb5d6040518163ffffffff1660e01b815260040160206040518083038186803b15801561129157600080fd5b505afa1580156112a5573d6000803e3d6000fd5b505050506040513d601f19601f820116820180604052508101906112c9919061299b565b905090565b600060029054906101000a900473ffffffffffffffffffffffffffffffffffffffff1673ffffffffffffffffffffffffffffffffffffffff1661130f611e34565b73ffffffffffffffffffffffffffffffffffffffff1614611365576040517f08c379a000000000000000000000000000000000000000000000000000000000815260040161135c90612ef3565b60405180910390fd5b6000600160009054906101000a900473ffffffffffffffffffffffffffffffffffffffff1673ffffffffffffffffffffffffffffffffffffffff1663966de33d6040518163ffffffff1660e01b815260040160206040518083038186803b1580156113cf57600080fd5b505afa1580156113e3573d6000803e3d6000fd5b505050506040513d601f19601f820116820180604052508101906114079190612713565b90508073ffffffffffffffffffffffffffffffffffffffff166340c10f1961142d611e34565b846040518363ffffffff1660e01b815260040161144b929190612e3b565b600060405180830381600087803b15801561146557600080fd5b505af1158015611479573d6000803e3d6000fd5b50505050816003600082825461148f919061317e565b9250508190555061149e61035e565b6114a6611152565b11156114e7576040517f08c379a00000000000000000000000000000000000000000000000000000000081526004016114de90612f53565b60405180910390fd5b5050565b60608282905067ffffffffffffffff811115611530577f4e487b7100000000000000000000000000000000000000000000000000000000600052604160045260246000fd5b60405190808252806020026020018201604052801561156357816020015b606081526020019060019003908161154e5790505b50905060005b838390508110156116625761160b308585848181106115b1577f4e487b7100000000000000000000000000000000000000000000000000000000600052603260045260246000fd5b90506020028101906115c39190613010565b8080601f016020809104026020016040519081016040528093929190818152602001838380828437600081840152601f19601f82011690508083019250505050505050611f3e565b828281518110611644577f4e487b7100000000000000000000000000000000000000000000000000000000600052603260045260246000fd5b6020026020010181905250808061165a906134d9565b915050611569565b5092915050565b6000600160009054906101000a900473ffffffffffffffffffffffffffffffffffffffff16905090565b6000600160009054906101000a900473ffffffffffffffffffffffffffffffffffffffff1673ffffffffffffffffffffffffffffffffffffffff16637dc0d1d06040518163ffffffff1660e01b815260040160206040518083038186803b1580156116fd57600080fd5b505afa158015611711573d6000803e3d6000fd5b505050506040513d601f19601f820116820180604052508101906117359190612713565b73ffffffffffffffffffffffffffffffffffffffff1663b2f1ee3b836040518263ffffffff1660e01b815260040161176d9190612d7a565b60206040518083038186803b15801561178557600080fd5b505afa158015611799573d6000803e3d6000fd5b505050506040513d601f19601f820116820180604052508101906117bd919061299b565b9050919050565b6000600a60086117d26117eb565b6117dc9190613376565b6117e691906131d4565b905090565b600080600160009054906101000a900473ffffffffffffffffffffffffffffffffffffffff1673ffffffffffffffffffffffffffffffffffffffff1663a80ce55c6040518163ffffffff1660e01b815260040160006040518083038186803b15801561185657600080fd5b505afa15801561186a573d6000803e3d6000fd5b505050506040513d6000823e3d601f19601f82011682018060405250810190611893919061283d565b905060008151905060005b81811015611b21576000600260008584815181106118e5577f4e487b7100000000000000000000000000000000000000000000000000000000600052603260045260246000fd5b602002602001015173ffffffffffffffffffffffffffffffffffffffff1673ffffffffffffffffffffffffffffffffffffffff1681526020019081526020016000205490506000811115611b0f57600061197f858481518110611971577f4e487b7100000000000000000000000000000000000000000000000000000000600052603260045260246000fd5b602002602001015183611f6b565b90506000600160009054906101000a900473ffffffffffffffffffffffffffffffffffffffff1673ffffffffffffffffffffffffffffffffffffffff16637dc0d1d06040518163ffffffff1660e01b815260040160206040518083038186803b1580156119eb57600080fd5b505afa1580156119ff573d6000803e3d6000fd5b505050506040513d601f19601f82011682018060405250810190611a239190612713565b905060008173ffffffffffffffffffffffffffffffffffffffff1663b2f1ee3b888781518110611a7c577f4e487b7100000000000000000000000000000000000000000000000000000000600052603260045260246000fd5b60200260200101516040518263ffffffff1660e01b8152600401611aa09190612d7a565b60206040518083038186803b158015611ab857600080fd5b505afa158015611acc573d6000803e3d6000fd5b505050506040513d601f19601f82011682018060405250810190611af0919061299b565b90508083611afe9190613376565b88611b09919061317e565b97505050505b5080611b1a906134d9565b905061189e565b50670de0b6b3a764000083611b3691906131d4565b9250505090565b600060029054906101000a900473ffffffffffffffffffffffffffffffffffffffff1673ffffffffffffffffffffffffffffffffffffffff16611b7e611e34565b73ffffffffffffffffffffffffffffffffffffffff1614611bd4576040517f08c379a0000000000000000000000000000000000000000000000000000000008152600401611bcb90612ef3565b60405180910390fd5b611bde8282611e5f565b5050565b600060029054906101000a900473ffffffffffffffffffffffffffffffffffffffff1673ffffffffffffffffffffffffffffffffffffffff16611c23611e34565b73ffffffffffffffffffffffffffffffffffffffff1614611c79576040517f08c379a0000000000000000000000000000000000000000000000000000000008152600401611c7090612ef3565b60405180910390fd5b611c838282612066565b611cb5611c8e611e34565b828473ffffffffffffffffffffffffffffffffffffffff16611dae9092919063ffffffff16565b611cbd6117c4565b611cc5611152565b1115611d06576040517f08c379a0000000000000000000000000000000000000000000000000000000008152600401611cfd90612f53565b60405180910390fd5b80600260008473ffffffffffffffffffffffffffffffffffffffff1673ffffffffffffffffffffffffffffffffffffffff1681526020019081526020016000206000828254611d5591906133d0565b925050819055508173ffffffffffffffffffffffffffffffffffffffff167f884edad9ce6fa2440d8a54cc123490eb96d2768479d49ff9c7366125a942436482604051611da29190612ff5565b60405180910390a25050565b611e2f8363a9059cbb60e01b8484604051602401611dcd929190612e3b565b604051602081830303815290604052907bffffffffffffffffffffffffffffffffffffffffffffffffffffffff19166020820180517bffffffffffffffffffffffffffffffffffffffffffffffffffffffff838183161783525050505061206a565b505050565b600033905090565b6000808273ffffffffffffffffffffffffffffffffffffffff163b119050919050565b611e8c3330838573ffffffffffffffffffffffffffffffffffffffff16612131909392919063ffffffff16565b80600260008473ffffffffffffffffffffffffffffffffffffffff1673ffffffffffffffffffffffffffffffffffffffff1681526020019081526020016000206000828254611edb919061317e565b925050819055508173ffffffffffffffffffffffffffffffffffffffff167fadacf827efe383160192c092d8658471945c074229a9746679b5e2b74adff19182604051611f289190612ff5565b60405180910390a2611f3a82826121ba565b5050565b6060611f6383836040518060600160405280602781526020016137f8602791396121be565b905092915050565b6000808373ffffffffffffffffffffffffffffffffffffffff1663313ce5676040518163ffffffff1660e01b815260040160206040518083038186803b158015611fb457600080fd5b505afa158015611fc8573d6000803e3d6000fd5b505050506040513d601f19601f82011682018060405250810190611fec91906129c4565b60ff16905060128110156120265780601261200791906133d0565b600a6120139190613258565b8361201e9190613376565b915050612060565b601281111561205b5760128161203c91906133d0565b600a6120489190613258565b8361205391906131d4565b915050612060565b829150505b92915050565b5050565b60006120cc826040518060400160405280602081526020017f5361666545524332303a206c6f772d6c6576656c2063616c6c206661696c65648152508573ffffffffffffffffffffffffffffffffffffffff1661228b9092919063ffffffff16565b905060008151111561212c57808060200190518101906120ec91906128c3565b61212b576040517f08c379a000000000000000000000000000000000000000000000000000000000815260040161212290612fb3565b60405180910390fd5b5b505050565b6121b4846323b872dd60e01b85858560405160240161215293929190612d95565b604051602081830303815290604052907bffffffffffffffffffffffffffffffffffffffffffffffffffffffff19166020820180517bffffffffffffffffffffffffffffffffffffffffffffffffffffffff838183161783525050505061206a565b50505050565b5050565b60606121c984611e3c565b612208576040517f08c379a00000000000000000000000000000000000000000000000000000000081526004016121ff90612f73565b60405180910390fd5b6000808573ffffffffffffffffffffffffffffffffffffffff16856040516122309190612d63565b600060405180830381855af49150503d806000811461226b576040519150601f19603f3d011682016040523d82523d6000602084013e612270565b606091505b50915091506122808282866122a3565b925050509392505050565b606061229a848460008561230a565b90509392505050565b606083156122b357829050612303565b6000835111156122c65782518084602001fd5b816040517f08c379a00000000000000000000000000000000000000000000000000000000081526004016122fa9190612ed1565b60405180910390fd5b9392505050565b60608247101561234f576040517f08c379a000000000000000000000000000000000000000000000000000000000815260040161234690612f13565b60405180910390fd5b61235885611e3c565b612397576040517f08c379a000000000000000000000000000000000000000000000000000000000815260040161238e90612f93565b60405180910390fd5b6000808673ffffffffffffffffffffffffffffffffffffffff1685876040516123c09190612d63565b60006040518083038185875af1925050503d80600081146123fd576040519150601f19603f3d011682016040523d82523d6000602084013e612402565b606091505b50915091506124128282866122a3565b92505050949350505050565b600061243161242c8461308c565b613067565b9050808382526020820190508285602086028201111561245057600080fd5b60005b85811015612480578161246688826124f6565b845260208401935060208301925050600181019050612453565b5050509392505050565b600061249d6124988461308c565b613067565b905080838252602082019050828560208602820111156124bc57600080fd5b60005b858110156124ec57816124d2888261250b565b8452602084019350602083019250506001810190506124bf565b5050509392505050565b60008135905061250581613784565b92915050565b60008151905061251a81613784565b92915050565b600082601f83011261253157600080fd5b813561254184826020860161241e565b91505092915050565b600082601f83011261255b57600080fd5b815161256b84826020860161248a565b91505092915050565b60008083601f84011261258657600080fd5b8235905067ffffffffffffffff81111561259f57600080fd5b6020830191508360208202830111156125b757600080fd5b9250929050565b6000815190506125cd8161379b565b92915050565b6000813590506125e2816137b2565b92915050565b60008083601f8401126125fa57600080fd5b8235905067ffffffffffffffff81111561261357600080fd5b60208301915083600182028301111561262b57600080fd5b9250929050565b60006040828403121561264457600080fd5b61264e6040613067565b9050600082013567ffffffffffffffff81111561266a57600080fd5b61267684828501612520565b600083015250602061268a848285016124f6565b60208301525092915050565b6000813590506126a5816137c9565b92915050565b6000815190506126ba816137c9565b92915050565b6000813590506126cf816137e0565b92915050565b6000815190506126e4816137e0565b92915050565b6000602082840312156126fc57600080fd5b600061270a848285016124f6565b91505092915050565b60006020828403121561272557600080fd5b60006127338482850161250b565b91505092915050565b6000806040838503121561274f57600080fd5b600061275d858286016124f6565b925050602061276e858286016124f6565b9150509250929050565b6000806040838503121561278b57600080fd5b6000612799858286016124f6565b92505060206127aa85828601612696565b9150509250929050565b60008060008060008060c087890312156127cd57600080fd5b60006127db89828a016124f6565b96505060206127ec89828a01612696565b95505060406127fd89828a01612696565b945050606061280e89828a016126c0565b935050608061281f89828a016125d3565b92505060a061283089828a016125d3565b9150509295509295509295565b60006020828403121561284f57600080fd5b600082015167ffffffffffffffff81111561286957600080fd5b6128758482850161254a565b91505092915050565b6000806020838503121561289157600080fd5b600083013567ffffffffffffffff8111156128ab57600080fd5b6128b785828601612574565b92509250509250929050565b6000602082840312156128d557600080fd5b60006128e3848285016125be565b91505092915050565b600080602083850312156128ff57600080fd5b600083013567ffffffffffffffff81111561291957600080fd5b612925858286016125e8565b92509250509250929050565b60006020828403121561294357600080fd5b600082013567ffffffffffffffff81111561295d57600080fd5b61296984828501612632565b91505092915050565b60006020828403121561298457600080fd5b600061299284828501612696565b91505092915050565b6000602082840312156129ad57600080fd5b60006129bb848285016126ab565b91505092915050565b6000602082840312156129d657600080fd5b60006129e4848285016126d5565b91505092915050565b60006129f98383612a19565b60208301905092915050565b6000612a118383612b28565b905092915050565b612a2281613404565b82525050565b612a3181613404565b82525050565b6000612a42826130d8565b612a4c818561311e565b9350612a57836130b8565b8060005b83811015612a88578151612a6f88826129ed565b9750612a7a83613104565b925050600181019050612a5b565b5085935050505092915050565b6000612aa0826130e3565b612aaa818561312f565b935083602082028501612abc856130c8565b8060005b85811015612af85784840389528151612ad98582612a05565b9450612ae483613111565b925060208a01995050600181019050612ac0565b50829750879550505050505092915050565b612b1381613416565b82525050565b612b2281613422565b82525050565b6000612b33826130ee565b612b3d8185613140565b9350612b4d818560208601613475565b612b56816135af565b840191505092915050565b6000612b6c826130ee565b612b768185613151565b9350612b86818560208601613475565b612b8f816135af565b840191505092915050565b6000612ba5826130ee565b612baf8185613162565b9350612bbf818560208601613475565b80840191505092915050565b612bd481613463565b82525050565b6000612be5826130f9565b612bef818561316d565b9350612bff818560208601613475565b612c08816135af565b840191505092915050565b6000612c2060108361316d565b9150612c2b826135cd565b602082019050919050565b6000612c4360268361316d565b9150612c4e826135f6565b604082019050919050565b6000612c66602e8361316d565b9150612c7182613645565b604082019050919050565b6000612c8960128361316d565b9150612c9482613694565b602082019050919050565b6000612cac60268361316d565b9150612cb7826136bd565b604082019050919050565b6000612ccf601d8361316d565b9150612cda8261370c565b602082019050919050565b6000612cf2602a8361316d565b9150612cfd82613735565b604082019050919050565b60006040830160008301518482036000860152612d258282612a37565b9150506020830151612d3a6020860182612a19565b508091505092915050565b612d4e8161344c565b82525050565b612d5d81613456565b82525050565b6000612d6f8284612b9a565b915081905092915050565b6000602082019050612d8f6000830184612a28565b92915050565b6000606082019050612daa6000830186612a28565b612db76020830185612a28565b612dc46040830184612d45565b949350505050565b600060e082019050612de1600083018a612a28565b612dee6020830189612a28565b612dfb6040830188612d45565b612e086060830187612d45565b612e156080830186612d54565b612e2260a0830185612b19565b612e2f60c0830184612b19565b98975050505050505050565b6000604082019050612e506000830185612a28565b612e5d6020830184612d45565b9392505050565b60006020820190508181036000830152612e7e8184612a95565b905092915050565b6000604082019050612e9b6000830185612b0a565b8181036020830152612ead8184612b61565b90509392505050565b6000602082019050612ecb6000830184612bcb565b92915050565b60006020820190508181036000830152612eeb8184612bda565b905092915050565b60006020820190508181036000830152612f0c81612c13565b9050919050565b60006020820190508181036000830152612f2c81612c36565b9050919050565b60006020820190508181036000830152612f4c81612c59565b9050919050565b60006020820190508181036000830152612f6c81612c7c565b9050919050565b60006020820190508181036000830152612f8c81612c9f565b9050919050565b60006020820190508181036000830152612fac81612cc2565b9050919050565b60006020820190508181036000830152612fcc81612ce5565b9050919050565b60006020820190508181036000830152612fed8184612d08565b905092915050565b600060208201905061300a6000830184612d45565b92915050565b6000808335600160200384360303811261302957600080fd5b80840192508235915067ffffffffffffffff82111561304757600080fd5b60208301925060018202360383131561305f57600080fd5b509250929050565b6000613071613082565b905061307d82826134a8565b919050565b6000604051905090565b600067ffffffffffffffff8211156130a7576130a6613580565b5b602082029050602081019050919050565b6000819050602082019050919050565b6000819050602082019050919050565b600081519050919050565b600081519050919050565b600081519050919050565b600081519050919050565b6000602082019050919050565b6000602082019050919050565b600082825260208201905092915050565b600082825260208201905092915050565b600082825260208201905092915050565b600082825260208201905092915050565b600081905092915050565b600082825260208201905092915050565b60006131898261344c565b91506131948361344c565b9250827fffffffffffffffffffffffffffffffffffffffffffffffffffffffffffffffff038211156131c9576131c8613522565b5b828201905092915050565b60006131df8261344c565b91506131ea8361344c565b9250826131fa576131f9613551565b5b828204905092915050565b6000808291508390505b600185111561324f5780860481111561322b5761322a613522565b5b600185161561323a5780820291505b8081029050613248856135c0565b945061320f565b94509492505050565b60006132638261344c565b915061326e8361344c565b925061329b7fffffffffffffffffffffffffffffffffffffffffffffffffffffffffffffffff84846132a3565b905092915050565b6000826132b3576001905061336f565b816132c1576000905061336f565b81600181146132d757600281146132e157613310565b600191505061336f565b60ff8411156132f3576132f2613522565b5b8360020a91508482111561330a57613309613522565b5b5061336f565b5060208310610133831016604e8410600b84101617156133455782820a9050838111156133405761333f613522565b5b61336f565b6133528484846001613205565b9250905081840481111561336957613368613522565b5b81810290505b9392505050565b60006133818261344c565b915061338c8361344c565b9250817fffffffffffffffffffffffffffffffffffffffffffffffffffffffffffffffff04831182151516156133c5576133c4613522565b5b828202905092915050565b60006133db8261344c565b91506133e68361344c565b9250828210156133f9576133f8613522565b5b828203905092915050565b600061340f8261342c565b9050919050565b60008115159050919050565b6000819050919050565b600073ffffffffffffffffffffffffffffffffffffffff82169050919050565b6000819050919050565b600060ff82169050919050565b600061346e82613456565b9050919050565b60005b83811015613493578082015181840152602081019050613478565b838111156134a2576000848401525b50505050565b6134b1826135af565b810181811067ffffffffffffffff821117156134d0576134cf613580565b5b80604052505050565b60006134e48261344c565b91507fffffffffffffffffffffffffffffffffffffffffffffffffffffffffffffffff82141561351757613516613522565b5b600182019050919050565b7f4e487b7100000000000000000000000000000000000000000000000000000000600052601160045260246000fd5b7f4e487b7100000000000000000000000000000000000000000000000000000000600052601260045260246000fd5b7f4e487b7100000000000000000000000000000000000000000000000000000000600052604160045260246000fd5b6000601f19601f8301169050919050565b60008160011c9050919050565b7f5661756c743a206e6f74206f776e657200000000000000000000000000000000600082015250565b7f416464726573733a20696e73756666696369656e742062616c616e636520666f60008201527f722063616c6c0000000000000000000000000000000000000000000000000000602082015250565b7f496e697469616c697a61626c653a20636f6e747261637420697320616c72656160008201527f647920696e697469616c697a6564000000000000000000000000000000000000602082015250565b7f5661756c743a206e6f7420616c6c6f7765640000000000000000000000000000600082015250565b7f416464726573733a2064656c65676174652063616c6c20746f206e6f6e2d636f60008201527f6e74726163740000000000000000000000000000000000000000000000000000602082015250565b7f416464726573733a2063616c6c20746f206e6f6e2d636f6e7472616374000000600082015250565b7f5361666545524332303a204552433230206f7065726174696f6e20646964206e60008201527f6f74207375636365656400000000000000000000000000000000000000000000602082015250565b61378d81613404565b811461379857600080fd5b50565b6137a481613416565b81146137af57600080fd5b50565b6137bb81613422565b81146137c657600080fd5b50565b6137d28161344c565b81146137dd57600080fd5b50565b6137e981613456565b81146137f457600080fd5b5056fe416464726573733a206c6f772d6c6576656c2064656c65676174652063616c6c206661696c6564a2646970667358221220fe591a686c1d0ecc501752e97cd1540a5b89cf55a35cf46d2ccc42d6dfd2a94d64736f6c63430008040033",
  "linkReferences": {},
  "deployedLinkReferences": {}
}