{
  "_format": "hh-sol-artifact-1",
  "contractName": "PriceOracle",
  "sourceName": "contracts/PriceOracle.sol",
  "abi": [
    {
      "anonymous": false,
      "inputs": [
        {
          "indexed": true,
          "internalType": "address",
          "name": "asset",
          "type": "address"
        },
        {
          "indexed": false,
          "internalType": "address",
          "name": "aggregator",
          "type": "address"
        }
      ],
      "name": "AssetAggregatorUpdate",
      "type": "event"
    },
    {
      "anonymous": false,
      "inputs": [
        {
          "indexed": true,
          "internalType": "address",
          "name": "aggregator",
          "type": "address"
        }
      ],
      "name": "EurUsdAggregatorUpdate",
      "type": "event"
    },
    {
      "anonymous": false,
      "inputs": [
        {
          "indexed": true,
          "internalType": "address",
          "name": "previousOwner",
          "type": "address"
        },
        {
          "indexed": true,
          "internalType": "address",
          "name": "newOwner",
          "type": "address"
        }
      ],
      "name": "OwnershipTransferred",
      "type": "event"
    },
    {
      "inputs": [
        {
          "internalType": "address",
          "name": "asset",
          "type": "address"
        }
      ],
      "name": "getAssetAggregator",
      "outputs": [
        {
          "internalType": "address",
          "name": "",
          "type": "address"
        }
      ],
      "stateMutability": "view",
      "type": "function"
    },
    {
      "inputs": [
        {
          "internalType": "address",
          "name": "asset",
          "type": "address"
        }
      ],
      "name": "getAssetPriceEUR",
      "outputs": [
        {
          "internalType": "uint256",
          "name": "",
          "type": "uint256"
        }
      ],
      "stateMutability": "view",
      "type": "function"
    },
    {
      "inputs": [],
      "name": "getDemuPriceEUR",
      "outputs": [
        {
          "internalType": "uint256",
          "name": "",
          "type": "uint256"
        }
      ],
      "stateMutability": "pure",
      "type": "function"
    },
    {
      "inputs": [],
      "name": "getEurUsdAggregator",
      "outputs": [
        {
          "internalType": "address",
          "name": "",
          "type": "address"
        }
      ],
      "stateMutability": "view",
      "type": "function"
    },
    {
      "inputs": [],
      "name": "owner",
      "outputs": [
        {
          "internalType": "address",
          "name": "",
          "type": "address"
        }
      ],
      "stateMutability": "view",
      "type": "function"
    },
    {
      "inputs": [],
      "name": "renounceOwnership",
      "outputs": [],
      "stateMutability": "nonpayable",
      "type": "function"
    },
    {
      "inputs": [
        {
          "internalType": "address",
          "name": "asset",
          "type": "address"
        },
        {
          "internalType": "address",
          "name": "aggregator",
          "type": "address"
        }
      ],
      "name": "setAggregatorForAsset",
      "outputs": [],
      "stateMutability": "nonpayable",
      "type": "function"
    },
    {
      "inputs": [
        {
          "internalType": "address[]",
          "name": "assets",
          "type": "address[]"
        },
        {
          "internalType": "address[]",
          "name": "aggregators",
          "type": "address[]"
        }
      ],
      "name": "setAggregatorsorAssets",
      "outputs": [],
      "stateMutability": "nonpayable",
      "type": "function"
    },
    {
      "inputs": [
        {
          "internalType": "address",
          "name": "aggregator",
          "type": "address"
        }
      ],
      "name": "setEURUSDAggregator",
      "outputs": [],
      "stateMutability": "nonpayable",
      "type": "function"
    },
    {
      "inputs": [
        {
          "internalType": "address",
          "name": "newOwner",
          "type": "address"
        }
      ],
      "name": "transferOwnership",
      "outputs": [],
      "stateMutability": "nonpayable",
      "type": "function"
    }
  ],
  "bytecode": "0x608060405234801561001057600080fd5b5061002d61002261003260201b60201c565b61003a60201b60201c565b6100fe565b600033905090565b60008060009054906101000a900473ffffffffffffffffffffffffffffffffffffffff169050816000806101000a81548173ffffffffffffffffffffffffffffffffffffffff021916908373ffffffffffffffffffffffffffffffffffffffff1602179055508173ffffffffffffffffffffffffffffffffffffffff168173ffffffffffffffffffffffffffffffffffffffff167f8be0079c531659141344cd1fd0a4f28419497f9722a3daafe3b4186f6b6457e060405160405180910390a35050565b6111458061010d6000396000f3fe608060405234801561001057600080fd5b506004361061009e5760003560e01c80638da5cb5b116100665780638da5cb5b14610133578063b2f1ee3b14610151578063bd77185614610181578063c548fb5d1461019d578063f2fde38b146101bb5761009e565b80630dad8a08146100a35780634f196377146100d357806355810f8d146100f15780637122e7f61461010d578063715018a614610129575b600080fd5b6100bd60048036038101906100b89190610b4c565b6101d7565b6040516100ca9190610d70565b60405180910390f35b6100db610240565b6040516100e89190610d70565b60405180910390f35b61010b60048036038101906101069190610bb1565b61026a565b005b61012760048036038101906101229190610b4c565b610342565b005b6101316103d1565b005b61013b6103e5565b6040516101489190610d70565b60405180910390f35b61016b60048036038101906101669190610b4c565b61040e565b6040516101789190610e0b565b60405180910390f35b61019b60048036038101906101969190610b75565b6105b5565b005b6101a561068d565b6040516101b29190610e0b565b60405180910390f35b6101d560048036038101906101d09190610b4c565b61069d565b005b6000600160008373ffffffffffffffffffffffffffffffffffffffff1673ffffffffffffffffffffffffffffffffffffffff16815260200190815260200160002060009054906101000a900473ffffffffffffffffffffffffffffffffffffffff169050919050565b6000600260009054906101000a900473ffffffffffffffffffffffffffffffffffffffff16905090565b610272610721565b600084849050905060005b8181101561033a576103298686838181106102c1577f4e487b7100000000000000000000000000000000000000000000000000000000600052603260045260246000fd5b90506020020160208101906102d69190610b4c565b85858481811061030f577f4e487b7100000000000000000000000000000000000000000000000000000000600052603260045260246000fd5b90506020020160208101906103249190610b4c565b6105b5565b8061033390610f2b565b905061027d565b505050505050565b61034a610721565b80600260006101000a81548173ffffffffffffffffffffffffffffffffffffffff021916908373ffffffffffffffffffffffffffffffffffffffff1602179055508073ffffffffffffffffffffffffffffffffffffffff167f41859d0d5d8e058ee61b371f0bfae1d3182fd179818dfa31349973cba153162760405160405180910390a250565b6103d9610721565b6103e3600061079f565b565b60008060009054906101000a900473ffffffffffffffffffffffffffffffffffffffff16905090565b60008061041a83610863565b90506000600260009054906101000a900473ffffffffffffffffffffffffffffffffffffffff16905060088173ffffffffffffffffffffffffffffffffffffffff1663313ce5676040518163ffffffff1660e01b815260040160206040518083038186803b15801561048b57600080fd5b505afa15801561049f573d6000803e3d6000fd5b505050506040513d601f19601f820116820180604052508101906104c39190610c9d565b60ff1614610506576040517f08c379a00000000000000000000000000000000000000000000000000000000081526004016104fd90610dab565b60405180910390fd5b60008173ffffffffffffffffffffffffffffffffffffffff1663feaf968c6040518163ffffffff1660e01b815260040160a06040518083038186803b15801561054e57600080fd5b505afa158015610562573d6000803e3d6000fd5b505050506040513d601f19601f820116820180604052508101906105869190610c26565b50505091505080670de0b6b3a7640000846105a19190610e68565b6105ab9190610e37565b9350505050919050565b6105bd610721565b80600160008473ffffffffffffffffffffffffffffffffffffffff1673ffffffffffffffffffffffffffffffffffffffff16815260200190815260200160002060006101000a81548173ffffffffffffffffffffffffffffffffffffffff021916908373ffffffffffffffffffffffffffffffffffffffff1602179055508173ffffffffffffffffffffffffffffffffffffffff167fd17b98090c0511abf8501c60a0c17913f141a4069de229a1114eb4950f82d195826040516106819190610d70565b60405180910390a25050565b6000670de0b6b3a7640000905090565b6106a5610721565b600073ffffffffffffffffffffffffffffffffffffffff168173ffffffffffffffffffffffffffffffffffffffff161415610715576040517f08c379a000000000000000000000000000000000000000000000000000000000815260040161070c90610d8b565b60405180910390fd5b61071e8161079f565b50565b610729610a91565b73ffffffffffffffffffffffffffffffffffffffff166107476103e5565b73ffffffffffffffffffffffffffffffffffffffff161461079d576040517f08c379a000000000000000000000000000000000000000000000000000000000815260040161079490610dcb565b60405180910390fd5b565b60008060009054906101000a900473ffffffffffffffffffffffffffffffffffffffff169050816000806101000a81548173ffffffffffffffffffffffffffffffffffffffff021916908373ffffffffffffffffffffffffffffffffffffffff1602179055508173ffffffffffffffffffffffffffffffffffffffff168173ffffffffffffffffffffffffffffffffffffffff167f8be0079c531659141344cd1fd0a4f28419497f9722a3daafe3b4186f6b6457e060405160405180910390a35050565b600080600160008473ffffffffffffffffffffffffffffffffffffffff1673ffffffffffffffffffffffffffffffffffffffff16815260200190815260200160002060009054906101000a900473ffffffffffffffffffffffffffffffffffffffff169050600073ffffffffffffffffffffffffffffffffffffffff168173ffffffffffffffffffffffffffffffffffffffff161415610938576040517f08c379a000000000000000000000000000000000000000000000000000000000815260040161092f90610deb565b60405180910390fd5b600081905060088173ffffffffffffffffffffffffffffffffffffffff1663313ce5676040518163ffffffff1660e01b815260040160206040518083038186803b15801561098557600080fd5b505afa158015610999573d6000803e3d6000fd5b505050506040513d601f19601f820116820180604052508101906109bd9190610c9d565b60ff1614610a00576040517f08c379a00000000000000000000000000000000000000000000000000000000081526004016109f790610dab565b60405180910390fd5b60008173ffffffffffffffffffffffffffffffffffffffff1663feaf968c6040518163ffffffff1660e01b815260040160a06040518083038186803b158015610a4857600080fd5b505afa158015610a5c573d6000803e3d6000fd5b505050506040513d601f19601f82011682018060405250810190610a809190610c26565b505050915050809350505050919050565b600033905090565b600081359050610aa88161109c565b92915050565b60008083601f840112610ac057600080fd5b8235905067ffffffffffffffff811115610ad957600080fd5b602083019150836020820283011115610af157600080fd5b9250929050565b600081519050610b07816110b3565b92915050565b600081519050610b1c816110ca565b92915050565b600081519050610b31816110f8565b92915050565b600081519050610b46816110e1565b92915050565b600060208284031215610b5e57600080fd5b6000610b6c84828501610a99565b91505092915050565b60008060408385031215610b8857600080fd5b6000610b9685828601610a99565b9250506020610ba785828601610a99565b9150509250929050565b60008060008060408587031215610bc757600080fd5b600085013567ffffffffffffffff811115610be157600080fd5b610bed87828801610aae565b9450945050602085013567ffffffffffffffff811115610c0c57600080fd5b610c1887828801610aae565b925092505092959194509250565b600080600080600060a08688031215610c3e57600080fd5b6000610c4c88828901610b22565b9550506020610c5d88828901610af8565b9450506040610c6e88828901610b0d565b9350506060610c7f88828901610b0d565b9250506080610c9088828901610b22565b9150509295509295909350565b600060208284031215610caf57600080fd5b6000610cbd84828501610b37565b91505092915050565b610ccf81610ec2565b82525050565b6000610ce2602683610e26565b9150610ced82610fd2565b604082019050919050565b6000610d05601383610e26565b9150610d1082611021565b602082019050919050565b6000610d28602083610e26565b9150610d338261104a565b602082019050919050565b6000610d4b601383610e26565b9150610d5682611073565b602082019050919050565b610d6a81610efe565b82525050565b6000602082019050610d856000830184610cc6565b92915050565b60006020820190508181036000830152610da481610cd5565b9050919050565b60006020820190508181036000830152610dc481610cf8565b9050919050565b60006020820190508181036000830152610de481610d1b565b9050919050565b60006020820190508181036000830152610e0481610d3e565b9050919050565b6000602082019050610e206000830184610d61565b92915050565b600082825260208201905092915050565b6000610e4282610efe565b9150610e4d83610efe565b925082610e5d57610e5c610fa3565b5b828204905092915050565b6000610e7382610efe565b9150610e7e83610efe565b9250817fffffffffffffffffffffffffffffffffffffffffffffffffffffffffffffffff0483118215151615610eb757610eb6610f74565b5b828202905092915050565b6000610ecd82610ede565b9050919050565b6000819050919050565b600073ffffffffffffffffffffffffffffffffffffffff82169050919050565b6000819050919050565b600060ff82169050919050565b600069ffffffffffffffffffff82169050919050565b6000610f3682610efe565b91507fffffffffffffffffffffffffffffffffffffffffffffffffffffffffffffffff821415610f6957610f68610f74565b5b600182019050919050565b7f4e487b7100000000000000000000000000000000000000000000000000000000600052601160045260246000fd5b7f4e487b7100000000000000000000000000000000000000000000000000000000600052601260045260246000fd5b7f4f776e61626c653a206e6577206f776e657220697320746865207a65726f206160008201527f6464726573730000000000000000000000000000000000000000000000000000602082015250565b7f44617461466565644f7261636c653a2034303000000000000000000000000000600082015250565b7f4f776e61626c653a2063616c6c6572206973206e6f7420746865206f776e6572600082015250565b7f44617461466565644f7261636c653a2034303400000000000000000000000000600082015250565b6110a581610ec2565b81146110b057600080fd5b50565b6110bc81610ed4565b81146110c757600080fd5b50565b6110d381610efe565b81146110de57600080fd5b50565b6110ea81610f08565b81146110f557600080fd5b50565b61110181610f15565b811461110c57600080fd5b5056fea264697066735822122068edc62f608304a022f5aee86ab280ea9e4323f46f2538d8f60e1bccba6dccfd64736f6c63430008040033",
  "linkReferences": {},
  "deployedLinkReferences": {}
}