{
  "_format": "hh-sol-artifact-1",
  "contractName": "PriceOracle",
  "sourceName": "contracts/PriceOracle.sol",
  "abi": [
    {
      "anonymous": false,
      "inputs": [
        {
          "indexed": true,
          "internalType": "address",
          "name": "asset",
          "type": "address"
        },
        {
          "indexed": false,
          "internalType": "address",
          "name": "aggregator",
          "type": "address"
        }
      ],
      "name": "AssetAggregatorUpdate",
      "type": "event"
    },
    {
      "anonymous": false,
      "inputs": [
        {
          "indexed": true,
          "internalType": "address",
          "name": "aggregator",
          "type": "address"
        }
      ],
      "name": "EurUsdAggregatorUpdate",
      "type": "event"
    },
    {
      "anonymous": false,
      "inputs": [
        {
          "indexed": true,
          "internalType": "address",
          "name": "previousOwner",
          "type": "address"
        },
        {
          "indexed": true,
          "internalType": "address",
          "name": "newOwner",
          "type": "address"
        }
      ],
      "name": "OwnershipTransferred",
      "type": "event"
    },
    {
      "inputs": [
        {
          "internalType": "address",
          "name": "asset",
          "type": "address"
        }
      ],
      "name": "getAssetAggregator",
      "outputs": [
        {
          "internalType": "address",
          "name": "",
          "type": "address"
        }
      ],
      "stateMutability": "view",
      "type": "function"
    },
    {
      "inputs": [
        {
          "internalType": "address",
          "name": "asset",
          "type": "address"
        }
      ],
      "name": "getAssetPriceEUR",
      "outputs": [
        {
          "internalType": "uint256",
          "name": "",
          "type": "uint256"
        }
      ],
      "stateMutability": "view",
      "type": "function"
    },
    {
      "inputs": [],
      "name": "getDemuPriceEUR",
      "outputs": [
        {
          "internalType": "uint256",
          "name": "",
          "type": "uint256"
        }
      ],
      "stateMutability": "pure",
      "type": "function"
    },
    {
      "inputs": [],
      "name": "getEurUsdAggregator",
      "outputs": [
        {
          "internalType": "address",
          "name": "",
          "type": "address"
        }
      ],
      "stateMutability": "view",
      "type": "function"
    },
    {
      "inputs": [],
      "name": "owner",
      "outputs": [
        {
          "internalType": "address",
          "name": "",
          "type": "address"
        }
      ],
      "stateMutability": "view",
      "type": "function"
    },
    {
      "inputs": [],
      "name": "renounceOwnership",
      "outputs": [],
      "stateMutability": "nonpayable",
      "type": "function"
    },
    {
      "inputs": [
        {
          "internalType": "address",
          "name": "asset",
          "type": "address"
        },
        {
          "internalType": "address",
          "name": "aggregator",
          "type": "address"
        }
      ],
      "name": "setAggregatorForAsset",
      "outputs": [],
      "stateMutability": "nonpayable",
      "type": "function"
    },
    {
      "inputs": [
        {
          "internalType": "address[]",
          "name": "assets",
          "type": "address[]"
        },
        {
          "internalType": "address[]",
          "name": "aggregators",
          "type": "address[]"
        }
      ],
      "name": "setAggregatorsorAssets",
      "outputs": [],
      "stateMutability": "nonpayable",
      "type": "function"
    },
    {
      "inputs": [
        {
          "internalType": "address",
          "name": "aggregator",
          "type": "address"
        }
      ],
      "name": "setEURUSDAggregator",
      "outputs": [],
      "stateMutability": "nonpayable",
      "type": "function"
    },
    {
      "inputs": [
        {
          "internalType": "address",
          "name": "newOwner",
          "type": "address"
        }
      ],
      "name": "transferOwnership",
      "outputs": [],
      "stateMutability": "nonpayable",
      "type": "function"
    }
  ],
  "bytecode": "0x608060405234801561001057600080fd5b5061001a3361001f565b61006f565b600080546001600160a01b038381166001600160a01b0319831681178455604051919092169283917f8be0079c531659141344cd1fd0a4f28419497f9722a3daafe3b4186f6b6457e09190a35050565b61093f8061007e6000396000f3fe608060405234801561001057600080fd5b506004361061009e5760003560e01c80638da5cb5b116100665780638da5cb5b1461012d578063b2f1ee3b1461013e578063bd7718561461015f578063c548fb5d14610172578063f2fde38b1461018057600080fd5b80630dad8a08146100a35780634f196377146100ec57806355810f8d146100fd5780637122e7f614610112578063715018a614610125575b600080fd5b6100cf6100b13660046106ba565b6001600160a01b039081166000908152600160205260409020541690565b6040516001600160a01b0390911681526020015b60405180910390f35b6002546001600160a01b03166100cf565b61011061010b366004610728565b610193565b005b6101106101203660046106ba565b610210565b610110610262565b6000546001600160a01b03166100cf565b61015161014c3660046106ba565b610276565b6040519081526020016100e3565b61011061016d366004610794565b6103b1565b670de0b6b3a7640000610151565b61011061018e3660046106ba565b610420565b61019b610499565b8260005b81811015610208576101f88686838181106101bc576101bc6107c7565b90506020020160208101906101d191906106ba565b8585848181106101e3576101e36107c7565b905060200201602081019061016d91906106ba565b610201816107f3565b905061019f565b505050505050565b610218610499565b600280546001600160a01b0319166001600160a01b0383169081179091556040517f41859d0d5d8e058ee61b371f0bfae1d3182fd179818dfa31349973cba153162790600090a250565b61026a610499565b61027460006104f3565b565b60008061028283610543565b6002546040805163313ce56760e01b815290519293506001600160a01b0390911691829163313ce5679160048083019260209291908290030181865afa1580156102d0573d6000803e3d6000fd5b505050506040513d601f19601f820116820180604052508101906102f4919061080e565b60ff1660081461031f5760405162461bcd60e51b815260040161031690610831565b60405180910390fd5b6000816001600160a01b031663feaf968c6040518163ffffffff1660e01b815260040160a060405180830381865afa15801561035f573d6000803e3d6000fd5b505050506040513d601f19601f820116820180604052508101906103839190610878565b5050509150508083670de0b6b3a764000061039e91906108c8565b6103a891906108e7565b95945050505050565b6103b9610499565b6001600160a01b0382811660008181526001602090815260409182902080546001600160a01b0319169486169485179055905192835290917fd17b98090c0511abf8501c60a0c17913f141a4069de229a1114eb4950f82d195910160405180910390a25050565b610428610499565b6001600160a01b03811661048d5760405162461bcd60e51b815260206004820152602660248201527f4f776e61626c653a206e6577206f776e657220697320746865207a65726f206160448201526564647265737360d01b6064820152608401610316565b610496816104f3565b50565b6000546001600160a01b031633146102745760405162461bcd60e51b815260206004820181905260248201527f4f776e61626c653a2063616c6c6572206973206e6f7420746865206f776e65726044820152606401610316565b600080546001600160a01b038381166001600160a01b0319831681178455604051919092169283917f8be0079c531659141344cd1fd0a4f28419497f9722a3daafe3b4186f6b6457e09190a35050565b6001600160a01b03808216600090815260016020526040812054909116806105a35760405162461bcd60e51b815260206004820152601360248201527211185d185199595913dc9858db194e880d0c0d606a1b6044820152606401610316565b6000819050806001600160a01b031663313ce5676040518163ffffffff1660e01b8152600401602060405180830381865afa1580156105e6573d6000803e3d6000fd5b505050506040513d601f19601f8201168201806040525081019061060a919061080e565b60ff1660081461062c5760405162461bcd60e51b815260040161031690610831565b6000816001600160a01b031663feaf968c6040518163ffffffff1660e01b815260040160a060405180830381865afa15801561066c573d6000803e3d6000fd5b505050506040513d601f19601f820116820180604052508101906106909190610878565b509198975050505050505050565b80356001600160a01b03811681146106b557600080fd5b919050565b6000602082840312156106cc57600080fd5b6106d58261069e565b9392505050565b60008083601f8401126106ee57600080fd5b50813567ffffffffffffffff81111561070657600080fd5b6020830191508360208260051b850101111561072157600080fd5b9250929050565b6000806000806040858703121561073e57600080fd5b843567ffffffffffffffff8082111561075657600080fd5b610762888389016106dc565b9096509450602087013591508082111561077b57600080fd5b50610788878288016106dc565b95989497509550505050565b600080604083850312156107a757600080fd5b6107b08361069e565b91506107be6020840161069e565b90509250929050565b634e487b7160e01b600052603260045260246000fd5b634e487b7160e01b600052601160045260246000fd5b6000600019821415610807576108076107dd565b5060010190565b60006020828403121561082057600080fd5b815160ff811681146106d557600080fd5b602080825260139082015272044617461466565644f7261636c653a2034303606c1b604082015260600190565b805169ffffffffffffffffffff811681146106b557600080fd5b600080600080600060a0868803121561089057600080fd5b6108998661085e565b94506020860151935060408601519250606086015191506108bc6080870161085e565b90509295509295909350565b60008160001904831182151516156108e2576108e26107dd565b500290565b60008261090457634e487b7160e01b600052601260045260246000fd5b50049056fea264697066735822122022b0c85a4017363b9c0420137588f3206e29157265b53dfc3db52b960a2a4d2964736f6c634300080c0033",
  "linkReferences": {},
  "deployedLinkReferences": {}
}