{
  "_format": "hh-sol-artifact-1",
  "contractName": "Demu",
  "sourceName": "contracts/Demu.sol",
  "abi": [
    {
      "anonymous": false,
      "inputs": [
        {
          "indexed": true,
          "internalType": "address",
          "name": "owner",
          "type": "address"
        },
        {
          "indexed": true,
          "internalType": "address",
          "name": "spender",
          "type": "address"
        },
        {
          "indexed": false,
          "internalType": "uint256",
          "name": "value",
          "type": "uint256"
        }
      ],
      "name": "Approval",
      "type": "event"
    },
    {
      "anonymous": false,
      "inputs": [
        {
          "indexed": true,
          "internalType": "address",
          "name": "from",
          "type": "address"
        },
        {
          "indexed": false,
          "internalType": "uint256",
          "name": "amount",
          "type": "uint256"
        }
      ],
      "name": "Burn",
      "type": "event"
    },
    {
      "anonymous": false,
      "inputs": [
        {
          "indexed": true,
          "internalType": "address",
          "name": "to",
          "type": "address"
        },
        {
          "indexed": false,
          "internalType": "uint256",
          "name": "amount",
          "type": "uint256"
        }
      ],
      "name": "Mint",
      "type": "event"
    },
    {
      "anonymous": false,
      "inputs": [
        {
          "indexed": true,
          "internalType": "address",
          "name": "account",
          "type": "address"
        },
        {
          "indexed": false,
          "internalType": "bool",
          "name": "can",
          "type": "bool"
        }
      ],
      "name": "MinterUpdate",
      "type": "event"
    },
    {
      "anonymous": false,
      "inputs": [
        {
          "indexed": true,
          "internalType": "address",
          "name": "previousOwner",
          "type": "address"
        },
        {
          "indexed": true,
          "internalType": "address",
          "name": "newOwner",
          "type": "address"
        }
      ],
      "name": "OwnershipTransferred",
      "type": "event"
    },
    {
      "anonymous": false,
      "inputs": [
        {
          "indexed": true,
          "internalType": "address",
          "name": "from",
          "type": "address"
        },
        {
          "indexed": true,
          "internalType": "address",
          "name": "to",
          "type": "address"
        },
        {
          "indexed": false,
          "internalType": "uint256",
          "name": "value",
          "type": "uint256"
        }
      ],
      "name": "Transfer",
      "type": "event"
    },
    {
      "inputs": [
        {
          "internalType": "address",
          "name": "owner",
          "type": "address"
        },
        {
          "internalType": "address",
          "name": "spender",
          "type": "address"
        }
      ],
      "name": "allowance",
      "outputs": [
        {
          "internalType": "uint256",
          "name": "",
          "type": "uint256"
        }
      ],
      "stateMutability": "view",
      "type": "function"
    },
    {
      "inputs": [
        {
          "internalType": "address",
          "name": "spender",
          "type": "address"
        },
        {
          "internalType": "uint256",
          "name": "amount",
          "type": "uint256"
        }
      ],
      "name": "approve",
      "outputs": [
        {
          "internalType": "bool",
          "name": "",
          "type": "bool"
        }
      ],
      "stateMutability": "nonpayable",
      "type": "function"
    },
    {
      "inputs": [
        {
          "internalType": "address",
          "name": "account",
          "type": "address"
        }
      ],
      "name": "balanceOf",
      "outputs": [
        {
          "internalType": "uint256",
          "name": "",
          "type": "uint256"
        }
      ],
      "stateMutability": "view",
      "type": "function"
    },
    {
      "inputs": [
        {
          "internalType": "address",
          "name": "from",
          "type": "address"
        },
        {
          "internalType": "uint256",
          "name": "amount",
          "type": "uint256"
        }
      ],
      "name": "burn",
      "outputs": [],
      "stateMutability": "nonpayable",
      "type": "function"
    },
    {
      "inputs": [],
      "name": "decimals",
      "outputs": [
        {
          "internalType": "uint8",
          "name": "",
          "type": "uint8"
        }
      ],
      "stateMutability": "view",
      "type": "function"
    },
    {
      "inputs": [
        {
          "internalType": "address",
          "name": "spender",
          "type": "address"
        },
        {
          "internalType": "uint256",
          "name": "subtractedValue",
          "type": "uint256"
        }
      ],
      "name": "decreaseAllowance",
      "outputs": [
        {
          "internalType": "bool",
          "name": "",
          "type": "bool"
        }
      ],
      "stateMutability": "nonpayable",
      "type": "function"
    },
    {
      "inputs": [
        {
          "internalType": "address",
          "name": "spender",
          "type": "address"
        },
        {
          "internalType": "uint256",
          "name": "addedValue",
          "type": "uint256"
        }
      ],
      "name": "increaseAllowance",
      "outputs": [
        {
          "internalType": "bool",
          "name": "",
          "type": "bool"
        }
      ],
      "stateMutability": "nonpayable",
      "type": "function"
    },
    {
      "inputs": [
        {
          "internalType": "address",
          "name": "to",
          "type": "address"
        },
        {
          "internalType": "uint256",
          "name": "amount",
          "type": "uint256"
        }
      ],
      "name": "mint",
      "outputs": [],
      "stateMutability": "nonpayable",
      "type": "function"
    },
    {
      "inputs": [],
      "name": "name",
      "outputs": [
        {
          "internalType": "string",
          "name": "",
          "type": "string"
        }
      ],
      "stateMutability": "view",
      "type": "function"
    },
    {
      "inputs": [],
      "name": "owner",
      "outputs": [
        {
          "internalType": "address",
          "name": "",
          "type": "address"
        }
      ],
      "stateMutability": "view",
      "type": "function"
    },
    {
      "inputs": [],
      "name": "renounceOwnership",
      "outputs": [],
      "stateMutability": "nonpayable",
      "type": "function"
    },
    {
      "inputs": [
        {
          "internalType": "address",
          "name": "account",
          "type": "address"
        },
        {
          "internalType": "bool",
          "name": "canMint",
          "type": "bool"
        }
      ],
      "name": "setMinter",
      "outputs": [],
      "stateMutability": "nonpayable",
      "type": "function"
    },
    {
      "inputs": [],
      "name": "symbol",
      "outputs": [
        {
          "internalType": "string",
          "name": "",
          "type": "string"
        }
      ],
      "stateMutability": "view",
      "type": "function"
    },
    {
      "inputs": [],
      "name": "totalSupply",
      "outputs": [
        {
          "internalType": "uint256",
          "name": "",
          "type": "uint256"
        }
      ],
      "stateMutability": "view",
      "type": "function"
    },
    {
      "inputs": [
        {
          "internalType": "address",
          "name": "to",
          "type": "address"
        },
        {
          "internalType": "uint256",
          "name": "amount",
          "type": "uint256"
        }
      ],
      "name": "transfer",
      "outputs": [
        {
          "internalType": "bool",
          "name": "",
          "type": "bool"
        }
      ],
      "stateMutability": "nonpayable",
      "type": "function"
    },
    {
      "inputs": [
        {
          "internalType": "address",
          "name": "from",
          "type": "address"
        },
        {
          "internalType": "address",
          "name": "to",
          "type": "address"
        },
        {
          "internalType": "uint256",
          "name": "amount",
          "type": "uint256"
        }
      ],
      "name": "transferFrom",
      "outputs": [
        {
          "internalType": "bool",
          "name": "",
          "type": "bool"
        }
      ],
      "stateMutability": "nonpayable",
      "type": "function"
    },
    {
      "inputs": [
        {
          "internalType": "address",
          "name": "newOwner",
          "type": "address"
        }
      ],
      "name": "transferOwnership",
      "outputs": [],
      "stateMutability": "nonpayable",
      "type": "function"
    }
  ],
  "bytecode": "0x60806040523480156200001157600080fd5b506040518060400160405280600481526020017f44454d55000000000000000000000000000000000000000000000000000000008152506040518060400160405280600481526020017f44454d55000000000000000000000000000000000000000000000000000000008152506200009e62000092620000d860201b60201c565b620000e060201b60201c565b8160049080519060200190620000b6929190620001a4565b508060059080519060200190620000cf929190620001a4565b505050620002b9565b600033905090565b60008060009054906101000a900473ffffffffffffffffffffffffffffffffffffffff169050816000806101000a81548173ffffffffffffffffffffffffffffffffffffffff021916908373ffffffffffffffffffffffffffffffffffffffff1602179055508173ffffffffffffffffffffffffffffffffffffffff168173ffffffffffffffffffffffffffffffffffffffff167f8be0079c531659141344cd1fd0a4f28419497f9722a3daafe3b4186f6b6457e060405160405180910390a35050565b828054620001b29062000254565b90600052602060002090601f016020900481019282620001d6576000855562000222565b82601f10620001f157805160ff191683800117855562000222565b8280016001018555821562000222579182015b828111156200022157825182559160200191906001019062000204565b5b50905062000231919062000235565b5090565b5b808211156200025057600081600090555060010162000236565b5090565b600060028204905060018216806200026d57607f821691505b602082108114156200028457620002836200028a565b5b50919050565b7f4e487b7100000000000000000000000000000000000000000000000000000000600052602260045260246000fd5b611edd80620002c96000396000f3fe608060405234801561001057600080fd5b506004361061010b5760003560e01c8063715018a6116100a2578063a457c2d711610071578063a457c2d7146102a8578063a9059cbb146102d8578063cf456ae714610308578063dd62ed3e14610324578063f2fde38b146103545761010b565b8063715018a6146102465780638da5cb5b1461025057806395d89b411461026e5780639dc29fac1461028c5761010b565b8063313ce567116100de578063313ce567146101ac57806339509351146101ca57806340c10f19146101fa57806370a08231146102165761010b565b806306fdde0314610110578063095ea7b31461012e57806318160ddd1461015e57806323b872dd1461017c575b600080fd5b610118610370565b6040516101259190611730565b60405180910390f35b61014860048036038101906101439190611482565b610402565b6040516101559190611715565b60405180910390f35b610166610425565b60405161017391906118f2565b60405180910390f35b610196600480360381019061019191906113f7565b61042f565b6040516101a39190611715565b60405180910390f35b6101b461045e565b6040516101c1919061190d565b60405180910390f35b6101e460048036038101906101df9190611482565b610467565b6040516101f19190611715565b60405180910390f35b610214600480360381019061020f9190611482565b61049e565b005b610230600480360381019061022b9190611392565b61058d565b60405161023d91906118f2565b60405180910390f35b61024e6105d6565b005b6102586105ea565b60405161026591906116fa565b60405180910390f35b610276610613565b6040516102839190611730565b60405180910390f35b6102a660048036038101906102a19190611482565b6106a5565b005b6102c260048036038101906102bd9190611482565b610794565b6040516102cf9190611715565b60405180910390f35b6102f260048036038101906102ed9190611482565b61080b565b6040516102ff9190611715565b60405180910390f35b610322600480360381019061031d9190611446565b61082e565b005b61033e600480360381019061033991906113bb565b6108df565b60405161034b91906118f2565b60405180910390f35b61036e60048036038101906103699190611392565b610966565b005b60606004805461037f90611a56565b80601f01602080910402602001604051908101604052809291908181526020018280546103ab90611a56565b80156103f85780601f106103cd576101008083540402835291602001916103f8565b820191906000526020600020905b8154815290600101906020018083116103db57829003601f168201915b5050505050905090565b60008061040d6109ea565b905061041a8185856109f2565b600191505092915050565b6000600354905090565b60008061043a6109ea565b9050610447858285610bbd565b610452858585610c49565b60019150509392505050565b60006012905090565b6000806104726109ea565b905061049381858561048485896108df565b61048e9190611944565b6109f2565b600191505092915050565b600660006104aa6109ea565b73ffffffffffffffffffffffffffffffffffffffff1673ffffffffffffffffffffffffffffffffffffffff16815260200190815260200160002060009054906101000a900460ff16610531576040517f08c379a0000000000000000000000000000000000000000000000000000000008152600401610528906118d2565b60405180910390fd5b61053b8282610ecd565b8173ffffffffffffffffffffffffffffffffffffffff167f0f6798a560793a54c3bcfe86a93cde1e73087d944c0ea20544137d41213968858260405161058191906118f2565b60405180910390a25050565b6000600160008373ffffffffffffffffffffffffffffffffffffffff1673ffffffffffffffffffffffffffffffffffffffff168152602001908152602001600020549050919050565b6105de61102e565b6105e860006110ac565b565b60008060009054906101000a900473ffffffffffffffffffffffffffffffffffffffff16905090565b60606005805461062290611a56565b80601f016020809104026020016040519081016040528092919081815260200182805461064e90611a56565b801561069b5780601f106106705761010080835404028352916020019161069b565b820191906000526020600020905b81548152906001019060200180831161067e57829003601f168201915b5050505050905090565b600660006106b16109ea565b73ffffffffffffffffffffffffffffffffffffffff1673ffffffffffffffffffffffffffffffffffffffff16815260200190815260200160002060009054906101000a900460ff16610738576040517f08c379a000000000000000000000000000000000000000000000000000000000815260040161072f906118d2565b60405180910390fd5b6107428282611170565b8173ffffffffffffffffffffffffffffffffffffffff167fcc16f5dbb4873280815c1ee09dbd06736cffcc184412cf7a71a0fdb75d397ca58260405161078891906118f2565b60405180910390a25050565b60008061079f6109ea565b905060006107ad82866108df565b9050838110156107f2576040517f08c379a00000000000000000000000000000000000000000000000000000000081526004016107e990611892565b60405180910390fd5b6107ff82868684036109f2565b60019250505092915050565b6000806108166109ea565b9050610823818585610c49565b600191505092915050565b61083661102e565b80600660008473ffffffffffffffffffffffffffffffffffffffff1673ffffffffffffffffffffffffffffffffffffffff16815260200190815260200160002060006101000a81548160ff0219169083151502179055508173ffffffffffffffffffffffffffffffffffffffff167f279360e293bcf8120adefa5fb6f669c774022ed25c09e099edd1818d155c57b6826040516108d39190611715565b60405180910390a25050565b6000600260008473ffffffffffffffffffffffffffffffffffffffff1673ffffffffffffffffffffffffffffffffffffffff16815260200190815260200160002060008373ffffffffffffffffffffffffffffffffffffffff1673ffffffffffffffffffffffffffffffffffffffff16815260200190815260200160002054905092915050565b61096e61102e565b600073ffffffffffffffffffffffffffffffffffffffff168173ffffffffffffffffffffffffffffffffffffffff1614156109de576040517f08c379a00000000000000000000000000000000000000000000000000000000081526004016109d590611792565b60405180910390fd5b6109e7816110ac565b50565b600033905090565b600073ffffffffffffffffffffffffffffffffffffffff168373ffffffffffffffffffffffffffffffffffffffff161415610a62576040517f08c379a0000000000000000000000000000000000000000000000000000000008152600401610a5990611872565b60405180910390fd5b600073ffffffffffffffffffffffffffffffffffffffff168273ffffffffffffffffffffffffffffffffffffffff161415610ad2576040517f08c379a0000000000000000000000000000000000000000000000000000000008152600401610ac9906117b2565b60405180910390fd5b80600260008573ffffffffffffffffffffffffffffffffffffffff1673ffffffffffffffffffffffffffffffffffffffff16815260200190815260200160002060008473ffffffffffffffffffffffffffffffffffffffff1673ffffffffffffffffffffffffffffffffffffffff168152602001908152602001600020819055508173ffffffffffffffffffffffffffffffffffffffff168373ffffffffffffffffffffffffffffffffffffffff167f8c5be1e5ebec7d5bd14f71427d1e84f3dd0314c0f7b2291e5b200ac8c7c3b92583604051610bb091906118f2565b60405180910390a3505050565b6000610bc984846108df565b90507fffffffffffffffffffffffffffffffffffffffffffffffffffffffffffffffff8114610c435781811015610c35576040517f08c379a0000000000000000000000000000000000000000000000000000000008152600401610c2c906117d2565b60405180910390fd5b610c4284848484036109f2565b5b50505050565b600073ffffffffffffffffffffffffffffffffffffffff168373ffffffffffffffffffffffffffffffffffffffff161415610cb9576040517f08c379a0000000000000000000000000000000000000000000000000000000008152600401610cb090611852565b60405180910390fd5b600073ffffffffffffffffffffffffffffffffffffffff168273ffffffffffffffffffffffffffffffffffffffff161415610d29576040517f08c379a0000000000000000000000000000000000000000000000000000000008152600401610d2090611752565b60405180910390fd5b610d34838383611349565b6000600160008573ffffffffffffffffffffffffffffffffffffffff1673ffffffffffffffffffffffffffffffffffffffff16815260200190815260200160002054905081811015610dbb576040517f08c379a0000000000000000000000000000000000000000000000000000000008152600401610db2906117f2565b60405180910390fd5b818103600160008673ffffffffffffffffffffffffffffffffffffffff1673ffffffffffffffffffffffffffffffffffffffff1681526020019081526020016000208190555081600160008573ffffffffffffffffffffffffffffffffffffffff1673ffffffffffffffffffffffffffffffffffffffff1681526020019081526020016000206000828254610e509190611944565b925050819055508273ffffffffffffffffffffffffffffffffffffffff168473ffffffffffffffffffffffffffffffffffffffff167fddf252ad1be2c89b69c2b068fc378daa952ba7f163c4a11628f55a4df523b3ef84604051610eb491906118f2565b60405180910390a3610ec784848461134e565b50505050565b600073ffffffffffffffffffffffffffffffffffffffff168273ffffffffffffffffffffffffffffffffffffffff161415610f3d576040517f08c379a0000000000000000000000000000000000000000000000000000000008152600401610f34906118b2565b60405180910390fd5b610f4960008383611349565b8060036000828254610f5b9190611944565b9250508190555080600160008473ffffffffffffffffffffffffffffffffffffffff1673ffffffffffffffffffffffffffffffffffffffff1681526020019081526020016000206000828254610fb19190611944565b925050819055508173ffffffffffffffffffffffffffffffffffffffff16600073ffffffffffffffffffffffffffffffffffffffff167fddf252ad1be2c89b69c2b068fc378daa952ba7f163c4a11628f55a4df523b3ef8360405161101691906118f2565b60405180910390a361102a6000838361134e565b5050565b6110366109ea565b73ffffffffffffffffffffffffffffffffffffffff166110546105ea565b73ffffffffffffffffffffffffffffffffffffffff16146110aa576040517f08c379a00000000000000000000000000000000000000000000000000000000081526004016110a190611812565b60405180910390fd5b565b60008060009054906101000a900473ffffffffffffffffffffffffffffffffffffffff169050816000806101000a81548173ffffffffffffffffffffffffffffffffffffffff021916908373ffffffffffffffffffffffffffffffffffffffff1602179055508173ffffffffffffffffffffffffffffffffffffffff168173ffffffffffffffffffffffffffffffffffffffff167f8be0079c531659141344cd1fd0a4f28419497f9722a3daafe3b4186f6b6457e060405160405180910390a35050565b600073ffffffffffffffffffffffffffffffffffffffff168273ffffffffffffffffffffffffffffffffffffffff1614156111e0576040517f08c379a00000000000000000000000000000000000000000000000000000000081526004016111d790611832565b60405180910390fd5b6111ec82600083611349565b6000600160008473ffffffffffffffffffffffffffffffffffffffff1673ffffffffffffffffffffffffffffffffffffffff16815260200190815260200160002054905081811015611273576040517f08c379a000000000000000000000000000000000000000000000000000000000815260040161126a90611772565b60405180910390fd5b818103600160008573ffffffffffffffffffffffffffffffffffffffff1673ffffffffffffffffffffffffffffffffffffffff1681526020019081526020016000208190555081600360008282546112cb919061199a565b92505081905550600073ffffffffffffffffffffffffffffffffffffffff168373ffffffffffffffffffffffffffffffffffffffff167fddf252ad1be2c89b69c2b068fc378daa952ba7f163c4a11628f55a4df523b3ef8460405161133091906118f2565b60405180910390a36113448360008461134e565b505050565b505050565b505050565b60008135905061136281611e62565b92915050565b60008135905061137781611e79565b92915050565b60008135905061138c81611e90565b92915050565b6000602082840312156113a457600080fd5b60006113b284828501611353565b91505092915050565b600080604083850312156113ce57600080fd5b60006113dc85828601611353565b92505060206113ed85828601611353565b9150509250929050565b60008060006060848603121561140c57600080fd5b600061141a86828701611353565b935050602061142b86828701611353565b925050604061143c8682870161137d565b9150509250925092565b6000806040838503121561145957600080fd5b600061146785828601611353565b925050602061147885828601611368565b9150509250929050565b6000806040838503121561149557600080fd5b60006114a385828601611353565b92505060206114b48582860161137d565b9150509250929050565b6114c7816119ce565b82525050565b6114d6816119e0565b82525050565b60006114e782611928565b6114f18185611933565b9350611501818560208601611a23565b61150a81611ae6565b840191505092915050565b6000611522602383611933565b915061152d82611af7565b604082019050919050565b6000611545602283611933565b915061155082611b46565b604082019050919050565b6000611568602683611933565b915061157382611b95565b604082019050919050565b600061158b602283611933565b915061159682611be4565b604082019050919050565b60006115ae601d83611933565b91506115b982611c33565b602082019050919050565b60006115d1602683611933565b91506115dc82611c5c565b604082019050919050565b60006115f4602083611933565b91506115ff82611cab565b602082019050919050565b6000611617602183611933565b915061162282611cd4565b604082019050919050565b600061163a602583611933565b915061164582611d23565b604082019050919050565b600061165d602483611933565b915061166882611d72565b604082019050919050565b6000611680602583611933565b915061168b82611dc1565b604082019050919050565b60006116a3601f83611933565b91506116ae82611e10565b602082019050919050565b60006116c6600983611933565b91506116d182611e39565b602082019050919050565b6116e581611a0c565b82525050565b6116f481611a16565b82525050565b600060208201905061170f60008301846114be565b92915050565b600060208201905061172a60008301846114cd565b92915050565b6000602082019050818103600083015261174a81846114dc565b905092915050565b6000602082019050818103600083015261176b81611515565b9050919050565b6000602082019050818103600083015261178b81611538565b9050919050565b600060208201905081810360008301526117ab8161155b565b9050919050565b600060208201905081810360008301526117cb8161157e565b9050919050565b600060208201905081810360008301526117eb816115a1565b9050919050565b6000602082019050818103600083015261180b816115c4565b9050919050565b6000602082019050818103600083015261182b816115e7565b9050919050565b6000602082019050818103600083015261184b8161160a565b9050919050565b6000602082019050818103600083015261186b8161162d565b9050919050565b6000602082019050818103600083015261188b81611650565b9050919050565b600060208201905081810360008301526118ab81611673565b9050919050565b600060208201905081810360008301526118cb81611696565b9050919050565b600060208201905081810360008301526118eb816116b9565b9050919050565b600060208201905061190760008301846116dc565b92915050565b600060208201905061192260008301846116eb565b92915050565b600081519050919050565b600082825260208201905092915050565b600061194f82611a0c565b915061195a83611a0c565b9250827fffffffffffffffffffffffffffffffffffffffffffffffffffffffffffffffff0382111561198f5761198e611a88565b5b828201905092915050565b60006119a582611a0c565b91506119b083611a0c565b9250828210156119c3576119c2611a88565b5b828203905092915050565b60006119d9826119ec565b9050919050565b60008115159050919050565b600073ffffffffffffffffffffffffffffffffffffffff82169050919050565b6000819050919050565b600060ff82169050919050565b60005b83811015611a41578082015181840152602081019050611a26565b83811115611a50576000848401525b50505050565b60006002820490506001821680611a6e57607f821691505b60208210811415611a8257611a81611ab7565b5b50919050565b7f4e487b7100000000000000000000000000000000000000000000000000000000600052601160045260246000fd5b7f4e487b7100000000000000000000000000000000000000000000000000000000600052602260045260246000fd5b6000601f19601f8301169050919050565b7f45524332303a207472616e7366657220746f20746865207a65726f206164647260008201527f6573730000000000000000000000000000000000000000000000000000000000602082015250565b7f45524332303a206275726e20616d6f756e7420657863656564732062616c616e60008201527f6365000000000000000000000000000000000000000000000000000000000000602082015250565b7f4f776e61626c653a206e6577206f776e657220697320746865207a65726f206160008201527f6464726573730000000000000000000000000000000000000000000000000000602082015250565b7f45524332303a20617070726f766520746f20746865207a65726f20616464726560008201527f7373000000000000000000000000000000000000000000000000000000000000602082015250565b7f45524332303a20696e73756666696369656e7420616c6c6f77616e6365000000600082015250565b7f45524332303a207472616e7366657220616d6f756e742065786365656473206260008201527f616c616e63650000000000000000000000000000000000000000000000000000602082015250565b7f4f776e61626c653a2063616c6c6572206973206e6f7420746865206f776e6572600082015250565b7f45524332303a206275726e2066726f6d20746865207a65726f2061646472657360008201527f7300000000000000000000000000000000000000000000000000000000000000602082015250565b7f45524332303a207472616e736665722066726f6d20746865207a65726f20616460008201527f6472657373000000000000000000000000000000000000000000000000000000602082015250565b7f45524332303a20617070726f76652066726f6d20746865207a65726f2061646460008201527f7265737300000000000000000000000000000000000000000000000000000000602082015250565b7f45524332303a2064656372656173656420616c6c6f77616e63652062656c6f7760008201527f207a65726f000000000000000000000000000000000000000000000000000000602082015250565b7f45524332303a206d696e7420746f20746865207a65726f206164647265737300600082015250565b7f44656d753a203430330000000000000000000000000000000000000000000000600082015250565b611e6b816119ce565b8114611e7657600080fd5b50565b611e82816119e0565b8114611e8d57600080fd5b50565b611e9981611a0c565b8114611ea457600080fd5b5056fea2646970667358221220a56dd14b702466301eac5b5430b5813567053f55055731236252c03fdd6fc3be64736f6c63430008040033",
  "linkReferences": {},
  "deployedLinkReferences": {}
}