{
  "_format": "hh-sol-artifact-1",
  "contractName": "Demu",
  "sourceName": "contracts/Demu.sol",
  "abi": [
    {
      "inputs": [
        {
          "internalType": "address",
          "name": "oracle_",
          "type": "address"
        },
        {
          "internalType": "address",
          "name": "collector_",
          "type": "address"
        },
        {
          "internalType": "address[]",
          "name": "assets_",
          "type": "address[]"
        }
      ],
      "stateMutability": "nonpayable",
      "type": "constructor"
    },
    {
      "anonymous": false,
      "inputs": [
        {
          "indexed": true,
          "internalType": "address",
          "name": "owner",
          "type": "address"
        },
        {
          "indexed": true,
          "internalType": "address",
          "name": "spender",
          "type": "address"
        },
        {
          "indexed": false,
          "internalType": "uint256",
          "name": "value",
          "type": "uint256"
        }
      ],
      "name": "Approval",
      "type": "event"
    },
    {
      "anonymous": false,
      "inputs": [
        {
          "indexed": false,
          "internalType": "address",
          "name": "asset",
          "type": "address"
        }
      ],
      "name": "AssetRemoved",
      "type": "event"
    },
    {
      "anonymous": false,
      "inputs": [
        {
          "indexed": true,
          "internalType": "address",
          "name": "src",
          "type": "address"
        },
        {
          "indexed": false,
          "internalType": "uint256",
          "name": "amt",
          "type": "uint256"
        }
      ],
      "name": "Burn",
      "type": "event"
    },
    {
      "anonymous": false,
      "inputs": [
        {
          "indexed": false,
          "internalType": "address",
          "name": "newCollector",
          "type": "address"
        }
      ],
      "name": "FeesCollector",
      "type": "event"
    },
    {
      "anonymous": false,
      "inputs": [
        {
          "indexed": true,
          "internalType": "address",
          "name": "dst",
          "type": "address"
        },
        {
          "indexed": true,
          "internalType": "address",
          "name": "src",
          "type": "address"
        },
        {
          "indexed": false,
          "internalType": "address",
          "name": "asset",
          "type": "address"
        },
        {
          "indexed": false,
          "internalType": "uint256",
          "name": "amt",
          "type": "uint256"
        }
      ],
      "name": "Liquidate",
      "type": "event"
    },
    {
      "anonymous": false,
      "inputs": [
        {
          "indexed": true,
          "internalType": "address",
          "name": "dst",
          "type": "address"
        },
        {
          "indexed": false,
          "internalType": "uint256",
          "name": "amt",
          "type": "uint256"
        }
      ],
      "name": "Mint",
      "type": "event"
    },
    {
      "anonymous": false,
      "inputs": [
        {
          "indexed": false,
          "internalType": "address",
          "name": "asset",
          "type": "address"
        }
      ],
      "name": "NewAsset",
      "type": "event"
    },
    {
      "anonymous": false,
      "inputs": [
        {
          "indexed": true,
          "internalType": "address",
          "name": "previousOwner",
          "type": "address"
        },
        {
          "indexed": true,
          "internalType": "address",
          "name": "newOwner",
          "type": "address"
        }
      ],
      "name": "OwnershipTransferred",
      "type": "event"
    },
    {
      "anonymous": false,
      "inputs": [
        {
          "indexed": false,
          "internalType": "address",
          "name": "newOracle",
          "type": "address"
        }
      ],
      "name": "PriceOracle",
      "type": "event"
    },
    {
      "anonymous": false,
      "inputs": [
        {
          "indexed": true,
          "internalType": "address",
          "name": "src",
          "type": "address"
        },
        {
          "indexed": false,
          "internalType": "uint256",
          "name": "amt",
          "type": "uint256"
        }
      ],
      "name": "Supply",
      "type": "event"
    },
    {
      "anonymous": false,
      "inputs": [
        {
          "indexed": true,
          "internalType": "address",
          "name": "from",
          "type": "address"
        },
        {
          "indexed": true,
          "internalType": "address",
          "name": "to",
          "type": "address"
        },
        {
          "indexed": false,
          "internalType": "uint256",
          "name": "value",
          "type": "uint256"
        }
      ],
      "name": "Transfer",
      "type": "event"
    },
    {
      "anonymous": false,
      "inputs": [
        {
          "indexed": true,
          "internalType": "address",
          "name": "dst",
          "type": "address"
        },
        {
          "indexed": false,
          "internalType": "uint256",
          "name": "amt",
          "type": "uint256"
        }
      ],
      "name": "Withdraw",
      "type": "event"
    },
    {
      "inputs": [],
      "name": "DOMAIN_SEPARATOR",
      "outputs": [
        {
          "internalType": "bytes32",
          "name": "",
          "type": "bytes32"
        }
      ],
      "stateMutability": "view",
      "type": "function"
    },
    {
      "inputs": [
        {
          "internalType": "address",
          "name": "owner",
          "type": "address"
        },
        {
          "internalType": "address",
          "name": "spender",
          "type": "address"
        }
      ],
      "name": "allowance",
      "outputs": [
        {
          "internalType": "uint256",
          "name": "",
          "type": "uint256"
        }
      ],
      "stateMutability": "view",
      "type": "function"
    },
    {
      "inputs": [
        {
          "internalType": "address",
          "name": "spender",
          "type": "address"
        },
        {
          "internalType": "uint256",
          "name": "amount",
          "type": "uint256"
        }
      ],
      "name": "approve",
      "outputs": [
        {
          "internalType": "bool",
          "name": "",
          "type": "bool"
        }
      ],
      "stateMutability": "nonpayable",
      "type": "function"
    },
    {
      "inputs": [
        {
          "internalType": "address",
          "name": "asset",
          "type": "address"
        }
      ],
      "name": "assetPrice",
      "outputs": [
        {
          "internalType": "uint256",
          "name": "",
          "type": "uint256"
        }
      ],
      "stateMutability": "view",
      "type": "function"
    },
    {
      "inputs": [
        {
          "internalType": "address",
          "name": "account",
          "type": "address"
        }
      ],
      "name": "balanceOf",
      "outputs": [
        {
          "internalType": "uint256",
          "name": "",
          "type": "uint256"
        }
      ],
      "stateMutability": "view",
      "type": "function"
    },
    {
      "inputs": [],
      "name": "bpsDenominator",
      "outputs": [
        {
          "internalType": "uint256",
          "name": "",
          "type": "uint256"
        }
      ],
      "stateMutability": "pure",
      "type": "function"
    },
    {
      "inputs": [
        {
          "internalType": "uint256",
          "name": "amount",
          "type": "uint256"
        }
      ],
      "name": "burn",
      "outputs": [],
      "stateMutability": "nonpayable",
      "type": "function"
    },
    {
      "inputs": [
        {
          "internalType": "bytes",
          "name": "",
          "type": "bytes"
        }
      ],
      "name": "checkUpkeep",
      "outputs": [
        {
          "internalType": "bool",
          "name": "upkeepNeeded",
          "type": "bool"
        },
        {
          "internalType": "bytes",
          "name": "performData",
          "type": "bytes"
        }
      ],
      "stateMutability": "view",
      "type": "function"
    },
    {
      "inputs": [
        {
          "internalType": "address",
          "name": "account",
          "type": "address"
        }
      ],
      "name": "collateral",
      "outputs": [
        {
          "internalType": "uint256",
          "name": "value",
          "type": "uint256"
        }
      ],
      "stateMutability": "view",
      "type": "function"
    },
    {
      "inputs": [
        {
          "internalType": "address",
          "name": "account",
          "type": "address"
        }
      ],
      "name": "currentDebt",
      "outputs": [
        {
          "internalType": "uint256",
          "name": "",
          "type": "uint256"
        }
      ],
      "stateMutability": "view",
      "type": "function"
    },
    {
      "inputs": [],
      "name": "decimals",
      "outputs": [
        {
          "internalType": "uint8",
          "name": "",
          "type": "uint8"
        }
      ],
      "stateMutability": "view",
      "type": "function"
    },
    {
      "inputs": [
        {
          "internalType": "address",
          "name": "spender",
          "type": "address"
        },
        {
          "internalType": "uint256",
          "name": "subtractedValue",
          "type": "uint256"
        }
      ],
      "name": "decreaseAllowance",
      "outputs": [
        {
          "internalType": "bool",
          "name": "",
          "type": "bool"
        }
      ],
      "stateMutability": "nonpayable",
      "type": "function"
    },
    {
      "inputs": [],
      "name": "demuPrice",
      "outputs": [
        {
          "internalType": "uint256",
          "name": "",
          "type": "uint256"
        }
      ],
      "stateMutability": "view",
      "type": "function"
    },
    {
      "inputs": [],
      "name": "feesCollector",
      "outputs": [
        {
          "internalType": "address",
          "name": "",
          "type": "address"
        }
      ],
      "stateMutability": "view",
      "type": "function"
    },
    {
      "inputs": [
        {
          "internalType": "address",
          "name": "",
          "type": "address"
        },
        {
          "internalType": "uint256",
          "name": "amount",
          "type": "uint256"
        }
      ],
      "name": "flashFee",
      "outputs": [
        {
          "internalType": "uint256",
          "name": "",
          "type": "uint256"
        }
      ],
      "stateMutability": "pure",
      "type": "function"
    },
    {
      "inputs": [
        {
          "internalType": "contract IERC3156FlashBorrower",
          "name": "receiver",
          "type": "address"
        },
        {
          "internalType": "address",
          "name": "token",
          "type": "address"
        },
        {
          "internalType": "uint256",
          "name": "amount",
          "type": "uint256"
        },
        {
          "internalType": "bytes",
          "name": "data",
          "type": "bytes"
        }
      ],
      "name": "flashLoan",
      "outputs": [
        {
          "internalType": "bool",
          "name": "",
          "type": "bool"
        }
      ],
      "stateMutability": "nonpayable",
      "type": "function"
    },
    {
      "inputs": [
        {
          "internalType": "address",
          "name": "spender",
          "type": "address"
        },
        {
          "internalType": "uint256",
          "name": "addedValue",
          "type": "uint256"
        }
      ],
      "name": "increaseAllowance",
      "outputs": [
        {
          "internalType": "bool",
          "name": "",
          "type": "bool"
        }
      ],
      "stateMutability": "nonpayable",
      "type": "function"
    },
    {
      "inputs": [
        {
          "components": [
            {
              "internalType": "address",
              "name": "account",
              "type": "address"
            },
            {
              "internalType": "address[]",
              "name": "assets",
              "type": "address[]"
            },
            {
              "internalType": "address",
              "name": "liquidator",
              "type": "address"
            }
          ],
          "internalType": "struct Demu.LiquidationParams",
          "name": "params",
          "type": "tuple"
        }
      ],
      "name": "liquidate",
      "outputs": [],
      "stateMutability": "nonpayable",
      "type": "function"
    },
    {
      "inputs": [
        {
          "internalType": "address",
          "name": "account",
          "type": "address"
        }
      ],
      "name": "maxDebt",
      "outputs": [
        {
          "internalType": "uint256",
          "name": "value",
          "type": "uint256"
        }
      ],
      "stateMutability": "view",
      "type": "function"
    },
    {
      "inputs": [
        {
          "internalType": "address",
          "name": "token",
          "type": "address"
        }
      ],
      "name": "maxFlashLoan",
      "outputs": [
        {
          "internalType": "uint256",
          "name": "",
          "type": "uint256"
        }
      ],
      "stateMutability": "view",
      "type": "function"
    },
    {
      "inputs": [
        {
          "internalType": "address",
          "name": "account",
          "type": "address"
        }
      ],
      "name": "maxMintable",
      "outputs": [
        {
          "internalType": "uint256",
          "name": "value",
          "type": "uint256"
        }
      ],
      "stateMutability": "view",
      "type": "function"
    },
    {
      "inputs": [
        {
          "internalType": "uint256",
          "name": "amount",
          "type": "uint256"
        }
      ],
      "name": "mint",
      "outputs": [],
      "stateMutability": "nonpayable",
      "type": "function"
    },
    {
      "inputs": [
        {
          "internalType": "bytes[]",
          "name": "data",
          "type": "bytes[]"
        }
      ],
      "name": "multicall",
      "outputs": [
        {
          "internalType": "bytes[]",
          "name": "results",
          "type": "bytes[]"
        }
      ],
      "stateMutability": "nonpayable",
      "type": "function"
    },
    {
      "inputs": [],
      "name": "name",
      "outputs": [
        {
          "internalType": "string",
          "name": "",
          "type": "string"
        }
      ],
      "stateMutability": "view",
      "type": "function"
    },
    {
      "inputs": [
        {
          "internalType": "address",
          "name": "owner",
          "type": "address"
        }
      ],
      "name": "nonces",
      "outputs": [
        {
          "internalType": "uint256",
          "name": "",
          "type": "uint256"
        }
      ],
      "stateMutability": "view",
      "type": "function"
    },
    {
      "inputs": [],
      "name": "oracle",
      "outputs": [
        {
          "internalType": "address",
          "name": "",
          "type": "address"
        }
      ],
      "stateMutability": "view",
      "type": "function"
    },
    {
      "inputs": [],
      "name": "owner",
      "outputs": [
        {
          "internalType": "address",
          "name": "",
          "type": "address"
        }
      ],
      "stateMutability": "view",
      "type": "function"
    },
    {
      "inputs": [
        {
          "internalType": "bytes",
          "name": "performData",
          "type": "bytes"
        }
      ],
      "name": "performUpkeep",
      "outputs": [],
      "stateMutability": "nonpayable",
      "type": "function"
    },
    {
      "inputs": [
        {
          "internalType": "address",
          "name": "owner",
          "type": "address"
        },
        {
          "internalType": "address",
          "name": "spender",
          "type": "address"
        },
        {
          "internalType": "uint256",
          "name": "value",
          "type": "uint256"
        },
        {
          "internalType": "uint256",
          "name": "deadline",
          "type": "uint256"
        },
        {
          "internalType": "uint8",
          "name": "v",
          "type": "uint8"
        },
        {
          "internalType": "bytes32",
          "name": "r",
          "type": "bytes32"
        },
        {
          "internalType": "bytes32",
          "name": "s",
          "type": "bytes32"
        }
      ],
      "name": "permit",
      "outputs": [],
      "stateMutability": "nonpayable",
      "type": "function"
    },
    {
      "inputs": [
        {
          "internalType": "address",
          "name": "asset",
          "type": "address"
        }
      ],
      "name": "removeSupportedAsset",
      "outputs": [],
      "stateMutability": "nonpayable",
      "type": "function"
    },
    {
      "inputs": [],
      "name": "renounceOwnership",
      "outputs": [],
      "stateMutability": "nonpayable",
      "type": "function"
    },
    {
      "inputs": [
        {
          "internalType": "address",
          "name": "newCollector",
          "type": "address"
        }
      ],
      "name": "setFeesCollector",
      "outputs": [],
      "stateMutability": "nonpayable",
      "type": "function"
    },
    {
      "inputs": [
        {
          "internalType": "address",
          "name": "newOracle",
          "type": "address"
        }
      ],
      "name": "setPriceOracle",
      "outputs": [],
      "stateMutability": "nonpayable",
      "type": "function"
    },
    {
      "inputs": [
        {
          "internalType": "address",
          "name": "account",
          "type": "address"
        },
        {
          "internalType": "address",
          "name": "asset",
          "type": "address"
        }
      ],
      "name": "supplied",
      "outputs": [
        {
          "internalType": "uint256",
          "name": "",
          "type": "uint256"
        }
      ],
      "stateMutability": "view",
      "type": "function"
    },
    {
      "inputs": [
        {
          "internalType": "address",
          "name": "asset",
          "type": "address"
        },
        {
          "internalType": "uint256",
          "name": "amount",
          "type": "uint256"
        }
      ],
      "name": "supply",
      "outputs": [],
      "stateMutability": "nonpayable",
      "type": "function"
    },
    {
      "inputs": [],
      "name": "supplyNative",
      "outputs": [],
      "stateMutability": "payable",
      "type": "function"
    },
    {
      "inputs": [
        {
          "internalType": "address",
          "name": "asset",
          "type": "address"
        },
        {
          "internalType": "uint256",
          "name": "amount",
          "type": "uint256"
        },
        {
          "internalType": "uint256",
          "name": "deadline",
          "type": "uint256"
        },
        {
          "internalType": "uint8",
          "name": "v",
          "type": "uint8"
        },
        {
          "internalType": "bytes32",
          "name": "r",
          "type": "bytes32"
        },
        {
          "internalType": "bytes32",
          "name": "s",
          "type": "bytes32"
        }
      ],
      "name": "supplyWithPermit",
      "outputs": [],
      "stateMutability": "nonpayable",
      "type": "function"
    },
    {
      "inputs": [
        {
          "internalType": "address",
          "name": "asset",
          "type": "address"
        }
      ],
      "name": "supportNewAsset",
      "outputs": [],
      "stateMutability": "nonpayable",
      "type": "function"
    },
    {
      "inputs": [],
      "name": "supportedAssets",
      "outputs": [
        {
          "internalType": "address[]",
          "name": "",
          "type": "address[]"
        }
      ],
      "stateMutability": "view",
      "type": "function"
    },
    {
      "inputs": [],
      "name": "symbol",
      "outputs": [
        {
          "internalType": "string",
          "name": "",
          "type": "string"
        }
      ],
      "stateMutability": "view",
      "type": "function"
    },
    {
      "inputs": [],
      "name": "totalSupply",
      "outputs": [
        {
          "internalType": "uint256",
          "name": "",
          "type": "uint256"
        }
      ],
      "stateMutability": "view",
      "type": "function"
    },
    {
      "inputs": [
        {
          "internalType": "address",
          "name": "to",
          "type": "address"
        },
        {
          "internalType": "uint256",
          "name": "amount",
          "type": "uint256"
        }
      ],
      "name": "transfer",
      "outputs": [
        {
          "internalType": "bool",
          "name": "",
          "type": "bool"
        }
      ],
      "stateMutability": "nonpayable",
      "type": "function"
    },
    {
      "inputs": [
        {
          "internalType": "address",
          "name": "from",
          "type": "address"
        },
        {
          "internalType": "address",
          "name": "to",
          "type": "address"
        },
        {
          "internalType": "uint256",
          "name": "amount",
          "type": "uint256"
        }
      ],
      "name": "transferFrom",
      "outputs": [
        {
          "internalType": "bool",
          "name": "",
          "type": "bool"
        }
      ],
      "stateMutability": "nonpayable",
      "type": "function"
    },
    {
      "inputs": [
        {
          "internalType": "address",
          "name": "newOwner",
          "type": "address"
        }
      ],
      "name": "transferOwnership",
      "outputs": [],
      "stateMutability": "nonpayable",
      "type": "function"
    },
    {
      "inputs": [
        {
          "internalType": "address[]",
          "name": "assets",
          "type": "address[]"
        },
        {
          "components": [
            {
              "internalType": "uint256",
              "name": "mintLTV",
              "type": "uint256"
            },
            {
              "internalType": "uint256",
              "name": "liquidationLTV",
              "type": "uint256"
            },
            {
              "internalType": "uint256",
              "name": "liquidationIncentive",
              "type": "uint256"
            },
            {
              "internalType": "uint256",
              "name": "protocolCut",
              "type": "uint256"
            }
          ],
          "internalType": "struct DataProvider.AssetConf[]",
          "name": "confs",
          "type": "tuple[]"
        }
      ],
      "name": "updateAssetConfs",
      "outputs": [],
      "stateMutability": "nonpayable",
      "type": "function"
    },
    {
      "inputs": [
        {
          "internalType": "address",
          "name": "asset",
          "type": "address"
        },
        {
          "internalType": "uint256",
          "name": "amount",
          "type": "uint256"
        }
      ],
      "name": "withdraw",
      "outputs": [],
      "stateMutability": "nonpayable",
      "type": "function"
    }
  ],
  "bytecode": "0x6101406040523480156200001257600080fd5b5060405162004c3f38038062004c3f8339810160408190526200003591620003b4565b6040518060400160405280600481526020016344454d5560e01b81525080604051806040016040528060018152602001603160f81b8152506040518060400160405280600481526020016344454d5560e01b8152506040518060400160405280600481526020016344454d5560e01b815250878787620000c4620000be6200022b60201b60201c565b6200022f565b600180546001600160a01b038086166001600160a01b0319928316179092556002805492851692909116919091179055805160005b818110156200015957620001458382815181106200012757634e487b7160e01b600052603260045260246000fd5b602002602001015160036200027f60201b6200260c1790919060201c565b506200015181620004ed565b9050620000f9565b5050845162000173935060099250602086019150620002f1565b5080516200018990600a906020840190620002f1565b5050825160208085019190912083518483012060e08290526101008190524660a0818152604080517f8b73c3c69bb8fe3d512ecc4cf759cc79239f7b179b0ffacaa9a75d522b39400f81880181905281830187905260608201869052608082019490945230818401528151808203909301835260c0019052805194019390932091935091906080523060601b60c05261012052506200052b9650505050505050565b3390565b600080546001600160a01b038381166001600160a01b0319831681178455604051919092169283917f8be0079c531659141344cd1fd0a4f28419497f9722a3daafe3b4186f6b6457e09190a35050565b600062000296836001600160a01b0384166200029f565b90505b92915050565b6000818152600183016020526040812054620002e85750815460018181018455600084815260208082209093018490558454848252828601909352604090209190915562000299565b50600062000299565b828054620002ff90620004b0565b90600052602060002090601f0160209004810192826200032357600085556200036e565b82601f106200033e57805160ff19168380011785556200036e565b828001600101855582156200036e579182015b828111156200036e57825182559160200191906001019062000351565b506200037c92915062000380565b5090565b5b808211156200037c576000815560010162000381565b80516001600160a01b0381168114620003af57600080fd5b919050565b600080600060608486031215620003c9578283fd5b620003d48462000397565b92506020620003e581860162000397565b60408601519093506001600160401b038082111562000402578384fd5b818701915087601f83011262000416578384fd5b8151818111156200042b576200042b62000515565b8060051b604051601f19603f8301168101818110858211171562000453576200045362000515565b604052828152858101935084860182860187018c101562000472578788fd5b8795505b838610156200049f576200048a8162000397565b85526001959095019493860193860162000476565b508096505050505050509250925092565b600181811c90821680620004c557607f821691505b60208210811415620004e757634e487b7160e01b600052602260045260246000fd5b50919050565b60006000198214156200050e57634e487b7160e01b81526011600452602481fd5b5060010190565b634e487b7160e01b600052604160045260246000fd5b60805160a05160c05160601c60e05161010051610120516146c16200057e6000396000612a9b01526000612aea01526000612ac501526000612a1e01526000612a4801526000612a7201526146c16000f3fe60806040526004361061027d5760003560e01c80638cfc498c1161014f578063a9059cbb116100c1578063dd62ed3e1161007a578063dd62ed3e14610787578063eef75525146107a7578063f2b9fdb8146107c7578063f2fde38b146107e7578063f3fef3a314610807578063f60632a01461082757600080fd5b8063a9059cbb146106ba578063ac9650d8146106da578063b883b05814610707578063bef7f36514610727578063d505accf14610747578063d9d98ce41461076757600080fd5b80639cf160f6116101135780639cf160f614610612578063a0712d6814610630578063a457c2d714610650578063a49f20dc14610670578063a5fdc5de14610678578063a80ce55c1461069857600080fd5b80638cfc498c1461058a5780638da5cb5b146105aa57806392c86d9a146105c857806394e96dc9146105e857806395d89b41146105fd57600080fd5b80634585e33b116101f35780636fff45ed116101ac5780636fff45ed146104bd57806370a08231146104dd578063715018a6146105135780637dc0d1d0146105285780637ecebe001461054a578063884719f21461056a57600080fd5b80634585e33b146103ef578063530e784f1461040f5780635cffe9de1461042f5780635ed88ecf1461044f578063613255ab1461046f5780636e04ff0d1461048f57600080fd5b806323b872dd1161024557806323b872dd1461033e578063313ce5671461035e5780633644e5151461037a578063373071f21461038f57806339509351146103af57806342966c68146103cf57600080fd5b806306fdde0314610282578063095ea7b3146102ad57806318160ddd146102dd5780631c46bc6f146102fc5780631f655b691461031e575b600080fd5b34801561028e57600080fd5b5061029761083c565b6040516102a49190614327565b60405180910390f35b3480156102b957600080fd5b506102cd6102c8366004613c8d565b6108ce565b60405190151581526020016102a4565b3480156102e957600080fd5b506008545b6040519081526020016102a4565b34801561030857600080fd5b5061031c610317366004613b89565b6108e8565b005b34801561032a57600080fd5b506102ee610339366004613ba5565b610936565b34801561034a57600080fd5b506102cd610359366004613bdd565b610963565b34801561036a57600080fd5b50604051601281526020016102a4565b34801561038657600080fd5b506102ee610989565b34801561039b57600080fd5b5061031c6103aa366004613b89565b610998565b3480156103bb57600080fd5b506102cd6103ca366004613c8d565b6109eb565b3480156103db57600080fd5b5061031c6103ea36600461406d565b610a0d565b3480156103fb57600080fd5b5061031c61040a366004613f22565b610aac565b34801561041b57600080fd5b5061031c61042a366004613b89565b610c56565b34801561043b57600080fd5b506102cd61044a366004613f55565b610ca9565b34801561045b57600080fd5b506102ee61046a366004613b89565b610fe8565b34801561047b57600080fd5b506102ee61048a366004613b89565b611159565b34801561049b57600080fd5b506104af6104aa366004613f22565b6111d8565b6040516102a492919061430c565b3480156104c957600080fd5b5061031c6104d8366004613cb8565b611505565b3480156104e957600080fd5b506102ee6104f8366004613b89565b6001600160a01b031660009081526006602052604090205490565b34801561051f57600080fd5b5061031c6115cd565b34801561053457600080fd5b5061053d6115e1565b6040516102a4919061412c565b34801561055657600080fd5b506102ee610565366004613b89565b6115f0565b34801561057657600080fd5b506102ee610585366004613b89565b61160e565b34801561059657600080fd5b5061031c6105a5366004613b89565b611644565b3480156105b657600080fd5b506000546001600160a01b031661053d565b3480156105d457600080fd5b5061031c6105e3366004613d13565b611687565b3480156105f457600080fd5b506102ee6118b0565b34801561060957600080fd5b5061029761192a565b34801561061e57600080fd5b506002546001600160a01b031661053d565b34801561063c57600080fd5b5061031c61064b36600461406d565b611939565b34801561065c57600080fd5b506102cd61066b366004613c8d565b611a34565b61031c611aba565b34801561068457600080fd5b506102ee610693366004613b89565b611b49565b3480156106a457600080fd5b506106ad611c82565b6040516102a491906141d6565b3480156106c657600080fd5b506102cd6106d5366004613c8d565b611c8e565b3480156106e657600080fd5b506106fa6106f5366004613eaf565b611c9c565b6040516102a491906142ab565b34801561071357600080fd5b506102ee610722366004613b89565b611dba565b34801561073357600080fd5b506102ee610742366004613b89565b611def565b34801561075357600080fd5b5061031c610762366004613c1d565b611f5c565b34801561077357600080fd5b506102ee610782366004613c8d565b6120c0565b34801561079357600080fd5b506102ee6107a2366004613ba5565b61210b565b3480156107b357600080fd5b5061031c6107c2366004613fc5565b612136565b3480156107d357600080fd5b5061031c6107e2366004613c8d565b612481565b3480156107f357600080fd5b5061031c610802366004613b89565b6124a7565b34801561081357600080fd5b5061031c610822366004613c8d565b61251d565b34801561083357600080fd5b506103e86102ee565b60606009805461084b90614596565b80601f016020809104026020016040519081016040528092919081815260200182805461087790614596565b80156108c45780601f10610899576101008083540402835291602001916108c4565b820191906000526020600020905b8154815290600101906020018083116108a757829003601f168201915b5050505050905090565b6000336108dc818585612621565b60019150505b92915050565b6108f0612745565b6108fb60038261279f565b507f37803e2125c48ee96c38ddf04e826daf335b0e1603579040fd275aba6d06b6fc8160405161092b919061412c565b60405180910390a150565b6001600160a01b0382166000908152600d60205260408120819061095a90846127b4565b95945050505050565b6000336109718582856127db565b61097c858585612855565b60019150505b9392505050565b6000610993612a11565b905090565b6109a0612745565b600280546001600160a01b0319166001600160a01b0383161790556040517f36500f45d42bde710f51c49fca335108939ea7d631cc825e480095366557aad29061092b90839061412c565b6000336108dc8185856109fe838361210b565b610a089190614419565b612621565b610a173382612b38565b610a24335b600e90612c74565b610a2d57600080fd5b6000610a3c335b600e906127b4565b9150610a4a90508282614553565b905080610a6257610a5c600e33612c89565b50610a72565b610a70335b600e9083612c9e565b505b60405182815233907fcc16f5dbb4873280815c1ee09dbd06736cffcc184412cf7a71a0fdb75d397ca5906020015b60405180910390a25050565b6000808080610abd85870187613da6565b83519397509195509350915060005b81811015610c4c57858181518110610af457634e487b7160e01b600052603260045260246000fd5b602002602001015115610c3c5760006040518060600160405280878481518110610b2e57634e487b7160e01b600052603260045260246000fd5b60200260200101516001600160a01b03168152602001868481518110610b6457634e487b7160e01b600052603260045260246000fd5b60200260200101518152602001858481518110610b9157634e487b7160e01b600052603260045260246000fd5b60200260200101516001600160a01b03168152509050306001600160a01b031681604051602401610bc2919061433a565b60408051601f198184030181529181526020820180516001600160e01b031663a0e4f3a160e01b17905251610bf79190614110565b600060405180830381855af49150503d8060008114610c32576040519150601f19603f3d011682016040523d82523d6000602084013e610c37565b606091505b505050505b610c45816145cb565b9050610acc565b5050505050505050565b610c5e612745565b600180546001600160a01b0319166001600160a01b0383161790556040517f21039fe20f3ae5fdef2b672a459056b9f34cddca8f2645406cf148e2c4f6350f9061092b90839061412c565b600080610cb686866120c0565b60405163a9059cbb60e01b81529091506001600160a01b0387169063a9059cbb90610ce7908a9089906004016141bd565b602060405180830381600087803b158015610d0157600080fd5b505af1158015610d15573d6000803e3d6000fd5b505050506040513d601f19601f82011682018060405250810190610d399190613eee565b610d8a5760405162461bcd60e51b815260206004820152601c60248201527f466c6173684c656e6465723a205472616e73666572206661696c65640000000060448201526064015b60405180910390fd5b6040516323e30c8b60e01b81527f439148f0bbc682ca079e46d6e2c2f0c1e3b820f1a291b069d8882abf8cf18dd9906001600160a01b038916906323e30c8b90610de29033908b908b9088908c908c90600401614164565b602060405180830381600087803b158015610dfc57600080fd5b505af1158015610e10573d6000803e3d6000fd5b505050506040513d601f19601f82011682018060405250810190610e349190613f0a565b14610e815760405162461bcd60e51b815260206004820152601c60248201527f466c6173684c656e6465723a2043616c6c6261636b206661696c6564000000006044820152606401610d81565b6001600160a01b0386166323b872dd8830610e9c858a614419565b6040518463ffffffff1660e01b8152600401610eba93929190614140565b602060405180830381600087803b158015610ed457600080fd5b505af1158015610ee8573d6000803e3d6000fd5b505050506040513d601f19601f82011682018060405250810190610f0c9190613eee565b610f545760405162461bcd60e51b8152602060048201526019602482015278119b185cda13195b99195c8e8814995c185e4819985a5b1959603a1b6044820152606401610d81565b60025460405163a9059cbb60e01b81526001600160a01b038881169263a9059cbb92610f88929091169085906004016141bd565b602060405180830381600087803b158015610fa257600080fd5b505af1158015610fb6573d6000803e3d6000fd5b505050506040513d601f19601f82011682018060405250810190610fda9190613eee565b506001979650505050505050565b6001600160a01b0381166000908152600d60205260408120819061100b90612cbc565b905060005b81811015611152576001600160a01b0384166000908152600d60205260408120819061103c9084612cc7565b9092509050801561111f5760006110538383612cd6565b9050600061105f6115e1565b90506000816001600160a01b031663b2f1ee3b866040518263ffffffff1660e01b815260040161108f919061412c565b60206040518083038186803b1580156110a757600080fd5b505afa1580156110bb573d6000803e3d6000fd5b505050506040513d601f19601f820116820180604052508101906110df9190613f0a565b6001600160a01b0386166000908152600560205260409020549091506111058285614534565b61110f9190614534565b6111199089614419565b97505050505b6111336103e8670de0b6b3a7640000614534565b61113d9086614431565b945050508061114b906145cb565b9050611010565b5050919050565b6040516370a0823160e01b81526000906001600160a01b038316906370a082319061118890309060040161412c565b60206040518083038186803b1580156111a057600080fd5b505afa1580156111b4573d6000803e3d6000fd5b505050506040513d601f19601f820116820180604052508101906108e29190613f0a565b6002546001600160a01b031660008181526006602052604081205490916060918061120657600093506114fc565b6000611210611c82565b9050600061121e600e612cbc565b90506000816001600160401b0381111561124857634e487b7160e01b600052604160045260246000fd5b604051908082528060200260200182016040528015611271578160200160208202803683370190505b5090506000826001600160401b0381111561129c57634e487b7160e01b600052604160045260246000fd5b6040519080825280602002602001820160405280156112c5578160200160208202803683370190505b5090506000836001600160401b038111156112f057634e487b7160e01b600052604160045260246000fd5b60405190808252806020026020018201604052801561132357816020015b606081526020019060019003908161130e5790505b5090506000846001600160401b0381111561134e57634e487b7160e01b600052604160045260246000fd5b604051908082528060200260200182016040528015611377578160200160208202803683370190505b50905060005b858110156114cc576000611392600e83612cc7565b50905060006113a08261160e565b905060006113ad83611def565b905060006113bc601483614431565b905060006113ca8385614553565b90508181106114b65760018a87815181106113f557634e487b7160e01b600052603260045260246000fd5b6020026020010190151590811515815250508489878151811061142857634e487b7160e01b600052603260045260246000fd5b60200260200101906001600160a01b031690816001600160a01b0316815250508b88878151811061146957634e487b7160e01b600052603260045260246000fd5b60200260200101819052508d87878151811061149557634e487b7160e01b600052603260045260246000fd5b60200260200101906001600160a01b031690816001600160a01b0316815250505b5050505050806114c5906145cb565b905061137d565b50838383836040516020016114e494939291906141e9565b60405160208183030381529060405298505050505050505b50509250929050565b6001600160a01b03861663d505accf336040516001600160e01b031960e084901b1681526001600160a01b039091166004820152306024820152604481018890526064810187905260ff8616608482015260a4810185905260c4810184905260e401600060405180830381600087803b15801561158157600080fd5b505af1158015611595573d6000803e3d6000fd5b5050505060006115a23390565b90506115b96001600160a01b038816823089612db1565b6115c4818888612e09565b50505050505050565b6115d5612745565b6115df6000612efa565b565b6001546001600160a01b031690565b6001600160a01b0381166000908152600b60205260408120546108e2565b60008061161c600e846127b4565b915050670de0b6b3a76400006116306118b0565b61163a9083614534565b6109829190614431565b61164c612745565b61165760038261260c565b507fc7d9598af6004de7fa9c489a50a55414c75cfbce9fe56fe46956970744d6bc2c8160405161092b919061412c565b61168f612745565b8260005b818110156118a8578383828181106116bb57634e487b7160e01b600052603260045260246000fd5b90506080020160000135600560008888858181106116e957634e487b7160e01b600052603260045260246000fd5b90506020020160208101906116fe9190613b89565b6001600160a01b0316815260208101919091526040016000205583838281811061173857634e487b7160e01b600052603260045260246000fd5b905060800201602001356005600088888581811061176657634e487b7160e01b600052603260045260246000fd5b905060200201602081019061177b9190613b89565b6001600160a01b031681526020810191909152604001600020600101558383828181106117b857634e487b7160e01b600052603260045260246000fd5b90506080020160400135600560008888858181106117e657634e487b7160e01b600052603260045260246000fd5b90506020020160208101906117fb9190613b89565b6001600160a01b0316815260208101919091526040016000206002015583838281811061183857634e487b7160e01b600052603260045260246000fd5b905060800201606001356005600088888581811061186657634e487b7160e01b600052603260045260246000fd5b905060200201602081019061187b9190613b89565b6001600160a01b031681526020810191909152604001600020600301556118a1816145cb565b9050611693565b505050505050565b60006118ba6115e1565b6001600160a01b031663c548fb5d6040518163ffffffff1660e01b815260040160206040518083038186803b1580156118f257600080fd5b505afa158015611906573d6000803e3d6000fd5b505050506040513d601f19601f820116820180604052508101906109939190613f0a565b6060600a805461084b90614596565b6119433382612f4a565b61194c33610a1c565b1561198557600061195c33610a34565b91505061197e6119693390565b6119738484614419565b9250600e9083612c9e565b5050611990565b61198e33610a67565b505b61199933610fe8565b6119a23361160e565b11156119fc5760405162461bcd60e51b815260206004820152602360248201527f44454d553a204e6f7420616c6c6f77656420746f206d696e742074686973206d6044820152620eac6d60eb1b6064820152608401610d81565b60405181815233907f0f6798a560793a54c3bcfe86a93cde1e73087d944c0ea20544137d41213968859060200160405180910390a250565b60003381611a42828661210b565b905083811015611aa25760405162461bcd60e51b815260206004820152602560248201527f45524332303a2064656372656173656420616c6c6f77616e63652062656c6f77604482015264207a65726f60d81b6064820152608401610d81565b611aaf8286868403612621565b506001949350505050565b6000339050730d500b1d8e8ef31e21c99d1db9a6444d3adf12706001600160a01b031663d0e30db0346040518263ffffffff1660e01b81526004016000604051808303818588803b158015611b0e57600080fd5b505af1158015611b22573d6000803e3d6000fd5b5050505050611b4681730d500b1d8e8ef31e21c99d1db9a6444d3adf127034612e09565b50565b6001600160a01b0381166000908152600d602052604081208190611b6c90612cbc565b905060005b81811015611c6f576001600160a01b0384166000908152600d602052604081208190611b9d9084612cc7565b90925090508015611c5c576000611bb48383612cd6565b90506000611bc06115e1565b90506000816001600160a01b031663b2f1ee3b866040518263ffffffff1660e01b8152600401611bf0919061412c565b60206040518083038186803b158015611c0857600080fd5b505afa158015611c1c573d6000803e3d6000fd5b505050506040513d601f19601f82011682018060405250810190611c409190613f0a565b9050611c4c8184614534565b611c569089614419565b97505050505b505080611c68906145cb565b9050611b71565b50610982670de0b6b3a764000083614431565b60606109936003613017565b6000336108dc818585612855565b6060816001600160401b03811115611cc457634e487b7160e01b600052604160045260246000fd5b604051908082528060200260200182016040528015611cf757816020015b6060815260200190600190039081611ce25790505b50905060005b82811015611db357611d7530858584818110611d2957634e487b7160e01b600052603260045260246000fd5b9050602002810190611d3b9190614382565b8080601f01602080910402602001604051908101604052809392919081815260200183838082843760009201919091525061302492505050565b828281518110611d9557634e487b7160e01b600052603260045260246000fd5b60200260200101819052508080611dab906145cb565b915050611cfd565b5092915050565b6000611dc46115e1565b6001600160a01b031663b2f1ee3b836040518263ffffffff1660e01b8152600401611188919061412c565b6001600160a01b0381166000908152600d602052604081208190611e1290612cbc565b905060005b81811015611152576001600160a01b0384166000908152600d602052604081208190611e439084612cc7565b90925090508015611f29576000611e5a8383612cd6565b90506000611e666115e1565b90506000816001600160a01b031663b2f1ee3b866040518263ffffffff1660e01b8152600401611e96919061412c565b60206040518083038186803b158015611eae57600080fd5b505afa158015611ec2573d6000803e3d6000fd5b505050506040513d601f19601f82011682018060405250810190611ee69190613f0a565b6001600160a01b038616600090815260056020526040902060010154909150611f0f8285614534565b611f199190614534565b611f239089614419565b97505050505b611f3d6103e8670de0b6b3a7640000614534565b611f479086614431565b9450505080611f55906145cb565b9050611e17565b83421115611fac5760405162461bcd60e51b815260206004820152601d60248201527f45524332305065726d69743a206578706972656420646561646c696e650000006044820152606401610d81565b60007f6e71edae12b1b97f4d1f60370fef10105fa2faae0126114a169c64845d6126c9888888611fdb8c613049565b6040805160208101969096526001600160a01b0394851690860152929091166060840152608083015260a082015260c0810186905260e001604051602081830303815290604052805190602001209050600061203682613071565b90506000612046828787876130bf565b9050896001600160a01b0316816001600160a01b0316146120a95760405162461bcd60e51b815260206004820152601e60248201527f45524332305065726d69743a20696e76616c6964207369676e617475726500006044820152606401610d81565b6120b48a8a8a612621565b50505050505050505050565b6000620f4240826b033b2e3c9fd0803ce80000008410156120fb5769d3c21bcecceda10000008410156120f45760326120fe565b60196120fe565b600a5b60ff1661163a9190614534565b6001600160a01b03918216600090815260076020908152604080832093909416825291909152205490565b60006121458260000151611def565b90506000612156836000015161160e565b90508181116121a75760405162461bcd60e51b815260206004820152601e60248201527f44454d553a2043616e6e6f74206c6971756964617465206163636f756e7400006044820152606401610d81565b60006121b38383614553565b905060006121bf6118b0565b6121c99083614431565b90506121d9856040015182612b38565b60208501515160005b818110156115c457600084116121f7576115c4565b60008760200151828151811061221d57634e487b7160e01b600052603260045260246000fd5b602002602001015190506000612237896000015183610936565b905060006122436115e1565b6001600160a01b031663b2f1ee3b846040518263ffffffff1660e01b815260040161226e919061412c565b60206040518083038186803b15801561228657600080fd5b505afa15801561229a573d6000803e3d6000fd5b505050506040513d601f19601f820116820180604052508101906122be9190613f0a565b90506000670de0b6b3a76400006122d58385614534565b6122df9190614431565b90506000806103e86001600160a01b038716600090815260056020526040902060038101546002909101546123149190614419565b61231e9190614419565b90506103e861232d828c614534565b6123379190614431565b83101561234657849150612372565b612350848b614431565b9150670de0b6b3a76400006123658584614534565b61236f9190614431565b92505b60408d8101516001600160a01b0388166000908152600560205291909120600201546123cc919083906123a7906103e8614419565b6123b19086614534565b6123bb9190614431565b6001600160a01b03891691906130e7565b6124096123e16002546001600160a01b031690565b6001600160a01b03881660009081526005602052604090206003015483906123b19086614534565b612413838b614553565b99508c600001516001600160a01b03168d604001516001600160a01b03167f033fe6dadd06de536cd7b34266e12610e9d77a23d48d3d6218962a87cb74051488856040516124629291906141bd565b60405180910390a35050505050508061247a906145cb565b90506121e2565b336124976001600160a01b038416823085612db1565b6124a2818484612e09565b505050565b6124af612745565b6001600160a01b0381166125145760405162461bcd60e51b815260206004820152602660248201527f4f776e61626c653a206e6577206f776e657220697320746865207a65726f206160448201526564647265737360d01b6064820152608401610d81565b611b4681612efa565b6125316001600160a01b03831633836130e7565b61253a33611def565b6125433361160e565b11156125a15760405162461bcd60e51b815260206004820152602760248201527f44454d553a204e6f7420616c6c6f77656420746f2077697468647261772074686044820152660d2e640daeac6d60cb1b6064820152608401610d81565b6125d082826125b03386610936565b6125ba9190614553565b336000908152600d602052604090209190612c9e565b50816001600160a01b03167f884edad9ce6fa2440d8a54cc123490eb96d2768479d49ff9c7366125a942436482604051610aa091815260200190565b6000610982836001600160a01b038416613106565b6001600160a01b0383166126835760405162461bcd60e51b8152602060048201526024808201527f45524332303a20617070726f76652066726f6d20746865207a65726f206164646044820152637265737360e01b6064820152608401610d81565b6001600160a01b0382166126e45760405162461bcd60e51b815260206004820152602260248201527f45524332303a20617070726f766520746f20746865207a65726f206164647265604482015261737360f01b6064820152608401610d81565b6001600160a01b0383811660008181526007602090815260408083209487168084529482529182902085905590518481527f8c5be1e5ebec7d5bd14f71427d1e84f3dd0314c0f7b2291e5b200ac8c7c3b925910160405180910390a3505050565b6000546001600160a01b031633146115df5760405162461bcd60e51b815260206004820181905260248201527f4f776e61626c653a2063616c6c6572206973206e6f7420746865206f776e65726044820152606401610d81565b6000610982836001600160a01b038416613155565b60008080806127cc866001600160a01b038716613272565b909450925050505b9250929050565b60006127e7848461210b565b9050600019811461284f57818110156128425760405162461bcd60e51b815260206004820152601d60248201527f45524332303a20696e73756666696369656e7420616c6c6f77616e63650000006044820152606401610d81565b61284f8484848403612621565b50505050565b6001600160a01b0383166128b95760405162461bcd60e51b815260206004820152602560248201527f45524332303a207472616e736665722066726f6d20746865207a65726f206164604482015264647265737360d81b6064820152608401610d81565b6001600160a01b03821661291b5760405162461bcd60e51b815260206004820152602360248201527f45524332303a207472616e7366657220746f20746865207a65726f206164647260448201526265737360e81b6064820152608401610d81565b6001600160a01b038316600090815260066020526040902054818110156129935760405162461bcd60e51b815260206004820152602660248201527f45524332303a207472616e7366657220616d6f756e7420657863656564732062604482015265616c616e636560d01b6064820152608401610d81565b6001600160a01b038085166000908152600660205260408082208585039055918516815290812080548492906129ca908490614419565b92505081905550826001600160a01b0316846001600160a01b031660008051602061466c83398151915284604051612a0491815260200190565b60405180910390a361284f565b6000306001600160a01b037f000000000000000000000000000000000000000000000000000000000000000016148015612a6a57507f000000000000000000000000000000000000000000000000000000000000000046145b15612a9457507f000000000000000000000000000000000000000000000000000000000000000090565b50604080517f00000000000000000000000000000000000000000000000000000000000000006020808301919091527f0000000000000000000000000000000000000000000000000000000000000000828401527f000000000000000000000000000000000000000000000000000000000000000060608301524660808301523060a0808401919091528351808403909101815260c0909201909252805191012090565b6001600160a01b038216612b985760405162461bcd60e51b815260206004820152602160248201527f45524332303a206275726e2066726f6d20746865207a65726f206164647265736044820152607360f81b6064820152608401610d81565b6001600160a01b03821660009081526006602052604090205481811015612c0c5760405162461bcd60e51b815260206004820152602260248201527f45524332303a206275726e20616d6f756e7420657863656564732062616c616e604482015261636560f01b6064820152608401610d81565b6001600160a01b0383166000908152600660205260408120838303905560088054849290612c3b908490614553565b90915550506040518281526000906001600160a01b0385169060008051602061466c8339815191529060200160405180910390a3505050565b6000610982836001600160a01b0384166132b4565b6000610982836001600160a01b0384166132c0565b6000612cb4846001600160a01b038516846132dd565b949350505050565b60006108e2826132fa565b60008080806127cc8686613305565b600080836001600160a01b031663313ce5676040518163ffffffff1660e01b815260040160206040518083038186803b158015612d1257600080fd5b505afa158015612d26573d6000803e3d6000fd5b505050506040513d601f19601f82011682018060405250810190612d4a9190614085565b60ff1690506012811015612d8057612d63816012614553565b612d6e90600a61448c565b612d789084614534565b9150506108e2565b6012811115612da957612d94601282614553565b612d9f90600a61448c565b612d789084614431565b509092915050565b61284f846323b872dd60e01b858585604051602401612dd293929190614140565b60408051601f198184030181529190526020810180516001600160e01b03166001600160e01b031990931692909217909152613330565b6001600160a01b0383166000908152600d60205260409020612e2b9083612c74565b15612e8d576001600160a01b0383166000908152600d60205260408120612e5290846127b4565b9150612e86905083612e648484614419565b6001600160a01b0387166000908152600d602052604090209093509083612c9e565b5050612eb2565b6001600160a01b0383166000908152600d60205260409020612eb0908383612c9e565b505b816001600160a01b03167fadacf827efe383160192c092d8658471945c074229a9746679b5e2b74adff19182604051612eed91815260200190565b60405180910390a2505050565b600080546001600160a01b038381166001600160a01b0319831681178455604051919092169283917f8be0079c531659141344cd1fd0a4f28419497f9722a3daafe3b4186f6b6457e09190a35050565b6001600160a01b038216612fa05760405162461bcd60e51b815260206004820152601f60248201527f45524332303a206d696e7420746f20746865207a65726f2061646472657373006044820152606401610d81565b8060086000828254612fb29190614419565b90915550506001600160a01b03821660009081526006602052604081208054839290612fdf908490614419565b90915550506040518181526001600160a01b0383169060009060008051602061466c8339815191529060200160405180910390a35050565b6060600061098283613402565b606061098283836040518060600160405280602781526020016146456027913961345e565b6001600160a01b0381166000908152600b602052604090208054600181018255905b50919050565b60006108e261307e612a11565b8360405161190160f01b6020820152602281018390526042810182905260009060620160405160208183030381529060405280519060200120905092915050565b60008060006130d08787878761353b565b915091506130dd8161361e565b5095945050505050565b6124a28363a9059cbb60e01b8484604051602401612dd29291906141bd565b600081815260018301602052604081205461314d575081546001818101845560008481526020808220909301849055845484825282860190935260409020919091556108e2565b5060006108e2565b60008181526001830160205260408120548015613268576000613179600183614553565b855490915060009061318d90600190614553565b905081811461320e5760008660000182815481106131bb57634e487b7160e01b600052603260045260246000fd5b90600052602060002001549050808760000184815481106131ec57634e487b7160e01b600052603260045260246000fd5b6000918252602080832090910192909255918252600188019052604090208390555b855486908061322d57634e487b7160e01b600052603160045260246000fd5b6001900381819060005260206000200160009055905585600101600086815260200190815260200160002060009055600193505050506108e2565b60009150506108e2565b60008181526002830160205260408120548190806132a15761329485856132b4565b9250600091506127d49050565b6001925090506127d4565b509250929050565b6000610982838361381a565b600081815260028301602052604081208190556109828383613832565b60008281526002840160205260408120829055612cb4848461383e565b60006108e28261384a565b600080806133138585613854565b600081815260029690960160205260409095205494959350505050565b6000613385826040518060400160405280602081526020017f5361666545524332303a206c6f772d6c6576656c2063616c6c206661696c6564815250856001600160a01b03166138609092919063ffffffff16565b8051909150156124a257808060200190518101906133a39190613eee565b6124a25760405162461bcd60e51b815260206004820152602a60248201527f5361666545524332303a204552433230206f7065726174696f6e20646964206e6044820152691bdd081cdd58d8d9595960b21b6064820152608401610d81565b60608160000180548060200260200160405190810160405280929190818152602001828054801561345257602002820191906000526020600020905b81548152602001906001019080831161343e575b50505050509050919050565b60606001600160a01b0384163b6134c65760405162461bcd60e51b815260206004820152602660248201527f416464726573733a2064656c65676174652063616c6c20746f206e6f6e2d636f6044820152651b9d1c9858dd60d21b6064820152608401610d81565b600080856001600160a01b0316856040516134e19190614110565b600060405180830381855af49150503d806000811461351c576040519150601f19603f3d011682016040523d82523d6000602084013e613521565b606091505b509150915061353182828661386f565b9695505050505050565b6000806fa2a8918ca85bafe22016d0b997e4df60600160ff1b038311156135685750600090506003613615565b8460ff16601b1415801561358057508460ff16601c14155b156135915750600090506004613615565b6040805160008082526020820180845289905260ff881692820192909252606081018690526080810185905260019060a0016020604051602081039080840390855afa1580156135e5573d6000803e3d6000fd5b5050604051601f1901519150506001600160a01b03811661360e57600060019250925050613615565b9150600090505b94509492505050565b600081600481111561364057634e487b7160e01b600052602160045260246000fd5b14156136495750565b600181600481111561366b57634e487b7160e01b600052602160045260246000fd5b14156136b45760405162461bcd60e51b815260206004820152601860248201527745434453413a20696e76616c6964207369676e617475726560401b6044820152606401610d81565b60028160048111156136d657634e487b7160e01b600052602160045260246000fd5b14156137245760405162461bcd60e51b815260206004820152601f60248201527f45434453413a20696e76616c6964207369676e6174757265206c656e677468006044820152606401610d81565b600381600481111561374657634e487b7160e01b600052602160045260246000fd5b141561379f5760405162461bcd60e51b815260206004820152602260248201527f45434453413a20696e76616c6964207369676e6174757265202773272076616c604482015261756560f01b6064820152608401610d81565b60048160048111156137c157634e487b7160e01b600052602160045260246000fd5b1415611b465760405162461bcd60e51b815260206004820152602260248201527f45434453413a20696e76616c6964207369676e6174757265202776272076616c604482015261756560f01b6064820152608401610d81565b60008181526001830160205260408120541515610982565b60006109828383613155565b60006109828383613106565b60006108e2825490565b600061098283836138a8565b6060612cb484846000856138e0565b6060831561387e575081610982565b82511561388e5782518084602001fd5b8160405162461bcd60e51b8152600401610d819190614327565b60008260000182815481106138cd57634e487b7160e01b600052603260045260246000fd5b9060005260206000200154905092915050565b6060824710156139415760405162461bcd60e51b815260206004820152602660248201527f416464726573733a20696e73756666696369656e742062616c616e636520666f6044820152651c8818d85b1b60d21b6064820152608401610d81565b6001600160a01b0385163b6139985760405162461bcd60e51b815260206004820152601d60248201527f416464726573733a2063616c6c20746f206e6f6e2d636f6e74726163740000006044820152606401610d81565b600080866001600160a01b031685876040516139b49190614110565b60006040518083038185875af1925050503d80600081146139f1576040519150601f19603f3d011682016040523d82523d6000602084013e6139f6565b606091505b5091509150613a0682828661386f565b979650505050505050565b60008083601f840112613a22578182fd5b5081356001600160401b03811115613a38578182fd5b6020830191508360208260051b85010111156127d457600080fd5b600082601f830112613a63578081fd5b81356020613a78613a73836143f6565b6143c6565b80838252828201915082860187848660051b8901011115613a97578586fd5b855b85811015613abe578135613aac81614612565b84529284019290840190600101613a99565b5090979650505050505050565b600082601f830112613adb578081fd5b81356020613aeb613a73836143f6565b80838252828201915082860187848660051b8901011115613b0a578586fd5b855b85811015613abe5781356001600160401b03811115613b29578788fd5b613b378a87838c0101613a53565b8552509284019290840190600101613b0c565b60008083601f840112613b5b578182fd5b5081356001600160401b03811115613b71578182fd5b6020830191508360208285010111156127d457600080fd5b600060208284031215613b9a578081fd5b813561098281614612565b60008060408385031215613bb7578081fd5b8235613bc281614612565b91506020830135613bd281614612565b809150509250929050565b600080600060608486031215613bf1578081fd5b8335613bfc81614612565b92506020840135613c0c81614612565b929592945050506040919091013590565b600080600080600080600060e0888a031215613c37578283fd5b8735613c4281614612565b96506020880135613c5281614612565b955060408801359450606088013593506080880135613c7081614635565b9699959850939692959460a0840135945060c09093013592915050565b60008060408385031215613c9f578182fd5b8235613caa81614612565b946020939093013593505050565b60008060008060008060c08789031215613cd0578384fd5b8635613cdb81614612565b955060208701359450604087013593506060870135613cf981614635565b9598949750929560808101359460a0909101359350915050565b60008060008060408587031215613d28578182fd5b84356001600160401b0380821115613d3e578384fd5b613d4a88838901613a11565b90965094506020870135915080821115613d62578384fd5b818701915087601f830112613d75578384fd5b813581811115613d83578485fd5b8860208260071b8501011115613d97578485fd5b95989497505060200194505050565b60008060008060808587031215613dbb578182fd5b84356001600160401b0380821115613dd1578384fd5b818701915087601f830112613de4578384fd5b81356020613df4613a73836143f6565b8083825282820191508286018c848660051b8901011115613e13578889fd5b8896505b84871015613e3e578035613e2a81614627565b835260019690960195918301918301613e17565b5098505088013592505080821115613e54578384fd5b613e6088838901613a53565b94506040870135915080821115613e75578384fd5b613e8188838901613acb565b93506060870135915080821115613e96578283fd5b50613ea387828801613a53565b91505092959194509250565b60008060208385031215613ec1578182fd5b82356001600160401b03811115613ed6578283fd5b613ee285828601613a11565b90969095509350505050565b600060208284031215613eff578081fd5b815161098281614627565b600060208284031215613f1b578081fd5b5051919050565b60008060208385031215613f34578182fd5b82356001600160401b03811115613f49578283fd5b613ee285828601613b4a565b600080600080600060808688031215613f6c578283fd5b8535613f7781614612565b94506020860135613f8781614612565b93506040860135925060608601356001600160401b03811115613fa8578182fd5b613fb488828901613b4a565b969995985093965092949392505050565b600060208284031215613fd6578081fd5b81356001600160401b0380821115613fec578283fd5b9083019060608286031215613fff578283fd5b60405160608101818110838211171561401a5761401a6145fc565b604052823561402881614612565b815260208301358281111561403b578485fd5b61404787828601613a53565b6020830152506040830135925061405d83614612565b6040810192909252509392505050565b60006020828403121561407e578081fd5b5035919050565b600060208284031215614096578081fd5b815161098281614635565b6000815180845260208085019450808401835b838110156140d95781516001600160a01b0316875295820195908201906001016140b4565b509495945050505050565b600081518084526140fc81602086016020860161456a565b601f01601f19169290920160200192915050565b6000825161412281846020870161456a565b9190910192915050565b6001600160a01b0391909116815260200190565b6001600160a01b039384168152919092166020820152604081019190915260600190565b6001600160a01b03878116825286166020820152604081018590526060810184905260a06080820181905281018290526000828460c084013781830160c090810191909152601f909201601f1916010195945050505050565b6001600160a01b03929092168252602082015260400190565b60208152600061098260208301846140a1565b6080808252855190820181905260009060209060a0840190828901845b82811015614224578151151584529284019290840190600101614206565b5050508381038285015261423881886140a1565b905083810360408501528086518083528383019150838160051b840101848901865b8381101561428857601f198684030185526142768383516140a1565b9487019492509086019060010161425a565b5050868103606088015261429c81896140a1565b9b9a5050505050505050505050565b6000602080830181845280855180835260408601915060408160051b8701019250838701855b828110156142ff57603f198886030184526142ed8583516140e4565b945092850192908501906001016142d1565b5092979650505050505050565b8215158152604060208201526000612cb460408301846140e4565b60208152600061098260208301846140e4565b60208152600060018060a01b0380845116602084015260208401516060604085015261436960808501826140a1565b9050816040860151166060850152809250505092915050565b6000808335601e19843603018112614398578283fd5b8301803591506001600160401b038211156143b1578283fd5b6020019150368190038213156127d457600080fd5b604051601f8201601f191681016001600160401b03811182821017156143ee576143ee6145fc565b604052919050565b60006001600160401b0382111561440f5761440f6145fc565b5060051b60200190565b6000821982111561442c5761442c6145e6565b500190565b60008261444c57634e487b7160e01b81526012600452602481fd5b500490565b600181815b808511156132ac578160001904821115614472576144726145e6565b8085161561447f57918102915b93841c9390800290614456565b600061098283836000826144a2575060016108e2565b816144af575060006108e2565b81600181146144c557600281146144cf576144eb565b60019150506108e2565b60ff8411156144e0576144e06145e6565b50506001821b6108e2565b5060208310610133831016604e8410600b841016171561450e575081810a6108e2565b6145188383614451565b806000190482111561452c5761452c6145e6565b029392505050565b600081600019048311821515161561454e5761454e6145e6565b500290565b600082821015614565576145656145e6565b500390565b60005b8381101561458557818101518382015260200161456d565b8381111561284f5750506000910152565b600181811c908216806145aa57607f821691505b6020821081141561306b57634e487b7160e01b600052602260045260246000fd5b60006000198214156145df576145df6145e6565b5060010190565b634e487b7160e01b600052601160045260246000fd5b634e487b7160e01b600052604160045260246000fd5b6001600160a01b0381168114611b4657600080fd5b8015158114611b4657600080fd5b60ff81168114611b4657600080fdfe416464726573733a206c6f772d6c6576656c2064656c65676174652063616c6c206661696c6564ddf252ad1be2c89b69c2b068fc378daa952ba7f163c4a11628f55a4df523b3efa2646970667358221220e9a15d8763312a99ea8c751e37a1a725cf35103d85d54901a3f9372512774ff664736f6c63430008040033",
  "linkReferences": {},
  "deployedLinkReferences": {}
}