{
  "_format": "hh-sol-artifact-1",
  "contractName": "Demu",
  "sourceName": "contracts/Demu.sol",
  "abi": [
    {
      "inputs": [
        {
          "internalType": "address",
          "name": "oracle_",
          "type": "address"
        },
        {
          "internalType": "address",
          "name": "collector_",
          "type": "address"
        },
        {
          "internalType": "address[]",
          "name": "assets_",
          "type": "address[]"
        }
      ],
      "stateMutability": "nonpayable",
      "type": "constructor"
    },
    {
      "anonymous": false,
      "inputs": [
        {
          "indexed": true,
          "internalType": "address",
          "name": "owner",
          "type": "address"
        },
        {
          "indexed": true,
          "internalType": "address",
          "name": "spender",
          "type": "address"
        },
        {
          "indexed": false,
          "internalType": "uint256",
          "name": "value",
          "type": "uint256"
        }
      ],
      "name": "Approval",
      "type": "event"
    },
    {
      "anonymous": false,
      "inputs": [
        {
          "indexed": false,
          "internalType": "address",
          "name": "asset",
          "type": "address"
        }
      ],
      "name": "AssetRemoved",
      "type": "event"
    },
    {
      "anonymous": false,
      "inputs": [
        {
          "indexed": true,
          "internalType": "address",
          "name": "src",
          "type": "address"
        },
        {
          "indexed": false,
          "internalType": "uint256",
          "name": "amt",
          "type": "uint256"
        }
      ],
      "name": "Burn",
      "type": "event"
    },
    {
      "anonymous": false,
      "inputs": [
        {
          "indexed": false,
          "internalType": "address",
          "name": "newCollector",
          "type": "address"
        }
      ],
      "name": "FeesCollector",
      "type": "event"
    },
    {
      "anonymous": false,
      "inputs": [
        {
          "indexed": true,
          "internalType": "address",
          "name": "dst",
          "type": "address"
        },
        {
          "indexed": true,
          "internalType": "address",
          "name": "src",
          "type": "address"
        },
        {
          "indexed": false,
          "internalType": "address",
          "name": "asset",
          "type": "address"
        },
        {
          "indexed": false,
          "internalType": "uint256",
          "name": "amt",
          "type": "uint256"
        }
      ],
      "name": "Liquidate",
      "type": "event"
    },
    {
      "anonymous": false,
      "inputs": [
        {
          "indexed": true,
          "internalType": "address",
          "name": "dst",
          "type": "address"
        },
        {
          "indexed": false,
          "internalType": "uint256",
          "name": "amt",
          "type": "uint256"
        }
      ],
      "name": "Mint",
      "type": "event"
    },
    {
      "anonymous": false,
      "inputs": [
        {
          "indexed": false,
          "internalType": "address",
          "name": "asset",
          "type": "address"
        }
      ],
      "name": "NewAsset",
      "type": "event"
    },
    {
      "anonymous": false,
      "inputs": [
        {
          "indexed": true,
          "internalType": "address",
          "name": "previousOwner",
          "type": "address"
        },
        {
          "indexed": true,
          "internalType": "address",
          "name": "newOwner",
          "type": "address"
        }
      ],
      "name": "OwnershipTransferred",
      "type": "event"
    },
    {
      "anonymous": false,
      "inputs": [
        {
          "indexed": false,
          "internalType": "address",
          "name": "newOracle",
          "type": "address"
        }
      ],
      "name": "PriceOracle",
      "type": "event"
    },
    {
      "anonymous": false,
      "inputs": [
        {
          "indexed": true,
          "internalType": "address",
          "name": "src",
          "type": "address"
        },
        {
          "indexed": false,
          "internalType": "uint256",
          "name": "amt",
          "type": "uint256"
        }
      ],
      "name": "Supply",
      "type": "event"
    },
    {
      "anonymous": false,
      "inputs": [
        {
          "indexed": true,
          "internalType": "address",
          "name": "from",
          "type": "address"
        },
        {
          "indexed": true,
          "internalType": "address",
          "name": "to",
          "type": "address"
        },
        {
          "indexed": false,
          "internalType": "uint256",
          "name": "value",
          "type": "uint256"
        }
      ],
      "name": "Transfer",
      "type": "event"
    },
    {
      "anonymous": false,
      "inputs": [
        {
          "indexed": true,
          "internalType": "address",
          "name": "dst",
          "type": "address"
        },
        {
          "indexed": false,
          "internalType": "uint256",
          "name": "amt",
          "type": "uint256"
        }
      ],
      "name": "Withdraw",
      "type": "event"
    },
    {
      "inputs": [],
      "name": "DOMAIN_SEPARATOR",
      "outputs": [
        {
          "internalType": "bytes32",
          "name": "",
          "type": "bytes32"
        }
      ],
      "stateMutability": "view",
      "type": "function"
    },
    {
      "inputs": [
        {
          "internalType": "address",
          "name": "owner",
          "type": "address"
        },
        {
          "internalType": "address",
          "name": "spender",
          "type": "address"
        }
      ],
      "name": "allowance",
      "outputs": [
        {
          "internalType": "uint256",
          "name": "",
          "type": "uint256"
        }
      ],
      "stateMutability": "view",
      "type": "function"
    },
    {
      "inputs": [
        {
          "internalType": "address",
          "name": "spender",
          "type": "address"
        },
        {
          "internalType": "uint256",
          "name": "amount",
          "type": "uint256"
        }
      ],
      "name": "approve",
      "outputs": [
        {
          "internalType": "bool",
          "name": "",
          "type": "bool"
        }
      ],
      "stateMutability": "nonpayable",
      "type": "function"
    },
    {
      "inputs": [
        {
          "internalType": "address",
          "name": "asset",
          "type": "address"
        }
      ],
      "name": "assetPrice",
      "outputs": [
        {
          "internalType": "uint256",
          "name": "",
          "type": "uint256"
        }
      ],
      "stateMutability": "view",
      "type": "function"
    },
    {
      "inputs": [
        {
          "internalType": "address",
          "name": "account",
          "type": "address"
        }
      ],
      "name": "balanceOf",
      "outputs": [
        {
          "internalType": "uint256",
          "name": "",
          "type": "uint256"
        }
      ],
      "stateMutability": "view",
      "type": "function"
    },
    {
      "inputs": [],
      "name": "bpsDenominator",
      "outputs": [
        {
          "internalType": "uint256",
          "name": "",
          "type": "uint256"
        }
      ],
      "stateMutability": "pure",
      "type": "function"
    },
    {
      "inputs": [
        {
          "internalType": "uint256",
          "name": "amount",
          "type": "uint256"
        }
      ],
      "name": "burn",
      "outputs": [],
      "stateMutability": "nonpayable",
      "type": "function"
    },
    {
      "inputs": [
        {
          "internalType": "bytes",
          "name": "",
          "type": "bytes"
        }
      ],
      "name": "checkUpkeep",
      "outputs": [
        {
          "internalType": "bool",
          "name": "upkeepNeeded",
          "type": "bool"
        },
        {
          "internalType": "bytes",
          "name": "performData",
          "type": "bytes"
        }
      ],
      "stateMutability": "view",
      "type": "function"
    },
    {
      "inputs": [
        {
          "internalType": "address",
          "name": "account",
          "type": "address"
        }
      ],
      "name": "collateral",
      "outputs": [
        {
          "internalType": "uint256",
          "name": "value",
          "type": "uint256"
        }
      ],
      "stateMutability": "view",
      "type": "function"
    },
    {
      "inputs": [
        {
          "internalType": "address",
          "name": "account",
          "type": "address"
        }
      ],
      "name": "currentDebt",
      "outputs": [
        {
          "internalType": "uint256",
          "name": "",
          "type": "uint256"
        }
      ],
      "stateMutability": "view",
      "type": "function"
    },
    {
      "inputs": [],
      "name": "decimals",
      "outputs": [
        {
          "internalType": "uint8",
          "name": "",
          "type": "uint8"
        }
      ],
      "stateMutability": "view",
      "type": "function"
    },
    {
      "inputs": [
        {
          "internalType": "address",
          "name": "spender",
          "type": "address"
        },
        {
          "internalType": "uint256",
          "name": "subtractedValue",
          "type": "uint256"
        }
      ],
      "name": "decreaseAllowance",
      "outputs": [
        {
          "internalType": "bool",
          "name": "",
          "type": "bool"
        }
      ],
      "stateMutability": "nonpayable",
      "type": "function"
    },
    {
      "inputs": [],
      "name": "demuPrice",
      "outputs": [
        {
          "internalType": "uint256",
          "name": "",
          "type": "uint256"
        }
      ],
      "stateMutability": "view",
      "type": "function"
    },
    {
      "inputs": [],
      "name": "feesCollector",
      "outputs": [
        {
          "internalType": "address",
          "name": "",
          "type": "address"
        }
      ],
      "stateMutability": "view",
      "type": "function"
    },
    {
      "inputs": [
        {
          "internalType": "address",
          "name": "",
          "type": "address"
        },
        {
          "internalType": "uint256",
          "name": "amount",
          "type": "uint256"
        }
      ],
      "name": "flashFee",
      "outputs": [
        {
          "internalType": "uint256",
          "name": "",
          "type": "uint256"
        }
      ],
      "stateMutability": "pure",
      "type": "function"
    },
    {
      "inputs": [
        {
          "internalType": "contract IERC3156FlashBorrower",
          "name": "receiver",
          "type": "address"
        },
        {
          "internalType": "address",
          "name": "token",
          "type": "address"
        },
        {
          "internalType": "uint256",
          "name": "amount",
          "type": "uint256"
        },
        {
          "internalType": "bytes",
          "name": "data",
          "type": "bytes"
        }
      ],
      "name": "flashLoan",
      "outputs": [
        {
          "internalType": "bool",
          "name": "",
          "type": "bool"
        }
      ],
      "stateMutability": "nonpayable",
      "type": "function"
    },
    {
      "inputs": [
        {
          "internalType": "address",
          "name": "spender",
          "type": "address"
        },
        {
          "internalType": "uint256",
          "name": "addedValue",
          "type": "uint256"
        }
      ],
      "name": "increaseAllowance",
      "outputs": [
        {
          "internalType": "bool",
          "name": "",
          "type": "bool"
        }
      ],
      "stateMutability": "nonpayable",
      "type": "function"
    },
    {
      "inputs": [
        {
          "components": [
            {
              "internalType": "address",
              "name": "account",
              "type": "address"
            },
            {
              "internalType": "address[]",
              "name": "assets",
              "type": "address[]"
            },
            {
              "internalType": "address",
              "name": "liquidator",
              "type": "address"
            }
          ],
          "internalType": "struct Demu.LiquidationParams",
          "name": "params",
          "type": "tuple"
        }
      ],
      "name": "liquidate",
      "outputs": [],
      "stateMutability": "nonpayable",
      "type": "function"
    },
    {
      "inputs": [
        {
          "internalType": "address",
          "name": "account",
          "type": "address"
        }
      ],
      "name": "maxDebt",
      "outputs": [
        {
          "internalType": "uint256",
          "name": "value",
          "type": "uint256"
        }
      ],
      "stateMutability": "view",
      "type": "function"
    },
    {
      "inputs": [
        {
          "internalType": "address",
          "name": "token",
          "type": "address"
        }
      ],
      "name": "maxFlashLoan",
      "outputs": [
        {
          "internalType": "uint256",
          "name": "",
          "type": "uint256"
        }
      ],
      "stateMutability": "view",
      "type": "function"
    },
    {
      "inputs": [
        {
          "internalType": "address",
          "name": "account",
          "type": "address"
        }
      ],
      "name": "maxMintable",
      "outputs": [
        {
          "internalType": "uint256",
          "name": "value",
          "type": "uint256"
        }
      ],
      "stateMutability": "view",
      "type": "function"
    },
    {
      "inputs": [
        {
          "internalType": "uint256",
          "name": "amount",
          "type": "uint256"
        }
      ],
      "name": "mint",
      "outputs": [],
      "stateMutability": "nonpayable",
      "type": "function"
    },
    {
      "inputs": [
        {
          "internalType": "bytes[]",
          "name": "data",
          "type": "bytes[]"
        }
      ],
      "name": "multicall",
      "outputs": [
        {
          "internalType": "bytes[]",
          "name": "results",
          "type": "bytes[]"
        }
      ],
      "stateMutability": "nonpayable",
      "type": "function"
    },
    {
      "inputs": [],
      "name": "name",
      "outputs": [
        {
          "internalType": "string",
          "name": "",
          "type": "string"
        }
      ],
      "stateMutability": "view",
      "type": "function"
    },
    {
      "inputs": [
        {
          "internalType": "address",
          "name": "owner",
          "type": "address"
        }
      ],
      "name": "nonces",
      "outputs": [
        {
          "internalType": "uint256",
          "name": "",
          "type": "uint256"
        }
      ],
      "stateMutability": "view",
      "type": "function"
    },
    {
      "inputs": [],
      "name": "oracle",
      "outputs": [
        {
          "internalType": "address",
          "name": "",
          "type": "address"
        }
      ],
      "stateMutability": "view",
      "type": "function"
    },
    {
      "inputs": [],
      "name": "owner",
      "outputs": [
        {
          "internalType": "address",
          "name": "",
          "type": "address"
        }
      ],
      "stateMutability": "view",
      "type": "function"
    },
    {
      "inputs": [
        {
          "internalType": "bytes",
          "name": "performData",
          "type": "bytes"
        }
      ],
      "name": "performUpkeep",
      "outputs": [],
      "stateMutability": "nonpayable",
      "type": "function"
    },
    {
      "inputs": [
        {
          "internalType": "address",
          "name": "owner",
          "type": "address"
        },
        {
          "internalType": "address",
          "name": "spender",
          "type": "address"
        },
        {
          "internalType": "uint256",
          "name": "value",
          "type": "uint256"
        },
        {
          "internalType": "uint256",
          "name": "deadline",
          "type": "uint256"
        },
        {
          "internalType": "uint8",
          "name": "v",
          "type": "uint8"
        },
        {
          "internalType": "bytes32",
          "name": "r",
          "type": "bytes32"
        },
        {
          "internalType": "bytes32",
          "name": "s",
          "type": "bytes32"
        }
      ],
      "name": "permit",
      "outputs": [],
      "stateMutability": "nonpayable",
      "type": "function"
    },
    {
      "inputs": [
        {
          "internalType": "address",
          "name": "asset",
          "type": "address"
        }
      ],
      "name": "removeSupportedAsset",
      "outputs": [],
      "stateMutability": "nonpayable",
      "type": "function"
    },
    {
      "inputs": [],
      "name": "renounceOwnership",
      "outputs": [],
      "stateMutability": "nonpayable",
      "type": "function"
    },
    {
      "inputs": [
        {
          "internalType": "address",
          "name": "newCollector",
          "type": "address"
        }
      ],
      "name": "setFeesCollector",
      "outputs": [],
      "stateMutability": "nonpayable",
      "type": "function"
    },
    {
      "inputs": [
        {
          "internalType": "address",
          "name": "newOracle",
          "type": "address"
        }
      ],
      "name": "setPriceOracle",
      "outputs": [],
      "stateMutability": "nonpayable",
      "type": "function"
    },
    {
      "inputs": [
        {
          "internalType": "address",
          "name": "account",
          "type": "address"
        },
        {
          "internalType": "address",
          "name": "asset",
          "type": "address"
        }
      ],
      "name": "supplied",
      "outputs": [
        {
          "internalType": "uint256",
          "name": "",
          "type": "uint256"
        }
      ],
      "stateMutability": "view",
      "type": "function"
    },
    {
      "inputs": [
        {
          "internalType": "address",
          "name": "asset",
          "type": "address"
        },
        {
          "internalType": "uint256",
          "name": "amount",
          "type": "uint256"
        }
      ],
      "name": "supply",
      "outputs": [],
      "stateMutability": "nonpayable",
      "type": "function"
    },
    {
      "inputs": [
        {
          "internalType": "uint256",
          "name": "amount",
          "type": "uint256"
        }
      ],
      "name": "supplyNative",
      "outputs": [],
      "stateMutability": "payable",
      "type": "function"
    },
    {
      "inputs": [
        {
          "internalType": "address",
          "name": "asset",
          "type": "address"
        },
        {
          "internalType": "uint256",
          "name": "amount",
          "type": "uint256"
        },
        {
          "internalType": "uint256",
          "name": "deadline",
          "type": "uint256"
        },
        {
          "internalType": "uint8",
          "name": "v",
          "type": "uint8"
        },
        {
          "internalType": "bytes32",
          "name": "r",
          "type": "bytes32"
        },
        {
          "internalType": "bytes32",
          "name": "s",
          "type": "bytes32"
        }
      ],
      "name": "supplyWithPermit",
      "outputs": [],
      "stateMutability": "nonpayable",
      "type": "function"
    },
    {
      "inputs": [
        {
          "internalType": "address",
          "name": "asset",
          "type": "address"
        }
      ],
      "name": "supportNewAsset",
      "outputs": [],
      "stateMutability": "nonpayable",
      "type": "function"
    },
    {
      "inputs": [],
      "name": "supportedAssets",
      "outputs": [
        {
          "internalType": "address[]",
          "name": "",
          "type": "address[]"
        }
      ],
      "stateMutability": "view",
      "type": "function"
    },
    {
      "inputs": [],
      "name": "symbol",
      "outputs": [
        {
          "internalType": "string",
          "name": "",
          "type": "string"
        }
      ],
      "stateMutability": "view",
      "type": "function"
    },
    {
      "inputs": [],
      "name": "totalSupply",
      "outputs": [
        {
          "internalType": "uint256",
          "name": "",
          "type": "uint256"
        }
      ],
      "stateMutability": "view",
      "type": "function"
    },
    {
      "inputs": [
        {
          "internalType": "address",
          "name": "to",
          "type": "address"
        },
        {
          "internalType": "uint256",
          "name": "amount",
          "type": "uint256"
        }
      ],
      "name": "transfer",
      "outputs": [
        {
          "internalType": "bool",
          "name": "",
          "type": "bool"
        }
      ],
      "stateMutability": "nonpayable",
      "type": "function"
    },
    {
      "inputs": [
        {
          "internalType": "address",
          "name": "from",
          "type": "address"
        },
        {
          "internalType": "address",
          "name": "to",
          "type": "address"
        },
        {
          "internalType": "uint256",
          "name": "amount",
          "type": "uint256"
        }
      ],
      "name": "transferFrom",
      "outputs": [
        {
          "internalType": "bool",
          "name": "",
          "type": "bool"
        }
      ],
      "stateMutability": "nonpayable",
      "type": "function"
    },
    {
      "inputs": [
        {
          "internalType": "address",
          "name": "newOwner",
          "type": "address"
        }
      ],
      "name": "transferOwnership",
      "outputs": [],
      "stateMutability": "nonpayable",
      "type": "function"
    },
    {
      "inputs": [
        {
          "internalType": "address[]",
          "name": "assets",
          "type": "address[]"
        },
        {
          "components": [
            {
              "internalType": "uint256",
              "name": "mintLTV",
              "type": "uint256"
            },
            {
              "internalType": "uint256",
              "name": "liquidationLTV",
              "type": "uint256"
            },
            {
              "internalType": "uint256",
              "name": "liquidationIncentive",
              "type": "uint256"
            },
            {
              "internalType": "uint256",
              "name": "protocolCut",
              "type": "uint256"
            }
          ],
          "internalType": "struct DataProvider.AssetConf[]",
          "name": "confs",
          "type": "tuple[]"
        }
      ],
      "name": "updateAssetConfs",
      "outputs": [],
      "stateMutability": "nonpayable",
      "type": "function"
    },
    {
      "inputs": [
        {
          "internalType": "address",
          "name": "asset",
          "type": "address"
        },
        {
          "internalType": "uint256",
          "name": "amount",
          "type": "uint256"
        }
      ],
      "name": "withdraw",
      "outputs": [],
      "stateMutability": "nonpayable",
      "type": "function"
    }
  ],
  "bytecode": "0x6101406040523480156200001257600080fd5b5060405162004bce38038062004bce8339810160408190526200003591620003b4565b6040518060400160405280600481526020016344454d5560e01b81525080604051806040016040528060018152602001603160f81b8152506040518060400160405280600481526020016344454d5560e01b8152506040518060400160405280600481526020016344454d5560e01b815250878787620000c4620000be6200022b60201b60201c565b6200022f565b600180546001600160a01b038086166001600160a01b0319928316179092556002805492851692909116919091179055805160005b818110156200015957620001458382815181106200012757634e487b7160e01b600052603260045260246000fd5b602002602001015160036200027f60201b6200256f1790919060201c565b506200015181620004ed565b9050620000f9565b5050845162000173935060099250602086019150620002f1565b5080516200018990600a906020840190620002f1565b5050825160208085019190912083518483012060e08290526101008190524660a0818152604080517f8b73c3c69bb8fe3d512ecc4cf759cc79239f7b179b0ffacaa9a75d522b39400f81880181905281830187905260608201869052608082019490945230818401528151808203909301835260c0019052805194019390932091935091906080523060601b60c05261012052506200052b9650505050505050565b3390565b600080546001600160a01b038381166001600160a01b0319831681178455604051919092169283917f8be0079c531659141344cd1fd0a4f28419497f9722a3daafe3b4186f6b6457e09190a35050565b600062000296836001600160a01b0384166200029f565b90505b92915050565b6000818152600183016020526040812054620002e85750815460018181018455600084815260208082209093018490558454848252828601909352604090209190915562000299565b50600062000299565b828054620002ff90620004b0565b90600052602060002090601f0160209004810192826200032357600085556200036e565b82601f106200033e57805160ff19168380011785556200036e565b828001600101855582156200036e579182015b828111156200036e57825182559160200191906001019062000351565b506200037c92915062000380565b5090565b5b808211156200037c576000815560010162000381565b80516001600160a01b0381168114620003af57600080fd5b919050565b600080600060608486031215620003c9578283fd5b620003d48462000397565b92506020620003e581860162000397565b60408601519093506001600160401b038082111562000402578384fd5b818701915087601f83011262000416578384fd5b8151818111156200042b576200042b62000515565b8060051b604051601f19603f8301168101818110858211171562000453576200045362000515565b604052828152858101935084860182860187018c101562000472578788fd5b8795505b838610156200049f576200048a8162000397565b85526001959095019493860193860162000476565b508096505050505050509250925092565b600181811c90821680620004c557607f821691505b60208210811415620004e757634e487b7160e01b600052602260045260246000fd5b50919050565b60006000198214156200050e57634e487b7160e01b81526011600452602481fd5b5060010190565b634e487b7160e01b600052604160045260246000fd5b60805160a05160c05160601c60e05161010051610120516146506200057e60003960006129fe01526000612a4d01526000612a2801526000612981015260006129ab015260006129d501526146506000f3fe60806040526004361061027d5760003560e01c80638cfc498c1161014f578063ac9650d8116100c1578063dd62ed3e1161007a578063dd62ed3e14610792578063eef75525146107b2578063f2b9fdb8146107d2578063f2fde38b146107f2578063f3fef3a314610812578063f60632a01461083257600080fd5b8063ac9650d8146106d2578063b883b058146106ff578063bef7f3651461071f578063d48c97961461073f578063d505accf14610752578063d9d98ce41461077257600080fd5b80639cf160f6116101135780639cf160f614610612578063a0712d6814610630578063a457c2d714610650578063a5fdc5de14610670578063a80ce55c14610690578063a9059cbb146106b257600080fd5b80638cfc498c1461058a5780638da5cb5b146105aa57806392c86d9a146105c857806394e96dc9146105e857806395d89b41146105fd57600080fd5b80634585e33b116101f35780636fff45ed116101ac5780636fff45ed146104bd57806370a08231146104dd578063715018a6146105135780637dc0d1d0146105285780637ecebe001461054a578063884719f21461056a57600080fd5b80634585e33b146103ef578063530e784f1461040f5780635cffe9de1461042f5780635ed88ecf1461044f578063613255ab1461046f5780636e04ff0d1461048f57600080fd5b806323b872dd1161024557806323b872dd1461033e578063313ce5671461035e5780633644e5151461037a578063373071f21461038f57806339509351146103af57806342966c68146103cf57600080fd5b806306fdde0314610282578063095ea7b3146102ad57806318160ddd146102dd5780631c46bc6f146102fc5780631f655b691461031e575b600080fd5b34801561028e57600080fd5b50610297610847565b6040516102a4919061428a565b60405180910390f35b3480156102b957600080fd5b506102cd6102c8366004613bf0565b6108d9565b60405190151581526020016102a4565b3480156102e957600080fd5b506008545b6040519081526020016102a4565b34801561030857600080fd5b5061031c610317366004613aec565b6108f3565b005b34801561032a57600080fd5b506102ee610339366004613b08565b610941565b34801561034a57600080fd5b506102cd610359366004613b40565b61096e565b34801561036a57600080fd5b50604051601281526020016102a4565b34801561038657600080fd5b506102ee610994565b34801561039b57600080fd5b5061031c6103aa366004613aec565b6109a3565b3480156103bb57600080fd5b506102cd6103ca366004613bf0565b6109f6565b3480156103db57600080fd5b5061031c6103ea366004613fd0565b610a18565b3480156103fb57600080fd5b5061031c61040a366004613e85565b610ab7565b34801561041b57600080fd5b5061031c61042a366004613aec565b610c61565b34801561043b57600080fd5b506102cd61044a366004613eb8565b610cb4565b34801561045b57600080fd5b506102ee61046a366004613aec565b610ff3565b34801561047b57600080fd5b506102ee61048a366004613aec565b611164565b34801561049b57600080fd5b506104af6104aa366004613e85565b6111e3565b6040516102a492919061426f565b3480156104c957600080fd5b5061031c6104d8366004613c1b565b611510565b3480156104e957600080fd5b506102ee6104f8366004613aec565b6001600160a01b031660009081526006602052604090205490565b34801561051f57600080fd5b5061031c6115d8565b34801561053457600080fd5b5061053d6115ec565b6040516102a4919061408f565b34801561055657600080fd5b506102ee610565366004613aec565b6115fb565b34801561057657600080fd5b506102ee610585366004613aec565b611619565b34801561059657600080fd5b5061031c6105a5366004613aec565b61164f565b3480156105b657600080fd5b506000546001600160a01b031661053d565b3480156105d457600080fd5b5061031c6105e3366004613c76565b611692565b3480156105f457600080fd5b506102ee6118bb565b34801561060957600080fd5b50610297611935565b34801561061e57600080fd5b506002546001600160a01b031661053d565b34801561063c57600080fd5b5061031c61064b366004613fd0565b611944565b34801561065c57600080fd5b506102cd61066b366004613bf0565b611a03565b34801561067c57600080fd5b506102ee61068b366004613aec565b611a89565b34801561069c57600080fd5b506106a5611bc2565b6040516102a49190614139565b3480156106be57600080fd5b506102cd6106cd366004613bf0565b611bce565b3480156106de57600080fd5b506106f26106ed366004613e12565b611bdc565b6040516102a4919061420e565b34801561070b57600080fd5b506102ee61071a366004613aec565b611cfa565b34801561072b57600080fd5b506102ee61073a366004613aec565b611d2f565b61031c61074d366004613fd0565b611e9c565b34801561075e57600080fd5b5061031c61076d366004613b80565b611f2c565b34801561077e57600080fd5b506102ee61078d366004613bf0565b612090565b34801561079e57600080fd5b506102ee6107ad366004613b08565b6120db565b3480156107be57600080fd5b5061031c6107cd366004613f28565b612106565b3480156107de57600080fd5b5061031c6107ed366004613bf0565b612421565b3480156107fe57600080fd5b5061031c61080d366004613aec565b612447565b34801561081e57600080fd5b5061031c61082d366004613bf0565b6124c0565b34801561083e57600080fd5b506103e86102ee565b60606009805461085690614525565b80601f016020809104026020016040519081016040528092919081815260200182805461088290614525565b80156108cf5780601f106108a4576101008083540402835291602001916108cf565b820191906000526020600020905b8154815290600101906020018083116108b257829003601f168201915b5050505050905090565b6000336108e7818585612584565b60019150505b92915050565b6108fb6126a8565b610906600382612702565b507f37803e2125c48ee96c38ddf04e826daf335b0e1603579040fd275aba6d06b6fc81604051610936919061408f565b60405180910390a150565b6001600160a01b0382166000908152600d6020526040812081906109659084612717565b95945050505050565b60003361097c85828561273e565b6109878585856127b8565b60019150505b9392505050565b600061099e612974565b905090565b6109ab6126a8565b600280546001600160a01b0319166001600160a01b0383161790556040517f36500f45d42bde710f51c49fca335108939ea7d631cc825e480095366557aad29061093690839061408f565b6000336108e7818585610a0983836120db565b610a1391906143a8565b612584565b610a223382612a9b565b610a2f335b600e90612bd7565b610a3857600080fd5b6000610a47335b600e90612717565b9150610a55905082826144e2565b905080610a6d57610a67600e33612bec565b50610a7d565b610a7b335b600e9083612c01565b505b60405182815233907fcc16f5dbb4873280815c1ee09dbd06736cffcc184412cf7a71a0fdb75d397ca5906020015b60405180910390a25050565b6000808080610ac885870187613d09565b83519397509195509350915060005b81811015610c5757858181518110610aff57634e487b7160e01b600052603260045260246000fd5b602002602001015115610c475760006040518060600160405280878481518110610b3957634e487b7160e01b600052603260045260246000fd5b60200260200101516001600160a01b03168152602001868481518110610b6f57634e487b7160e01b600052603260045260246000fd5b60200260200101518152602001858481518110610b9c57634e487b7160e01b600052603260045260246000fd5b60200260200101516001600160a01b03168152509050306001600160a01b031681604051602401610bcd91906142c9565b60408051601f198184030181529181526020820180516001600160e01b031663a0e4f3a160e01b17905251610c029190614073565b600060405180830381855af49150503d8060008114610c3d576040519150601f19603f3d011682016040523d82523d6000602084013e610c42565b606091505b505050505b610c508161455a565b9050610ad7565b5050505050505050565b610c696126a8565b600180546001600160a01b0319166001600160a01b0383161790556040517f21039fe20f3ae5fdef2b672a459056b9f34cddca8f2645406cf148e2c4f6350f9061093690839061408f565b600080610cc18686612090565b60405163a9059cbb60e01b81529091506001600160a01b0387169063a9059cbb90610cf2908a908990600401614120565b602060405180830381600087803b158015610d0c57600080fd5b505af1158015610d20573d6000803e3d6000fd5b505050506040513d601f19601f82011682018060405250810190610d449190613e51565b610d955760405162461bcd60e51b815260206004820152601c60248201527f466c6173684c656e6465723a205472616e73666572206661696c65640000000060448201526064015b60405180910390fd5b6040516323e30c8b60e01b81527f439148f0bbc682ca079e46d6e2c2f0c1e3b820f1a291b069d8882abf8cf18dd9906001600160a01b038916906323e30c8b90610ded9033908b908b9088908c908c906004016140c7565b602060405180830381600087803b158015610e0757600080fd5b505af1158015610e1b573d6000803e3d6000fd5b505050506040513d601f19601f82011682018060405250810190610e3f9190613e6d565b14610e8c5760405162461bcd60e51b815260206004820152601c60248201527f466c6173684c656e6465723a2043616c6c6261636b206661696c6564000000006044820152606401610d8c565b6001600160a01b0386166323b872dd8830610ea7858a6143a8565b6040518463ffffffff1660e01b8152600401610ec5939291906140a3565b602060405180830381600087803b158015610edf57600080fd5b505af1158015610ef3573d6000803e3d6000fd5b505050506040513d601f19601f82011682018060405250810190610f179190613e51565b610f5f5760405162461bcd60e51b8152602060048201526019602482015278119b185cda13195b99195c8e8814995c185e4819985a5b1959603a1b6044820152606401610d8c565b60025460405163a9059cbb60e01b81526001600160a01b038881169263a9059cbb92610f9392909116908590600401614120565b602060405180830381600087803b158015610fad57600080fd5b505af1158015610fc1573d6000803e3d6000fd5b505050506040513d601f19601f82011682018060405250810190610fe59190613e51565b506001979650505050505050565b6001600160a01b0381166000908152600d60205260408120819061101690612c1f565b905060005b8181101561115d576001600160a01b0384166000908152600d6020526040812081906110479084612c2a565b9092509050801561112a57600061105e8383612c39565b9050600061106a6115ec565b90506000816001600160a01b031663b2f1ee3b866040518263ffffffff1660e01b815260040161109a919061408f565b60206040518083038186803b1580156110b257600080fd5b505afa1580156110c6573d6000803e3d6000fd5b505050506040513d601f19601f820116820180604052508101906110ea9190613e6d565b6001600160a01b03861660009081526005602052604090205490915061111082856144c3565b61111a91906144c3565b61112490896143a8565b97505050505b61113e6103e8670de0b6b3a76400006144c3565b61114890866143c0565b94505050806111569061455a565b905061101b565b5050919050565b6040516370a0823160e01b81526000906001600160a01b038316906370a082319061119390309060040161408f565b60206040518083038186803b1580156111ab57600080fd5b505afa1580156111bf573d6000803e3d6000fd5b505050506040513d601f19601f820116820180604052508101906108ed9190613e6d565b6002546001600160a01b03166000818152600660205260408120549091606091806112115760009350611507565b600061121b611bc2565b90506000611229600e612c1f565b90506000816001600160401b0381111561125357634e487b7160e01b600052604160045260246000fd5b60405190808252806020026020018201604052801561127c578160200160208202803683370190505b5090506000826001600160401b038111156112a757634e487b7160e01b600052604160045260246000fd5b6040519080825280602002602001820160405280156112d0578160200160208202803683370190505b5090506000836001600160401b038111156112fb57634e487b7160e01b600052604160045260246000fd5b60405190808252806020026020018201604052801561132e57816020015b60608152602001906001900390816113195790505b5090506000846001600160401b0381111561135957634e487b7160e01b600052604160045260246000fd5b604051908082528060200260200182016040528015611382578160200160208202803683370190505b50905060005b858110156114d757600061139d600e83612c2a565b50905060006113ab82611619565b905060006113b883611d2f565b905060006113c76014836143c0565b905060006113d583856144e2565b90508181106114c15760018a878151811061140057634e487b7160e01b600052603260045260246000fd5b6020026020010190151590811515815250508489878151811061143357634e487b7160e01b600052603260045260246000fd5b60200260200101906001600160a01b031690816001600160a01b0316815250508b88878151811061147457634e487b7160e01b600052603260045260246000fd5b60200260200101819052508d8787815181106114a057634e487b7160e01b600052603260045260246000fd5b60200260200101906001600160a01b031690816001600160a01b0316815250505b5050505050806114d09061455a565b9050611388565b50838383836040516020016114ef949392919061414c565b60405160208183030381529060405298505050505050505b50509250929050565b6001600160a01b03861663d505accf336040516001600160e01b031960e084901b1681526001600160a01b039091166004820152306024820152604481018890526064810187905260ff8616608482015260a4810185905260c4810184905260e401600060405180830381600087803b15801561158c57600080fd5b505af11580156115a0573d6000803e3d6000fd5b5050505060006115ad3390565b90506115c46001600160a01b038816823089612d14565b6115cf818888612d6c565b50505050505050565b6115e06126a8565b6115ea6000612e5d565b565b6001546001600160a01b031690565b6001600160a01b0381166000908152600b60205260408120546108ed565b600080611627600e84612717565b915050670de0b6b3a764000061163b6118bb565b61164590836144c3565b61098d91906143c0565b6116576126a8565b61166260038261256f565b507fc7d9598af6004de7fa9c489a50a55414c75cfbce9fe56fe46956970744d6bc2c81604051610936919061408f565b61169a6126a8565b8260005b818110156118b3578383828181106116c657634e487b7160e01b600052603260045260246000fd5b90506080020160000135600560008888858181106116f457634e487b7160e01b600052603260045260246000fd5b90506020020160208101906117099190613aec565b6001600160a01b0316815260208101919091526040016000205583838281811061174357634e487b7160e01b600052603260045260246000fd5b905060800201602001356005600088888581811061177157634e487b7160e01b600052603260045260246000fd5b90506020020160208101906117869190613aec565b6001600160a01b031681526020810191909152604001600020600101558383828181106117c357634e487b7160e01b600052603260045260246000fd5b90506080020160400135600560008888858181106117f157634e487b7160e01b600052603260045260246000fd5b90506020020160208101906118069190613aec565b6001600160a01b0316815260208101919091526040016000206002015583838281811061184357634e487b7160e01b600052603260045260246000fd5b905060800201606001356005600088888581811061187157634e487b7160e01b600052603260045260246000fd5b90506020020160208101906118869190613aec565b6001600160a01b031681526020810191909152604001600020600301556118ac8161455a565b905061169e565b505050505050565b60006118c56115ec565b6001600160a01b031663c548fb5d6040518163ffffffff1660e01b815260040160206040518083038186803b1580156118fd57600080fd5b505afa158015611911573d6000803e3d6000fd5b505050506040513d601f19601f8201168201806040525081019061099e9190613e6d565b6060600a805461085690614525565b61194e3382612ead565b61195733610a27565b1561199057600061196733610a3f565b9150506119896119743390565b61197e84846143a8565b9250600e9083612c01565b505061199b565b61199933610a72565b505b6119a433610ff3565b6119ad33611619565b11156119cb5760405162461bcd60e51b8152600401610d8c9061429d565b60405181815233907f0f6798a560793a54c3bcfe86a93cde1e73087d944c0ea20544137d41213968859060200160405180910390a250565b60003381611a1182866120db565b905083811015611a715760405162461bcd60e51b815260206004820152602560248201527f45524332303a2064656372656173656420616c6c6f77616e63652062656c6f77604482015264207a65726f60d81b6064820152608401610d8c565b611a7e8286868403612584565b506001949350505050565b6001600160a01b0381166000908152600d602052604081208190611aac90612c1f565b905060005b81811015611baf576001600160a01b0384166000908152600d602052604081208190611add9084612c2a565b90925090508015611b9c576000611af48383612c39565b90506000611b006115ec565b90506000816001600160a01b031663b2f1ee3b866040518263ffffffff1660e01b8152600401611b30919061408f565b60206040518083038186803b158015611b4857600080fd5b505afa158015611b5c573d6000803e3d6000fd5b505050506040513d601f19601f82011682018060405250810190611b809190613e6d565b9050611b8c81846144c3565b611b9690896143a8565b97505050505b505080611ba89061455a565b9050611ab1565b5061098d670de0b6b3a7640000836143c0565b606061099e6003612f7a565b6000336108e78185856127b8565b6060816001600160401b03811115611c0457634e487b7160e01b600052604160045260246000fd5b604051908082528060200260200182016040528015611c3757816020015b6060815260200190600190039081611c225790505b50905060005b82811015611cf357611cb530858584818110611c6957634e487b7160e01b600052603260045260246000fd5b9050602002810190611c7b9190614311565b8080601f016020809104026020016040519081016040528093929190818152602001838380828437600092019190915250612f8792505050565b828281518110611cd557634e487b7160e01b600052603260045260246000fd5b60200260200101819052508080611ceb9061455a565b915050611c3d565b5092915050565b6000611d046115ec565b6001600160a01b031663b2f1ee3b836040518263ffffffff1660e01b8152600401611193919061408f565b6001600160a01b0381166000908152600d602052604081208190611d5290612c1f565b905060005b8181101561115d576001600160a01b0384166000908152600d602052604081208190611d839084612c2a565b90925090508015611e69576000611d9a8383612c39565b90506000611da66115ec565b90506000816001600160a01b031663b2f1ee3b866040518263ffffffff1660e01b8152600401611dd6919061408f565b60206040518083038186803b158015611dee57600080fd5b505afa158015611e02573d6000803e3d6000fd5b505050506040513d601f19601f82011682018060405250810190611e269190613e6d565b6001600160a01b038616600090815260056020526040902060010154909150611e4f82856144c3565b611e5991906144c3565b611e6390896143a8565b97505050505b611e7d6103e8670de0b6b3a76400006144c3565b611e8790866143c0565b9450505080611e959061455a565b9050611d57565b6000339050730d500b1d8e8ef31e21c99d1db9a6444d3adf12706001600160a01b031663d0e30db0346040518263ffffffff1660e01b81526004016000604051808303818588803b158015611ef057600080fd5b505af1158015611f04573d6000803e3d6000fd5b5050505050611f2881730d500b1d8e8ef31e21c99d1db9a6444d3adf127084612d6c565b5050565b83421115611f7c5760405162461bcd60e51b815260206004820152601d60248201527f45524332305065726d69743a206578706972656420646561646c696e650000006044820152606401610d8c565b60007f6e71edae12b1b97f4d1f60370fef10105fa2faae0126114a169c64845d6126c9888888611fab8c612fac565b6040805160208101969096526001600160a01b0394851690860152929091166060840152608083015260a082015260c0810186905260e001604051602081830303815290604052805190602001209050600061200682612fd4565b9050600061201682878787613022565b9050896001600160a01b0316816001600160a01b0316146120795760405162461bcd60e51b815260206004820152601e60248201527f45524332305065726d69743a20696e76616c6964207369676e617475726500006044820152606401610d8c565b6120848a8a8a612584565b50505050505050505050565b6000620f4240826b033b2e3c9fd0803ce80000008410156120cb5769d3c21bcecceda10000008410156120c45760326120ce565b60196120ce565b600a5b60ff1661164591906144c3565b6001600160a01b03918216600090815260076020908152604080832093909416825291909152205490565b60006121158260000151611d2f565b905060006121268360000151611619565b90508181116121475760405162461bcd60e51b8152600401610d8c9061429d565b600061215383836144e2565b9050600061215f6118bb565b61216990836143c0565b9050612179856040015182612a9b565b60208501515160005b818110156115cf5760008411612197576115cf565b6000876020015182815181106121bd57634e487b7160e01b600052603260045260246000fd5b6020026020010151905060006121d7896000015183610941565b905060006121e36115ec565b6001600160a01b031663b2f1ee3b846040518263ffffffff1660e01b815260040161220e919061408f565b60206040518083038186803b15801561222657600080fd5b505afa15801561223a573d6000803e3d6000fd5b505050506040513d601f19601f8201168201806040525081019061225e9190613e6d565b90506000670de0b6b3a764000061227583856144c3565b61227f91906143c0565b90506000806103e86001600160a01b038716600090815260056020526040902060038101546002909101546122b491906143a8565b6122be91906143a8565b90506103e86122cd828c6144c3565b6122d791906143c0565b8310156122e657849150612312565b6122f0848b6143c0565b9150670de0b6b3a764000061230585846144c3565b61230f91906143c0565b92505b60408d8101516001600160a01b03881660009081526005602052919091206002015461236c91908390612347906103e86143a8565b61235190866144c3565b61235b91906143c0565b6001600160a01b038916919061304a565b6123a96123816002546001600160a01b031690565b6001600160a01b038816600090815260056020526040902060030154839061235190866144c3565b6123b3838b6144e2565b99508c600001516001600160a01b03168d604001516001600160a01b03167f033fe6dadd06de536cd7b34266e12610e9d77a23d48d3d6218962a87cb7405148885604051612402929190614120565b60405180910390a35050505050508061241a9061455a565b9050612182565b336124376001600160a01b038416823085612d14565b612442818484612d6c565b505050565b61244f6126a8565b6001600160a01b0381166124b45760405162461bcd60e51b815260206004820152602660248201527f4f776e61626c653a206e6577206f776e657220697320746865207a65726f206160448201526564647265737360d01b6064820152608401610d8c565b6124bd81612e5d565b50565b6124d46001600160a01b038316338361304a565b6124dd33611d2f565b6124e633611619565b11156125045760405162461bcd60e51b8152600401610d8c9061429d565b61253382826125133386610941565b61251d91906144e2565b336000908152600d602052604090209190612c01565b50816001600160a01b03167f884edad9ce6fa2440d8a54cc123490eb96d2768479d49ff9c7366125a942436482604051610aab91815260200190565b600061098d836001600160a01b038416613069565b6001600160a01b0383166125e65760405162461bcd60e51b8152602060048201526024808201527f45524332303a20617070726f76652066726f6d20746865207a65726f206164646044820152637265737360e01b6064820152608401610d8c565b6001600160a01b0382166126475760405162461bcd60e51b815260206004820152602260248201527f45524332303a20617070726f766520746f20746865207a65726f206164647265604482015261737360f01b6064820152608401610d8c565b6001600160a01b0383811660008181526007602090815260408083209487168084529482529182902085905590518481527f8c5be1e5ebec7d5bd14f71427d1e84f3dd0314c0f7b2291e5b200ac8c7c3b925910160405180910390a3505050565b6000546001600160a01b031633146115ea5760405162461bcd60e51b815260206004820181905260248201527f4f776e61626c653a2063616c6c6572206973206e6f7420746865206f776e65726044820152606401610d8c565b600061098d836001600160a01b0384166130b8565b600080808061272f866001600160a01b0387166131d5565b909450925050505b9250929050565b600061274a84846120db565b905060001981146127b257818110156127a55760405162461bcd60e51b815260206004820152601d60248201527f45524332303a20696e73756666696369656e7420616c6c6f77616e63650000006044820152606401610d8c565b6127b28484848403612584565b50505050565b6001600160a01b03831661281c5760405162461bcd60e51b815260206004820152602560248201527f45524332303a207472616e736665722066726f6d20746865207a65726f206164604482015264647265737360d81b6064820152608401610d8c565b6001600160a01b03821661287e5760405162461bcd60e51b815260206004820152602360248201527f45524332303a207472616e7366657220746f20746865207a65726f206164647260448201526265737360e81b6064820152608401610d8c565b6001600160a01b038316600090815260066020526040902054818110156128f65760405162461bcd60e51b815260206004820152602660248201527f45524332303a207472616e7366657220616d6f756e7420657863656564732062604482015265616c616e636560d01b6064820152608401610d8c565b6001600160a01b0380851660009081526006602052604080822085850390559185168152908120805484929061292d9084906143a8565b92505081905550826001600160a01b0316846001600160a01b03166000805160206145fb8339815191528460405161296791815260200190565b60405180910390a36127b2565b6000306001600160a01b037f0000000000000000000000000000000000000000000000000000000000000000161480156129cd57507f000000000000000000000000000000000000000000000000000000000000000046145b156129f757507f000000000000000000000000000000000000000000000000000000000000000090565b50604080517f00000000000000000000000000000000000000000000000000000000000000006020808301919091527f0000000000000000000000000000000000000000000000000000000000000000828401527f000000000000000000000000000000000000000000000000000000000000000060608301524660808301523060a0808401919091528351808403909101815260c0909201909252805191012090565b6001600160a01b038216612afb5760405162461bcd60e51b815260206004820152602160248201527f45524332303a206275726e2066726f6d20746865207a65726f206164647265736044820152607360f81b6064820152608401610d8c565b6001600160a01b03821660009081526006602052604090205481811015612b6f5760405162461bcd60e51b815260206004820152602260248201527f45524332303a206275726e20616d6f756e7420657863656564732062616c616e604482015261636560f01b6064820152608401610d8c565b6001600160a01b0383166000908152600660205260408120838303905560088054849290612b9e9084906144e2565b90915550506040518281526000906001600160a01b038516906000805160206145fb8339815191529060200160405180910390a3505050565b600061098d836001600160a01b038416613217565b600061098d836001600160a01b038416613223565b6000612c17846001600160a01b03851684613240565b949350505050565b60006108ed8261325d565b600080808061272f8686613268565b600080836001600160a01b031663313ce5676040518163ffffffff1660e01b815260040160206040518083038186803b158015612c7557600080fd5b505afa158015612c89573d6000803e3d6000fd5b505050506040513d601f19601f82011682018060405250810190612cad9190613fe8565b60ff1690506012811015612ce357612cc68160126144e2565b612cd190600a61441b565b612cdb90846144c3565b9150506108ed565b6012811115612d0c57612cf76012826144e2565b612d0290600a61441b565b612cdb90846143c0565b509092915050565b6127b2846323b872dd60e01b858585604051602401612d35939291906140a3565b60408051601f198184030181529190526020810180516001600160e01b03166001600160e01b031990931692909217909152613293565b6001600160a01b0383166000908152600d60205260409020612d8e9083612bd7565b15612df0576001600160a01b0383166000908152600d60205260408120612db59084612717565b9150612de9905083612dc784846143a8565b6001600160a01b0387166000908152600d602052604090209093509083612c01565b5050612e15565b6001600160a01b0383166000908152600d60205260409020612e13908383612c01565b505b816001600160a01b03167fadacf827efe383160192c092d8658471945c074229a9746679b5e2b74adff19182604051612e5091815260200190565b60405180910390a2505050565b600080546001600160a01b038381166001600160a01b0319831681178455604051919092169283917f8be0079c531659141344cd1fd0a4f28419497f9722a3daafe3b4186f6b6457e09190a35050565b6001600160a01b038216612f035760405162461bcd60e51b815260206004820152601f60248201527f45524332303a206d696e7420746f20746865207a65726f2061646472657373006044820152606401610d8c565b8060086000828254612f1591906143a8565b90915550506001600160a01b03821660009081526006602052604081208054839290612f429084906143a8565b90915550506040518181526001600160a01b038316906000906000805160206145fb8339815191529060200160405180910390a35050565b6060600061098d83613365565b606061098d83836040518060600160405280602781526020016145d4602791396133c1565b6001600160a01b0381166000908152600b602052604090208054600181018255905b50919050565b60006108ed612fe1612974565b8360405161190160f01b6020820152602281018390526042810182905260009060620160405160208183030381529060405280519060200120905092915050565b60008060006130338787878761349e565b9150915061304081613581565b5095945050505050565b6124428363a9059cbb60e01b8484604051602401612d35929190614120565b60008181526001830160205260408120546130b0575081546001818101845560008481526020808220909301849055845484825282860190935260409020919091556108ed565b5060006108ed565b600081815260018301602052604081205480156131cb5760006130dc6001836144e2565b85549091506000906130f0906001906144e2565b905081811461317157600086600001828154811061311e57634e487b7160e01b600052603260045260246000fd5b906000526020600020015490508087600001848154811061314f57634e487b7160e01b600052603260045260246000fd5b6000918252602080832090910192909255918252600188019052604090208390555b855486908061319057634e487b7160e01b600052603160045260246000fd5b6001900381819060005260206000200160009055905585600101600086815260200190815260200160002060009055600193505050506108ed565b60009150506108ed565b6000818152600283016020526040812054819080613204576131f78585613217565b9250600091506127379050565b600192509050612737565b509250929050565b600061098d838361377d565b6000818152600283016020526040812081905561098d8383613795565b60008281526002840160205260408120829055612c1784846137a1565b60006108ed826137ad565b6000808061327685856137b7565b600081815260029690960160205260409095205494959350505050565b60006132e8826040518060400160405280602081526020017f5361666545524332303a206c6f772d6c6576656c2063616c6c206661696c6564815250856001600160a01b03166137c39092919063ffffffff16565b80519091501561244257808060200190518101906133069190613e51565b6124425760405162461bcd60e51b815260206004820152602a60248201527f5361666545524332303a204552433230206f7065726174696f6e20646964206e6044820152691bdd081cdd58d8d9595960b21b6064820152608401610d8c565b6060816000018054806020026020016040519081016040528092919081815260200182805480156133b557602002820191906000526020600020905b8154815260200190600101908083116133a1575b50505050509050919050565b60606001600160a01b0384163b6134295760405162461bcd60e51b815260206004820152602660248201527f416464726573733a2064656c65676174652063616c6c20746f206e6f6e2d636f6044820152651b9d1c9858dd60d21b6064820152608401610d8c565b600080856001600160a01b0316856040516134449190614073565b600060405180830381855af49150503d806000811461347f576040519150601f19603f3d011682016040523d82523d6000602084013e613484565b606091505b50915091506134948282866137d2565b9695505050505050565b6000806fa2a8918ca85bafe22016d0b997e4df60600160ff1b038311156134cb5750600090506003613578565b8460ff16601b141580156134e357508460ff16601c14155b156134f45750600090506004613578565b6040805160008082526020820180845289905260ff881692820192909252606081018690526080810185905260019060a0016020604051602081039080840390855afa158015613548573d6000803e3d6000fd5b5050604051601f1901519150506001600160a01b03811661357157600060019250925050613578565b9150600090505b94509492505050565b60008160048111156135a357634e487b7160e01b600052602160045260246000fd5b14156135ac5750565b60018160048111156135ce57634e487b7160e01b600052602160045260246000fd5b14156136175760405162461bcd60e51b815260206004820152601860248201527745434453413a20696e76616c6964207369676e617475726560401b6044820152606401610d8c565b600281600481111561363957634e487b7160e01b600052602160045260246000fd5b14156136875760405162461bcd60e51b815260206004820152601f60248201527f45434453413a20696e76616c6964207369676e6174757265206c656e677468006044820152606401610d8c565b60038160048111156136a957634e487b7160e01b600052602160045260246000fd5b14156137025760405162461bcd60e51b815260206004820152602260248201527f45434453413a20696e76616c6964207369676e6174757265202773272076616c604482015261756560f01b6064820152608401610d8c565b600481600481111561372457634e487b7160e01b600052602160045260246000fd5b14156124bd5760405162461bcd60e51b815260206004820152602260248201527f45434453413a20696e76616c6964207369676e6174757265202776272076616c604482015261756560f01b6064820152608401610d8c565b6000818152600183016020526040812054151561098d565b600061098d83836130b8565b600061098d8383613069565b60006108ed825490565b600061098d838361380b565b6060612c178484600085613843565b606083156137e157508161098d565b8251156137f15782518084602001fd5b8160405162461bcd60e51b8152600401610d8c919061428a565b600082600001828154811061383057634e487b7160e01b600052603260045260246000fd5b9060005260206000200154905092915050565b6060824710156138a45760405162461bcd60e51b815260206004820152602660248201527f416464726573733a20696e73756666696369656e742062616c616e636520666f6044820152651c8818d85b1b60d21b6064820152608401610d8c565b6001600160a01b0385163b6138fb5760405162461bcd60e51b815260206004820152601d60248201527f416464726573733a2063616c6c20746f206e6f6e2d636f6e74726163740000006044820152606401610d8c565b600080866001600160a01b031685876040516139179190614073565b60006040518083038185875af1925050503d8060008114613954576040519150601f19603f3d011682016040523d82523d6000602084013e613959565b606091505b50915091506139698282866137d2565b979650505050505050565b60008083601f840112613985578182fd5b5081356001600160401b0381111561399b578182fd5b6020830191508360208260051b850101111561273757600080fd5b600082601f8301126139c6578081fd5b813560206139db6139d683614385565b614355565b80838252828201915082860187848660051b89010111156139fa578586fd5b855b85811015613a21578135613a0f816145a1565b845292840192908401906001016139fc565b5090979650505050505050565b600082601f830112613a3e578081fd5b81356020613a4e6139d683614385565b80838252828201915082860187848660051b8901011115613a6d578586fd5b855b85811015613a215781356001600160401b03811115613a8c578788fd5b613a9a8a87838c01016139b6565b8552509284019290840190600101613a6f565b60008083601f840112613abe578182fd5b5081356001600160401b03811115613ad4578182fd5b60208301915083602082850101111561273757600080fd5b600060208284031215613afd578081fd5b813561098d816145a1565b60008060408385031215613b1a578081fd5b8235613b25816145a1565b91506020830135613b35816145a1565b809150509250929050565b600080600060608486031215613b54578081fd5b8335613b5f816145a1565b92506020840135613b6f816145a1565b929592945050506040919091013590565b600080600080600080600060e0888a031215613b9a578283fd5b8735613ba5816145a1565b96506020880135613bb5816145a1565b955060408801359450606088013593506080880135613bd3816145c4565b9699959850939692959460a0840135945060c09093013592915050565b60008060408385031215613c02578182fd5b8235613c0d816145a1565b946020939093013593505050565b60008060008060008060c08789031215613c33578384fd5b8635613c3e816145a1565b955060208701359450604087013593506060870135613c5c816145c4565b9598949750929560808101359460a0909101359350915050565b60008060008060408587031215613c8b578182fd5b84356001600160401b0380821115613ca1578384fd5b613cad88838901613974565b90965094506020870135915080821115613cc5578384fd5b818701915087601f830112613cd8578384fd5b813581811115613ce6578485fd5b8860208260071b8501011115613cfa578485fd5b95989497505060200194505050565b60008060008060808587031215613d1e578182fd5b84356001600160401b0380821115613d34578384fd5b818701915087601f830112613d47578384fd5b81356020613d576139d683614385565b8083825282820191508286018c848660051b8901011115613d76578889fd5b8896505b84871015613da1578035613d8d816145b6565b835260019690960195918301918301613d7a565b5098505088013592505080821115613db7578384fd5b613dc3888389016139b6565b94506040870135915080821115613dd8578384fd5b613de488838901613a2e565b93506060870135915080821115613df9578283fd5b50613e06878288016139b6565b91505092959194509250565b60008060208385031215613e24578182fd5b82356001600160401b03811115613e39578283fd5b613e4585828601613974565b90969095509350505050565b600060208284031215613e62578081fd5b815161098d816145b6565b600060208284031215613e7e578081fd5b5051919050565b60008060208385031215613e97578182fd5b82356001600160401b03811115613eac578283fd5b613e4585828601613aad565b600080600080600060808688031215613ecf578283fd5b8535613eda816145a1565b94506020860135613eea816145a1565b93506040860135925060608601356001600160401b03811115613f0b578182fd5b613f1788828901613aad565b969995985093965092949392505050565b600060208284031215613f39578081fd5b81356001600160401b0380821115613f4f578283fd5b9083019060608286031215613f62578283fd5b604051606081018181108382111715613f7d57613f7d61458b565b6040528235613f8b816145a1565b8152602083013582811115613f9e578485fd5b613faa878286016139b6565b60208301525060408301359250613fc0836145a1565b6040810192909252509392505050565b600060208284031215613fe1578081fd5b5035919050565b600060208284031215613ff9578081fd5b815161098d816145c4565b6000815180845260208085019450808401835b8381101561403c5781516001600160a01b031687529582019590820190600101614017565b509495945050505050565b6000815180845261405f8160208601602086016144f9565b601f01601f19169290920160200192915050565b600082516140858184602087016144f9565b9190910192915050565b6001600160a01b0391909116815260200190565b6001600160a01b039384168152919092166020820152604081019190915260600190565b6001600160a01b03878116825286166020820152604081018590526060810184905260a06080820181905281018290526000828460c084013781830160c090810191909152601f909201601f1916010195945050505050565b6001600160a01b03929092168252602082015260400190565b60208152600061098d6020830184614004565b6080808252855190820181905260009060209060a0840190828901845b82811015614187578151151584529284019290840190600101614169565b5050508381038285015261419b8188614004565b905083810360408501528086518083528383019150838160051b840101848901865b838110156141eb57601f198684030185526141d9838351614004565b948701949250908601906001016141bd565b505086810360608801526141ff8189614004565b9b9a5050505050505050505050565b6000602080830181845280855180835260408601915060408160051b8701019250838701855b8281101561426257603f19888603018452614250858351614047565b94509285019290850190600101614234565b5092979650505050505050565b8215158152604060208201526000612c176040830184614047565b60208152600061098d6020830184614047565b60208082526012908201527115985d5b1d0e881b9bdd08185b1b1bddd95960721b604082015260600190565b60208152600060018060a01b038084511660208401526020840151606060408501526142f86080850182614004565b9050816040860151166060850152809250505092915050565b6000808335601e19843603018112614327578283fd5b8301803591506001600160401b03821115614340578283fd5b60200191503681900382131561273757600080fd5b604051601f8201601f191681016001600160401b038111828210171561437d5761437d61458b565b604052919050565b60006001600160401b0382111561439e5761439e61458b565b5060051b60200190565b600082198211156143bb576143bb614575565b500190565b6000826143db57634e487b7160e01b81526012600452602481fd5b500490565b600181815b8085111561320f57816000190482111561440157614401614575565b8085161561440e57918102915b93841c93908002906143e5565b600061098d8383600082614431575060016108ed565b8161443e575060006108ed565b8160018114614454576002811461445e5761447a565b60019150506108ed565b60ff84111561446f5761446f614575565b50506001821b6108ed565b5060208310610133831016604e8410600b841016171561449d575081810a6108ed565b6144a783836143e0565b80600019048211156144bb576144bb614575565b029392505050565b60008160001904831182151516156144dd576144dd614575565b500290565b6000828210156144f4576144f4614575565b500390565b60005b838110156145145781810151838201526020016144fc565b838111156127b25750506000910152565b600181811c9082168061453957607f821691505b60208210811415612fce57634e487b7160e01b600052602260045260246000fd5b600060001982141561456e5761456e614575565b5060010190565b634e487b7160e01b600052601160045260246000fd5b634e487b7160e01b600052604160045260246000fd5b6001600160a01b03811681146124bd57600080fd5b80151581146124bd57600080fd5b60ff811681146124bd57600080fdfe416464726573733a206c6f772d6c6576656c2064656c65676174652063616c6c206661696c6564ddf252ad1be2c89b69c2b068fc378daa952ba7f163c4a11628f55a4df523b3efa2646970667358221220ce3d5c206cdd375c94ff821a8b652a6078ca00ad7c49b705b800b72568e9ba1f64736f6c63430008040033",
  "linkReferences": {},
  "deployedLinkReferences": {}
}