{
  "_format": "hh-sol-artifact-1",
  "contractName": "Demu",
  "sourceName": "contracts/Demu.sol",
  "abi": [
    {
      "anonymous": false,
      "inputs": [
        {
          "indexed": true,
          "internalType": "address",
          "name": "account",
          "type": "address"
        }
      ],
      "name": "AdminUpdate",
      "type": "event"
    },
    {
      "anonymous": false,
      "inputs": [
        {
          "indexed": true,
          "internalType": "address",
          "name": "owner",
          "type": "address"
        },
        {
          "indexed": true,
          "internalType": "address",
          "name": "spender",
          "type": "address"
        },
        {
          "indexed": false,
          "internalType": "uint256",
          "name": "value",
          "type": "uint256"
        }
      ],
      "name": "Approval",
      "type": "event"
    },
    {
      "anonymous": false,
      "inputs": [
        {
          "indexed": true,
          "internalType": "address",
          "name": "from",
          "type": "address"
        },
        {
          "indexed": false,
          "internalType": "uint256",
          "name": "amount",
          "type": "uint256"
        }
      ],
      "name": "Burn",
      "type": "event"
    },
    {
      "anonymous": false,
      "inputs": [
        {
          "indexed": true,
          "internalType": "address",
          "name": "to",
          "type": "address"
        },
        {
          "indexed": false,
          "internalType": "uint256",
          "name": "amount",
          "type": "uint256"
        }
      ],
      "name": "Mint",
      "type": "event"
    },
    {
      "anonymous": false,
      "inputs": [
        {
          "indexed": true,
          "internalType": "address",
          "name": "previousOwner",
          "type": "address"
        },
        {
          "indexed": true,
          "internalType": "address",
          "name": "newOwner",
          "type": "address"
        }
      ],
      "name": "OwnershipTransferred",
      "type": "event"
    },
    {
      "anonymous": false,
      "inputs": [
        {
          "indexed": true,
          "internalType": "address",
          "name": "from",
          "type": "address"
        },
        {
          "indexed": true,
          "internalType": "address",
          "name": "to",
          "type": "address"
        },
        {
          "indexed": false,
          "internalType": "uint256",
          "name": "value",
          "type": "uint256"
        }
      ],
      "name": "Transfer",
      "type": "event"
    },
    {
      "inputs": [],
      "name": "DOMAIN_SEPARATOR",
      "outputs": [
        {
          "internalType": "bytes32",
          "name": "",
          "type": "bytes32"
        }
      ],
      "stateMutability": "view",
      "type": "function"
    },
    {
      "inputs": [
        {
          "internalType": "address",
          "name": "owner",
          "type": "address"
        },
        {
          "internalType": "address",
          "name": "spender",
          "type": "address"
        }
      ],
      "name": "allowance",
      "outputs": [
        {
          "internalType": "uint256",
          "name": "",
          "type": "uint256"
        }
      ],
      "stateMutability": "view",
      "type": "function"
    },
    {
      "inputs": [
        {
          "internalType": "address",
          "name": "spender",
          "type": "address"
        },
        {
          "internalType": "uint256",
          "name": "amount",
          "type": "uint256"
        }
      ],
      "name": "approve",
      "outputs": [
        {
          "internalType": "bool",
          "name": "",
          "type": "bool"
        }
      ],
      "stateMutability": "nonpayable",
      "type": "function"
    },
    {
      "inputs": [
        {
          "internalType": "address",
          "name": "account",
          "type": "address"
        }
      ],
      "name": "balanceOf",
      "outputs": [
        {
          "internalType": "uint256",
          "name": "",
          "type": "uint256"
        }
      ],
      "stateMutability": "view",
      "type": "function"
    },
    {
      "inputs": [
        {
          "internalType": "address",
          "name": "from",
          "type": "address"
        },
        {
          "internalType": "uint256",
          "name": "amount",
          "type": "uint256"
        }
      ],
      "name": "burn",
      "outputs": [],
      "stateMutability": "nonpayable",
      "type": "function"
    },
    {
      "inputs": [],
      "name": "decimals",
      "outputs": [
        {
          "internalType": "uint8",
          "name": "",
          "type": "uint8"
        }
      ],
      "stateMutability": "view",
      "type": "function"
    },
    {
      "inputs": [
        {
          "internalType": "address",
          "name": "spender",
          "type": "address"
        },
        {
          "internalType": "uint256",
          "name": "subtractedValue",
          "type": "uint256"
        }
      ],
      "name": "decreaseAllowance",
      "outputs": [
        {
          "internalType": "bool",
          "name": "",
          "type": "bool"
        }
      ],
      "stateMutability": "nonpayable",
      "type": "function"
    },
    {
      "inputs": [
        {
          "internalType": "address",
          "name": "spender",
          "type": "address"
        },
        {
          "internalType": "uint256",
          "name": "addedValue",
          "type": "uint256"
        }
      ],
      "name": "increaseAllowance",
      "outputs": [
        {
          "internalType": "bool",
          "name": "",
          "type": "bool"
        }
      ],
      "stateMutability": "nonpayable",
      "type": "function"
    },
    {
      "inputs": [
        {
          "internalType": "address",
          "name": "to",
          "type": "address"
        },
        {
          "internalType": "uint256",
          "name": "amount",
          "type": "uint256"
        }
      ],
      "name": "mint",
      "outputs": [],
      "stateMutability": "nonpayable",
      "type": "function"
    },
    {
      "inputs": [],
      "name": "name",
      "outputs": [
        {
          "internalType": "string",
          "name": "",
          "type": "string"
        }
      ],
      "stateMutability": "view",
      "type": "function"
    },
    {
      "inputs": [
        {
          "internalType": "address",
          "name": "owner",
          "type": "address"
        }
      ],
      "name": "nonces",
      "outputs": [
        {
          "internalType": "uint256",
          "name": "",
          "type": "uint256"
        }
      ],
      "stateMutability": "view",
      "type": "function"
    },
    {
      "inputs": [],
      "name": "owner",
      "outputs": [
        {
          "internalType": "address",
          "name": "",
          "type": "address"
        }
      ],
      "stateMutability": "view",
      "type": "function"
    },
    {
      "inputs": [
        {
          "internalType": "address",
          "name": "owner",
          "type": "address"
        },
        {
          "internalType": "address",
          "name": "spender",
          "type": "address"
        },
        {
          "internalType": "uint256",
          "name": "value",
          "type": "uint256"
        },
        {
          "internalType": "uint256",
          "name": "deadline",
          "type": "uint256"
        },
        {
          "internalType": "uint8",
          "name": "v",
          "type": "uint8"
        },
        {
          "internalType": "bytes32",
          "name": "r",
          "type": "bytes32"
        },
        {
          "internalType": "bytes32",
          "name": "s",
          "type": "bytes32"
        }
      ],
      "name": "permit",
      "outputs": [],
      "stateMutability": "nonpayable",
      "type": "function"
    },
    {
      "inputs": [],
      "name": "renounceOwnership",
      "outputs": [],
      "stateMutability": "nonpayable",
      "type": "function"
    },
    {
      "inputs": [
        {
          "internalType": "address",
          "name": "account",
          "type": "address"
        }
      ],
      "name": "setAdmin",
      "outputs": [],
      "stateMutability": "nonpayable",
      "type": "function"
    },
    {
      "inputs": [],
      "name": "symbol",
      "outputs": [
        {
          "internalType": "string",
          "name": "",
          "type": "string"
        }
      ],
      "stateMutability": "view",
      "type": "function"
    },
    {
      "inputs": [],
      "name": "totalSupply",
      "outputs": [
        {
          "internalType": "uint256",
          "name": "",
          "type": "uint256"
        }
      ],
      "stateMutability": "view",
      "type": "function"
    },
    {
      "inputs": [
        {
          "internalType": "address",
          "name": "to",
          "type": "address"
        },
        {
          "internalType": "uint256",
          "name": "amount",
          "type": "uint256"
        }
      ],
      "name": "transfer",
      "outputs": [
        {
          "internalType": "bool",
          "name": "",
          "type": "bool"
        }
      ],
      "stateMutability": "nonpayable",
      "type": "function"
    },
    {
      "inputs": [
        {
          "internalType": "address",
          "name": "from",
          "type": "address"
        },
        {
          "internalType": "address",
          "name": "to",
          "type": "address"
        },
        {
          "internalType": "uint256",
          "name": "amount",
          "type": "uint256"
        }
      ],
      "name": "transferFrom",
      "outputs": [
        {
          "internalType": "bool",
          "name": "",
          "type": "bool"
        }
      ],
      "stateMutability": "nonpayable",
      "type": "function"
    },
    {
      "inputs": [
        {
          "internalType": "address",
          "name": "newOwner",
          "type": "address"
        }
      ],
      "name": "transferOwnership",
      "outputs": [],
      "stateMutability": "nonpayable",
      "type": "function"
    }
  ],
  "bytecode": "0x6101406040523480156200001257600080fd5b506040518060400160405280600481526020017f44454d5500000000000000000000000000000000000000000000000000000000815250806040518060400160405280600181526020017f31000000000000000000000000000000000000000000000000000000000000008152506040518060400160405280600481526020017f44454d55000000000000000000000000000000000000000000000000000000008152506040518060400160405280600481526020017f44454d55000000000000000000000000000000000000000000000000000000008152506200010c62000100620001fc60201b60201c565b6200020460201b60201c565b81600490805190602001906200012492919062000304565b5080600590805190602001906200013d92919062000304565b50505060008280519060200120905060008280519060200120905060007f8b73c3c69bb8fe3d512ecc4cf759cc79239f7b179b0ffacaa9a75d522b39400f90508260e081815250508161010081815250504660a08181525050620001a9818484620002c860201b60201c565b608081815250503073ffffffffffffffffffffffffffffffffffffffff1660c08173ffffffffffffffffffffffffffffffffffffffff1660601b81525050806101208181525050505050505050620004f1565b600033905090565b60008060009054906101000a900473ffffffffffffffffffffffffffffffffffffffff169050816000806101000a81548173ffffffffffffffffffffffffffffffffffffffff021916908373ffffffffffffffffffffffffffffffffffffffff1602179055508173ffffffffffffffffffffffffffffffffffffffff168173ffffffffffffffffffffffffffffffffffffffff167f8be0079c531659141344cd1fd0a4f28419497f9722a3daafe3b4186f6b6457e060405160405180910390a35050565b60008383834630604051602001620002e5959493929190620003e7565b6040516020818303038152906040528051906020012090509392505050565b82805462000312906200048c565b90600052602060002090601f01602090048101928262000336576000855562000382565b82601f106200035157805160ff191683800117855562000382565b8280016001018555821562000382579182015b828111156200038157825182559160200191906001019062000364565b5b50905062000391919062000395565b5090565b5b80821115620003b057600081600090555060010162000396565b5090565b620003bf8162000444565b82525050565b620003d08162000458565b82525050565b620003e18162000482565b82525050565b600060a082019050620003fe6000830188620003c5565b6200040d6020830187620003c5565b6200041c6040830186620003c5565b6200042b6060830185620003d6565b6200043a6080830184620003b4565b9695505050505050565b6000620004518262000462565b9050919050565b6000819050919050565b600073ffffffffffffffffffffffffffffffffffffffff82169050919050565b6000819050919050565b60006002820490506001821680620004a557607f821691505b60208210811415620004bc57620004bb620004c2565b5b50919050565b7f4e487b7100000000000000000000000000000000000000000000000000000000600052602260045260246000fd5b60805160a05160c05160601c60e0516101005161012051612ce862000544600039600061119c015260006111de015260006111bd015260006110f201526000611148015260006111710152612ce86000f3fe608060405234801561001057600080fd5b506004361061012c5760003560e01c8063715018a6116100ad578063a457c2d711610071578063a457c2d714610333578063a9059cbb14610363578063d505accf14610393578063dd62ed3e146103af578063f2fde38b146103df5761012c565b8063715018a6146102a15780637ecebe00146102ab5780638da5cb5b146102db57806395d89b41146102f95780639dc29fac146103175761012c565b80633644e515116100f45780633644e515146101eb578063395093511461020957806340c10f1914610239578063704b6c021461025557806370a08231146102715761012c565b806306fdde0314610131578063095ea7b31461014f57806318160ddd1461017f57806323b872dd1461019d578063313ce567146101cd575b600080fd5b6101396103fb565b60405161014691906122da565b60405180910390f35b61016960048036038101906101649190611dc6565b61048d565b60405161017691906121ab565b60405180910390f35b6101876104b0565b604051610194919061255c565b60405180910390f35b6101b760048036038101906101b29190611cd9565b6104ba565b6040516101c491906121ab565b60405180910390f35b6101d56104e9565b6040516101e29190612577565b60405180910390f35b6101f36104f2565b60405161020091906121c6565b60405180910390f35b610223600480360381019061021e9190611dc6565b610501565b60405161023091906121ab565b60405180910390f35b610253600480360381019061024e9190611dc6565b610538565b005b61026f600480360381019061026a9190611c74565b610627565b005b61028b60048036038101906102869190611c74565b6106cd565b604051610298919061255c565b60405180910390f35b6102a9610716565b005b6102c560048036038101906102c09190611c74565b61072a565b6040516102d2919061255c565b60405180910390f35b6102e361077a565b6040516102f09190612190565b60405180910390f35b6103016107a3565b60405161030e91906122da565b60405180910390f35b610331600480360381019061032c9190611dc6565b610835565b005b61034d60048036038101906103489190611dc6565b610924565b60405161035a91906121ab565b60405180910390f35b61037d60048036038101906103789190611dc6565b61099b565b60405161038a91906121ab565b60405180910390f35b6103ad60048036038101906103a89190611d28565b6109be565b005b6103c960048036038101906103c49190611c9d565b610b00565b6040516103d6919061255c565b60405180910390f35b6103f960048036038101906103f49190611c74565b610b87565b005b60606004805461040a906126d5565b80601f0160208091040260200160405190810160405280929190818152602001828054610436906126d5565b80156104835780601f1061045857610100808354040283529160200191610483565b820191906000526020600020905b81548152906001019060200180831161046657829003601f168201915b5050505050905090565b600080610498610c0b565b90506104a5818585610c13565b600191505092915050565b6000600354905090565b6000806104c5610c0b565b90506104d2858285610dde565b6104dd858585610e6a565b60019150509392505050565b60006012905090565b60006104fc6110ee565b905090565b60008061050c610c0b565b905061052d81858561051e8589610b00565b61052891906125b9565b610c13565b600191505092915050565b60086000610544610c0b565b73ffffffffffffffffffffffffffffffffffffffff1673ffffffffffffffffffffffffffffffffffffffff16815260200190815260200160002060009054906101000a900460ff166105cb576040517f08c379a00000000000000000000000000000000000000000000000000000000081526004016105c29061247c565b60405180910390fd5b6105d58282611208565b8173ffffffffffffffffffffffffffffffffffffffff167f0f6798a560793a54c3bcfe86a93cde1e73087d944c0ea20544137d41213968858260405161061b919061255c565b60405180910390a25050565b61062f611369565b6001600860008373ffffffffffffffffffffffffffffffffffffffff1673ffffffffffffffffffffffffffffffffffffffff16815260200190815260200160002060006101000a81548160ff0219169083151502179055508073ffffffffffffffffffffffffffffffffffffffff167f0c2515f25186df02132ad46f01e062c3b8982c8de57fa2b1b0a280d8e810f39b60405160405180910390a250565b6000600160008373ffffffffffffffffffffffffffffffffffffffff1673ffffffffffffffffffffffffffffffffffffffff168152602001908152602001600020549050919050565b61071e611369565b61072860006113e7565b565b6000610773600660008473ffffffffffffffffffffffffffffffffffffffff1673ffffffffffffffffffffffffffffffffffffffff1681526020019081526020016000206114ab565b9050919050565b60008060009054906101000a900473ffffffffffffffffffffffffffffffffffffffff16905090565b6060600580546107b2906126d5565b80601f01602080910402602001604051908101604052809291908181526020018280546107de906126d5565b801561082b5780601f106108005761010080835404028352916020019161082b565b820191906000526020600020905b81548152906001019060200180831161080e57829003601f168201915b5050505050905090565b60086000610841610c0b565b73ffffffffffffffffffffffffffffffffffffffff1673ffffffffffffffffffffffffffffffffffffffff16815260200190815260200160002060009054906101000a900460ff166108c8576040517f08c379a00000000000000000000000000000000000000000000000000000000081526004016108bf9061247c565b60405180910390fd5b6108d282826114b9565b8173ffffffffffffffffffffffffffffffffffffffff167fcc16f5dbb4873280815c1ee09dbd06736cffcc184412cf7a71a0fdb75d397ca582604051610918919061255c565b60405180910390a25050565b60008061092f610c0b565b9050600061093d8286610b00565b905083811015610982576040517f08c379a00000000000000000000000000000000000000000000000000000000081526004016109799061251c565b60405180910390fd5b61098f8286868403610c13565b60019250505092915050565b6000806109a6610c0b565b90506109b3818585610e6a565b600191505092915050565b83421115610a01576040517f08c379a00000000000000000000000000000000000000000000000000000000081526004016109f8906123dc565b60405180910390fd5b60007f6e71edae12b1b97f4d1f60370fef10105fa2faae0126114a169c64845d6126c9888888610a308c611692565b89604051602001610a46969594939291906121e1565b6040516020818303038152906040528051906020012090506000610a69826116f0565b90506000610a798287878761170a565b90508973ffffffffffffffffffffffffffffffffffffffff168173ffffffffffffffffffffffffffffffffffffffff1614610ae9576040517f08c379a0000000000000000000000000000000000000000000000000000000008152600401610ae09061245c565b60405180910390fd5b610af48a8a8a610c13565b50505050505050505050565b6000600260008473ffffffffffffffffffffffffffffffffffffffff1673ffffffffffffffffffffffffffffffffffffffff16815260200190815260200160002060008373ffffffffffffffffffffffffffffffffffffffff1673ffffffffffffffffffffffffffffffffffffffff16815260200190815260200160002054905092915050565b610b8f611369565b600073ffffffffffffffffffffffffffffffffffffffff168173ffffffffffffffffffffffffffffffffffffffff161415610bff576040517f08c379a0000000000000000000000000000000000000000000000000000000008152600401610bf69061237c565b60405180910390fd5b610c08816113e7565b50565b600033905090565b600073ffffffffffffffffffffffffffffffffffffffff168373ffffffffffffffffffffffffffffffffffffffff161415610c83576040517f08c379a0000000000000000000000000000000000000000000000000000000008152600401610c7a906124fc565b60405180910390fd5b600073ffffffffffffffffffffffffffffffffffffffff168273ffffffffffffffffffffffffffffffffffffffff161415610cf3576040517f08c379a0000000000000000000000000000000000000000000000000000000008152600401610cea9061239c565b60405180910390fd5b80600260008573ffffffffffffffffffffffffffffffffffffffff1673ffffffffffffffffffffffffffffffffffffffff16815260200190815260200160002060008473ffffffffffffffffffffffffffffffffffffffff1673ffffffffffffffffffffffffffffffffffffffff168152602001908152602001600020819055508173ffffffffffffffffffffffffffffffffffffffff168373ffffffffffffffffffffffffffffffffffffffff167f8c5be1e5ebec7d5bd14f71427d1e84f3dd0314c0f7b2291e5b200ac8c7c3b92583604051610dd1919061255c565b60405180910390a3505050565b6000610dea8484610b00565b90507fffffffffffffffffffffffffffffffffffffffffffffffffffffffffffffffff8114610e645781811015610e56576040517f08c379a0000000000000000000000000000000000000000000000000000000008152600401610e4d906123bc565b60405180910390fd5b610e638484848403610c13565b5b50505050565b600073ffffffffffffffffffffffffffffffffffffffff168373ffffffffffffffffffffffffffffffffffffffff161415610eda576040517f08c379a0000000000000000000000000000000000000000000000000000000008152600401610ed1906124dc565b60405180910390fd5b600073ffffffffffffffffffffffffffffffffffffffff168273ffffffffffffffffffffffffffffffffffffffff161415610f4a576040517f08c379a0000000000000000000000000000000000000000000000000000000008152600401610f419061231c565b60405180910390fd5b610f55838383611735565b6000600160008573ffffffffffffffffffffffffffffffffffffffff1673ffffffffffffffffffffffffffffffffffffffff16815260200190815260200160002054905081811015610fdc576040517f08c379a0000000000000000000000000000000000000000000000000000000008152600401610fd3906123fc565b60405180910390fd5b818103600160008673ffffffffffffffffffffffffffffffffffffffff1673ffffffffffffffffffffffffffffffffffffffff1681526020019081526020016000208190555081600160008573ffffffffffffffffffffffffffffffffffffffff1673ffffffffffffffffffffffffffffffffffffffff168152602001908152602001600020600082825461107191906125b9565b925050819055508273ffffffffffffffffffffffffffffffffffffffff168473ffffffffffffffffffffffffffffffffffffffff167fddf252ad1be2c89b69c2b068fc378daa952ba7f163c4a11628f55a4df523b3ef846040516110d5919061255c565b60405180910390a36110e884848461173a565b50505050565b60007f000000000000000000000000000000000000000000000000000000000000000073ffffffffffffffffffffffffffffffffffffffff163073ffffffffffffffffffffffffffffffffffffffff1614801561116a57507f000000000000000000000000000000000000000000000000000000000000000046145b15611197577f00000000000000000000000000000000000000000000000000000000000000009050611205565b6112027f00000000000000000000000000000000000000000000000000000000000000007f00000000000000000000000000000000000000000000000000000000000000007f000000000000000000000000000000000000000000000000000000000000000061173f565b90505b90565b600073ffffffffffffffffffffffffffffffffffffffff168273ffffffffffffffffffffffffffffffffffffffff161415611278576040517f08c379a000000000000000000000000000000000000000000000000000000000815260040161126f9061253c565b60405180910390fd5b61128460008383611735565b806003600082825461129691906125b9565b9250508190555080600160008473ffffffffffffffffffffffffffffffffffffffff1673ffffffffffffffffffffffffffffffffffffffff16815260200190815260200160002060008282546112ec91906125b9565b925050819055508173ffffffffffffffffffffffffffffffffffffffff16600073ffffffffffffffffffffffffffffffffffffffff167fddf252ad1be2c89b69c2b068fc378daa952ba7f163c4a11628f55a4df523b3ef83604051611351919061255c565b60405180910390a36113656000838361173a565b5050565b611371610c0b565b73ffffffffffffffffffffffffffffffffffffffff1661138f61077a565b73ffffffffffffffffffffffffffffffffffffffff16146113e5576040517f08c379a00000000000000000000000000000000000000000000000000000000081526004016113dc9061249c565b60405180910390fd5b565b60008060009054906101000a900473ffffffffffffffffffffffffffffffffffffffff169050816000806101000a81548173ffffffffffffffffffffffffffffffffffffffff021916908373ffffffffffffffffffffffffffffffffffffffff1602179055508173ffffffffffffffffffffffffffffffffffffffff168173ffffffffffffffffffffffffffffffffffffffff167f8be0079c531659141344cd1fd0a4f28419497f9722a3daafe3b4186f6b6457e060405160405180910390a35050565b600081600001549050919050565b600073ffffffffffffffffffffffffffffffffffffffff168273ffffffffffffffffffffffffffffffffffffffff161415611529576040517f08c379a0000000000000000000000000000000000000000000000000000000008152600401611520906124bc565b60405180910390fd5b61153582600083611735565b6000600160008473ffffffffffffffffffffffffffffffffffffffff1673ffffffffffffffffffffffffffffffffffffffff168152602001908152602001600020549050818110156115bc576040517f08c379a00000000000000000000000000000000000000000000000000000000081526004016115b39061233c565b60405180910390fd5b818103600160008573ffffffffffffffffffffffffffffffffffffffff1673ffffffffffffffffffffffffffffffffffffffff168152602001908152602001600020819055508160036000828254611614919061260f565b92505081905550600073ffffffffffffffffffffffffffffffffffffffff168373ffffffffffffffffffffffffffffffffffffffff167fddf252ad1be2c89b69c2b068fc378daa952ba7f163c4a11628f55a4df523b3ef84604051611679919061255c565b60405180910390a361168d8360008461173a565b505050565b600080600660008473ffffffffffffffffffffffffffffffffffffffff1673ffffffffffffffffffffffffffffffffffffffff16815260200190815260200160002090506116df816114ab565b91506116ea81611779565b50919050565b60006117036116fd6110ee565b8361178f565b9050919050565b600080600061171b878787876117c2565b91509150611728816118cf565b8192505050949350505050565b505050565b505050565b6000838383463060405160200161175a959493929190612242565b6040516020818303038152906040528051906020012090509392505050565b6001816000016000828254019250508190555050565b600082826040516020016117a4929190612159565b60405160208183030381529060405280519060200120905092915050565b6000807f7fffffffffffffffffffffffffffffff5d576e7357a4501ddfe92f46681b20a08360001c11156117fd5760006003915091506118c6565b601b8560ff16141580156118155750601c8560ff1614155b156118275760006004915091506118c6565b60006001878787876040516000815260200160405260405161184c9493929190612295565b6020604051602081039080840390855afa15801561186e573d6000803e3d6000fd5b505050602060405103519050600073ffffffffffffffffffffffffffffffffffffffff168173ffffffffffffffffffffffffffffffffffffffff1614156118bd576000600192509250506118c6565b80600092509250505b94509492505050565b60006004811115611909577f4e487b7100000000000000000000000000000000000000000000000000000000600052602160045260246000fd5b816004811115611942577f4e487b7100000000000000000000000000000000000000000000000000000000600052602160045260246000fd5b141561194d57611c1d565b60016004811115611987577f4e487b7100000000000000000000000000000000000000000000000000000000600052602160045260246000fd5b8160048111156119c0577f4e487b7100000000000000000000000000000000000000000000000000000000600052602160045260246000fd5b1415611a01576040517f08c379a00000000000000000000000000000000000000000000000000000000081526004016119f8906122fc565b60405180910390fd5b60026004811115611a3b577f4e487b7100000000000000000000000000000000000000000000000000000000600052602160045260246000fd5b816004811115611a74577f4e487b7100000000000000000000000000000000000000000000000000000000600052602160045260246000fd5b1415611ab5576040517f08c379a0000000000000000000000000000000000000000000000000000000008152600401611aac9061235c565b60405180910390fd5b60036004811115611aef577f4e487b7100000000000000000000000000000000000000000000000000000000600052602160045260246000fd5b816004811115611b28577f4e487b7100000000000000000000000000000000000000000000000000000000600052602160045260246000fd5b1415611b69576040517f08c379a0000000000000000000000000000000000000000000000000000000008152600401611b609061241c565b60405180910390fd5b600480811115611ba2577f4e487b7100000000000000000000000000000000000000000000000000000000600052602160045260246000fd5b816004811115611bdb577f4e487b7100000000000000000000000000000000000000000000000000000000600052602160045260246000fd5b1415611c1c576040517f08c379a0000000000000000000000000000000000000000000000000000000008152600401611c139061243c565b60405180910390fd5b5b50565b600081359050611c2f81612c56565b92915050565b600081359050611c4481612c6d565b92915050565b600081359050611c5981612c84565b92915050565b600081359050611c6e81612c9b565b92915050565b600060208284031215611c8657600080fd5b6000611c9484828501611c20565b91505092915050565b60008060408385031215611cb057600080fd5b6000611cbe85828601611c20565b9250506020611ccf85828601611c20565b9150509250929050565b600080600060608486031215611cee57600080fd5b6000611cfc86828701611c20565b9350506020611d0d86828701611c20565b9250506040611d1e86828701611c4a565b9150509250925092565b600080600080600080600060e0888a031215611d4357600080fd5b6000611d518a828b01611c20565b9750506020611d628a828b01611c20565b9650506040611d738a828b01611c4a565b9550506060611d848a828b01611c4a565b9450506080611d958a828b01611c5f565b93505060a0611da68a828b01611c35565b92505060c0611db78a828b01611c35565b91505092959891949750929550565b60008060408385031215611dd957600080fd5b6000611de785828601611c20565b9250506020611df885828601611c4a565b9150509250929050565b611e0b81612643565b82525050565b611e1a81612655565b82525050565b611e2981612661565b82525050565b611e40611e3b82612661565b612707565b82525050565b6000611e5182612592565b611e5b818561259d565b9350611e6b8185602086016126a2565b611e748161276f565b840191505092915050565b6000611e8c60188361259d565b9150611e9782612780565b602082019050919050565b6000611eaf60238361259d565b9150611eba826127a9565b604082019050919050565b6000611ed260228361259d565b9150611edd826127f8565b604082019050919050565b6000611ef5601f8361259d565b9150611f0082612847565b602082019050919050565b6000611f1860268361259d565b9150611f2382612870565b604082019050919050565b6000611f3b60228361259d565b9150611f46826128bf565b604082019050919050565b6000611f5e6002836125ae565b9150611f698261290e565b600282019050919050565b6000611f81601d8361259d565b9150611f8c82612937565b602082019050919050565b6000611fa4601d8361259d565b9150611faf82612960565b602082019050919050565b6000611fc760268361259d565b9150611fd282612989565b604082019050919050565b6000611fea60228361259d565b9150611ff5826129d8565b604082019050919050565b600061200d60228361259d565b915061201882612a27565b604082019050919050565b6000612030601e8361259d565b915061203b82612a76565b602082019050919050565b600061205360118361259d565b915061205e82612a9f565b602082019050919050565b600061207660208361259d565b915061208182612ac8565b602082019050919050565b600061209960218361259d565b91506120a482612af1565b604082019050919050565b60006120bc60258361259d565b91506120c782612b40565b604082019050919050565b60006120df60248361259d565b91506120ea82612b8f565b604082019050919050565b600061210260258361259d565b915061210d82612bde565b604082019050919050565b6000612125601f8361259d565b915061213082612c2d565b602082019050919050565b6121448161268b565b82525050565b61215381612695565b82525050565b600061216482611f51565b91506121708285611e2f565b6020820191506121808284611e2f565b6020820191508190509392505050565b60006020820190506121a56000830184611e02565b92915050565b60006020820190506121c06000830184611e11565b92915050565b60006020820190506121db6000830184611e20565b92915050565b600060c0820190506121f66000830189611e20565b6122036020830188611e02565b6122106040830187611e02565b61221d606083018661213b565b61222a608083018561213b565b61223760a083018461213b565b979650505050505050565b600060a0820190506122576000830188611e20565b6122646020830187611e20565b6122716040830186611e20565b61227e606083018561213b565b61228b6080830184611e02565b9695505050505050565b60006080820190506122aa6000830187611e20565b6122b7602083018661214a565b6122c46040830185611e20565b6122d16060830184611e20565b95945050505050565b600060208201905081810360008301526122f48184611e46565b905092915050565b6000602082019050818103600083015261231581611e7f565b9050919050565b6000602082019050818103600083015261233581611ea2565b9050919050565b6000602082019050818103600083015261235581611ec5565b9050919050565b6000602082019050818103600083015261237581611ee8565b9050919050565b6000602082019050818103600083015261239581611f0b565b9050919050565b600060208201905081810360008301526123b581611f2e565b9050919050565b600060208201905081810360008301526123d581611f74565b9050919050565b600060208201905081810360008301526123f581611f97565b9050919050565b6000602082019050818103600083015261241581611fba565b9050919050565b6000602082019050818103600083015261243581611fdd565b9050919050565b6000602082019050818103600083015261245581612000565b9050919050565b6000602082019050818103600083015261247581612023565b9050919050565b6000602082019050818103600083015261249581612046565b9050919050565b600060208201905081810360008301526124b581612069565b9050919050565b600060208201905081810360008301526124d58161208c565b9050919050565b600060208201905081810360008301526124f5816120af565b9050919050565b60006020820190508181036000830152612515816120d2565b9050919050565b60006020820190508181036000830152612535816120f5565b9050919050565b6000602082019050818103600083015261255581612118565b9050919050565b6000602082019050612571600083018461213b565b92915050565b600060208201905061258c600083018461214a565b92915050565b600081519050919050565b600082825260208201905092915050565b600081905092915050565b60006125c48261268b565b91506125cf8361268b565b9250827fffffffffffffffffffffffffffffffffffffffffffffffffffffffffffffffff0382111561260457612603612711565b5b828201905092915050565b600061261a8261268b565b91506126258361268b565b92508282101561263857612637612711565b5b828203905092915050565b600061264e8261266b565b9050919050565b60008115159050919050565b6000819050919050565b600073ffffffffffffffffffffffffffffffffffffffff82169050919050565b6000819050919050565b600060ff82169050919050565b60005b838110156126c05780820151818401526020810190506126a5565b838111156126cf576000848401525b50505050565b600060028204905060018216806126ed57607f821691505b6020821081141561270157612700612740565b5b50919050565b6000819050919050565b7f4e487b7100000000000000000000000000000000000000000000000000000000600052601160045260246000fd5b7f4e487b7100000000000000000000000000000000000000000000000000000000600052602260045260246000fd5b6000601f19601f8301169050919050565b7f45434453413a20696e76616c6964207369676e61747572650000000000000000600082015250565b7f45524332303a207472616e7366657220746f20746865207a65726f206164647260008201527f6573730000000000000000000000000000000000000000000000000000000000602082015250565b7f45524332303a206275726e20616d6f756e7420657863656564732062616c616e60008201527f6365000000000000000000000000000000000000000000000000000000000000602082015250565b7f45434453413a20696e76616c6964207369676e6174757265206c656e67746800600082015250565b7f4f776e61626c653a206e6577206f776e657220697320746865207a65726f206160008201527f6464726573730000000000000000000000000000000000000000000000000000602082015250565b7f45524332303a20617070726f766520746f20746865207a65726f20616464726560008201527f7373000000000000000000000000000000000000000000000000000000000000602082015250565b7f1901000000000000000000000000000000000000000000000000000000000000600082015250565b7f45524332303a20696e73756666696369656e7420616c6c6f77616e6365000000600082015250565b7f45524332305065726d69743a206578706972656420646561646c696e65000000600082015250565b7f45524332303a207472616e7366657220616d6f756e742065786365656473206260008201527f616c616e63650000000000000000000000000000000000000000000000000000602082015250565b7f45434453413a20696e76616c6964207369676e6174757265202773272076616c60008201527f7565000000000000000000000000000000000000000000000000000000000000602082015250565b7f45434453413a20696e76616c6964207369676e6174757265202776272076616c60008201527f7565000000000000000000000000000000000000000000000000000000000000602082015250565b7f45524332305065726d69743a20696e76616c6964207369676e61747572650000600082015250565b7f44656d753a206e6f7420616c6c6f776564000000000000000000000000000000600082015250565b7f4f776e61626c653a2063616c6c6572206973206e6f7420746865206f776e6572600082015250565b7f45524332303a206275726e2066726f6d20746865207a65726f2061646472657360008201527f7300000000000000000000000000000000000000000000000000000000000000602082015250565b7f45524332303a207472616e736665722066726f6d20746865207a65726f20616460008201527f6472657373000000000000000000000000000000000000000000000000000000602082015250565b7f45524332303a20617070726f76652066726f6d20746865207a65726f2061646460008201527f7265737300000000000000000000000000000000000000000000000000000000602082015250565b7f45524332303a2064656372656173656420616c6c6f77616e63652062656c6f7760008201527f207a65726f000000000000000000000000000000000000000000000000000000602082015250565b7f45524332303a206d696e7420746f20746865207a65726f206164647265737300600082015250565b612c5f81612643565b8114612c6a57600080fd5b50565b612c7681612661565b8114612c8157600080fd5b50565b612c8d8161268b565b8114612c9857600080fd5b50565b612ca481612695565b8114612caf57600080fd5b5056fea26469706673582212203a00b603273664119f09c032557afeb4252ea232395bc129b6120e53e12f8d3e64736f6c63430008040033",
  "linkReferences": {},
  "deployedLinkReferences": {}
}