{
  "_format": "hh-sol-artifact-1",
  "contractName": "Demu",
  "sourceName": "contracts/Demu.sol",
  "abi": [
    {
      "inputs": [
        {
          "internalType": "address",
          "name": "oracle_",
          "type": "address"
        },
        {
          "internalType": "address",
          "name": "collector_",
          "type": "address"
        },
        {
          "internalType": "address[]",
          "name": "assets_",
          "type": "address[]"
        }
      ],
      "stateMutability": "nonpayable",
      "type": "constructor"
    },
    {
      "anonymous": false,
      "inputs": [
        {
          "indexed": true,
          "internalType": "address",
          "name": "owner",
          "type": "address"
        },
        {
          "indexed": true,
          "internalType": "address",
          "name": "spender",
          "type": "address"
        },
        {
          "indexed": false,
          "internalType": "uint256",
          "name": "value",
          "type": "uint256"
        }
      ],
      "name": "Approval",
      "type": "event"
    },
    {
      "anonymous": false,
      "inputs": [
        {
          "indexed": false,
          "internalType": "address",
          "name": "asset",
          "type": "address"
        }
      ],
      "name": "AssetRemoved",
      "type": "event"
    },
    {
      "anonymous": false,
      "inputs": [
        {
          "indexed": true,
          "internalType": "address",
          "name": "src",
          "type": "address"
        },
        {
          "indexed": false,
          "internalType": "uint256",
          "name": "amt",
          "type": "uint256"
        }
      ],
      "name": "Burn",
      "type": "event"
    },
    {
      "anonymous": false,
      "inputs": [
        {
          "indexed": false,
          "internalType": "address",
          "name": "newCollector",
          "type": "address"
        }
      ],
      "name": "FeesCollector",
      "type": "event"
    },
    {
      "anonymous": false,
      "inputs": [
        {
          "indexed": true,
          "internalType": "address",
          "name": "dst",
          "type": "address"
        },
        {
          "indexed": true,
          "internalType": "address",
          "name": "src",
          "type": "address"
        },
        {
          "indexed": false,
          "internalType": "address",
          "name": "asset",
          "type": "address"
        },
        {
          "indexed": false,
          "internalType": "uint256",
          "name": "amt",
          "type": "uint256"
        }
      ],
      "name": "Liquidate",
      "type": "event"
    },
    {
      "anonymous": false,
      "inputs": [
        {
          "indexed": true,
          "internalType": "address",
          "name": "dst",
          "type": "address"
        },
        {
          "indexed": false,
          "internalType": "uint256",
          "name": "amt",
          "type": "uint256"
        }
      ],
      "name": "Mint",
      "type": "event"
    },
    {
      "anonymous": false,
      "inputs": [
        {
          "indexed": false,
          "internalType": "address",
          "name": "asset",
          "type": "address"
        }
      ],
      "name": "NewAsset",
      "type": "event"
    },
    {
      "anonymous": false,
      "inputs": [
        {
          "indexed": true,
          "internalType": "address",
          "name": "previousOwner",
          "type": "address"
        },
        {
          "indexed": true,
          "internalType": "address",
          "name": "newOwner",
          "type": "address"
        }
      ],
      "name": "OwnershipTransferred",
      "type": "event"
    },
    {
      "anonymous": false,
      "inputs": [
        {
          "indexed": false,
          "internalType": "address",
          "name": "newOracle",
          "type": "address"
        }
      ],
      "name": "PriceOracle",
      "type": "event"
    },
    {
      "anonymous": false,
      "inputs": [
        {
          "indexed": true,
          "internalType": "address",
          "name": "src",
          "type": "address"
        },
        {
          "indexed": false,
          "internalType": "uint256",
          "name": "amt",
          "type": "uint256"
        }
      ],
      "name": "Supply",
      "type": "event"
    },
    {
      "anonymous": false,
      "inputs": [
        {
          "indexed": true,
          "internalType": "address",
          "name": "from",
          "type": "address"
        },
        {
          "indexed": true,
          "internalType": "address",
          "name": "to",
          "type": "address"
        },
        {
          "indexed": false,
          "internalType": "uint256",
          "name": "value",
          "type": "uint256"
        }
      ],
      "name": "Transfer",
      "type": "event"
    },
    {
      "anonymous": false,
      "inputs": [
        {
          "indexed": true,
          "internalType": "address",
          "name": "dst",
          "type": "address"
        },
        {
          "indexed": false,
          "internalType": "uint256",
          "name": "amt",
          "type": "uint256"
        }
      ],
      "name": "Withdraw",
      "type": "event"
    },
    {
      "inputs": [],
      "name": "DOMAIN_SEPARATOR",
      "outputs": [
        {
          "internalType": "bytes32",
          "name": "",
          "type": "bytes32"
        }
      ],
      "stateMutability": "view",
      "type": "function"
    },
    {
      "inputs": [
        {
          "internalType": "address",
          "name": "owner",
          "type": "address"
        },
        {
          "internalType": "address",
          "name": "spender",
          "type": "address"
        }
      ],
      "name": "allowance",
      "outputs": [
        {
          "internalType": "uint256",
          "name": "",
          "type": "uint256"
        }
      ],
      "stateMutability": "view",
      "type": "function"
    },
    {
      "inputs": [
        {
          "internalType": "address",
          "name": "spender",
          "type": "address"
        },
        {
          "internalType": "uint256",
          "name": "amount",
          "type": "uint256"
        }
      ],
      "name": "approve",
      "outputs": [
        {
          "internalType": "bool",
          "name": "",
          "type": "bool"
        }
      ],
      "stateMutability": "nonpayable",
      "type": "function"
    },
    {
      "inputs": [
        {
          "internalType": "address",
          "name": "asset",
          "type": "address"
        }
      ],
      "name": "assetPrice",
      "outputs": [
        {
          "internalType": "uint256",
          "name": "",
          "type": "uint256"
        }
      ],
      "stateMutability": "view",
      "type": "function"
    },
    {
      "inputs": [
        {
          "internalType": "address",
          "name": "account",
          "type": "address"
        }
      ],
      "name": "balanceOf",
      "outputs": [
        {
          "internalType": "uint256",
          "name": "",
          "type": "uint256"
        }
      ],
      "stateMutability": "view",
      "type": "function"
    },
    {
      "inputs": [],
      "name": "bpsDenominator",
      "outputs": [
        {
          "internalType": "uint256",
          "name": "",
          "type": "uint256"
        }
      ],
      "stateMutability": "pure",
      "type": "function"
    },
    {
      "inputs": [
        {
          "internalType": "uint256",
          "name": "amount",
          "type": "uint256"
        }
      ],
      "name": "burn",
      "outputs": [],
      "stateMutability": "nonpayable",
      "type": "function"
    },
    {
      "inputs": [
        {
          "internalType": "bytes",
          "name": "",
          "type": "bytes"
        }
      ],
      "name": "checkUpkeep",
      "outputs": [
        {
          "internalType": "bool",
          "name": "upkeepNeeded",
          "type": "bool"
        },
        {
          "internalType": "bytes",
          "name": "performData",
          "type": "bytes"
        }
      ],
      "stateMutability": "view",
      "type": "function"
    },
    {
      "inputs": [
        {
          "internalType": "address",
          "name": "account",
          "type": "address"
        }
      ],
      "name": "collateral",
      "outputs": [
        {
          "internalType": "uint256",
          "name": "value",
          "type": "uint256"
        }
      ],
      "stateMutability": "view",
      "type": "function"
    },
    {
      "inputs": [
        {
          "internalType": "address",
          "name": "account",
          "type": "address"
        }
      ],
      "name": "currentDebt",
      "outputs": [
        {
          "internalType": "uint256",
          "name": "",
          "type": "uint256"
        }
      ],
      "stateMutability": "view",
      "type": "function"
    },
    {
      "inputs": [],
      "name": "decimals",
      "outputs": [
        {
          "internalType": "uint8",
          "name": "",
          "type": "uint8"
        }
      ],
      "stateMutability": "view",
      "type": "function"
    },
    {
      "inputs": [
        {
          "internalType": "address",
          "name": "spender",
          "type": "address"
        },
        {
          "internalType": "uint256",
          "name": "subtractedValue",
          "type": "uint256"
        }
      ],
      "name": "decreaseAllowance",
      "outputs": [
        {
          "internalType": "bool",
          "name": "",
          "type": "bool"
        }
      ],
      "stateMutability": "nonpayable",
      "type": "function"
    },
    {
      "inputs": [],
      "name": "demuPrice",
      "outputs": [
        {
          "internalType": "uint256",
          "name": "",
          "type": "uint256"
        }
      ],
      "stateMutability": "view",
      "type": "function"
    },
    {
      "inputs": [],
      "name": "feesCollector",
      "outputs": [
        {
          "internalType": "address",
          "name": "",
          "type": "address"
        }
      ],
      "stateMutability": "view",
      "type": "function"
    },
    {
      "inputs": [
        {
          "internalType": "address",
          "name": "token",
          "type": "address"
        },
        {
          "internalType": "uint256",
          "name": "amount",
          "type": "uint256"
        }
      ],
      "name": "flashFee",
      "outputs": [
        {
          "internalType": "uint256",
          "name": "",
          "type": "uint256"
        }
      ],
      "stateMutability": "view",
      "type": "function"
    },
    {
      "inputs": [
        {
          "internalType": "contract IERC3156FlashBorrower",
          "name": "receiver",
          "type": "address"
        },
        {
          "internalType": "address",
          "name": "token",
          "type": "address"
        },
        {
          "internalType": "uint256",
          "name": "amount",
          "type": "uint256"
        },
        {
          "internalType": "bytes",
          "name": "data",
          "type": "bytes"
        }
      ],
      "name": "flashLoan",
      "outputs": [
        {
          "internalType": "bool",
          "name": "",
          "type": "bool"
        }
      ],
      "stateMutability": "nonpayable",
      "type": "function"
    },
    {
      "inputs": [
        {
          "internalType": "contract IERC3156FlashBorrower",
          "name": "receiver",
          "type": "address"
        },
        {
          "internalType": "uint256",
          "name": "amount",
          "type": "uint256"
        },
        {
          "internalType": "bytes",
          "name": "data",
          "type": "bytes"
        }
      ],
      "name": "flashMint",
      "outputs": [
        {
          "internalType": "bool",
          "name": "",
          "type": "bool"
        }
      ],
      "stateMutability": "nonpayable",
      "type": "function"
    },
    {
      "inputs": [
        {
          "internalType": "address",
          "name": "spender",
          "type": "address"
        },
        {
          "internalType": "uint256",
          "name": "addedValue",
          "type": "uint256"
        }
      ],
      "name": "increaseAllowance",
      "outputs": [
        {
          "internalType": "bool",
          "name": "",
          "type": "bool"
        }
      ],
      "stateMutability": "nonpayable",
      "type": "function"
    },
    {
      "inputs": [
        {
          "components": [
            {
              "internalType": "address",
              "name": "account",
              "type": "address"
            },
            {
              "internalType": "address[]",
              "name": "assets",
              "type": "address[]"
            },
            {
              "internalType": "address",
              "name": "liquidator",
              "type": "address"
            }
          ],
          "internalType": "struct Demu.LiquidationParams",
          "name": "params",
          "type": "tuple"
        }
      ],
      "name": "liquidate",
      "outputs": [],
      "stateMutability": "nonpayable",
      "type": "function"
    },
    {
      "inputs": [
        {
          "internalType": "address",
          "name": "account",
          "type": "address"
        }
      ],
      "name": "maxDebt",
      "outputs": [
        {
          "internalType": "uint256",
          "name": "value",
          "type": "uint256"
        }
      ],
      "stateMutability": "view",
      "type": "function"
    },
    {
      "inputs": [
        {
          "internalType": "address",
          "name": "token",
          "type": "address"
        }
      ],
      "name": "maxFlashLoan",
      "outputs": [
        {
          "internalType": "uint256",
          "name": "",
          "type": "uint256"
        }
      ],
      "stateMutability": "view",
      "type": "function"
    },
    {
      "inputs": [
        {
          "internalType": "address",
          "name": "account",
          "type": "address"
        }
      ],
      "name": "maxMintable",
      "outputs": [
        {
          "internalType": "uint256",
          "name": "value",
          "type": "uint256"
        }
      ],
      "stateMutability": "view",
      "type": "function"
    },
    {
      "inputs": [
        {
          "internalType": "uint256",
          "name": "amount",
          "type": "uint256"
        }
      ],
      "name": "mint",
      "outputs": [],
      "stateMutability": "nonpayable",
      "type": "function"
    },
    {
      "inputs": [
        {
          "internalType": "bytes[]",
          "name": "data",
          "type": "bytes[]"
        }
      ],
      "name": "multicall",
      "outputs": [
        {
          "internalType": "bytes[]",
          "name": "results",
          "type": "bytes[]"
        }
      ],
      "stateMutability": "nonpayable",
      "type": "function"
    },
    {
      "inputs": [],
      "name": "name",
      "outputs": [
        {
          "internalType": "string",
          "name": "",
          "type": "string"
        }
      ],
      "stateMutability": "view",
      "type": "function"
    },
    {
      "inputs": [
        {
          "internalType": "address",
          "name": "owner",
          "type": "address"
        }
      ],
      "name": "nonces",
      "outputs": [
        {
          "internalType": "uint256",
          "name": "",
          "type": "uint256"
        }
      ],
      "stateMutability": "view",
      "type": "function"
    },
    {
      "inputs": [],
      "name": "oracle",
      "outputs": [
        {
          "internalType": "address",
          "name": "",
          "type": "address"
        }
      ],
      "stateMutability": "view",
      "type": "function"
    },
    {
      "inputs": [],
      "name": "owner",
      "outputs": [
        {
          "internalType": "address",
          "name": "",
          "type": "address"
        }
      ],
      "stateMutability": "view",
      "type": "function"
    },
    {
      "inputs": [
        {
          "internalType": "bytes",
          "name": "performData",
          "type": "bytes"
        }
      ],
      "name": "performUpkeep",
      "outputs": [],
      "stateMutability": "nonpayable",
      "type": "function"
    },
    {
      "inputs": [
        {
          "internalType": "address",
          "name": "owner",
          "type": "address"
        },
        {
          "internalType": "address",
          "name": "spender",
          "type": "address"
        },
        {
          "internalType": "uint256",
          "name": "value",
          "type": "uint256"
        },
        {
          "internalType": "uint256",
          "name": "deadline",
          "type": "uint256"
        },
        {
          "internalType": "uint8",
          "name": "v",
          "type": "uint8"
        },
        {
          "internalType": "bytes32",
          "name": "r",
          "type": "bytes32"
        },
        {
          "internalType": "bytes32",
          "name": "s",
          "type": "bytes32"
        }
      ],
      "name": "permit",
      "outputs": [],
      "stateMutability": "nonpayable",
      "type": "function"
    },
    {
      "inputs": [
        {
          "internalType": "address",
          "name": "asset",
          "type": "address"
        }
      ],
      "name": "removeSupportedAsset",
      "outputs": [],
      "stateMutability": "nonpayable",
      "type": "function"
    },
    {
      "inputs": [],
      "name": "renounceOwnership",
      "outputs": [],
      "stateMutability": "nonpayable",
      "type": "function"
    },
    {
      "inputs": [
        {
          "internalType": "address",
          "name": "newCollector",
          "type": "address"
        }
      ],
      "name": "setFeesCollector",
      "outputs": [],
      "stateMutability": "nonpayable",
      "type": "function"
    },
    {
      "inputs": [
        {
          "internalType": "address",
          "name": "newOracle",
          "type": "address"
        }
      ],
      "name": "setPriceOracle",
      "outputs": [],
      "stateMutability": "nonpayable",
      "type": "function"
    },
    {
      "inputs": [
        {
          "internalType": "address",
          "name": "account",
          "type": "address"
        },
        {
          "internalType": "address",
          "name": "asset",
          "type": "address"
        }
      ],
      "name": "supplied",
      "outputs": [
        {
          "internalType": "uint256",
          "name": "",
          "type": "uint256"
        }
      ],
      "stateMutability": "view",
      "type": "function"
    },
    {
      "inputs": [
        {
          "internalType": "address",
          "name": "asset",
          "type": "address"
        },
        {
          "internalType": "uint256",
          "name": "amount",
          "type": "uint256"
        }
      ],
      "name": "supply",
      "outputs": [],
      "stateMutability": "nonpayable",
      "type": "function"
    },
    {
      "inputs": [],
      "name": "supplyNative",
      "outputs": [],
      "stateMutability": "payable",
      "type": "function"
    },
    {
      "inputs": [
        {
          "internalType": "address",
          "name": "asset",
          "type": "address"
        },
        {
          "internalType": "uint256",
          "name": "amount",
          "type": "uint256"
        },
        {
          "internalType": "uint256",
          "name": "deadline",
          "type": "uint256"
        },
        {
          "internalType": "uint8",
          "name": "v",
          "type": "uint8"
        },
        {
          "internalType": "bytes32",
          "name": "r",
          "type": "bytes32"
        },
        {
          "internalType": "bytes32",
          "name": "s",
          "type": "bytes32"
        }
      ],
      "name": "supplyWithPermit",
      "outputs": [],
      "stateMutability": "nonpayable",
      "type": "function"
    },
    {
      "inputs": [
        {
          "internalType": "address",
          "name": "asset",
          "type": "address"
        }
      ],
      "name": "supportNewAsset",
      "outputs": [],
      "stateMutability": "nonpayable",
      "type": "function"
    },
    {
      "inputs": [],
      "name": "supportedAssets",
      "outputs": [
        {
          "internalType": "address[]",
          "name": "",
          "type": "address[]"
        }
      ],
      "stateMutability": "view",
      "type": "function"
    },
    {
      "inputs": [],
      "name": "symbol",
      "outputs": [
        {
          "internalType": "string",
          "name": "",
          "type": "string"
        }
      ],
      "stateMutability": "view",
      "type": "function"
    },
    {
      "inputs": [],
      "name": "totalSupply",
      "outputs": [
        {
          "internalType": "uint256",
          "name": "",
          "type": "uint256"
        }
      ],
      "stateMutability": "view",
      "type": "function"
    },
    {
      "inputs": [
        {
          "internalType": "address",
          "name": "to",
          "type": "address"
        },
        {
          "internalType": "uint256",
          "name": "amount",
          "type": "uint256"
        }
      ],
      "name": "transfer",
      "outputs": [
        {
          "internalType": "bool",
          "name": "",
          "type": "bool"
        }
      ],
      "stateMutability": "nonpayable",
      "type": "function"
    },
    {
      "inputs": [
        {
          "internalType": "address",
          "name": "from",
          "type": "address"
        },
        {
          "internalType": "address",
          "name": "to",
          "type": "address"
        },
        {
          "internalType": "uint256",
          "name": "amount",
          "type": "uint256"
        }
      ],
      "name": "transferFrom",
      "outputs": [
        {
          "internalType": "bool",
          "name": "",
          "type": "bool"
        }
      ],
      "stateMutability": "nonpayable",
      "type": "function"
    },
    {
      "inputs": [
        {
          "internalType": "address",
          "name": "newOwner",
          "type": "address"
        }
      ],
      "name": "transferOwnership",
      "outputs": [],
      "stateMutability": "nonpayable",
      "type": "function"
    },
    {
      "inputs": [
        {
          "internalType": "address[]",
          "name": "assets",
          "type": "address[]"
        },
        {
          "components": [
            {
              "internalType": "uint256",
              "name": "mintLTV",
              "type": "uint256"
            },
            {
              "internalType": "uint256",
              "name": "liquidationLTV",
              "type": "uint256"
            },
            {
              "internalType": "uint256",
              "name": "liquidationIncentive",
              "type": "uint256"
            },
            {
              "internalType": "uint256",
              "name": "protocolCut",
              "type": "uint256"
            }
          ],
          "internalType": "struct DataProvider.AssetConf[]",
          "name": "confs",
          "type": "tuple[]"
        }
      ],
      "name": "updateAssetConfs",
      "outputs": [],
      "stateMutability": "nonpayable",
      "type": "function"
    },
    {
      "inputs": [
        {
          "internalType": "address",
          "name": "asset",
          "type": "address"
        },
        {
          "internalType": "uint256",
          "name": "amount",
          "type": "uint256"
        }
      ],
      "name": "withdraw",
      "outputs": [],
      "stateMutability": "nonpayable",
      "type": "function"
    }
  ],
  "bytecode": "0x6101406040523480156200001257600080fd5b5060405162004c3738038062004c378339810160408190526200003591620003bb565b6040518060400160405280600481526020016344454d5560e01b81525080604051806040016040528060018152602001603160f81b8152506040518060400160405280600481526020016344454d5560e01b8152506040518060400160405280600481526020016344454d5560e01b815250878787620000c4620000be6200021c60201b60201c565b62000220565b600180546001600160a01b038086166001600160a01b0319928316179092556002805492851692909116919091179055805160005b818110156200014d57620001398382815181106200011b576200011b620004b5565b602002602001015160036200027060201b620025561790919060201c565b506200014581620004cb565b9050620000f9565b5050845162000167935060099250602086019150620002e2565b5080516200017d90600a906020840190620002e2565b5050825160208085019190912083518483012060e08290526101008190524660a0818152604080517f8b73c3c69bb8fe3d512ecc4cf759cc79239f7b179b0ffacaa9a75d522b39400f81880181905281830187905260608201869052608082019490945230818401528151808203909301835260c0019052805194019390932091935091906080523060c0526101205250620005329650505050505050565b3390565b600080546001600160a01b038381166001600160a01b0319831681178455604051919092169283917f8be0079c531659141344cd1fd0a4f28419497f9722a3daafe3b4186f6b6457e09190a35050565b600062000287836001600160a01b03841662000290565b90505b92915050565b6000818152600183016020526040812054620002d9575081546001818101845560008481526020808220909301849055845484825282860190935260409020919091556200028a565b5060006200028a565b828054620002f090620004f5565b90600052602060002090601f0160209004810192826200031457600085556200035f565b82601f106200032f57805160ff19168380011785556200035f565b828001600101855582156200035f579182015b828111156200035f57825182559160200191906001019062000342565b506200036d92915062000371565b5090565b5b808211156200036d576000815560010162000372565b80516001600160a01b0381168114620003a057600080fd5b919050565b634e487b7160e01b600052604160045260246000fd5b600080600060608486031215620003d157600080fd5b620003dc8462000388565b92506020620003ed81860162000388565b60408601519093506001600160401b03808211156200040b57600080fd5b818701915087601f8301126200042057600080fd5b815181811115620004355762000435620003a5565b8060051b604051601f19603f830116810181811085821117156200045d576200045d620003a5565b60405291825284820192508381018501918a8311156200047c57600080fd5b938501935b82851015620004a557620004958562000388565b8452938501939285019262000481565b8096505050505050509250925092565b634e487b7160e01b600052603260045260246000fd5b6000600019821415620004ee57634e487b7160e01b600052601160045260246000fd5b5060010190565b600181811c908216806200050a57607f821691505b602082108114156200052c57634e487b7160e01b600052602260045260246000fd5b50919050565b60805160a05160c05160e05161010051610120516146b56200058260003960006129e501526000612a3401526000612a0f0152600061296801526000612992015260006129bc01526146b56000f3fe6080604052600436106102885760003560e01c8063884719f21161015a578063a9059cbb116100c1578063dd62ed3e1161007a578063dd62ed3e146107b2578063eef75525146107d2578063f2b9fdb8146107f2578063f2fde38b14610812578063f3fef3a314610832578063f60632a01461085257600080fd5b8063a9059cbb146106e5578063ac9650d814610705578063b883b05814610732578063bef7f36514610752578063d505accf14610772578063d9d98ce41461079257600080fd5b80639cf160f6116101135780639cf160f61461063d578063a0712d681461065b578063a457c2d71461067b578063a49f20dc1461069b578063a5fdc5de146106a3578063a80ce55c146106c357600080fd5b8063884719f2146105955780638cfc498c146105b55780638da5cb5b146105d557806392c86d9a146105f357806394e96dc91461061357806395d89b411461062857600080fd5b806342966c68116101fe5780636e04ff0d116101b75780636e04ff0d146104ba5780636fff45ed146104e857806370a0823114610508578063715018a61461053e5780637dc0d1d0146105535780637ecebe001461057557600080fd5b806342966c68146103fa5780634585e33b1461041a578063530e784f1461043a5780635cffe9de1461045a5780635ed88ecf1461047a578063613255ab1461049a57600080fd5b806323b872dd1161025057806323b872dd14610349578063313ce567146103695780633644e51514610385578063373071f21461039a57806339509351146103ba5780633ea21465146103da57600080fd5b806306fdde031461028d578063095ea7b3146102b857806318160ddd146102e85780631c46bc6f146103075780631f655b6914610329575b600080fd5b34801561029957600080fd5b506102a2610867565b6040516102af9190613982565b60405180910390f35b3480156102c457600080fd5b506102d86102d33660046139aa565b6108f9565b60405190151581526020016102af565b3480156102f457600080fd5b506008545b6040519081526020016102af565b34801561031357600080fd5b506103276103223660046139d6565b610913565b005b34801561033557600080fd5b506102f96103443660046139f3565b610961565b34801561035557600080fd5b506102d8610364366004613a2c565b61098e565b34801561037557600080fd5b50604051601281526020016102af565b34801561039157600080fd5b506102f96109b4565b3480156103a657600080fd5b506103276103b53660046139d6565b6109c3565b3480156103c657600080fd5b506102d86103d53660046139aa565b610a16565b3480156103e657600080fd5b506102d86103f5366004613aae565b610a38565b34801561040657600080fd5b50610327610415366004613b09565b610b47565b34801561042657600080fd5b50610327610435366004613b22565b610be6565b34801561044657600080fd5b506103276104553660046139d6565b610d0a565b34801561046657600080fd5b506102d8610475366004613b63565b610d5d565b34801561048657600080fd5b506102f96104953660046139d6565b61105b565b3480156104a657600080fd5b506102f96104b53660046139d6565b6111bd565b3480156104c657600080fd5b506104da6104d5366004613b22565b61122d565b6040516102af929190613bd5565b3480156104f457600080fd5b50610327610503366004613bff565b6114ee565b34801561051457600080fd5b506102f96105233660046139d6565b6001600160a01b031660009081526006602052604090205490565b34801561054a57600080fd5b506103276115b6565b34801561055f57600080fd5b506105686115ca565b6040516102af9190613c5b565b34801561058157600080fd5b506102f96105903660046139d6565b6115d9565b3480156105a157600080fd5b506102f96105b03660046139d6565b6115f7565b3480156105c157600080fd5b506103276105d03660046139d6565b61162d565b3480156105e157600080fd5b506000546001600160a01b0316610568565b3480156105ff57600080fd5b5061032761060e366004613cb3565b611670565b34801561061f57600080fd5b506102f9611829565b34801561063457600080fd5b506102a2611894565b34801561064957600080fd5b506002546001600160a01b0316610568565b34801561066757600080fd5b50610327610676366004613b09565b6118a3565b34801561068757600080fd5b506102d86106963660046139aa565b61199e565b610327611a19565b3480156106af57600080fd5b506102f96106be3660046139d6565b611aca565b3480156106cf57600080fd5b506106d8611bf4565b6040516102af9190613d90565b3480156106f157600080fd5b506102d86107003660046139aa565b611c00565b34801561071157600080fd5b50610725610720366004613da3565b611c0e565b6040516102af9190613dd8565b34801561073e57600080fd5b506102f961074d3660046139d6565b611d02565b34801561075e57600080fd5b506102f961076d3660046139d6565b611d37565b34801561077e57600080fd5b5061032761078d366004613e3a565b611e95565b34801561079e57600080fd5b506102f96107ad3660046139aa565b611ff9565b3480156107be57600080fd5b506102f96107cd3660046139f3565b612063565b3480156107de57600080fd5b506103276107ed366004613f88565b61208e565b3480156107fe57600080fd5b5061032761080d3660046139aa565b6123cb565b34801561081e57600080fd5b5061032761082d3660046139d6565b6123f1565b34801561083e57600080fd5b5061032761084d3660046139aa565b612467565b34801561085e57600080fd5b506103e86102f9565b60606009805461087690614034565b80601f01602080910402602001604051908101604052809291908181526020018280546108a290614034565b80156108ef5780601f106108c4576101008083540402835291602001916108ef565b820191906000526020600020905b8154815290600101906020018083116108d257829003601f168201915b5050505050905090565b60003361090781858561256b565b60019150505b92915050565b61091b61268f565b6109266003826126e9565b507f37803e2125c48ee96c38ddf04e826daf335b0e1603579040fd275aba6d06b6fc816040516109569190613c5b565b60405180910390a150565b6001600160a01b0382166000908152600d60205260408120819061098590846126fe565b95945050505050565b60003361099c858285612725565b6109a785858561279f565b60019150505b9392505050565b60006109be61295b565b905090565b6109cb61268f565b600280546001600160a01b0319166001600160a01b0383161790556040517f36500f45d42bde710f51c49fca335108939ea7d631cc825e480095366557aad290610956908390613c5b565b600033610907818585610a298383612063565b610a33919061407f565b61256b565b6000610a448585612a82565b6040516323e30c8b60e01b81527f439148f0bbc682ca079e46d6e2c2f0c1e3b820f1a291b069d8882abf8cf18dd9906001600160a01b038716906323e30c8b90610a9d90339030908a906000908b908b906004016140c0565b6020604051808303816000875af1158015610abc573d6000803e3d6000fd5b505050506040513d601f19601f82011682018060405250810190610ae09190614107565b14610b325760405162461bcd60e51b815260206004820152601c60248201527f466c6173684d696e7465723a2043616c6c6261636b206661696c65640000000060448201526064015b60405180910390fd5b610b3c8585612b4f565b506001949350505050565b610b513382612b4f565b610b5e335b600e90612c8b565b610b6757600080fd5b6000610b76335b600e906126fe565b9150610b8490508282614120565b905080610b9c57610b96600e33612ca0565b50610bac565b610baa335b600e9083612cb5565b505b60405182815233907fcc16f5dbb4873280815c1ee09dbd06736cffcc184412cf7a71a0fdb75d397ca5906020015b60405180910390a25050565b6000808080610bf7858701876141c4565b83519397509195509350915060005b81811015610d0057858181518110610c2057610c206142ce565b602002602001015115610cf05760006040518060600160405280878481518110610c4c57610c4c6142ce565b60200260200101516001600160a01b03168152602001868481518110610c7457610c746142ce565b60200260200101518152602001858481518110610c9357610c936142ce565b60200260200101516001600160a01b03168152509050610ced3082604051602401610cbe91906142e4565b60408051601f198184030181529190526020810180516001600160e01b031663eef7552560e01b179052612ccb565b50505b610cf98161432c565b9050610c06565b5050505050505050565b610d1261268f565b600180546001600160a01b0319166001600160a01b0383161790556040517f21039fe20f3ae5fdef2b672a459056b9f34cddca8f2645406cf148e2c4f6350f90610956908390613c5b565b600080610d6a8686611ff9565b60405163a9059cbb60e01b81529091506001600160a01b0387169063a9059cbb90610d9b908a908990600401614347565b6020604051808303816000875af1158015610dba573d6000803e3d6000fd5b505050506040513d601f19601f82011682018060405250810190610dde9190614360565b610e2a5760405162461bcd60e51b815260206004820152601c60248201527f466c6173684c656e6465723a205472616e73666572206661696c6564000000006044820152606401610b29565b6040516323e30c8b60e01b81527f439148f0bbc682ca079e46d6e2c2f0c1e3b820f1a291b069d8882abf8cf18dd9906001600160a01b038916906323e30c8b90610e829033908b908b9088908c908c906004016140c0565b6020604051808303816000875af1158015610ea1573d6000803e3d6000fd5b505050506040513d601f19601f82011682018060405250810190610ec59190614107565b14610f125760405162461bcd60e51b815260206004820152601c60248201527f466c6173684c656e6465723a2043616c6c6261636b206661696c6564000000006044820152606401610b29565b6001600160a01b0386166323b872dd8830610f2d858a61407f565b6040518463ffffffff1660e01b8152600401610f4b9392919061437d565b6020604051808303816000875af1158015610f6a573d6000803e3d6000fd5b505050506040513d601f19601f82011682018060405250810190610f8e9190614360565b610fd65760405162461bcd60e51b8152602060048201526019602482015278119b185cda13195b99195c8e8814995c185e4819985a5b1959603a1b6044820152606401610b29565b60025460405163a9059cbb60e01b81526001600160a01b038881169263a9059cbb9261100a92909116908590600401614347565b6020604051808303816000875af1158015611029573d6000803e3d6000fd5b505050506040513d601f19601f8201168201806040525081019061104d9190614360565b506001979650505050505050565b6001600160a01b0381166000908152600d60205260408120819061107e90612cf0565b905060005b818110156111b6576001600160a01b0384166000908152600d6020526040812081906110af9084612cfb565b909250905080156111835760006110c68383612d0a565b905060006110d26115ca565b90506000816001600160a01b031663b2f1ee3b866040518263ffffffff1660e01b81526004016111029190613c5b565b602060405180830381865afa15801561111f573d6000803e3d6000fd5b505050506040513d601f19601f820116820180604052508101906111439190614107565b6001600160a01b03861660009081526005602052604090205490915061116982856143a1565b61117391906143a1565b61117d908961407f565b97505050505b6111976103e8670de0b6b3a76400006143a1565b6111a190866143c0565b94505050806111af9061432c565b9050611083565b5050919050565b6040516370a0823160e01b81526000906001600160a01b038316906370a08231906111ec903090600401613c5b565b602060405180830381865afa158015611209573d6000803e3d6000fd5b505050506040513d601f19601f8201168201806040525081019061090d9190614107565b6002546001600160a01b031660008181526006602052604081205490916060918061125b57600093506114e5565b6000611265611bf4565b90506000611273600e612cf0565b90506000816001600160401b0381111561128f5761128f613eab565b6040519080825280602002602001820160405280156112b8578160200160208202803683370190505b5090506000826001600160401b038111156112d5576112d5613eab565b6040519080825280602002602001820160405280156112fe578160200160208202803683370190505b5090506000836001600160401b0381111561131b5761131b613eab565b60405190808252806020026020018201604052801561134e57816020015b60608152602001906001900390816113395790505b5090506000846001600160401b0381111561136b5761136b613eab565b604051908082528060200260200182016040528015611394578160200160208202803683370190505b50905060005b858110156114b55760006113af600e83612cfb565b50905060006113bd826115f7565b905060006113ca83611d37565b905060006113d96014836143c0565b905060006113e78385614120565b905081811061149f5760019f5060018a8781518110611408576114086142ce565b6020026020010190151590811515815250508489878151811061142d5761142d6142ce565b60200260200101906001600160a01b031690816001600160a01b0316815250508b888781518110611460576114606142ce565b60200260200101819052508d87878151811061147e5761147e6142ce565b60200260200101906001600160a01b031690816001600160a01b0316815250505b5050505050806114ae9061432c565b905061139a565b50838383836040516020016114cd94939291906143e2565b60405160208183030381529060405298505050505050505b50509250929050565b6001600160a01b03861663d505accf336040516001600160e01b031960e084901b1681526001600160a01b039091166004820152306024820152604481018890526064810187905260ff8616608482015260a4810185905260c4810184905260e401600060405180830381600087803b15801561156a57600080fd5b505af115801561157e573d6000803e3d6000fd5b50505050600061158b3390565b90506115a26001600160a01b038816823089612dd6565b6115ad818888612e2e565b50505050505050565b6115be61268f565b6115c86000612f1f565b565b6001546001600160a01b031690565b6001600160a01b0381166000908152600b602052604081205461090d565b600080611605600e846126fe565b915050670de0b6b3a7640000611619611829565b61162390836143a1565b6109ad91906143c0565b61163561268f565b611640600382612556565b507fc7d9598af6004de7fa9c489a50a55414c75cfbce9fe56fe46956970744d6bc2c816040516109569190613c5b565b61167861268f565b8260005b8181101561182157838382818110611696576116966142ce565b90506080020160000135600560008888858181106116b6576116b66142ce565b90506020020160208101906116cb91906139d6565b6001600160a01b031681526020810191909152604001600020558383828181106116f7576116f76142ce565b9050608002016020013560056000888885818110611717576117176142ce565b905060200201602081019061172c91906139d6565b6001600160a01b0316815260208101919091526040016000206001015583838281811061175b5761175b6142ce565b905060800201604001356005600088888581811061177b5761177b6142ce565b905060200201602081019061179091906139d6565b6001600160a01b031681526020810191909152604001600020600201558383828181106117bf576117bf6142ce565b90506080020160600135600560008888858181106117df576117df6142ce565b90506020020160208101906117f491906139d6565b6001600160a01b0316815260208101919091526040016000206003015561181a8161432c565b905061167c565b505050505050565b60006118336115ca565b6001600160a01b031663c548fb5d6040518163ffffffff1660e01b8152600401602060405180830381865afa158015611870573d6000803e3d6000fd5b505050506040513d601f19601f820116820180604052508101906109be9190614107565b6060600a805461087690614034565b6118ad3382612a82565b6118b633610b56565b156118ef5760006118c633610b6e565b9150506118e86118d33390565b6118dd848461407f565b9250600e9083612cb5565b50506118fa565b6118f833610ba1565b505b6119033361105b565b61190c336115f7565b11156119665760405162461bcd60e51b815260206004820152602360248201527f44454d553a204e6f7420616c6c6f77656420746f206d696e742074686973206d6044820152620eac6d60eb1b6064820152608401610b29565b60405181815233907f0f6798a560793a54c3bcfe86a93cde1e73087d944c0ea20544137d41213968859060200160405180910390a250565b600033816119ac8286612063565b905083811015611a0c5760405162461bcd60e51b815260206004820152602560248201527f45524332303a2064656372656173656420616c6c6f77616e63652062656c6f77604482015264207a65726f60d81b6064820152608401610b29565b610b3c828686840361256b565b60408051808201909152600581526468656c6c6f60d81b60208201523390611a4090612f6f565b730d500b1d8e8ef31e21c99d1db9a6444d3adf12706001600160a01b031663d0e30db0346040518263ffffffff1660e01b81526004016000604051808303818588803b158015611a8f57600080fd5b505af1158015611aa3573d6000803e3d6000fd5b5050505050611ac781730d500b1d8e8ef31e21c99d1db9a6444d3adf127034612e2e565b50565b6001600160a01b0381166000908152600d602052604081208190611aed90612cf0565b905060005b81811015611be1576001600160a01b0384166000908152600d602052604081208190611b1e9084612cfb565b90925090508015611bce576000611b358383612d0a565b90506000611b416115ca565b90506000816001600160a01b031663b2f1ee3b866040518263ffffffff1660e01b8152600401611b719190613c5b565b602060405180830381865afa158015611b8e573d6000803e3d6000fd5b505050506040513d601f19601f82011682018060405250810190611bb29190614107565b9050611bbe81846143a1565b611bc8908961407f565b97505050505b505080611bda9061432c565b9050611af2565b506109ad670de0b6b3a7640000836143c0565b60606109be6003612fb2565b60003361090781858561279f565b6060816001600160401b03811115611c2857611c28613eab565b604051908082528060200260200182016040528015611c5b57816020015b6060815260200190600190039081611c465790505b50905060005b82811015611cfb57611ccb30858584818110611c7f57611c7f6142ce565b9050602002810190611c9191906144a5565b8080601f016020809104026020016040519081016040528093929190818152602001838380828437600092019190915250612ccb92505050565b828281518110611cdd57611cdd6142ce565b60200260200101819052508080611cf39061432c565b915050611c61565b5092915050565b6000611d0c6115ca565b6001600160a01b031663b2f1ee3b836040518263ffffffff1660e01b81526004016111ec9190613c5b565b6001600160a01b0381166000908152600d602052604081208190611d5a90612cf0565b905060005b818110156111b6576001600160a01b0384166000908152600d602052604081208190611d8b9084612cfb565b90925090508015611e62576000611da28383612d0a565b90506000611dae6115ca565b90506000816001600160a01b031663b2f1ee3b866040518263ffffffff1660e01b8152600401611dde9190613c5b565b602060405180830381865afa158015611dfb573d6000803e3d6000fd5b505050506040513d601f19601f82011682018060405250810190611e1f9190614107565b6001600160a01b038616600090815260056020526040902060010154909150611e4882856143a1565b611e5291906143a1565b611e5c908961407f565b97505050505b611e766103e8670de0b6b3a76400006143a1565b611e8090866143c0565b9450505080611e8e9061432c565b9050611d5f565b83421115611ee55760405162461bcd60e51b815260206004820152601d60248201527f45524332305065726d69743a206578706972656420646561646c696e650000006044820152606401610b29565b60007f6e71edae12b1b97f4d1f60370fef10105fa2faae0126114a169c64845d6126c9888888611f148c612fbf565b6040805160208101969096526001600160a01b0394851690860152929091166060840152608083015260a082015260c0810186905260e0016040516020818303038152906040528051906020012090506000611f6f82612fe7565b90506000611f7f82878787613035565b9050896001600160a01b0316816001600160a01b031614611fe25760405162461bcd60e51b815260206004820152601e60248201527f45524332305065726d69743a20696e76616c6964207369676e617475726500006044820152606401610b29565b611fed8a8a8a61256b565b50505050505050505050565b6000806120068484612d0a565b9050620f4240816b033b2e3c9fd0803ce80000008310156120415769d3c21bcecceda100000083101561203a576032612044565b6019612044565b600a5b60ff1661205191906143a1565b61205b91906143c0565b949350505050565b6001600160a01b03918216600090815260076020908152604080832093909416825291909152205490565b600061209d82600001516115f7565b905060006120ae8360000151611d37565b90508082116120ff5760405162461bcd60e51b815260206004820152601e60248201527f44454d553a2043616e6e6f74206c6971756964617465206163636f756e7400006044820152606401610b29565b82516103e8906000906121119061105b565b61211b9085614120565b90506000612127611829565b61213190836143c0565b9050612141866040015182612b4f565b60208601515160005b81811015610d00576000841161215f57610d00565b600088602001518281518110612177576121776142ce565b6020908102919091018101516001600160a01b03811660009081526005909252604082206003810154600290910154919350889182916121b69161407f565b6121c0919061407f565b6121ca90886143a1565b6121d491906143c0565b905060006121e68b6000015184610961565b905060006121f26115ca565b6001600160a01b031663b2f1ee3b856040518263ffffffff1660e01b815260040161221d9190613c5b565b602060405180830381865afa15801561223a573d6000803e3d6000fd5b505050506040513d601f19601f8201168201806040525081019061225e9190614107565b90506000670de0b6b3a764000061227583856143a1565b61227f91906143c0565b90506000848210156122925750826122be565b61229c838b6143c0565b9050670de0b6b3a76400006122b184836143a1565b6122bb91906143c0565b91505b6040808f01516001600160a01b03881660009081526005602052919091206002015461231691908d906122f1908261407f565b6122fb90856143a1565b61230591906143c0565b6001600160a01b038916919061305d565b61235361232b6002546001600160a01b031690565b6001600160a01b0388166000908152600560205260409020600301548d906122fb90856143a1565b61235d828b614120565b99508d600001516001600160a01b03168e604001516001600160a01b03167f033fe6dadd06de536cd7b34266e12610e9d77a23d48d3d6218962a87cb74051488846040516123ac929190614347565b60405180910390a3505050505050806123c49061432c565b905061214a565b336123e16001600160a01b038416823085612dd6565b6123ec818484612e2e565b505050565b6123f961268f565b6001600160a01b03811661245e5760405162461bcd60e51b815260206004820152602660248201527f4f776e61626c653a206e6577206f776e657220697320746865207a65726f206160448201526564647265737360d01b6064820152608401610b29565b611ac781612f1f565b61247b6001600160a01b038316338361305d565b61248433611d37565b61248d336115f7565b11156124eb5760405162461bcd60e51b815260206004820152602760248201527f44454d553a204e6f7420616c6c6f77656420746f2077697468647261772074686044820152660d2e640daeac6d60cb1b6064820152608401610b29565b61251a82826124fa3386610961565b6125049190614120565b336000908152600d602052604090209190612cb5565b50816001600160a01b03167f884edad9ce6fa2440d8a54cc123490eb96d2768479d49ff9c7366125a942436482604051610bda91815260200190565b60006109ad836001600160a01b03841661307c565b6001600160a01b0383166125cd5760405162461bcd60e51b8152602060048201526024808201527f45524332303a20617070726f76652066726f6d20746865207a65726f206164646044820152637265737360e01b6064820152608401610b29565b6001600160a01b03821661262e5760405162461bcd60e51b815260206004820152602260248201527f45524332303a20617070726f766520746f20746865207a65726f206164647265604482015261737360f01b6064820152608401610b29565b6001600160a01b0383811660008181526007602090815260408083209487168084529482529182902085905590518481527f8c5be1e5ebec7d5bd14f71427d1e84f3dd0314c0f7b2291e5b200ac8c7c3b925910160405180910390a3505050565b6000546001600160a01b031633146115c85760405162461bcd60e51b815260206004820181905260248201527f4f776e61626c653a2063616c6c6572206973206e6f7420746865206f776e65726044820152606401610b29565b60006109ad836001600160a01b0384166130cb565b6000808080612716866001600160a01b0387166131be565b909450925050505b9250929050565b60006127318484612063565b90506000198114612799578181101561278c5760405162461bcd60e51b815260206004820152601d60248201527f45524332303a20696e73756666696369656e7420616c6c6f77616e63650000006044820152606401610b29565b612799848484840361256b565b50505050565b6001600160a01b0383166128035760405162461bcd60e51b815260206004820152602560248201527f45524332303a207472616e736665722066726f6d20746865207a65726f206164604482015264647265737360d81b6064820152608401610b29565b6001600160a01b0382166128655760405162461bcd60e51b815260206004820152602360248201527f45524332303a207472616e7366657220746f20746865207a65726f206164647260448201526265737360e81b6064820152608401610b29565b6001600160a01b038316600090815260066020526040902054818110156128dd5760405162461bcd60e51b815260206004820152602660248201527f45524332303a207472616e7366657220616d6f756e7420657863656564732062604482015265616c616e636560d01b6064820152608401610b29565b6001600160a01b0380851660009081526006602052604080822085850390559185168152908120805484929061291490849061407f565b92505081905550826001600160a01b0316846001600160a01b03166000805160206146608339815191528460405161294e91815260200190565b60405180910390a3612799565b6000306001600160a01b037f0000000000000000000000000000000000000000000000000000000000000000161480156129b457507f000000000000000000000000000000000000000000000000000000000000000046145b156129de57507f000000000000000000000000000000000000000000000000000000000000000090565b50604080517f00000000000000000000000000000000000000000000000000000000000000006020808301919091527f0000000000000000000000000000000000000000000000000000000000000000828401527f000000000000000000000000000000000000000000000000000000000000000060608301524660808301523060a0808401919091528351808403909101815260c0909201909252805191012090565b6001600160a01b038216612ad85760405162461bcd60e51b815260206004820152601f60248201527f45524332303a206d696e7420746f20746865207a65726f2061646472657373006044820152606401610b29565b8060086000828254612aea919061407f565b90915550506001600160a01b03821660009081526006602052604081208054839290612b1790849061407f565b90915550506040518181526001600160a01b038316906000906000805160206146608339815191529060200160405180910390a35050565b6001600160a01b038216612baf5760405162461bcd60e51b815260206004820152602160248201527f45524332303a206275726e2066726f6d20746865207a65726f206164647265736044820152607360f81b6064820152608401610b29565b6001600160a01b03821660009081526006602052604090205481811015612c235760405162461bcd60e51b815260206004820152602260248201527f45524332303a206275726e20616d6f756e7420657863656564732062616c616e604482015261636560f01b6064820152608401610b29565b6001600160a01b0383166000908152600660205260408120838303905560088054849290612c52908490614120565b90915550506040518281526000906001600160a01b038516906000805160206146608339815191529060200160405180910390a3505050565b60006109ad836001600160a01b038416613200565b60006109ad836001600160a01b03841661320c565b600061205b846001600160a01b03851684613229565b60606109ad838360405180606001604052806027815260200161463960279139613246565b600061090d82613323565b6000808080612716868661332e565b600080836001600160a01b031663313ce5676040518163ffffffff1660e01b8152600401602060405180830381865afa158015612d4b573d6000803e3d6000fd5b505050506040513d601f19601f82011682018060405250810190612d6f91906144eb565b60ff1690506012811015612da557612d88816012614120565b612d9390600a6145e4565b612d9d90846143a1565b91505061090d565b6012811115612dce57612db9601282614120565b612dc490600a6145e4565b612d9d90846143c0565b509092915050565b612799846323b872dd60e01b858585604051602401612df79392919061437d565b60408051601f198184030181529190526020810180516001600160e01b03166001600160e01b031990931692909217909152613359565b6001600160a01b0383166000908152600d60205260409020612e509083612c8b565b15612eb2576001600160a01b0383166000908152600d60205260408120612e7790846126fe565b9150612eab905083612e89848461407f565b6001600160a01b0387166000908152600d602052604090209093509083612cb5565b5050612ed7565b6001600160a01b0383166000908152600d60205260409020612ed5908383612cb5565b505b816001600160a01b03167fadacf827efe383160192c092d8658471945c074229a9746679b5e2b74adff19182604051612f1291815260200190565b60405180910390a2505050565b600080546001600160a01b038381166001600160a01b0319831681178455604051919092169283917f8be0079c531659141344cd1fd0a4f28419497f9722a3daafe3b4186f6b6457e09190a35050565b611ac781604051602401612f839190613982565b60408051601f198184030181529190526020810180516001600160e01b031663104c13eb60e21b17905261342b565b606060006109ad8361344c565b6001600160a01b0381166000908152600b602052604090208054600181018255905b50919050565b600061090d612ff461295b565b8360405161190160f01b6020820152602281018390526042810182905260009060620160405160208183030381529060405280519060200120905092915050565b6000806000613046878787876134a8565b915091506130538161358b565b5095945050505050565b6123ec8363a9059cbb60e01b8484604051602401612df7929190614347565b60008181526001830160205260408120546130c35750815460018181018455600084815260208082209093018490558454848252828601909352604090209190915561090d565b50600061090d565b600081815260018301602052604081205480156131b45760006130ef600183614120565b855490915060009061310390600190614120565b9050818114613168576000866000018281548110613123576131236142ce565b9060005260206000200154905080876000018481548110613146576131466142ce565b6000918252602080832090910192909255918252600188019052604090208390555b8554869080613179576131796145f0565b60019003818190600052602060002001600090559055856001016000868152602001908152602001600020600090556001935050505061090d565b600091505061090d565b60008181526002830160205260408120548190806131ed576131e08585613200565b92506000915061271e9050565b60019250905061271e565b509250929050565b60006109ad8383613741565b600081815260028301602052604081208190556109ad8383613759565b6000828152600284016020526040812082905561205b8484613765565b60606001600160a01b0384163b6132ae5760405162461bcd60e51b815260206004820152602660248201527f416464726573733a2064656c65676174652063616c6c20746f206e6f6e2d636f6044820152651b9d1c9858dd60d21b6064820152608401610b29565b600080856001600160a01b0316856040516132c99190614606565b600060405180830381855af49150503d8060008114613304576040519150601f19603f3d011682016040523d82523d6000602084013e613309565b606091505b5091509150613319828286613771565b9695505050505050565b600061090d826137aa565b6000808061333c85856137b4565b600081815260029690960160205260409095205494959350505050565b60006133ae826040518060400160405280602081526020017f5361666545524332303a206c6f772d6c6576656c2063616c6c206661696c6564815250856001600160a01b03166137c09092919063ffffffff16565b8051909150156123ec57808060200190518101906133cc9190614360565b6123ec5760405162461bcd60e51b815260206004820152602a60248201527f5361666545524332303a204552433230206f7065726174696f6e20646964206e6044820152691bdd081cdd58d8d9595960b21b6064820152608401610b29565b80516a636f6e736f6c652e6c6f67602083016000808483855afa5050505050565b60608160000180548060200260200160405190810160405280929190818152602001828054801561349c57602002820191906000526020600020905b815481526020019060010190808311613488575b50505050509050919050565b6000806fa2a8918ca85bafe22016d0b997e4df60600160ff1b038311156134d55750600090506003613582565b8460ff16601b141580156134ed57508460ff16601c14155b156134fe5750600090506004613582565b6040805160008082526020820180845289905260ff881692820192909252606081018690526080810185905260019060a0016020604051602081039080840390855afa158015613552573d6000803e3d6000fd5b5050604051601f1901519150506001600160a01b03811661357b57600060019250925050613582565b9150600090505b94509492505050565b600081600481111561359f5761359f614622565b14156135a85750565b60018160048111156135bc576135bc614622565b14156136055760405162461bcd60e51b815260206004820152601860248201527745434453413a20696e76616c6964207369676e617475726560401b6044820152606401610b29565b600281600481111561361957613619614622565b14156136675760405162461bcd60e51b815260206004820152601f60248201527f45434453413a20696e76616c6964207369676e6174757265206c656e677468006044820152606401610b29565b600381600481111561367b5761367b614622565b14156136d45760405162461bcd60e51b815260206004820152602260248201527f45434453413a20696e76616c6964207369676e6174757265202773272076616c604482015261756560f01b6064820152608401610b29565b60048160048111156136e8576136e8614622565b1415611ac75760405162461bcd60e51b815260206004820152602260248201527f45434453413a20696e76616c6964207369676e6174757265202776272076616c604482015261756560f01b6064820152608401610b29565b600081815260018301602052604081205415156109ad565b60006109ad83836130cb565b60006109ad838361307c565b606083156137805750816109ad565b8251156137905782518084602001fd5b8160405162461bcd60e51b8152600401610b299190613982565b600061090d825490565b60006109ad83836137cf565b606061205b84846000856137f9565b60008260000182815481106137e6576137e66142ce565b9060005260206000200154905092915050565b60608247101561385a5760405162461bcd60e51b815260206004820152602660248201527f416464726573733a20696e73756666696369656e742062616c616e636520666f6044820152651c8818d85b1b60d21b6064820152608401610b29565b6001600160a01b0385163b6138b15760405162461bcd60e51b815260206004820152601d60248201527f416464726573733a2063616c6c20746f206e6f6e2d636f6e74726163740000006044820152606401610b29565b600080866001600160a01b031685876040516138cd9190614606565b60006040518083038185875af1925050503d806000811461390a576040519150601f19603f3d011682016040523d82523d6000602084013e61390f565b606091505b509150915061391f828286613771565b979650505050505050565b60005b8381101561394557818101518382015260200161392d565b838111156127995750506000910152565b6000815180845261396e81602086016020860161392a565b601f01601f19169290920160200192915050565b6020815260006109ad6020830184613956565b6001600160a01b0381168114611ac757600080fd5b600080604083850312156139bd57600080fd5b82356139c881613995565b946020939093013593505050565b6000602082840312156139e857600080fd5b81356109ad81613995565b60008060408385031215613a0657600080fd5b8235613a1181613995565b91506020830135613a2181613995565b809150509250929050565b600080600060608486031215613a4157600080fd5b8335613a4c81613995565b92506020840135613a5c81613995565b929592945050506040919091013590565b60008083601f840112613a7f57600080fd5b5081356001600160401b03811115613a9657600080fd5b60208301915083602082850101111561271e57600080fd5b60008060008060608587031215613ac457600080fd5b8435613acf81613995565b93506020850135925060408501356001600160401b03811115613af157600080fd5b613afd87828801613a6d565b95989497509550505050565b600060208284031215613b1b57600080fd5b5035919050565b60008060208385031215613b3557600080fd5b82356001600160401b03811115613b4b57600080fd5b613b5785828601613a6d565b90969095509350505050565b600080600080600060808688031215613b7b57600080fd5b8535613b8681613995565b94506020860135613b9681613995565b93506040860135925060608601356001600160401b03811115613bb857600080fd5b613bc488828901613a6d565b969995985093965092949392505050565b821515815260406020820152600061205b6040830184613956565b60ff81168114611ac757600080fd5b60008060008060008060c08789031215613c1857600080fd5b8635613c2381613995565b955060208701359450604087013593506060870135613c4181613bf0565b9598949750929560808101359460a0909101359350915050565b6001600160a01b0391909116815260200190565b60008083601f840112613c8157600080fd5b5081356001600160401b03811115613c9857600080fd5b6020830191508360208260051b850101111561271e57600080fd5b60008060008060408587031215613cc957600080fd5b84356001600160401b0380821115613ce057600080fd5b613cec88838901613c6f565b90965094506020870135915080821115613d0557600080fd5b818701915087601f830112613d1957600080fd5b813581811115613d2857600080fd5b8860208260071b8501011115613d3d57600080fd5b95989497505060200194505050565b600081518084526020808501945080840160005b83811015613d855781516001600160a01b031687529582019590820190600101613d60565b509495945050505050565b6020815260006109ad6020830184613d4c565b60008060208385031215613db657600080fd5b82356001600160401b03811115613dcc57600080fd5b613b5785828601613c6f565b6000602080830181845280855180835260408601915060408160051b870101925083870160005b82811015613e2d57603f19888603018452613e1b858351613956565b94509285019290850190600101613dff565b5092979650505050505050565b600080600080600080600060e0888a031215613e5557600080fd5b8735613e6081613995565b96506020880135613e7081613995565b955060408801359450606088013593506080880135613e8e81613bf0565b9699959850939692959460a0840135945060c09093013592915050565b634e487b7160e01b600052604160045260246000fd5b604051601f8201601f191681016001600160401b0381118282101715613ee957613ee9613eab565b604052919050565b60006001600160401b03821115613f0a57613f0a613eab565b5060051b60200190565b600082601f830112613f2557600080fd5b81356020613f3a613f3583613ef1565b613ec1565b82815260059290921b84018101918181019086841115613f5957600080fd5b8286015b84811015613f7d578035613f7081613995565b8352918301918301613f5d565b509695505050505050565b600060208284031215613f9a57600080fd5b81356001600160401b0380821115613fb157600080fd5b9083019060608286031215613fc557600080fd5b604051606081018181108382111715613fe057613fe0613eab565b6040528235613fee81613995565b815260208301358281111561400257600080fd5b61400e87828601613f14565b6020830152506040830135925061402483613995565b6040810192909252509392505050565b600181811c9082168061404857607f821691505b60208210811415612fe157634e487b7160e01b600052602260045260246000fd5b634e487b7160e01b600052601160045260246000fd5b6000821982111561409257614092614069565b500190565b81835281816020850137506000828201602090810191909152601f909101601f19169091010190565b6001600160a01b03878116825286166020820152604081018590526060810184905260a0608082018190526000906140fb9083018486614097565b98975050505050505050565b60006020828403121561411957600080fd5b5051919050565b60008282101561413257614132614069565b500390565b8015158114611ac757600080fd5b600082601f83011261415657600080fd5b81356020614166613f3583613ef1565b82815260059290921b8401810191818101908684111561418557600080fd5b8286015b84811015613f7d5780356001600160401b038111156141a85760008081fd5b6141b68986838b0101613f14565b845250918301918301614189565b600080600080608085870312156141da57600080fd5b84356001600160401b03808211156141f157600080fd5b818701915087601f83011261420557600080fd5b81356020614215613f3583613ef1565b82815260059290921b8401810191818101908b84111561423457600080fd5b948201945b8386101561425b57853561424c81614137565b82529482019490820190614239565b9850508801359250508082111561427157600080fd5b61427d88838901613f14565b9450604087013591508082111561429357600080fd5b61429f88838901614145565b935060608701359150808211156142b557600080fd5b506142c287828801613f14565b91505092959194509250565b634e487b7160e01b600052603260045260246000fd5b60208152600060018060a01b038084511660208401526020840151606060408501526143136080850182613d4c565b9050816040860151166060850152809250505092915050565b600060001982141561434057614340614069565b5060010190565b6001600160a01b03929092168252602082015260400190565b60006020828403121561437257600080fd5b81516109ad81614137565b6001600160a01b039384168152919092166020820152604081019190915260600190565b60008160001904831182151516156143bb576143bb614069565b500290565b6000826143dd57634e487b7160e01b600052601260045260246000fd5b500490565b6080808252855190820181905260009060209060a0840190828901845b8281101561441d5781511515845292840192908401906001016143ff565b505050838103828501526144318188613d4c565b905083810360408501528086518083528383019150838160051b84010184890160005b8381101561448257601f19868403018552614470838351613d4c565b94870194925090860190600101614454565b505086810360608801526144968189613d4c565b9b9a5050505050505050505050565b6000808335601e198436030181126144bc57600080fd5b8301803591506001600160401b038211156144d657600080fd5b60200191503681900382131561271e57600080fd5b6000602082840312156144fd57600080fd5b81516109ad81613bf0565b600181815b808511156131f857816000190482111561452957614529614069565b8085161561453657918102915b93841c939080029061450d565b6000826145525750600161090d565b8161455f5750600061090d565b8160018114614575576002811461457f5761459b565b600191505061090d565b60ff84111561459057614590614069565b50506001821b61090d565b5060208310610133831016604e8410600b84101617156145be575081810a61090d565b6145c88383614508565b80600019048211156145dc576145dc614069565b029392505050565b60006109ad8383614543565b634e487b7160e01b600052603160045260246000fd5b6000825161461881846020870161392a565b9190910192915050565b634e487b7160e01b600052602160045260246000fdfe416464726573733a206c6f772d6c6576656c2064656c65676174652063616c6c206661696c6564ddf252ad1be2c89b69c2b068fc378daa952ba7f163c4a11628f55a4df523b3efa26469706673582212209282cb87c6011201ab71f03072c7b2d8adfacd45129149341377fcce8dee3da264736f6c634300080c0033",
  "linkReferences": {},
  "deployedLinkReferences": {}
}