{
  "_format": "hh-sol-artifact-1",
  "contractName": "DataProvider",
  "sourceName": "contracts/DataProvider.sol",
  "abi": [
    {
      "inputs": [
        {
          "internalType": "address",
          "name": "demu_",
          "type": "address"
        },
        {
          "internalType": "address",
          "name": "oracle_",
          "type": "address"
        },
        {
          "internalType": "address",
          "name": "collector_",
          "type": "address"
        },
        {
          "internalType": "address[]",
          "name": "assets_",
          "type": "address[]"
        },
        {
          "internalType": "address",
          "name": "vault_",
          "type": "address"
        }
      ],
      "stateMutability": "nonpayable",
      "type": "constructor"
    },
    {
      "anonymous": false,
      "inputs": [
        {
          "indexed": false,
          "internalType": "uint256",
          "name": "index",
          "type": "uint256"
        }
      ],
      "name": "AssetRemoved",
      "type": "event"
    },
    {
      "anonymous": false,
      "inputs": [
        {
          "indexed": false,
          "internalType": "address",
          "name": "newCollector",
          "type": "address"
        }
      ],
      "name": "FeesCollector",
      "type": "event"
    },
    {
      "anonymous": false,
      "inputs": [
        {
          "indexed": false,
          "internalType": "address",
          "name": "asset",
          "type": "address"
        }
      ],
      "name": "NewAsset",
      "type": "event"
    },
    {
      "anonymous": false,
      "inputs": [
        {
          "indexed": false,
          "internalType": "address",
          "name": "newImplementation",
          "type": "address"
        }
      ],
      "name": "NewImplementation",
      "type": "event"
    },
    {
      "anonymous": false,
      "inputs": [
        {
          "indexed": true,
          "internalType": "address",
          "name": "previousOwner",
          "type": "address"
        },
        {
          "indexed": true,
          "internalType": "address",
          "name": "newOwner",
          "type": "address"
        }
      ],
      "name": "OwnershipTransferred",
      "type": "event"
    },
    {
      "anonymous": false,
      "inputs": [
        {
          "indexed": false,
          "internalType": "address",
          "name": "newOracle",
          "type": "address"
        }
      ],
      "name": "PriceOracle",
      "type": "event"
    },
    {
      "inputs": [],
      "name": "createVault",
      "outputs": [],
      "stateMutability": "nonpayable",
      "type": "function"
    },
    {
      "inputs": [],
      "name": "demu",
      "outputs": [
        {
          "internalType": "address",
          "name": "",
          "type": "address"
        }
      ],
      "stateMutability": "view",
      "type": "function"
    },
    {
      "inputs": [],
      "name": "feesCollector",
      "outputs": [
        {
          "internalType": "address",
          "name": "",
          "type": "address"
        }
      ],
      "stateMutability": "view",
      "type": "function"
    },
    {
      "inputs": [
        {
          "internalType": "address",
          "name": "account",
          "type": "address"
        }
      ],
      "name": "getVaultFor",
      "outputs": [
        {
          "internalType": "address",
          "name": "",
          "type": "address"
        }
      ],
      "stateMutability": "view",
      "type": "function"
    },
    {
      "inputs": [],
      "name": "oracle",
      "outputs": [
        {
          "internalType": "address",
          "name": "",
          "type": "address"
        }
      ],
      "stateMutability": "view",
      "type": "function"
    },
    {
      "inputs": [],
      "name": "owner",
      "outputs": [
        {
          "internalType": "address",
          "name": "",
          "type": "address"
        }
      ],
      "stateMutability": "view",
      "type": "function"
    },
    {
      "inputs": [
        {
          "internalType": "uint256",
          "name": "index",
          "type": "uint256"
        }
      ],
      "name": "removeSupportedAsset",
      "outputs": [],
      "stateMutability": "nonpayable",
      "type": "function"
    },
    {
      "inputs": [],
      "name": "renounceOwnership",
      "outputs": [],
      "stateMutability": "nonpayable",
      "type": "function"
    },
    {
      "inputs": [
        {
          "internalType": "address",
          "name": "newCollector",
          "type": "address"
        }
      ],
      "name": "setFeesCollector",
      "outputs": [],
      "stateMutability": "nonpayable",
      "type": "function"
    },
    {
      "inputs": [
        {
          "internalType": "address",
          "name": "newImplementation",
          "type": "address"
        }
      ],
      "name": "setNewVaultImplementation",
      "outputs": [],
      "stateMutability": "nonpayable",
      "type": "function"
    },
    {
      "inputs": [
        {
          "internalType": "address",
          "name": "newOracle",
          "type": "address"
        }
      ],
      "name": "setPriceOracle",
      "outputs": [],
      "stateMutability": "nonpayable",
      "type": "function"
    },
    {
      "inputs": [
        {
          "internalType": "address",
          "name": "asset",
          "type": "address"
        }
      ],
      "name": "supportNewAsset",
      "outputs": [],
      "stateMutability": "nonpayable",
      "type": "function"
    },
    {
      "inputs": [],
      "name": "supportedAssets",
      "outputs": [
        {
          "internalType": "address[]",
          "name": "",
          "type": "address[]"
        }
      ],
      "stateMutability": "view",
      "type": "function"
    },
    {
      "inputs": [
        {
          "internalType": "address",
          "name": "newOwner",
          "type": "address"
        }
      ],
      "name": "transferOwnership",
      "outputs": [],
      "stateMutability": "nonpayable",
      "type": "function"
    },
    {
      "inputs": [],
      "name": "vaultImplementation",
      "outputs": [
        {
          "internalType": "address",
          "name": "",
          "type": "address"
        }
      ],
      "stateMutability": "view",
      "type": "function"
    }
  ],
  "bytecode": "0x60806040523480156200001157600080fd5b5060405162002a5a38038062002a5a8339818101604052810190620000379190620003b2565b620000576200004b6200017f60201b60201c565b6200018760201b60201c565b84600160006101000a81548173ffffffffffffffffffffffffffffffffffffffff021916908373ffffffffffffffffffffffffffffffffffffffff16021790555083600260006101000a81548173ffffffffffffffffffffffffffffffffffffffff021916908373ffffffffffffffffffffffffffffffffffffffff16021790555082600360006101000a81548173ffffffffffffffffffffffffffffffffffffffff021916908373ffffffffffffffffffffffffffffffffffffffff1602179055508160049080519060200190620001329291906200024b565b5080600560006101000a81548173ffffffffffffffffffffffffffffffffffffffff021916908373ffffffffffffffffffffffffffffffffffffffff160217905550505050505062000569565b600033905090565b60008060009054906101000a900473ffffffffffffffffffffffffffffffffffffffff169050816000806101000a81548173ffffffffffffffffffffffffffffffffffffffff021916908373ffffffffffffffffffffffffffffffffffffffff1602179055508173ffffffffffffffffffffffffffffffffffffffff168173ffffffffffffffffffffffffffffffffffffffff167f8be0079c531659141344cd1fd0a4f28419497f9722a3daafe3b4186f6b6457e060405160405180910390a35050565b828054828255906000526020600020908101928215620002c7579160200282015b82811115620002c65782518260006101000a81548173ffffffffffffffffffffffffffffffffffffffff021916908373ffffffffffffffffffffffffffffffffffffffff160217905550916020019190600101906200026c565b5b509050620002d69190620002da565b5090565b5b80821115620002f5576000816000905550600101620002db565b5090565b6000620003106200030a8462000476565b6200044d565b905080838252602082019050828560208602820111156200033057600080fd5b60005b858110156200036457816200034988826200036e565b84526020840193506020830192505060018101905062000333565b5050509392505050565b6000815190506200037f816200054f565b92915050565b600082601f8301126200039757600080fd5b8151620003a9848260208601620002f9565b91505092915050565b600080600080600060a08688031215620003cb57600080fd5b6000620003db888289016200036e565b9550506020620003ee888289016200036e565b945050604062000401888289016200036e565b935050606086015167ffffffffffffffff8111156200041f57600080fd5b6200042d8882890162000385565b925050608062000440888289016200036e565b9150509295509295909350565b6000620004596200046c565b9050620004678282620004d9565b919050565b6000604051905090565b600067ffffffffffffffff8211156200049457620004936200050f565b5b602082029050602081019050919050565b6000620004b282620004b9565b9050919050565b600073ffffffffffffffffffffffffffffffffffffffff82169050919050565b620004e4826200053e565b810181811067ffffffffffffffff821117156200050657620005056200050f565b5b80604052505050565b7f4e487b7100000000000000000000000000000000000000000000000000000000600052604160045260246000fd5b6000601f19601f8301169050919050565b6200055a81620004a5565b81146200056657600080fd5b50565b6124e180620005796000396000f3fe60806040523480156200001157600080fd5b50600436106200010c5760003560e01c80638da5cb5b11620000a5578063a80ce55c116200006f578063a80ce55c1462000251578063bba48a901462000273578063e27b96fe1462000295578063f2fde38b14620002cb576200010c565b80638da5cb5b14620001cb578063966de33d14620001ed5780639cf160f6146200020f5780639dbc7d921462000231576200010c565b80635d12928b11620000e75780635d12928b1462000171578063715018a6146200017d5780637dc0d1d014620001895780638cfc498c14620001ab576200010c565b806330cfbce51462000111578063373071f21462000131578063530e784f1462000151575b600080fd5b6200012f600480360381019062000129919062001259565b620002eb565b005b6200014f600480360381019062000149919062001201565b62000563565b005b6200016f600480360381019062000169919062001201565b620005ea565b005b6200017b62000671565b005b6200018762000b1e565b005b6200019362000b36565b604051620001a2919062001419565b60405180910390f35b620001c96004803603810190620001c3919062001201565b62000b60565b005b620001d562000c09565b604051620001e4919062001419565b60405180910390f35b620001f762000c32565b60405162000206919062001419565b60405180910390f35b6200021962000c5c565b60405162000228919062001419565b60405180910390f35b6200024f600480360381019062000249919062001201565b62000c86565b005b6200025b62000d0d565b6040516200026a919062001497565b60405180910390f35b6200027d62000e91565b6040516200028c919062001419565b60405180910390f35b620002b36004803603810190620002ad919062001201565b62000ebb565b604051620002c2919062001419565b60405180910390f35b620002e96004803603810190620002e3919062001201565b62000f24565b005b620002f562000faf565b60006004805490509050600060048054806020026020016040519081016040528092919081815260200182805480156200038557602002820191906000526020600020905b8160009054906101000a900473ffffffffffffffffffffffffffffffffffffffff1673ffffffffffffffffffffffffffffffffffffffff16815260200190600101908083116200033a575b5050505050905060006001836200039d919062001623565b67ffffffffffffffff811115620003dd577f4e487b7100000000000000000000000000000000000000000000000000000000600052604160045260246000fd5b6040519080825280602002602001820160405280156200040c5781602001602082028036833780820191505090505b50905060005b838110156200050a576000818610156200042d57816200043d565b6001826200043c9190620015c6565b5b905083818151811062000479577f4e487b7100000000000000000000000000000000000000000000000000000000600052603260045260246000fd5b6020026020010151838381518110620004bb577f4e487b7100000000000000000000000000000000000000000000000000000000600052603260045260246000fd5b602002602001019073ffffffffffffffffffffffffffffffffffffffff16908173ffffffffffffffffffffffffffffffffffffffff168152505050806200050290620016d2565b905062000412565b5080600490805190602001906200052392919062001100565b507f80bd04276b946f13ca22d049d583a03881b8fbdb5d3166069772a97baa33845a8460405162000555919062001543565b60405180910390a150505050565b6200056d62000faf565b80600360006101000a81548173ffffffffffffffffffffffffffffffffffffffff021916908373ffffffffffffffffffffffffffffffffffffffff1602179055507f36500f45d42bde710f51c49fca335108939ea7d631cc825e480095366557aad281604051620005df919062001419565b60405180910390a150565b620005f462000faf565b80600260006101000a81548173ffffffffffffffffffffffffffffffffffffffff021916908373ffffffffffffffffffffffffffffffffffffffff1602179055507f21039fe20f3ae5fdef2b672a459056b9f34cddca8f2645406cf148e2c4f6350f8160405162000666919062001419565b60405180910390a150565b600073ffffffffffffffffffffffffffffffffffffffff16600660006200069762001034565b73ffffffffffffffffffffffffffffffffffffffff1673ffffffffffffffffffffffffffffffffffffffff16815260200190815260200160002060009054906101000a900473ffffffffffffffffffffffffffffffffffffffff1673ffffffffffffffffffffffffffffffffffffffff16146200074b576040517f08c379a00000000000000000000000000000000000000000000000000000000081526004016200074290620014ff565b60405180910390fd5b6000306200075862001034565b6040516024016200076b92919062001436565b6040516020818303038152906040527f485cc955000000000000000000000000000000000000000000000000000000007bffffffffffffffffffffffffffffffffffffffffffffffffffffffff19166020820180517bffffffffffffffffffffffffffffffffffffffffffffffffffffffff838183161783525050505090506000600560009054906101000a900473ffffffffffffffffffffffffffffffffffffffff16826040516200081e906200118f565b6200082b92919062001463565b604051809103906000f08015801562000848573d6000803e3d6000fd5b509050600081905060008173ffffffffffffffffffffffffffffffffffffffff16638da5cb5b6040518163ffffffff1660e01b815260040160206040518083038186803b1580156200089957600080fd5b505afa158015620008ae573d6000803e3d6000fd5b505050506040513d601f19601f82011682018060405250810190620008d491906200122d565b9050620008e062001034565b73ffffffffffffffffffffffffffffffffffffffff168173ffffffffffffffffffffffffffffffffffffffff16148015620009c757503073ffffffffffffffffffffffffffffffffffffffff168273ffffffffffffffffffffffffffffffffffffffff1663b334ed866040518163ffffffff1660e01b815260040160206040518083038186803b1580156200097457600080fd5b505afa15801562000989573d6000803e3d6000fd5b505050506040513d601f19601f82011682018060405250810190620009af91906200122d565b73ffffffffffffffffffffffffffffffffffffffff16145b62000a09576040517f08c379a000000000000000000000000000000000000000000000000000000000815260040162000a0090620014dd565b60405180910390fd5b82600660008373ffffffffffffffffffffffffffffffffffffffff1673ffffffffffffffffffffffffffffffffffffffff16815260200190815260200160002060006101000a81548173ffffffffffffffffffffffffffffffffffffffff021916908373ffffffffffffffffffffffffffffffffffffffff160217905550600160009054906101000a900473ffffffffffffffffffffffffffffffffffffffff1673ffffffffffffffffffffffffffffffffffffffff1663704b6c02846040518263ffffffff1660e01b815260040162000ae4919062001419565b600060405180830381600087803b15801562000aff57600080fd5b505af115801562000b14573d6000803e3d6000fd5b5050505050505050565b62000b2862000faf565b62000b3460006200103c565b565b6000600260009054906101000a900473ffffffffffffffffffffffffffffffffffffffff16905090565b62000b6a62000faf565b6004819080600181540180825580915050600190039060005260206000200160009091909190916101000a81548173ffffffffffffffffffffffffffffffffffffffff021916908373ffffffffffffffffffffffffffffffffffffffff1602179055507fc7d9598af6004de7fa9c489a50a55414c75cfbce9fe56fe46956970744d6bc2c8160405162000bfe919062001419565b60405180910390a150565b60008060009054906101000a900473ffffffffffffffffffffffffffffffffffffffff16905090565b6000600160009054906101000a900473ffffffffffffffffffffffffffffffffffffffff16905090565b6000600360009054906101000a900473ffffffffffffffffffffffffffffffffffffffff16905090565b62000c9062000faf565b80600560006101000a81548173ffffffffffffffffffffffffffffffffffffffff021916908373ffffffffffffffffffffffffffffffffffffffff1602179055507f6b70829fcbe4891157f7a7496f9870927de3c8237adbe9cd39bae09b7382c4098160405162000d02919062001419565b60405180910390a150565b60606000600480549050905060008167ffffffffffffffff81111562000d5c577f4e487b7100000000000000000000000000000000000000000000000000000000600052604160045260246000fd5b60405190808252806020026020018201604052801562000d8b5781602001602082028036833780820191505090505b50905060005b8281101562000e88576004818154811062000dd5577f4e487b7100000000000000000000000000000000000000000000000000000000600052603260045260246000fd5b9060005260206000200160009054906101000a900473ffffffffffffffffffffffffffffffffffffffff1682828151811062000e3a577f4e487b7100000000000000000000000000000000000000000000000000000000600052603260045260246000fd5b602002602001019073ffffffffffffffffffffffffffffffffffffffff16908173ffffffffffffffffffffffffffffffffffffffff16815250508062000e8090620016d2565b905062000d91565b50809250505090565b6000600560009054906101000a900473ffffffffffffffffffffffffffffffffffffffff16905090565b6000600660008373ffffffffffffffffffffffffffffffffffffffff1673ffffffffffffffffffffffffffffffffffffffff16815260200190815260200160002060009054906101000a900473ffffffffffffffffffffffffffffffffffffffff169050919050565b62000f2e62000faf565b600073ffffffffffffffffffffffffffffffffffffffff168173ffffffffffffffffffffffffffffffffffffffff16141562000fa1576040517f08c379a000000000000000000000000000000000000000000000000000000000815260040162000f9890620014bb565b60405180910390fd5b62000fac816200103c565b50565b62000fb962001034565b73ffffffffffffffffffffffffffffffffffffffff1662000fd962000c09565b73ffffffffffffffffffffffffffffffffffffffff161462001032576040517f08c379a0000000000000000000000000000000000000000000000000000000008152600401620010299062001521565b60405180910390fd5b565b600033905090565b60008060009054906101000a900473ffffffffffffffffffffffffffffffffffffffff169050816000806101000a81548173ffffffffffffffffffffffffffffffffffffffff021916908373ffffffffffffffffffffffffffffffffffffffff1602179055508173ffffffffffffffffffffffffffffffffffffffff168173ffffffffffffffffffffffffffffffffffffffff167f8be0079c531659141344cd1fd0a4f28419497f9722a3daafe3b4186f6b6457e060405160405180910390a35050565b8280548282559060005260206000209081019282156200117c579160200282015b828111156200117b5782518260006101000a81548173ffffffffffffffffffffffffffffffffffffffff021916908373ffffffffffffffffffffffffffffffffffffffff1602179055509160200191906001019062001121565b5b5090506200118b91906200119d565b5090565b610c4d806200185f83390190565b5b80821115620011b85760008160009055506001016200119e565b5090565b600081359050620011cd816200182a565b92915050565b600081519050620011e4816200182a565b92915050565b600081359050620011fb8162001844565b92915050565b6000602082840312156200121457600080fd5b60006200122484828501620011bc565b91505092915050565b6000602082840312156200124057600080fd5b60006200125084828501620011d3565b91505092915050565b6000602082840312156200126c57600080fd5b60006200127c84828501620011ea565b91505092915050565b60006200129383836200129f565b60208301905092915050565b620012aa816200165e565b82525050565b620012bb816200165e565b82525050565b6000620012ce8262001570565b620012da818562001593565b9350620012e78362001560565b8060005b838110156200131e57815162001302888262001285565b97506200130f8362001586565b925050600181019050620012eb565b5085935050505092915050565b600062001338826200157b565b620013448185620015a4565b9350620013568185602086016200169c565b62001361816200174f565b840191505092915050565b60006200137b602683620015b5565b9150620013888262001760565b604082019050919050565b6000620013a2601483620015b5565b9150620013af82620017af565b602082019050919050565b6000620013c9601983620015b5565b9150620013d682620017d8565b602082019050919050565b6000620013f0602083620015b5565b9150620013fd8262001801565b602082019050919050565b620014138162001692565b82525050565b6000602082019050620014306000830184620012b0565b92915050565b60006040820190506200144d6000830185620012b0565b6200145c6020830184620012b0565b9392505050565b60006040820190506200147a6000830185620012b0565b81810360208301526200148e81846200132b565b90509392505050565b60006020820190508181036000830152620014b38184620012c1565b905092915050565b60006020820190508181036000830152620014d6816200136c565b9050919050565b60006020820190508181036000830152620014f88162001393565b9050919050565b600060208201905081810360008301526200151a81620013ba565b9050919050565b600060208201905081810360008301526200153c81620013e1565b9050919050565b60006020820190506200155a600083018462001408565b92915050565b6000819050602082019050919050565b600081519050919050565b600081519050919050565b6000602082019050919050565b600082825260208201905092915050565b600082825260208201905092915050565b600082825260208201905092915050565b6000620015d38262001692565b9150620015e08362001692565b9250827fffffffffffffffffffffffffffffffffffffffffffffffffffffffffffffffff0382111562001618576200161762001720565b5b828201905092915050565b6000620016308262001692565b91506200163d8362001692565b92508282101562001653576200165262001720565b5b828203905092915050565b60006200166b8262001672565b9050919050565b600073ffffffffffffffffffffffffffffffffffffffff82169050919050565b6000819050919050565b60005b83811015620016bc5780820151818401526020810190506200169f565b83811115620016cc576000848401525b50505050565b6000620016df8262001692565b91507fffffffffffffffffffffffffffffffffffffffffffffffffffffffffffffffff82141562001715576200171462001720565b5b600182019050919050565b7f4e487b7100000000000000000000000000000000000000000000000000000000600052601160045260246000fd5b6000601f19601f8301169050919050565b7f4f776e61626c653a206e6577206f776e657220697320746865207a65726f206160008201527f6464726573730000000000000000000000000000000000000000000000000000602082015250565b7f5478207761732074616d70657265642077697468000000000000000000000000600082015250565b7f4461746150726f76696465723a206e6f7420616c6c6f77656400000000000000600082015250565b7f4f776e61626c653a2063616c6c6572206973206e6f7420746865206f776e6572600082015250565b62001835816200165e565b81146200184157600080fd5b50565b6200184f8162001692565b81146200185b57600080fd5b5056fe608060405260405162000c4d38038062000c4d8339818101604052810190620000299190620003f1565b6200003d828260006200004560201b60201c565b5050620007bb565b62000056836200008860201b60201c565b600082511180620000645750805b156200008357620000818383620000df60201b620000371760201c565b505b505050565b62000099816200011560201b60201c565b8073ffffffffffffffffffffffffffffffffffffffff167fbc7cd75a20ee27fd9adebab32041f755214dbc6bffa90cc0225b39da2e5c2d3b60405160405180910390a250565b60606200010d838360405180606001604052806027815260200162000c2660279139620001eb60201b60201c565b905092915050565b6200012b81620002cf60201b620000641760201c565b6200016d576040517f08c379a000000000000000000000000000000000000000000000000000000000815260040162000164906200054e565b60405180910390fd5b80620001a77f360894a13ba1a3210667c828492db98dca3e2076cc3735a920a3ca505d382bbc60001b620002f260201b620000871760201c565b60000160006101000a81548173ffffffffffffffffffffffffffffffffffffffff021916908373ffffffffffffffffffffffffffffffffffffffff16021790555050565b6060620001fe84620002cf60201b60201c565b62000240576040517f08c379a0000000000000000000000000000000000000000000000000000000008152600401620002379062000570565b60405180910390fd5b6000808573ffffffffffffffffffffffffffffffffffffffff16856040516200026a919062000511565b600060405180830381855af49150503d8060008114620002a7576040519150601f19603f3d011682016040523d82523d6000602084013e620002ac565b606091505b5091509150620002c4828286620002fc60201b60201c565b925050509392505050565b6000808273ffffffffffffffffffffffffffffffffffffffff163b119050919050565b6000819050919050565b606083156200030e5782905062000361565b600083511115620003225782518084602001fd5b816040517f08c379a00000000000000000000000000000000000000000000000000000000081526004016200035891906200052a565b60405180910390fd5b9392505050565b60006200037f6200037984620005bb565b62000592565b9050828152602081018484840111156200039857600080fd5b620003a584828562000657565b509392505050565b600081519050620003be81620007a1565b92915050565b600082601f830112620003d657600080fd5b8151620003e884826020860162000368565b91505092915050565b600080604083850312156200040557600080fd5b60006200041585828601620003ad565b925050602083015167ffffffffffffffff8111156200043357600080fd5b6200044185828601620003c4565b9150509250929050565b60006200045882620005f1565b62000464818562000607565b93506200047681856020860162000657565b80840191505092915050565b60006200048f82620005fc565b6200049b818562000612565b9350620004ad81856020860162000657565b620004b881620006f2565b840191505092915050565b6000620004d2602d8362000612565b9150620004df8262000703565b604082019050919050565b6000620004f960268362000612565b9150620005068262000752565b604082019050919050565b60006200051f82846200044b565b915081905092915050565b6000602082019050818103600083015262000546818462000482565b905092915050565b600060208201905081810360008301526200056981620004c3565b9050919050565b600060208201905081810360008301526200058b81620004ea565b9050919050565b60006200059e620005b1565b9050620005ac82826200068d565b919050565b6000604051905090565b600067ffffffffffffffff821115620005d957620005d8620006c3565b5b620005e482620006f2565b9050602081019050919050565b600081519050919050565b600081519050919050565b600081905092915050565b600082825260208201905092915050565b6000620006308262000637565b9050919050565b600073ffffffffffffffffffffffffffffffffffffffff82169050919050565b60005b83811015620006775780820151818401526020810190506200065a565b8381111562000687576000848401525b50505050565b6200069882620006f2565b810181811067ffffffffffffffff82111715620006ba57620006b9620006c3565b5b80604052505050565b7f4e487b7100000000000000000000000000000000000000000000000000000000600052604160045260246000fd5b6000601f19601f8301169050919050565b7f455243313936373a206e657720696d706c656d656e746174696f6e206973206e60008201527f6f74206120636f6e747261637400000000000000000000000000000000000000602082015250565b7f416464726573733a2064656c65676174652063616c6c20746f206e6f6e2d636f60008201527f6e74726163740000000000000000000000000000000000000000000000000000602082015250565b620007ac8162000623565b8114620007b857600080fd5b50565b61045b80620007cb6000396000f3fe6080604052366100135761001161001d565b005b61001b61001d565b005b610025610091565b610035610030610093565b6100a2565b565b606061005c83836040518060600160405280602781526020016103ff602791396100c8565b905092915050565b6000808273ffffffffffffffffffffffffffffffffffffffff163b119050919050565b6000819050919050565b565b600061009d610195565b905090565b3660008037600080366000845af43d6000803e80600081146100c3573d6000f35b3d6000fd5b60606100d384610064565b610112576040517f08c379a000000000000000000000000000000000000000000000000000000000815260040161010990610319565b60405180910390fd5b6000808573ffffffffffffffffffffffffffffffffffffffff168560405161013a91906102e0565b600060405180830381855af49150503d8060008114610175576040519150601f19603f3d011682016040523d82523d6000602084013e61017a565b606091505b509150915061018a8282866101ec565b925050509392505050565b60006101c37f360894a13ba1a3210667c828492db98dca3e2076cc3735a920a3ca505d382bbc60001b610087565b60000160009054906101000a900473ffffffffffffffffffffffffffffffffffffffff16905090565b606083156101fc5782905061024c565b60008351111561020f5782518084602001fd5b816040517f08c379a000000000000000000000000000000000000000000000000000000000815260040161024391906102f7565b60405180910390fd5b9392505050565b600061025e82610339565b610268818561034f565b935061027881856020860161036b565b80840191505092915050565b600061028f82610344565b610299818561035a565b93506102a981856020860161036b565b6102b28161039e565b840191505092915050565b60006102ca60268361035a565b91506102d5826103af565b604082019050919050565b60006102ec8284610253565b915081905092915050565b600060208201905081810360008301526103118184610284565b905092915050565b60006020820190508181036000830152610332816102bd565b9050919050565b600081519050919050565b600081519050919050565b600081905092915050565b600082825260208201905092915050565b60005b8381101561038957808201518184015260208101905061036e565b83811115610398576000848401525b50505050565b6000601f19601f8301169050919050565b7f416464726573733a2064656c65676174652063616c6c20746f206e6f6e2d636f60008201527f6e7472616374000000000000000000000000000000000000000000000000000060208201525056fe416464726573733a206c6f772d6c6576656c2064656c65676174652063616c6c206661696c6564a26469706673582212203d815c4ff40d66a1bf2bdd9c89736408aeef1858ae02b987de6777841c104c4064736f6c63430008040033416464726573733a206c6f772d6c6576656c2064656c65676174652063616c6c206661696c6564a26469706673582212204c3cf900dcc6b7f3f593e4e8b23a10cea3bd0694b3b0c40904d8ea21db42b45664736f6c63430008040033",
  "linkReferences": {},
  "deployedLinkReferences": {}
}