{
  "_format": "hh-sol-artifact-1",
  "contractName": "DataProvider",
  "sourceName": "contracts/DataProvider.sol",
  "abi": [
    {
      "inputs": [
        {
          "internalType": "address",
          "name": "oracle_",
          "type": "address"
        },
        {
          "internalType": "address",
          "name": "collector_",
          "type": "address"
        },
        {
          "internalType": "address[]",
          "name": "assets_",
          "type": "address[]"
        }
      ],
      "stateMutability": "nonpayable",
      "type": "constructor"
    },
    {
      "anonymous": false,
      "inputs": [
        {
          "indexed": false,
          "internalType": "address",
          "name": "asset",
          "type": "address"
        }
      ],
      "name": "AssetRemoved",
      "type": "event"
    },
    {
      "anonymous": false,
      "inputs": [
        {
          "indexed": false,
          "internalType": "address",
          "name": "newCollector",
          "type": "address"
        }
      ],
      "name": "FeesCollector",
      "type": "event"
    },
    {
      "anonymous": false,
      "inputs": [
        {
          "indexed": false,
          "internalType": "address",
          "name": "asset",
          "type": "address"
        }
      ],
      "name": "NewAsset",
      "type": "event"
    },
    {
      "anonymous": false,
      "inputs": [
        {
          "indexed": true,
          "internalType": "address",
          "name": "previousOwner",
          "type": "address"
        },
        {
          "indexed": true,
          "internalType": "address",
          "name": "newOwner",
          "type": "address"
        }
      ],
      "name": "OwnershipTransferred",
      "type": "event"
    },
    {
      "anonymous": false,
      "inputs": [
        {
          "indexed": false,
          "internalType": "address",
          "name": "newOracle",
          "type": "address"
        }
      ],
      "name": "PriceOracle",
      "type": "event"
    },
    {
      "inputs": [],
      "name": "bpsDenominator",
      "outputs": [
        {
          "internalType": "uint256",
          "name": "",
          "type": "uint256"
        }
      ],
      "stateMutability": "pure",
      "type": "function"
    },
    {
      "inputs": [],
      "name": "feesCollector",
      "outputs": [
        {
          "internalType": "address",
          "name": "",
          "type": "address"
        }
      ],
      "stateMutability": "view",
      "type": "function"
    },
    {
      "inputs": [],
      "name": "oracle",
      "outputs": [
        {
          "internalType": "address",
          "name": "",
          "type": "address"
        }
      ],
      "stateMutability": "view",
      "type": "function"
    },
    {
      "inputs": [],
      "name": "owner",
      "outputs": [
        {
          "internalType": "address",
          "name": "",
          "type": "address"
        }
      ],
      "stateMutability": "view",
      "type": "function"
    },
    {
      "inputs": [
        {
          "internalType": "address",
          "name": "asset",
          "type": "address"
        }
      ],
      "name": "removeSupportedAsset",
      "outputs": [],
      "stateMutability": "nonpayable",
      "type": "function"
    },
    {
      "inputs": [],
      "name": "renounceOwnership",
      "outputs": [],
      "stateMutability": "nonpayable",
      "type": "function"
    },
    {
      "inputs": [
        {
          "internalType": "address",
          "name": "newCollector",
          "type": "address"
        }
      ],
      "name": "setFeesCollector",
      "outputs": [],
      "stateMutability": "nonpayable",
      "type": "function"
    },
    {
      "inputs": [
        {
          "internalType": "address",
          "name": "newOracle",
          "type": "address"
        }
      ],
      "name": "setPriceOracle",
      "outputs": [],
      "stateMutability": "nonpayable",
      "type": "function"
    },
    {
      "inputs": [
        {
          "internalType": "address",
          "name": "asset",
          "type": "address"
        }
      ],
      "name": "supportNewAsset",
      "outputs": [],
      "stateMutability": "nonpayable",
      "type": "function"
    },
    {
      "inputs": [],
      "name": "supportedAssets",
      "outputs": [
        {
          "internalType": "address[]",
          "name": "",
          "type": "address[]"
        }
      ],
      "stateMutability": "view",
      "type": "function"
    },
    {
      "inputs": [
        {
          "internalType": "address",
          "name": "newOwner",
          "type": "address"
        }
      ],
      "name": "transferOwnership",
      "outputs": [],
      "stateMutability": "nonpayable",
      "type": "function"
    },
    {
      "inputs": [
        {
          "internalType": "address[]",
          "name": "assets",
          "type": "address[]"
        },
        {
          "components": [
            {
              "internalType": "uint256",
              "name": "mintLTV",
              "type": "uint256"
            },
            {
              "internalType": "uint256",
              "name": "liquidationLTV",
              "type": "uint256"
            },
            {
              "internalType": "uint256",
              "name": "liquidationIncentive",
              "type": "uint256"
            },
            {
              "internalType": "uint256",
              "name": "protocolCut",
              "type": "uint256"
            }
          ],
          "internalType": "struct DataProvider.AssetConf[]",
          "name": "confs",
          "type": "tuple[]"
        }
      ],
      "name": "updateAssetConfs",
      "outputs": [],
      "stateMutability": "nonpayable",
      "type": "function"
    }
  ],
  "bytecode": "0x60806040523480156200001157600080fd5b5060405162000ccf38038062000ccf8339810160408190526200003491620001c8565b6200003f33620000d3565b600180546001600160a01b038086166001600160a01b0319928316179092556002805492851692909116919091179055805160005b81811015620000c857620000b4838281518110620000965762000096620002c2565b602002602001015160036200012360201b620005321790919060201c565b50620000c081620002d8565b905062000074565b505050505062000302565b600080546001600160a01b038381166001600160a01b0319831681178455604051919092169283917f8be0079c531659141344cd1fd0a4f28419497f9722a3daafe3b4186f6b6457e09190a35050565b60006200013a836001600160a01b03841662000143565b90505b92915050565b60008181526001830160205260408120546200018c575081546001818101845560008481526020808220909301849055845484825282860190935260409020919091556200013d565b5060006200013d565b80516001600160a01b0381168114620001ad57600080fd5b919050565b634e487b7160e01b600052604160045260246000fd5b600080600060608486031215620001de57600080fd5b620001e98462000195565b92506020620001fa81860162000195565b60408601519093506001600160401b03808211156200021857600080fd5b818701915087601f8301126200022d57600080fd5b815181811115620002425762000242620001b2565b8060051b604051601f19603f830116810181811085821117156200026a576200026a620001b2565b60405291825284820192508381018501918a8311156200028957600080fd5b938501935b82851015620002b257620002a28562000195565b845293850193928501926200028e565b8096505050505050509250925092565b634e487b7160e01b600052603260045260246000fd5b6000600019821415620002fb57634e487b7160e01b600052601160045260246000fd5b5060010190565b6109bd80620003126000396000f3fe608060405234801561001057600080fd5b50600436106100b45760003560e01c80638da5cb5b116100715780638da5cb5b1461013257806392c86d9a146101435780639cf160f614610156578063a80ce55c14610167578063f2fde38b1461017c578063f60632a01461018f57600080fd5b80631c46bc6f146100b9578063373071f2146100ce578063530e784f146100e1578063715018a6146100f45780637dc0d1d0146100fc5780638cfc498c1461011f575b600080fd5b6100cc6100c73660046107c1565b61019f565b005b6100cc6100dc3660046107c1565b6101ed565b6100cc6100ef3660046107c1565b610240565b6100cc610293565b6001546001600160a01b03165b60405161011691906107ea565b60405180910390f35b6100cc61012d3660046107c1565b6102a7565b6000546001600160a01b0316610109565b6100cc6101513660046107fe565b6102ea565b6002546001600160a01b0316610109565b61016f6104a3565b60405161011691906108c6565b6100cc61018a3660046107c1565b6104b4565b6040516103e88152602001610116565b6101a7610550565b6101b26003826105aa565b507f37803e2125c48ee96c38ddf04e826daf335b0e1603579040fd275aba6d06b6fc816040516101e291906107ea565b60405180910390a150565b6101f5610550565b600280546001600160a01b0319166001600160a01b0383161790556040517f36500f45d42bde710f51c49fca335108939ea7d631cc825e480095366557aad2906101e29083906107ea565b610248610550565b600180546001600160a01b0319166001600160a01b0383161790556040517f21039fe20f3ae5fdef2b672a459056b9f34cddca8f2645406cf148e2c4f6350f906101e29083906107ea565b61029b610550565b6102a560006105bf565b565b6102af610550565b6102ba600382610532565b507fc7d9598af6004de7fa9c489a50a55414c75cfbce9fe56fe46956970744d6bc2c816040516101e291906107ea565b6102f2610550565b8260005b8181101561049b5783838281811061031057610310610913565b905060800201600001356005600088888581811061033057610330610913565b905060200201602081019061034591906107c1565b6001600160a01b0316815260208101919091526040016000205583838281811061037157610371610913565b905060800201602001356005600088888581811061039157610391610913565b90506020020160208101906103a691906107c1565b6001600160a01b031681526020810191909152604001600020600101558383828181106103d5576103d5610913565b90506080020160400135600560008888858181106103f5576103f5610913565b905060200201602081019061040a91906107c1565b6001600160a01b0316815260208101919091526040016000206002015583838281811061043957610439610913565b905060800201606001356005600088888581811061045957610459610913565b905060200201602081019061046e91906107c1565b6001600160a01b031681526020810191909152604001600020600301556104948161093f565b90506102f6565b505050505050565b60606104af600361060f565b905090565b6104bc610550565b6001600160a01b0381166105265760405162461bcd60e51b815260206004820152602660248201527f4f776e61626c653a206e6577206f776e657220697320746865207a65726f206160448201526564647265737360d01b60648201526084015b60405180910390fd5b61052f816105bf565b50565b6000610547836001600160a01b038416610623565b90505b92915050565b6000546001600160a01b031633146102a55760405162461bcd60e51b815260206004820181905260248201527f4f776e61626c653a2063616c6c6572206973206e6f7420746865206f776e6572604482015260640161051d565b6000610547836001600160a01b038416610672565b600080546001600160a01b038381166001600160a01b0319831681178455604051919092169283917f8be0079c531659141344cd1fd0a4f28419497f9722a3daafe3b4186f6b6457e09190a35050565b6060600061061c83610765565b9392505050565b600081815260018301602052604081205461066a5750815460018181018455600084815260208082209093018490558454848252828601909352604090209190915561054a565b50600061054a565b6000818152600183016020526040812054801561075b57600061069660018361095a565b85549091506000906106aa9060019061095a565b905081811461070f5760008660000182815481106106ca576106ca610913565b90600052602060002001549050808760000184815481106106ed576106ed610913565b6000918252602080832090910192909255918252600188019052604090208390555b855486908061072057610720610971565b60019003818190600052602060002001600090559055856001016000868152602001908152602001600020600090556001935050505061054a565b600091505061054a565b6060816000018054806020026020016040519081016040528092919081815260200182805480156107b557602002820191906000526020600020905b8154815260200190600101908083116107a1575b50505050509050919050565b6000602082840312156107d357600080fd5b81356001600160a01b038116811461061c57600080fd5b6001600160a01b0391909116815260200190565b6000806000806040858703121561081457600080fd5b843567ffffffffffffffff8082111561082c57600080fd5b818701915087601f83011261084057600080fd5b81358181111561084f57600080fd5b8860208260051b850101111561086457600080fd5b60209283019650945090860135908082111561087f57600080fd5b818701915087601f83011261089357600080fd5b8135818111156108a257600080fd5b8860208260071b85010111156108b757600080fd5b95989497505060200194505050565b6020808252825182820181905260009190848201906040850190845b818110156109075783516001600160a01b0316835292840192918401916001016108e2565b50909695505050505050565b634e487b7160e01b600052603260045260246000fd5b634e487b7160e01b600052601160045260246000fd5b600060001982141561095357610953610929565b5060010190565b60008282101561096c5761096c610929565b500390565b634e487b7160e01b600052603160045260246000fdfea26469706673582212203d80f383a6ed57786b7f03a0a98dd8f9d19452bf15eca3eb26860322ff3fe09b64736f6c634300080c0033",
  "linkReferences": {},
  "deployedLinkReferences": {}
}