{
  "_format": "hh-sol-artifact-1",
  "contractName": "DataProvider",
  "sourceName": "contracts/DataProvider.sol",
  "abi": [
    {
      "inputs": [
        {
          "internalType": "address",
          "name": "oracle_",
          "type": "address"
        },
        {
          "internalType": "address",
          "name": "collector_",
          "type": "address"
        },
        {
          "internalType": "address[]",
          "name": "assets_",
          "type": "address[]"
        }
      ],
      "stateMutability": "nonpayable",
      "type": "constructor"
    },
    {
      "anonymous": false,
      "inputs": [
        {
          "indexed": false,
          "internalType": "address",
          "name": "asset",
          "type": "address"
        }
      ],
      "name": "AssetRemoved",
      "type": "event"
    },
    {
      "anonymous": false,
      "inputs": [
        {
          "indexed": false,
          "internalType": "address",
          "name": "newCollector",
          "type": "address"
        }
      ],
      "name": "FeesCollector",
      "type": "event"
    },
    {
      "anonymous": false,
      "inputs": [
        {
          "indexed": false,
          "internalType": "address",
          "name": "asset",
          "type": "address"
        }
      ],
      "name": "NewAsset",
      "type": "event"
    },
    {
      "anonymous": false,
      "inputs": [
        {
          "indexed": true,
          "internalType": "address",
          "name": "previousOwner",
          "type": "address"
        },
        {
          "indexed": true,
          "internalType": "address",
          "name": "newOwner",
          "type": "address"
        }
      ],
      "name": "OwnershipTransferred",
      "type": "event"
    },
    {
      "anonymous": false,
      "inputs": [
        {
          "indexed": false,
          "internalType": "address",
          "name": "newOracle",
          "type": "address"
        }
      ],
      "name": "PriceOracle",
      "type": "event"
    },
    {
      "inputs": [],
      "name": "bpsDenominator",
      "outputs": [
        {
          "internalType": "uint256",
          "name": "",
          "type": "uint256"
        }
      ],
      "stateMutability": "pure",
      "type": "function"
    },
    {
      "inputs": [],
      "name": "feesCollector",
      "outputs": [
        {
          "internalType": "address",
          "name": "",
          "type": "address"
        }
      ],
      "stateMutability": "view",
      "type": "function"
    },
    {
      "inputs": [],
      "name": "oracle",
      "outputs": [
        {
          "internalType": "address",
          "name": "",
          "type": "address"
        }
      ],
      "stateMutability": "view",
      "type": "function"
    },
    {
      "inputs": [],
      "name": "owner",
      "outputs": [
        {
          "internalType": "address",
          "name": "",
          "type": "address"
        }
      ],
      "stateMutability": "view",
      "type": "function"
    },
    {
      "inputs": [
        {
          "internalType": "address",
          "name": "asset",
          "type": "address"
        }
      ],
      "name": "removeSupportedAsset",
      "outputs": [],
      "stateMutability": "nonpayable",
      "type": "function"
    },
    {
      "inputs": [],
      "name": "renounceOwnership",
      "outputs": [],
      "stateMutability": "nonpayable",
      "type": "function"
    },
    {
      "inputs": [
        {
          "internalType": "address",
          "name": "newCollector",
          "type": "address"
        }
      ],
      "name": "setFeesCollector",
      "outputs": [],
      "stateMutability": "nonpayable",
      "type": "function"
    },
    {
      "inputs": [
        {
          "internalType": "address",
          "name": "newOracle",
          "type": "address"
        }
      ],
      "name": "setPriceOracle",
      "outputs": [],
      "stateMutability": "nonpayable",
      "type": "function"
    },
    {
      "inputs": [
        {
          "internalType": "address",
          "name": "asset",
          "type": "address"
        }
      ],
      "name": "supportNewAsset",
      "outputs": [],
      "stateMutability": "nonpayable",
      "type": "function"
    },
    {
      "inputs": [],
      "name": "supportedAssets",
      "outputs": [
        {
          "internalType": "address[]",
          "name": "",
          "type": "address[]"
        }
      ],
      "stateMutability": "view",
      "type": "function"
    },
    {
      "inputs": [
        {
          "internalType": "address",
          "name": "newOwner",
          "type": "address"
        }
      ],
      "name": "transferOwnership",
      "outputs": [],
      "stateMutability": "nonpayable",
      "type": "function"
    },
    {
      "inputs": [
        {
          "internalType": "address[]",
          "name": "assets",
          "type": "address[]"
        },
        {
          "components": [
            {
              "internalType": "uint256",
              "name": "mintLTV",
              "type": "uint256"
            },
            {
              "internalType": "uint256",
              "name": "liquidationLTV",
              "type": "uint256"
            },
            {
              "internalType": "uint256",
              "name": "liquidationIncentive",
              "type": "uint256"
            },
            {
              "internalType": "uint256",
              "name": "protocolCut",
              "type": "uint256"
            }
          ],
          "internalType": "struct DataProvider.AssetConf[]",
          "name": "confs",
          "type": "tuple[]"
        }
      ],
      "name": "updateAssetConfs",
      "outputs": [],
      "stateMutability": "nonpayable",
      "type": "function"
    }
  ],
  "bytecode": "0x60806040523480156200001157600080fd5b5060405162000d2838038062000d288339810160408190526200003491620001be565b6200003f33620000df565b600180546001600160a01b038086166001600160a01b0319928316179092556002805492851692909116919091179055805160005b81811015620000d457620000c0838281518110620000a257634e487b7160e01b600052603260045260246000fd5b602002602001015160036200012f60201b620005a21790919060201c565b50620000cc81620002ba565b905062000074565b5050505050620002f8565b600080546001600160a01b038381166001600160a01b0319831681178455604051919092169283917f8be0079c531659141344cd1fd0a4f28419497f9722a3daafe3b4186f6b6457e09190a35050565b600062000146836001600160a01b0384166200014f565b90505b92915050565b6000818152600183016020526040812054620001985750815460018181018455600084815260208082209093018490558454848252828601909352604090209190915562000149565b50600062000149565b80516001600160a01b0381168114620001b957600080fd5b919050565b600080600060608486031215620001d3578283fd5b620001de84620001a1565b92506020620001ef818601620001a1565b60408601519093506001600160401b03808211156200020c578384fd5b818701915087601f83011262000220578384fd5b815181811115620002355762000235620002e2565b8060051b604051601f19603f830116810181811085821117156200025d576200025d620002e2565b604052828152858101935084860182860187018c10156200027c578788fd5b8795505b83861015620002a9576200029481620001a1565b85526001959095019493860193860162000280565b508096505050505050509250925092565b6000600019821415620002db57634e487b7160e01b81526011600452602481fd5b5060010190565b634e487b7160e01b600052604160045260246000fd5b610a2080620003086000396000f3fe608060405234801561001057600080fd5b50600436106100b45760003560e01c80638da5cb5b116100715780638da5cb5b1461013257806392c86d9a146101435780639cf160f614610156578063a80ce55c14610167578063f2fde38b1461017c578063f60632a01461018f57600080fd5b80631c46bc6f146100b9578063373071f2146100ce578063530e784f146100e1578063715018a6146100f45780637dc0d1d0146100fc5780638cfc498c1461011f575b600080fd5b6100cc6100c736600461085b565b61019f565b005b6100cc6100dc36600461085b565b6101ed565b6100cc6100ef36600461085b565b610240565b6100cc610293565b6001546001600160a01b03165b6040516101169190610941565b60405180910390f35b6100cc61012d36600461085b565b6102a7565b6000546001600160a01b0316610109565b6100cc610151366004610882565b6102ea565b6002546001600160a01b0316610109565b61016f610513565b6040516101169190610955565b6100cc61018a36600461085b565b610524565b6040516103e88152602001610116565b6101a76105c0565b6101b260038261061a565b507f37803e2125c48ee96c38ddf04e826daf335b0e1603579040fd275aba6d06b6fc816040516101e29190610941565b60405180910390a150565b6101f56105c0565b600280546001600160a01b0319166001600160a01b0383161790556040517f36500f45d42bde710f51c49fca335108939ea7d631cc825e480095366557aad2906101e2908390610941565b6102486105c0565b600180546001600160a01b0319166001600160a01b0383161790556040517f21039fe20f3ae5fdef2b672a459056b9f34cddca8f2645406cf148e2c4f6350f906101e2908390610941565b61029b6105c0565b6102a5600061062f565b565b6102af6105c0565b6102ba6003826105a2565b507fc7d9598af6004de7fa9c489a50a55414c75cfbce9fe56fe46956970744d6bc2c816040516101e29190610941565b6102f26105c0565b8260005b8181101561050b5783838281811061031e57634e487b7160e01b600052603260045260246000fd5b905060800201600001356005600088888581811061034c57634e487b7160e01b600052603260045260246000fd5b9050602002016020810190610361919061085b565b6001600160a01b0316815260208101919091526040016000205583838281811061039b57634e487b7160e01b600052603260045260246000fd5b90506080020160200135600560008888858181106103c957634e487b7160e01b600052603260045260246000fd5b90506020020160208101906103de919061085b565b6001600160a01b0316815260208101919091526040016000206001015583838281811061041b57634e487b7160e01b600052603260045260246000fd5b905060800201604001356005600088888581811061044957634e487b7160e01b600052603260045260246000fd5b905060200201602081019061045e919061085b565b6001600160a01b0316815260208101919091526040016000206002015583838281811061049b57634e487b7160e01b600052603260045260246000fd5b90506080020160600135600560008888858181106104c957634e487b7160e01b600052603260045260246000fd5b90506020020160208101906104de919061085b565b6001600160a01b03168152602081019190915260400160002060030155610504816109b9565b90506102f6565b505050505050565b606061051f600361067f565b905090565b61052c6105c0565b6001600160a01b0381166105965760405162461bcd60e51b815260206004820152602660248201527f4f776e61626c653a206e6577206f776e657220697320746865207a65726f206160448201526564647265737360d01b60648201526084015b60405180910390fd5b61059f8161062f565b50565b60006105b7836001600160a01b038416610693565b90505b92915050565b6000546001600160a01b031633146102a55760405162461bcd60e51b815260206004820181905260248201527f4f776e61626c653a2063616c6c6572206973206e6f7420746865206f776e6572604482015260640161058d565b60006105b7836001600160a01b0384166106e2565b600080546001600160a01b038381166001600160a01b0319831681178455604051919092169283917f8be0079c531659141344cd1fd0a4f28419497f9722a3daafe3b4186f6b6457e09190a35050565b6060600061068c836107ff565b9392505050565b60008181526001830160205260408120546106da575081546001818101845560008481526020808220909301849055845484825282860190935260409020919091556105ba565b5060006105ba565b600081815260018301602052604081205480156107f55760006107066001836109a2565b855490915060009061071a906001906109a2565b905081811461079b57600086600001828154811061074857634e487b7160e01b600052603260045260246000fd5b906000526020600020015490508087600001848154811061077957634e487b7160e01b600052603260045260246000fd5b6000918252602080832090910192909255918252600188019052604090208390555b85548690806107ba57634e487b7160e01b600052603160045260246000fd5b6001900381819060005260206000200160009055905585600101600086815260200190815260200160002060009055600193505050506105ba565b60009150506105ba565b60608160000180548060200260200160405190810160405280929190818152602001828054801561084f57602002820191906000526020600020905b81548152602001906001019080831161083b575b50505050509050919050565b60006020828403121561086c578081fd5b81356001600160a01b038116811461068c578182fd5b60008060008060408587031215610897578283fd5b843567ffffffffffffffff808211156108ae578485fd5b818701915087601f8301126108c1578485fd5b8135818111156108cf578586fd5b8860208260051b85010111156108e3578586fd5b6020928301965094509086013590808211156108fd578384fd5b818701915087601f830112610910578384fd5b81358181111561091e578485fd5b8860208260071b8501011115610932578485fd5b95989497505060200194505050565b6001600160a01b0391909116815260200190565b6020808252825182820181905260009190848201906040850190845b818110156109965783516001600160a01b031683529284019291840191600101610971565b50909695505050505050565b6000828210156109b4576109b46109d4565b500390565b60006000198214156109cd576109cd6109d4565b5060010190565b634e487b7160e01b600052601160045260246000fdfea26469706673582212201ce55073a15f5d7bfc7a5bdb2eb13282fba05225485457628e761f0b7651dd8e64736f6c63430008040033",
  "linkReferences": {},
  "deployedLinkReferences": {}
}